:020000040800F2
:10000000C0310020010100080DFB0008C1DC000820
:1000100009FB0008DDC60008C33501080000000028
:10002000000000000000000000000000BD0A010800
:10003000B1CD000800000000A1FB0008D10B0108B1
:100040001B0100081B0100081B01000899FF0008A4
:100050001B0100081B0100081B0100081B01000810
:100060001B0100081B0100081B0100081B01000800
:100070001B0100081B010008E1C600081B01000865
:100080001B0100081B0100081B0100081B010008E0
:100090001B0100081B0100081B0100081B010008D0
:1000A0001B010008990C01081B0100081B01000836
:1000B0005511010839150108891C01081B010008A8
:1000C0001B0100081B0100081B0100081B010008A0
:1000D0001B010008513201081B010008B53201085C
:1000E0001B0100081B0100081B010008DFF80CD0F1
:1000F00000F074FE004800476D550108C031002033
:100100000648804706480047FEE7FEE7FEE7FEE7B1
:10011000FEE7FEE7FEE7FEE7FEE7FEE7D50B010898
:10012000ED00000830B50B460146002020220124D6
:1001300009E021FA02F59D4205D303FA02F5491BB5
:1001400004FA02F52844151EA2F10102F1DC30BDCB
:1001500010B5431A934209D28318881803E010F8A7
:10016000011D03F8011D521EF9D210BD40EA010322
:100170009B0703D009E008C9121F08C0042AFAD25D
:1001800003E011F8013B00F8013B521EF9D210BD0B
:10019000D2B201E000F8012B491EFBD270470022C9
:1001A000F6E710B513460A4604461946FFF7F0FF76
:1001B000204610BD30B505462A460B4612F8010B05
:1001C00013F8014B08B1A042F8D01CB1002802D0AE
:1001D0006D1CF1E7284630BD10B5044604E00B78ED
:1001E00000F8013B03B1491C521EF8D2204610BD55
:1001F000421C10F8011B0029FBD1801A704710B572
:10020000002200E0521C835C8C5CA34201D1002BD5
:10021000F8D1D8B2E1B2401A10BDCBB203E00178F8
:10022000994203D0401C521EF9D20020704730B5CD
:1002300004460020034600E05B1C934203D2E05CCE
:10024000CD5C401BF8D030BD034611F8012B00F8FF
:10025000012B002AF9D11846704700000FB400B5F1
:100260008DB010A909900B9000914FF0FF300A90CB
:1002700000200C9005480690054807906A4609A89A
:100280000F9900F013FC0DB05DF814FBC90A0008CB
:10029000E70A00082DE9FF5F1D464FF0FF3BD5E957
:1002A000014691465F464FF00008A9697F1C0198FE
:1002B0008847296A824688470028F6D1BAF1FF3F6D
:1002C0000CD024F4C064002E19DD600614D5BAF1F8
:1002D0002B0F09D0BAF12D0F0ED103E0584604B010
:1002E000BDE8F09F44F48064A9697F1C01988847A9
:1002F000761E8246002E02DDBAF1300F03D0B9F12E
:10030000000F26D032E0A969761E44F400747F1CE9
:10031000019888478246002E05DDBAF1780F06D095
:10032000BAF1580F03D0B9F1000F10D01EE0B9F1A7
:10033000000F02D0B9F1100F18D1A969761E24F46C
:1003400000747F1C019888478246102002E0082034
:1003500000E00A20814609E008FB0908A969761E29
:1003600044F400747F1C019888478246002E05DD06
:100370004946504600F086FB0028EDDAE96901980D
:100380008847A00502D46FF00100A8E7E00725D157
:10039000600613D5600502D5C8F1000000E04046B4
:1003A00029680A1D2A600968220501D5087015E030
:1003B000220701D5088011E008600FE02868011DC0
:1003C00029600068210502D580F8008006E0210739
:1003D00002D5A0F8008001E0C0F8008038467EE732
:1003E00000F0E0BBF0B480EA0102D40F4200B2EBAF
:1003F000410F02D20246084611464A0042D0C30DC0
:10040000DDB2C1F3C752AD1A202D35DAC1F31601A2
:1004100041F4000204B15242C5F1200602FA06F18D
:100420002A411044B3EBD05F23D0C4B1012DA0EB1F
:10043000C35009DCF0BC4FF0004202EAC352DBB209
:1004400000F5000000F0FFBB400000F1807000EB01
:10045000C350A0F1807040EAD170490009E049081A
:1004600041EAC071A0EBC35000F50000400800EB6A
:10047000C350F0BC00F0DEBB6142012202EB41013F
:10048000001BF6E7F0BC704781F00041AAE780F05E
:100490000040A7E780EA010210B502F000434000E7
:1004A00022D04A001FD0010E01EB1261C0F35600AA
:1004B000C2F3560240F4000042F40002A0FB022006
:1004C00000047F39140400D0401C50EA124001D4CB
:1004D0004000491EC2B20C0604EBD010401C40087C
:1004E000802A02D003E0002010BD20F00100002986
:1004F00000DA0020184310BD30B480EA010202F097
:10050000004530F0004221F0004013D090B1C30DFF
:10051000D40DC2F31601C0F31600E41A41F4000131
:1005200040F400027D34914201D3641C00E0490094
:10053000002C02DA30BC002070474FF4000000238A
:10054000914201D3891A034340084FEA4101F7D190
:1005500051B1914202D14FF0004105E002D24FF07B
:10056000010101E06FF0010103EBC450284430BCED
:1005700000F060BB2DE9FE4F804681EA0300C00F0A
:100580000C46009021F0004123F00045B8EB02003A
:10059000A94105D24046214690461C460B460246DC
:1005A00023F00040104347D0270DC7F30A00C3F3E0
:1005B0000A510290401A019040286BDAC3F31300ED
:1005C00040F4801B0098924620B10023D2EB030A2E
:1005D00063EB0B0B01985946C0F14002504600F006
:1005E00030FA06460D4650465946019A00F038FA50
:1005F00010EB08006141002487EA115284EAE77396
:100600001A4340D0009A62B3019A012A4FEA075276
:1006100015DC001B61EB02014FF0004202EA0752B9
:10062000CDE90042001C41F5801132462B4600F016
:1006300047FB03B0BDE8F08F40462146F9E7001BB9
:1006400061EB0201001C41F5801300185B4120188A
:10065000A2F5001747EB030140EAD570B6196D41CA
:1006600011E06D084FEA360645EAC0754FEA0752B9
:10067000001B61EB0201001C41F5801149084FEAA3
:1006800030000019514132462B4603B0BDE8F04F0F
:1006900000F007BB0098012240000023D0EB0202CB
:1006A00063EBE073009821464FEAE074B8EB00007A
:1006B00061EB0401E9E783F000435BE781F000416F
:1006C00058E72DE9FE4F81EA030404F0004421F0CD
:1006D000004100944FF0000B23F0004350EA010466
:1006E0005ED052EA03045BD0C3F30A54C1F30A5547
:1006F0002C44A4F2F3340194A0FB0254C1F313017F
:1007000041F48011C3F3130343F4801301FB02444B
:1007100000FB034E840A970A44EA815447EA835750
:10072000A4FB076802958D0A05FB07854FEA932C09
:1007300004FB0C542705029D4FEA065847EA16377A
:10074000B5EB08056EEB070C870E920E47EA811792
:1007500042EA8312A7FB0201B6EB0B0164EB000433
:100760002B0D43EA0C335E1844EB1C50DA4651461D
:10077000E7FB0201C5F313044FEA0B3343EA1453BA
:100780004FEA0432019C43EA0603A4F10C040294EC
:10079000009CCDE900B400F093FA03B0BDE8F08FFF
:1007A00000200146F9E72DE9F04D81EA030404F049
:1007B000004B21F0004514464FF0000A23F00041A1
:1007C00050EA050220D054EA01021DD0C5F30A57B1
:1007D0000246C5F31303C1F31300C1F30A5640F4F4
:1007E000801543F48013A7EB0608101BD64608F2C9
:1007F000FD3873EB050002D308F1010801E09218FF
:100800005B41B8F1000F03DA00200146BDE8F08D2E
:1008100000204FF48011064684460EE0171B73EB50
:10082000050705D3121B63EB050306434CEA010CD5
:1008300049084FEA300092185B4150EA0107EDD1B8
:1008400052EA030012D082EA040083EA0501084359
:1008500005D0101BAB4106D20122002306E0002286
:100860004FF0004302E06FF0010253101AEB060054
:100870004CEB085110EB0A0041EB0B01BDE8F04DC9
:1008800000F00FBAC10F80EAE0700844CA0796234F
:10089000002100F0D8B996230022114600F0D3B908
:1008A00000F0004220F00040C10DC0F3160040F4FB
:1008B00000007F2901DA00207047962903DCC1F18E
:1008C0009601C84001E096398840002AF4D04042A1
:1008D000704720F00040C10DC0F3160040F4000046
:1008E0007F2901DA00207047962903DCC1F19601C7
:1008F000C840704796398840704700F0004230F099
:1009000000400AD0C10D01F56071C0F3160042EA43
:100910000151C2084007114370470020014670474B
:1009200030B5041E71F1000404DB4FF00044404276
:1009300064EB0101141E73F1000405DB1C464FF04B
:100940000043524263EB04038B4208BF824230BD36
:1009500030B5041E71F1000404DB4FF00044404246
:1009600064EB0101141E73F1000405DB1C464FF01B
:100970000043524263EB0403994208BF904230BDEA
:1009800001F0004330B421F0004150EA010206D0EA
:100990000A0DA2F56072C1F31301002A02DC30BC1B
:1009A00000207047440F44EAC104C100E01830BC85
:1009B00000EBC25000F03EB9002801DBC0F100405E
:1009C000002901DBC1F1004181427047002801DBB1
:1009D000C0F10040002901DBC1F1004188427047AD
:1009E0002DE9F05F0546002092469B468846064664
:1009F000814640241BE0284641464746224600F0F7
:100A0000FFF953465A46C01A914110D31146184671
:100A1000224600F016F82D1A67EB01084F462246D1
:100A20000120002100F00DF817EB00094E41201EB7
:100A3000A4F10104DFDC484631462A464346BDE8BE
:100A4000F09F202A04DB203A00FA02F100207047D0
:100A50009140C2F1200320FA03F3194390407047FC
:100A6000202A06DBCB17203A41FA02F043EAE07372
:100A700006E041FA02F3D040C2F12002914008435F
:100A8000194670473A2800D2303820F02002412A17
:100A900001D3A2F13700884201D34FF0FF307047F5
:100AA000026811441378016018467047D160044908
:100AB00051610449116200211161114600F0BEB973
:100AC000A10A0008290E0008426842B1016811F825
:100AD000013B23B1521EC0E90012184670470121A4
:100AE000C160881E704742685AB1C368016843B943
:100AF00083688B4205D0491E521CC0E900120020B9
:100B000070474FF0FF3070470FB4002300B589B035
:100B10000CA900910B996FF00042CB601E4B06931D
:100B20001E4B07930423CDE901321D4A0892024669
:100B30006B46002000F0ACFB09B05DF814FB70B50B
:100B400086B006464FF0FF300091CDE9010100204C
:100B500015460C4604903246694604A8FFF7D4FFB8
:100B600002460498211825B108B1084600E0204645
:100B70002860049800280DD0002A02DD00988842E1
:100B800008D0081B0094CDE901043246694604A848
:100B9000FFF7BAFF06B070BDC90A0008E70A0008EF
:100BA000290E00082DE9F04791460E46804604467E
:100BB000002514F8017B2FB100F032F90068C05D08
:100BC000C007F6D12B2F02D02D2F1ED0641E4A460F
:100BD0003146204600F078FC26B13268A24201D1AD
:100BE000C6F800806A054FF0020418D50023D0EB48
:100BF000030563EB01025D1B934109DB0023D0EB8E
:100C0000030063EB0101BDE8F08745F48065DEE792
:100C100012F062FD046000204FF00041F3E7021E75
:100C200071F10002EFDA12F057FD04604FF0FF306F
:100C30004108E8E70029A8BF7047401C490008BFE9
:100C400020F00100704710B4B0FA80FC00FA0CF0FC
:100C500050EA010404BF10BC704749B1CCF1200434
:100C600021FA04F411FA0CF118BF012121430843C1
:100C7000A3EB0C01CB1D4FEA00614FEA102042BFED
:100C8000002010BC704700EBC35010440029A4BFE3
:100C900010BC7047401C490008BF20F0010010BC88
:100CA000704710B5141E73F1000408DA401C41F1BE
:100CB000000192185B411A4301D120F0010010BDE0
:100CC0002DE9F04D92469B4611B1B1FA81F202E056
:100CD000B0FA80F220329046FFF7B3FE04460F468A
:100CE00040EA0A0041EA0B0153465A46084313D032
:100CF000114653EA010019D0C8F14002504600F0F5
:100D00007FF805460E46504659464246FFF799FE83
:100D1000084305D0012004E020463946BDE8F08DA7
:100D20000020054346EAE0762C4337430A986305E2
:100D3000E40AA0EB08000022FD0A44EA47540A3006
:100D400002D500200146E9E7010510196941DDE9F6
:100D5000084500196941BDE8F04DA2E770B521F0E2
:100D6000004303430CD0C1F30A550024D5EB04051E
:100D700064EB0403D617AD1AB34102DB0020014631
:100D800070BD201841EB025170BD0EB5C10F80EA55
:100D9000E0700844CA07002140F233438DE80E009A
:100DA0000A460B46FFF78CFF03B000BDC1F30A52A1
:100DB000C1F3130140F2FF3341F480119A4202DA89
:100DC00000200146704740F233439A42A2F2334278
:100DD00002DC524200F014B8FFF733BE064C074D58
:100DE00006E0E06840F0010394E8070098471034FB
:100DF000AC42F6D3FFF77EF964F4010884F40108ED
:100E0000202A04DB203A21FA02F00021704721FA5F
:100E100002F3D040C2F120029140084319467047C6
:100E200000487047F4F3010810B50446FFF7F8FFD7
:100E30000068005D00F0010010BD00002DE9F34FD7
:100E40008BB04FF0000801F10C000C464FF0010B85
:100E500046460DF1080A0190626901210198904708
:100E6000051E2DD0252D2CD0216A8847C0B162697E
:100E7000012101989047216A88470028F7D1411E37
:100E800062690198904700E0761CA1690B98884739
:100E9000216A88470028F7D1E1690B988847DBE78A
:100EA000A1690B9888470746A84201D1761CD3E771
:100EB000E1690B9888477F1C02D1B8F1000F6FD011
:100EC00046E1002762693D463946019890472A2845
:100ED00004D162690121019890470125DFF88492CD
:100EE0006269012101989047A0F130010A290AD2D4
:100EF0004F45E5DC07EB870100EB4107303FDFD4CE
:100F000045F01005ECE7E90601D46FF000476C28C6
:100F10000AD04C2814D0682815D06A280DD074281F
:100F20001CD07A281AD01DE06269012101989047EF
:100F30006C2802D045F0040514E045F002050DE0F0
:100F400045F020050AE06269012101989047682870
:100F500002D045F0080505E045F40065626901210D
:100F600001989047C4E9015765283DD019DC5828FD
:100F70007AD00CDC452837D004DC252826D041283F
:100F800031D131E046282FD047282CD12CE05B28E6
:100F900077D0612828D063287CD0642823D15AE0F8
:100FA000D0E06F2848D008DC66281DD067281BD009
:100FB000692821D06E2816D127E0702845D07328E3
:100FC00068D0752847D078280DD14DE0A1690B98DD
:100FD0008847054625283FF469AFE1690B988847A3
:100FE0006D1C3FF46AAFB3E023466A466FF0010020
:100FF0000B9900F04DF99EE045F040006060A807B5
:1010000023464FF0000236D43EE0E8077FF447AFB6
:101010002068011D21600068290501D506701BE7C5
:10102000290701D5068017E7A90703D5F117C0E9FD
:10103000006111E706600FE745F040006060A80717
:1010400023464FF0080216D41EE040F60E0125EAB2
:101050000100606016E045F040006060A80723468C
:101060004FF00A0207D40FE045F040006060A80787
:1010700008D5234610226FF001000B99AFF30080D2
:1010800059E007E0234610226FF001000B99FFF7AB
:1010900001F950E04FF000094F464B46632802D05B
:1010A0005B2806D040E0E80601D40120A0600127BB
:1010B0003AE062690121019890475E2805D14FF01E
:1010C00001096269494601989047216939B90021AF
:1010D0000A46534643F82120491C0829FADBB0B3DD
:1010E000216969B9C11700EBD16253110AEB830181
:1010F00022F01F02821A01200B68904003430B600C
:1011000062690121019890475D28E8D1B9F1000F8B
:1011100009D00020514651F82020D24341F8202028
:10112000401C0828F7DB02AB224600976FF0010055
:101130000B99AFF3008000280CDA401C08D1BBF1FA
:10114000000F05D04FF0FF300DB0BDE8F08FFFE786
:101150004046F9E7E90701D108F1010806444FF0DC
:10116000000B79E6CCCCCC0C2DE9FF4F087883B08E
:101170009946FF2805D0491C2D2804D000240020C2
:1011800008E000200BE00124F9E700EB800003EB0E
:101190004000491C0B78FF2BF7D104B140420023DB
:1011A0000293147819461D462D2C01D02B2C04D106
:1011B000521C2D2C13D000240294AA461478FF2C24
:1011C0000FD00A25A3FB057801FB05814FF0000C29
:1011D00003FB0C11521CE3194AEB0101EEE7012459
:1011E000EAE7814453EA010002D019F5C87F06DA24
:1011F00003980021C0E9001107B0BDE8F08F002579
:10120000AE4E2F46DFF8B882184600F0BEF9CDE9A1
:101210000001B9F1000002DAC9F1000400E004465F
:101220000023A74A1AEB030B42EB045A12E0E00733
:1012300007D02A46334638464146FFF742FA07466A
:1012400088462A46334610461946FFF73AFA0546BD
:101250000E466410002CEAD1DDE90001B9F1000F5F
:101260005A46534606DAFFF79EFA3A464346FFF7D8
:101270009AFA05E0FFF725FA3A464346FFF721FAC6
:10128000029A0AB181F00041039AC2E90001B3E772
:101290002DE9FF4F1F468DB0D7E901464FF0FF38CB
:1012A0002E2045464FF000090B90B9696D1C0E9831
:1012B0008847396A824688470028F6D1BAF1FF3F4D
:1012C0000AD024F4D064002E11DDBAF12B0F08D01F
:1012D000BAF12D0F0BD102E0404611B08DE744F476
:1012E0008064B9696D1C0E9888478246761E6946EF
:1012F000600501D52D2000E02B208DF8000001F1C4
:10130000010B0DF1200809E0B9696D1C0E988847A2
:1013100082460F9844F40074761E0560002E02DDAC
:10132000BAF1300FF0D00B998A453ED144F08004D9
:1013300006E00F99681CA9F1010944F400740860E3
:10134000B9696D1C761E0E98884782463028F0D009
:101350002BE00B998A4505D1200603D444F0800484
:10136000761E18E0504612F0F9FA08B30DF1130199
:10137000761E44F400748B4508D2AAF130000BF8B5
:10138000010B200607D5A9F1010003E0200602D4D5
:1013900009F101008146A00502D50F99681C08607B
:1013A000B9696D1C0E9888478246002ED1DC53E047
:1013B000002E51DDBAF1650F02D0BAF1450F4BD1C5
:1013C000A00549D5B9696D1C24F44074761E0E98A9
:1013D00088478246002E0CDD2B2804D0BAF12D0F51
:1013E00007D144F48074B9696D1C0E988847824611
:1013F000761EE00501D52D2100E02B2108F8011B08
:10140000CDF82C8021E00DF12901761E44F4007402
:1014100088450CD2AAF1300010F0FF0088F80000D7
:1014200002D10B99884509D908F1010806E0E005C9
:1014300001D5244801E042F20F708146B9696D1C64
:101440000E98884782460F980560002E04DD5046AE
:1014500012F084FA0028D6D1F9690E988847FF2047
:101460008BF8000088F800000020069007904B469B
:101470006A4608A906A8FFF777FEA00502D46FF018
:1014800001002AE714F0240F0AD0E00714D1DDE9A7
:1014900006123868031D3B600068C0E900120BE0CB
:1014A000DDE90601FFF76CFA0146E00704D1386870
:1014B000021D3A600068016028460EE700001440F3
:1014C0000000F03FF1D8FFFF2DE9F74F4FF0000982
:1014D000009C1546CA4614F8010B302801D0ADB166
:1014E00015E014F8010B4FF00109782803D05828B3
:1014F00001D04DB10BE00DB1102D08D14FF0000916
:10150000102514F8010B02E0082500E00A25002749
:101510003E46B8464FEAE57B16E0A5FB07230BFBEA
:10152000073105FB080005FB0616030CD71846F12A
:1015300000061FFA80F8381E4FF0010976F580305A
:1015400000D3CA4614F8010B2946FFF79BFA00287E
:10155000E3DA019838B1B9F1000F01D0641E00E060
:10156000009C01980460BAF1000F08D012F0B4F8A2
:1015700002210160C81E014603B0BDE8F08F3104AE
:1015800041EA174148EA0740F6E70EB540F2334218
:1015900002920022CDE900221346FFF791FB03B02F
:1015A00000BD70B58C1810F8015B15F0070301D170
:1015B00010F8013B2A1106D110F8012B03E010F8B6
:1015C000016B01F8016B5B1EF9D12B0705D40023D9
:1015D000521E0DD401F8013BFAE710F8013BCB1A7B
:1015E000921C03E013F8015B01F8015B521EF9D570
:1015F000A142D8D3002070BD21B1826842F001021F
:10160000826003E0826822F001028260704700007D
:1016100000B587B0012148020EF000FB0121042033
:101620000EF0FCFA1C20ADF8040000208DF8070035
:1016300001A918480BF0E0FB002002908DF80C0087
:101640008DF80D004FF460200490002005900120DB
:101650008DF8180002A9104800F042F801210E4848
:10166000FFF7CAFF4FF440400EF09CFA0A4800F022
:10167000BBF800BF084800F028F80028FAD1064857
:1016800000F0C2F800BF044800F008F80028FAD1C2
:1016900007B000BD000801400024014001460020C1
:1016A0008A6802F004020AB1012000E000207047BD
:1016B0000146C86C80B270470246002013680B4098
:1016C0000BB1012000E000207047014600208A682D
:1016D00002F008020AB1012000E00020704700007B
:1016E00030B502460020002350680F4C20400D7991
:1016F0000C6844EA05242043506090680B4C20405D
:10170000D1E902542C434D7944EA450420439060CA
:10171000D06A20F470000C7C641EE4B2234340EADB
:101720000350D06230BD0000FFFEF0FFFDF7F1FF77
:10173000F0B504460D4600200021092D11DDE068BA
:10174000A5F10A0606EB4607072606FA07F18843C5
:10175000A5F10A0606EB460603FA06F10843E06027
:101760000CE0206905EB4507072606FA07F18843D8
:1017700005EB450603FA06F108432061072A0FDA54
:10178000606B561E06EB86071F2606FA07F1884394
:10179000561E06EB860605FA06F10843606322E052
:1017A0000D2A0FDA206BD61F06EB86071F2606FAD6
:1017B00007F18843D61F06EB860605FA06F10843B3
:1017C000206310E0E06AA2F10D0606EB86071F26F3
:1017D00006FA07F18843A2F10D0606EB860605FA24
:1017E00006F10843E062F0BD816841F008018160C4
:1017F000704721B1826842F4A002826003E08268EF
:1018000022F4A00282607047816841F00401816087
:10181000704738B504460D46A4F10C000A2881F043
:101820006281DFE810F00A00FA00E901D802C7037C
:10183000B604A50594068307720801230622242115
:10184000104617F05BF9012307222421262017F008
:1018500055F901231A222421462017F04FF90123BC
:101860001B222421662017F049F906224821104640
:1018700017F00AF907224821262017F005F91C2243
:101880004821462017F000F91B224821662017F056
:10189000FBF806226C21104617F0F6F807226C219F
:1018A000262017F0F1F81D226C21462017F0ECF8E5
:1018B0001B226C21662017F0E7F8062290211046C3
:1018C00017F0E2F807229021262017F0DDF81E22FB
:1018D0009021462017F0D8F81B229021662017F09F
:1018E000D3F80622B421104617F0CEF80722B4210F
:1018F000262017F0C9F81F22B421462017F0C4F89B
:101900001B22B421662017F0BFF8062224214FF4D1
:10191000AD7017F0B9F8072224214FF4BD7017F00D
:10192000B3F8202224214FF4CD7017F0ADF81B221C
:1019300024214FF4DD7017F0A7F8062248214FF458
:10194000AD7017F0A1F8072248214FF4BD7017F0D1
:101950009BF8212248214FF4CD7017F095F81B22F7
:1019600048214FF4DD7017F08FF806226C214FF4F8
:10197000AD7017F089F807226C214FF4BD7017F095
:1019800083F822226C214FF4CD7017F07DF81B22D2
:101990006C214FF4DD7017F077F8062290214FF498
:1019A000AD7017F071F8072290214FF4BD7017F059
:1019B0006BF8232290214FF4CD7017F065F81B22AD
:1019C00090214FF4DD7017F05FF80622B4214FF438
:1019D000AD7017F059F80722B4214FF4BD7017F01D
:1019E00053F800204FF6FF730122B42100904FF40A
:1019F000CD7017F00DF800204FF6FF730246B421AA
:101A000000904FF4D57017F003F81B22B4214FF467
:101A1000DD7017F039F801F067B80622242110466E
:101A200017F032F807222421262017F02DF81A2269
:101A30002421462017F028F81B222421662017F0C5
:101A400023F8012306224821104617F057F80123F6
:101A500007224821262017F051F801231C22482193
:101A6000462017F04BF801231B224821662017F06F
:101A700045F806226C21104617F006F807226C2163
:101A8000262017F001F81D226C21462016F0FCFFDD
:101A90001B226C21662016F0F7FF062290211046CB
:101AA00016F0F2FF07229021262016F0EDFF1E22ED
:101AB0009021462016F0E8FF1B229021662016F0A8
:101AC000E3FF0622B421104616F0DEFF0722B42100
:101AD000262016F0D9FF1F22B421462016F0D4FF8D
:101AE0001B22B421662016F0CFFF062224214FF4DA
:101AF000AD7016F0C9FF072224214FF4BD7016F017
:101B0000C3FF202224214FF4CD7016F0BDFF1B220D
:101B100024214FF4DD7016F0B7FF062248214FF460
:101B2000AD7016F0B1FF072248214FF4BD7016F0DA
:101B3000ABFF212248214FF4CD7016F0A5FF1B22E8
:101B400048214FF4DD7016F09FFF06226C214FF400
:101B5000AD7016F099FF07226C214FF4BD7016F09E
:101B600093FF22226C214FF4CD7016F08DFF1B22C3
:101B70006C214FF4DD7016F087FF062290214FF4A0
:101B8000AD7016F081FF072290214FF4BD7016F062
:101B90007BFF232290214FF4CD7016F075FF1B229E
:101BA00090214FF4DD7016F06FFF0622B4214FF440
:101BB000AD7016F069FF0722B4214FF4BD7016F026
:101BC00063FF00204FF6FF730122B42100904FF411
:101BD000CD7016F01DFF00204FF6FF730246B421B2
:101BE00000904FF4D57016F013FF1B22B4214FF470
:101BF000DD7016F049FF0EE706222421104616F08C
:101C000043FF07222421262016F03EFF1A2224211A
:101C1000462016F039FF1B222421662016F034FFDF
:101C200006224821104616F02FFF072248212620C1
:101C300016F02AFF1C224821462016F025FF1B2201
:101C40004821662016F020FF012306226C21104651
:101C500016F054FF012307226C21262016F04EFFB8
:101C600001231D226C21462016F048FF01231B2270
:101C70006C21662016F042FF06229021104616F0D5
:101C800003FF07229021262016F0FEFE1E2290213F
:101C9000462016F0F9FE1B229021662016F0F4FE75
:101CA0000622B421104616F0EFFE0722B4212620AA
:101CB00016F0EAFE1F22B421462016F0E5FE1B2294
:101CC000B421662016F0E0FE062224214FF4AD7008
:101CD00016F0DAFE072224214FF4BD7016F0D4FE70
:101CE000202224214FF4CD7016F0CEFE1B22242199
:101CF0004FF4DD7016F0C8FE062248214FF4AD7097
:101D000016F0C2FE072248214FF4BD7016F0BCFE4B
:101D1000212248214FF4CD7016F0B6FE1B22482137
:101D20004FF4DD7016F0B0FE06226C214FF4AD705A
:101D300016F0AAFE07226C214FF4BD7016F0A4FE27
:101D400022226C214FF4CD7016F09EFE1B226C21D6
:101D50004FF4DD7016F098FE062290214FF4AD701E
:101D600016F092FE072290214FF4BD7016F08CFE03
:101D7000232290214FF4CD7016F086FE1B22902175
:101D80004FF4DD7016F080FE0622B4214FF4AD70E2
:101D900016F07AFE0722B4214FF4BD7016F074FEDF
:101DA00000204FF6FF730122B42100904FF4CD7054
:101DB00016F02EFE00204FF6FF730246B42100906D
:101DC0004FF4D57016F024FE1B22B4214FF4DD70C1
:101DD00016F05AFE1FE606222421104616F054FE85
:101DE00007222421262016F04FFE1A222421462005
:101DF00016F04AFE1B222421662016F045FE06221C
:101E00004821104616F040FE07224821262016F0F1
:101E10003BFE1C224821462016F036FE1B2248219C
:101E2000662016F031FE06226C21104616F02CFEBC
:101E300007226C21262016F027FE1D226C21462049
:101E400016F022FE1B226C21662016F01DFE0123D7
:101E500006229021104616F051FE01230722902100
:101E6000262016F04BFE01231E229021462016F05C
:101E700045FE01231B229021662016F03FFE06221C
:101E8000B421104616F000FE0722B421262016F0D9
:101E9000FBFD1F22B421462016F0F6FD1B22B421C3
:101EA000662016F0F1FD062224214FF4AD7016F0E5
:101EB000EBFD072224214FF4BD7016F0E5FD202232
:101EC00024214FF4CD7016F0DFFD1B2224214FF4A6
:101ED000DD7016F0D9FD062248214FF4AD7016F0E2
:101EE000D3FD072248214FF4BD7016F0CDFD21220D
:101EF00048214FF4CD7016F0C7FD1B2248214FF446
:101F0000DD7016F0C1FD06226C214FF4AD7016F0A5
:101F1000BBFD07226C214FF4BD7016F0B5FD2222E7
:101F20006C214FF4CD7016F0AFFD1B226C214FF4E5
:101F3000DD7016F0A9FD062290214FF4AD7016F069
:101F4000A3FD072290214FF4BD7016F09DFD2322C2
:101F500090214FF4CD7016F097FD1B2290214FF485
:101F6000DD7016F091FD0622B4214FF4AD7016F02D
:101F70008BFD0722B4214FF4BD7016F085FD0020C3
:101F80004FF6FF730122B42100904FF4CD7016F08C
:101F90003FFD00204FF6FF730246B42100904FF43E
:101FA000D57016F035FD1B22B4214FF4DD7016F00C
:101FB0006BFD30E506222421104616F065FD072250
:101FC0002421262016F060FD1A222421462016F036
:101FD0005BFD1B222421662016F056FD06224821B7
:101FE000104616F051FD07224821262016F04CFD20
:101FF0001C224821462016F047FD1B22482166205E
:1020000016F042FD06226C21104616F03DFD072217
:102010006C21262016F038FD1D226C21462016F07A
:1020200033FD1B226C21662016F02EFD0622902126
:10203000104616F029FD07229021262016F024FDD7
:102040001E229021462016F01FFD1B2290216620A3
:1020500016F01AFD01230622B421104616F04EFD9B
:1020600001230722B421262016F048FD01231F2258
:10207000B421462016F042FD01231B22B421662024
:1020800016F03CFD062224214FF4AD7016F0FCFC46
:10209000072224214FF4BD7016F0F6FC20222421E3
:1020A0004FF4CD7016F0F0FC1B2224214FF4DD70AC
:1020B00016F0EAFC062248214FF4AD7016F0E4FC5D
:1020C000072248214FF4BD7016F0DEFC2122482182
:1020D0004FF4CD7016F0D8FC1B2248214FF4DD7070
:1020E00016F0D2FC06226C214FF4AD7016F0CCFC39
:1020F00007226C214FF4BD7016F0C6FC22226C2121
:102100004FF4CD7016F0C0FC1B226C214FF4DD7033
:1021100016F0BAFC062290214FF4AD7016F0B4FC14
:10212000072290214FF4BD7016F0AEFC23229021BF
:102130004FF4CD7016F0A8FC1B2290214FF4DD70F7
:1021400016F0A2FC0622B4214FF4AD7016F09CFCF0
:102150000722B4214FF4BD7016F096FC00204FF614
:10216000FF730122B42100904FF4CD7016F050FCA3
:1021700000204FF6FF730246B42100904FF4D57053
:1021800016F046FC1B22B4214FF4DD7016F07CFCE7
:1021900041E406222421104616F076FC0722242171
:1021A000262016F071FC1A222421462016F06CFC21
:1021B0001B222421662016F067FC062248211046C7
:1021C00016F062FC07224821262016F05DFC1C2236
:1021D0004821462016F058FC1B224821662016F0A4
:1021E00053FC06226C21104616F04EFC07226C218F
:1021F000262016F049FC1D226C21462016F044FCD6
:102200001B226C21662016F03FFC0622902110460E
:1022100016F03AFC07229021262016F035FC1E22EB
:102220009021462016F030FC1B229021662016F0EB
:102230002BFC0622B421104616F026FC0722B421FE
:10224000262016F021FC1F22B421462016F01CFC8B
:102250001B22B421662016F017FC0123062224213C
:102260004FF4AD7016F04AFC0123072224214FF4ED
:10227000BD7016F043FC0123202224214FF4CD70C1
:1022800016F03CFC01231B2224214FF4DD7016F0D4
:1022900035FC062248214FF4AD7016F0F5FB0722FD
:1022A00048214FF4BD7016F0EFFB212248214FF476
:1022B000CD7016F0E9FB1B2248214FF4DD7016F0BB
:1022C000E3FB06226C214FF4AD7016F0DDFB072214
:1022D0006C214FF4BD7016F0D7FB22226C214FF415
:1022E000CD7016F0D1FB1B226C214FF4DD7016F07F
:1022F000CBFB062290214FF4AD7016F0C5FB0722F0
:1023000090214FF4BD7016F0BFFB232290214FF4B3
:10231000CD7016F0B9FB1B2290214FF4DD7016F042
:10232000B3FB0622B4214FF4AD7016F0ADFB0722CB
:10233000B4214FF4BD7016F0A7FB00204FF6FF73D9
:102340000122B42100904FF4CD7016F061FB002003
:102350004FF6FF730246B42100904FF4D57016F08B
:1023600057FB1B22B4214FF4DD7016F08DFBBBE34D
:1023700006222421104616F087FB0722242126205E
:1023800016F082FB1A222421462016F07DFB1B2228
:102390002421662016F078FB06224821104616F00C
:1023A00073FB07224821262016F06EFB1C224821D1
:1023B000462016F069FB1B224821662016F064FBBC
:1023C00006226C21104616F05FFB07226C212620A6
:1023D00016F05AFB1D226C21462016F055FB1B22DD
:1023E0006C21662016F050FB06229021104616F054
:1023F0004BFB07229021262016F046FB1E2290213F
:10240000462016F041FB1B229021662016F03CFB73
:102410000622B421104616F037FB0722B4212620ED
:1024200016F032FB1F22B421462016F02DFB1B2292
:10243000B421662016F028FB062224214FF4AD704B
:1024400016F022FB072224214FF4BD7016F01CFB6E
:10245000202224214FF4CD7016F016FB1B222421DC
:102460004FF4DD7016F010FB0123062248214FF4D3
:10247000AD7016F043FB0123072248214FF4BD70D5
:1024800016F03CFB0123212248214FF4CD7016F0B9
:1024900035FB01231B2248214FF4DD7016F02EFB83
:1024A00006226C214FF4AD7016F0EEFA07226C2173
:1024B0004FF4BD7016F0E8FA22226C214FF4CD7073
:1024C00016F0E2FA1B226C214FF4DD7016F0DCFAF4
:1024D000062290214FF4AD7016F0D6FA0722902113
:1024E0004FF4BD7016F0D0FA232290214FF4CD7036
:1024F00016F0CAFA1B2290214FF4DD7016F0C4FAD0
:102500000622B4214FF4AD7016F0BEFA0722B421B2
:102510004FF4BD7016F0B8FA00204FF6FF73012299
:10252000B42100904FF4CD7016F072FA00204FF6EF
:10253000FF730246B42100904FF4D57016F068FA8C
:102540001B22B4214FF4DD7016F09EFACCE2062275
:102550002421104616F098FA07222421262016F08E
:1025600093FA1A222421462016F08EFA1B222421E7
:10257000662016F089FA06224821104616F084FAE1
:1025800007224821262016F07FFA1C2248214620E7
:1025900016F07AFA1B224821662016F075FA0622F8
:1025A0006C21104616F070FA07226C21262016F0D6
:1025B0006BFA1D226C21462016F066FA1B226C2154
:1025C000662016F061FA06229021104616F05CFA99
:1025D00007229021262016F057FA1E22902146202D
:1025E00016F052FA1B229021662016F04DFA0622B0
:1025F000B421104616F048FA0722B421262016F01E
:1026000043FA1F22B421462016F03EFA1B22B421C1
:10261000662016F039FA062224214FF4AD7016F028
:1026200033FA072224214FF4BD7016F02DFA202230
:1026300024214FF4CD7016F027FA1B2224214FF4E9
:10264000DD7016F021FA062248214FF4AD7016F025
:102650001BFA072248214FF4BD7016F015FA21220B
:1026600048214FF4CD7016F00FFA1B2248214FF489
:10267000DD7016F009FA012306226C214FF4AD70CB
:1026800016F03CFA012307226C214FF4BD7016F0BE
:1026900035FA012322226C214FF4CD7016F02EFA68
:1026A00001231B226C214FF4DD7016F027FA06225D
:1026B00090214FF4AD7016F0E7F9072290214FF406
:1026C000BD7016F0E1F9232290214FF4CD7016F081
:1026D000DBF91B2290214FF4DD7016F0D5F90622AC
:1026E000B4214FF4AD7016F0CFF90722B4214FF4A6
:1026F000BD7016F0C9F900204FF6FF730122B42116
:1027000000904FF4CD7016F083F900204FF6FF7360
:102710000246B42100904FF4D57016F079F91B22CF
:10272000B4214FF4DD7016F0AFF9DDE1062224216B
:10273000104616F0A9F907222421262016F0A4F944
:102740001A222421462016F09FF91B2224216620FC
:1027500016F09AF906224821104616F095F907223C
:102760004821262016F090F91C224821462016F018
:102770008BF91B224821662016F086F906226C216F
:10278000104616F081F907226C21262016F07CF9FC
:102790001D226C21462016F077F91B226C21662041
:1027A00016F072F906229021104616F06DF90722F4
:1027B0009021262016F068F91E229021462016F05E
:1027C00063F91B229021662016F05EF90622B421DF
:1027D000104616F059F90722B421262016F054F9B4
:1027E0001F22B421462016F04FF91B22B421662087
:1027F00016F04AF9062224214FF4AD7016F044F980
:10280000072224214FF4BD7016F03EF92022242126
:102810004FF4CD7016F038F91B2224214FF4DD70EF
:1028200016F032F9062248214FF4AD7016F02CF95B
:10283000072248214FF4BD7016F026F921224821C5
:102840004FF4CD7016F020F91B2248214FF4DD70B3
:1028500016F01AF906226C214FF4AD7016F014F937
:1028600007226C214FF4BD7016F00EF922226C2164
:102870004FF4CD7016F008F91B226C214FF4DD7077
:1028800016F002F90123062290214FF4AD7016F0E4
:1028900035F90123072290214FF4BD7016F02EF96F
:1028A0000123232290214FF4CD7016F027F9012344
:1028B0001B2290214FF4DD7016F020F90622B4217E
:1028C0004FF4AD7016F0E0F80722B4214FF4BD705C
:1028D00016F0DAF800204FF6FF730122B4210090C1
:1028E0004FF4CD7016F094F800204FF6FF730246B7
:1028F000B42100904FF4D57016F08AF81B22B42151
:102900004FF4DD7016F0C0F8EEE0062224211046E8
:1029100016F0BAF807222421262016F0B5F81A225C
:102920002421462016F0B0F81B222421662016F040
:10293000ABF806224821104616F0A6F807224821D7
:10294000262016F0A1F81C224821462016F09CF8FB
:102950001B224821662016F097F806226C211046AB
:1029600016F092F807226C21262016F08DF81D2211
:102970006C21462016F088F81B226C21662016F088
:1029800083F806229021104616F07EF80722902147
:10299000262016F079F81E229021462016F074F8B1
:1029A0001B229021662016F06FF80622B4211046F3
:1029B00016F06AF80722B421262016F065F81F22C7
:1029C000B421462016F060F81B22B421662016F0D0
:1029D0005BF8062224214FF4AD7016F055F807225B
:1029E00024214FF4BD7016F04FF8202224214FF41B
:1029F000CD7016F049F81B2224214FF4DD7016F03B
:102A000043F8062248214FF4AD7016F03DF8072236
:102A100048214FF4BD7016F037F8212248214FF4B9
:102A2000CD7016F031F81B2248214FF4DD7016F0FE
:102A30002BF806226C214FF4AD7016F025F8072212
:102A40006C214FF4BD7016F01FF822226C214FF458
:102A5000CD7016F019F81B226C214FF4DD7016F0C2
:102A600013F8062290214FF4AD7016F00DF80722EE
:102A700090214FF4BD7016F007F8232290214FF4F7
:102A8000CD7016F001F81B2290214FF4DD7015F087
:102A9000FBFF01230622B4214FF4AD7016F02EF88F
:102AA00001230722B4214FF4BD7016F027F84FF62A
:102AB000FF7000230122B42100904FF4CD7015F077
:102AC000A7FF4FF6FF7000231A46B42100904FF481
:102AD000D57015F09DFF01231B22B4214FF4DD704A
:102AE00016F00CF800E000BF00BF38BD03B5ADF52F
:102AF000097D4FF4F072FE4911A8FDF729FBFD484E
:102B000000780C2803F05285FA4800780D28F9D097
:102B1000F84800780E28F5D0F64800780F28F1D054
:102B2000F44800781028EDD0F24800781128E9D058
:102B3000F04800781228E5D0EE4800781328E1D05C
:102B4000EC4800781428DDD0EA4800781528D9D060
:102B50008A98801E062883F02785DFE810F0040F8E
:102B6000251D0600150E08070E16E348007878BBF1
:102B7000E248007860BBE248007848BBE148007852
:102B800030BBE148007818BBE048007800BBE04863
:102B90000078E8B9DF480078D0B9DF480078B8B9E4
:102BA000DE480078A0B9DE4800780C3800EB400021
:102BB000CF4901EB00104078401CC1B2D8480078E2
:102BC0000C3800EB4000CA4A02EB00104170FCE3F5
:102BD000FFE7D34800780C3800EB4000C44901EB14
:102BE0000010407801287DD1CE480078012812D10C
:102BF000CB4800780C3800EB400001EB0010407926
:102C0000401CC1B2C64800780C3800EB4000B84AFE
:102C100002EB00104171C3480078022813D1C0486C
:102C200000780C3800EB4000B14901EB00108079CE
:102C3000401CC1B2BA4800780C3800EB4000AC4AE6
:102C400002EB00108171B7480078032813D1B44813
:102C500000780C3800EB4000A54901EB0010007B28
:102C6000401CC1B2AE4800780C3800EB4000A04ACE
:102C700002EB00100173AB480078042815D1A84876
:102C800000780C3800EB4000994901EB0010407BC4
:102C900008B9012100E00021A14800780C3800EBC0
:102CA0004000934A02EB001041739D4800780C38B5
:102CB00000EB40008E4901EB0010007B042809D195
:102CC0000021974800780C3800EB4000884A02EB5E
:102CD0000010017393480078052815D190480078BA
:102CE0000C3800E052E000EB4000814901EB00109D
:102CF0000089401C81B28A4800780C3800EB400003
:102D00007B4A02EB0010018186480078062813D127
:102D1000834800780C3800EB4000754901EB001047
:102D20004089401C81B27E4800780C3800EB40009E
:102D30006F4A02EB00104181794800780C3800EBB3
:102D400040006B4901EB00100089322809DB322179
:102D5000734800780C3800EB4000654A02EB001025
:102D600001816F4800780C3800EB4000604901EBAE
:102D700000104089322809DB3221694800780C387C
:102D800000EB40005A4A02EB001041816448007891
:102D90000C3800EB4000564901EB00104078022847
:102DA0005CD161480078012812D15D4800780C3868
:102DB00000EB400001EB0010408A401C81B25848F3
:102DC00000780C3800EB4000494A02EB00104182C9
:102DD00055480078022813D1514800780C3800EB90
:102DE0004000434901EB0010008A401C81B24C486E
:102DF00000780C3800EB40003D4A02EB00100182E5
:102E0000474800780C3800EB4000394901EB0010CE
:102E1000408A42F21071884209D10021404800786E
:102E20000C3800EB4000324A02EB001041823C4873
:102E300000780C3800EB40002D4901EB0010008AAF
:102E400042F21071884209D10021354800780C38CF
:102E500000EB4000264A02EB001001823048007867
:102E60000C3800EB4000224901EB001040780328A9
:102E700077D12E480078012812D1294800780C38E3
:102E800000EB400001EB00104079401CC1B2244827
:102E900000780C3800EB4000154A02EB001041713D
:102EA00022480078022813D11D4800780C3800EB26
:102EB00040000F4901EB00108079401CC1B2184856
:102EC00000780C3800EB4000094A02EB00108171D9
:102ED00016480078032834D1114800780C3800EBEC
:102EE0004000034901EB0010007B401CC1B21FE011
:102EF000D8000020CD020020E0020020E1020020E6
:102F0000E2020020E3020020E4020020E5020020AB
:102F1000E6020020E7020020E8020020E90200208B
:102F20002A040020EA020020EB020020EC0200202C
:102F3000FE4800780C3800EB4000FD4A02EB001020
:102F40000173FC480078042816D1F84800780C3842
:102F500000EB4000F64901EB0010407B10B9012165
:102F600001E07CE00021F14800780C3800EB4000E3
:102F7000EF4A02EB00104173EC4800780C3800EB8C
:102F80004000EB4901EB0010007B042809D100212F
:102F9000E64800780C3800EB4000E54A02EB0010F0
:102FA0000173E4480078052813D1E04800780C3814
:102FB00000EB4000DE4901EB0010408A401C81B26A
:102FC000DA4800780C3800EB4000D94A02EB0010D8
:102FD0004182D8480078062813D1D44800780C38AC
:102FE00000EB4000D24901EB0010008A401C81B286
:102FF000CE4800780C3800EB4000CD4A02EB0010C0
:103000000182CA4800780C3800EB4000C84901EB47
:103010000010408A42F21071884209D10021C34851
:1030200000780C3800EB4000C14A02EB00104182EE
:10303000BE4800780C3800EB4000BD4901EB0010A1
:10304000008A42F21071884209D10021B748007805
:103050000C3800EB4000B64A02EB00100182B34886
:1030600000780C3800EB4000B14901EB00104078CB
:1030700004286ED1B0480078012812D1AB480078FE
:103080000C3800EB400001EB0010C07D401CC1B2C9
:10309000A64800780C3800EB4000A54A02EB00106F
:1030A000C175A5480078022813D1A04800780C38D3
:1030B00000EB40009E4901EB0010007E401CC1B2B5
:1030C0009A4800780C3800EB4000994A02EB001057
:1030D000017699480078032813D1944800780C3879
:1030E00000EB4000924901EB0010407E401CC1B251
:1030F0008E4800780C3800EB40008D4A02EB00103F
:1031000041768D480078042813D1884800780C381F
:1031100000EB4000864901EB0010807E401CC1B2EC
:10312000824800780C3800EB4000814A02EB001026
:10313000817681480078052816D17C4800780C38C3
:1031400000EB40007A4901EB0010C07E10B901216C
:1031500001E0E0E30021754800780C3800EB400006
:10316000734A02EB0010C17673480078062813D129
:103170006E4800780C3800EB40006D4901EB001000
:10318000007F401CC1B2694800780C3800EB400059
:10319000674A02EB0010017767480078072813D1CF
:1031A000624800780C3800EB4000614901EB0010E8
:1031B000407F401CC1B25D4800780C3800EB4000F5
:1031C0005B4A02EB001041775B480078082813D176
:1031D000564800780C3800EB4000554901EB0010D0
:1031E000807F401CC1B2514800780C3800EB400091
:1031F0004F4A02EB001081774F480078092813D11D
:103200004A4800780C3800EB4000494901EB0010B7
:10321000C07F401CC1B2454800780C3800EB40002C
:10322000434A02EB0010C177434800780A2817D1BF
:103230003E4800780C3800EB40003D4901EB00109F
:1032400090F8200008B9012100E0002137480078FB
:103250000C3800EB4000364A02EB001080F82010DA
:10326000354800780B2815D1304800780C3800EB31
:1032700040002F4901EB001090F82100401CC1B222
:103280002A4800780C3800EB4000294A02EB001075
:1032900080F82110284800780C2815D123480078A0
:1032A0000C3800EB4000224901EB001090F822009E
:1032B000401CC1B21D4800780C3800EB40001C4A8D
:1032C00002EB001080F822101B4800780D2815D161
:1032D000164800780C3800EB4000154901EB00104F
:1032E00090F82300401CC1B2104800780C3800EB65
:1032F00040000F4A02EB001080F823100E480078BF
:103300000E281FD1094800780C3800EB400008490E
:1033100001EB001090F82400401CC1B20348007873
:103320000C3800EB4000024A08E000002A040020AC
:10333000D8000020EC020020ED02002002EB00107B
:1033400080F82410FE4800780F2817D1FD48007837
:103350000C3800EB4000FC4901EB001090F8250010
:1033600008B9012100E00021F64800780C3800EB94
:103370004000F54A02EB001080F82510F048007874
:10338000102815D1EF4800780C3800EB4000EE49CA
:1033900001EB001090F82600401CC1B2E94800780B
:1033A0000C3800EB4000E84A02EB001080F82610D1
:1033B000E3480078112817D1E24800780C3800EB78
:1033C0004000E14901EB001000E0B9E290F827006D
:1033D000401CC1B2DB4800780C3800EB4000DA4AF0
:1033E00002EB001080F82710D5480078122815D17C
:1033F000D44800780C3800EB4000D34901EB0010B2
:1034000090F82800401CC1B2CE4800780C3800EB80
:103410004000CD4A02EB001080F82810C848007820
:10342000132815D1C74800780C3800EB4000C64976
:1034300001EB001090F82900401CC1B2C14800788F
:103440000C3800EB4000C04A02EB001080F8291055
:10345000BB480078142817D1BA4800780C3800EB24
:103460004000B94901EB001090F82A0008B9012189
:1034700000E00021B34800780C3800EB4000B24A6D
:1034800002EB001080F82A10AD480078152815D1FD
:10349000AC4800780C3800EB4000AB4901EB001061
:1034A00090F82B00401CC1B2A64800780C3800EB05
:1034B0004000A54A02EB001080F82B10A0480078CD
:1034C000162815D19F4800780C3800EB40009E4923
:1034D00001EB001090F82C00401CC1B29948007814
:1034E0000C3800EB4000984A02EB001080F82C10DA
:1034F00093480078172815D1924800780C3800EBD3
:103500004000914901EB001090F82D00401CC1B221
:103510008C4800780C3800EB40008B4A02EB00101E
:1035200080F82D1086480078182815D18548007835
:103530000C3800EB4000844901EB001090F82E009D
:10354000401CC1B27F4800780C3800EB40007E4A36
:1035500002EB001080F82E1079480078192817D156
:10356000784800780C3800EB4000774901EB0010F8
:1035700090F82F0008B9012100E00021714800787F
:103580000C3800EB4000704A02EB001080F82F105E
:103590006C4800780C3800EB40006B4901EB0010E0
:1035A000C07D182809D10021664800780C3800EB4E
:1035B0004000654A02EB0010C175624800780C3883
:1035C00000EB4000604901EB0010007E3D2809D16E
:1035D00000215C4800780C3800EB40005A4A02EBAE
:1035E00000100176574800780C3800EB400056492F
:1035F00001EB0010007F182809D100215148007804
:103600000C3800EB4000504A02EB001001774D48A7
:1036100000780C3800EB40004B4901EB0010407F74
:103620003D2809D10021474800780C3800EB4000C4
:10363000454A02EB00104177424800780C3800EB15
:103640004000414901EB001090F8210018280AD1F0
:1036500000213C4800780C3800EB40003A4A02EB6D
:10366000001080F82110374800780C3800EB40003B
:10367000354901EB001090F822003D280AD10021C5
:10368000304800780C3800EB40002F4A02EB001065
:1036900080F822102B4800780C3800EB40002A49B3
:1036A00001EB001090F8260018280AD100212548C7
:1036B00000780C3800EB4000234A02EB001080F841
:1036C0002610204800780C3800EB40001E4901EB22
:1036D000001090F827003D280AD1002119480078F1
:1036E0000C3800EB4000184A02EB001080F827105D
:1036F000144800780C3800EB4000134901EB00102F
:1037000090F82B0018280AD100210E4800780C38B8
:1037100000EB40000C4A02EB001080F82B10094827
:1037200000780C3800EB4000074901EB001090F8DE
:103730002C003D2811D10021024800780C3805E00A
:10374000ED0200202A040020D800002000EB4000F9
:10375000FE4A02EB001080F82C10FD4800780C386F
:1037600000EB4000F94901EB0010407E182809D118
:103770000021F74800780C3800EB4000F34A02EBD8
:1037800000104176F24800780C3800EB4000EF4919
:1037900001EB0010807E3D2809D10021EC48007823
:1037A0000C3800EB4000E94A02EB00108176E84853
:1037B00000780C3800EB4000E44901EB0010807FFA
:1037C000182809D10021E24800780C3800EB4000AD
:1037D000DE4A02EB00108177DD4800780C3800EB00
:1037E0004000DA4901EB0010C07F3D2809D10021DB
:1037F000D74800780C3800EB4000D44A02EB0010A8
:10380000C177D34800780C3800EB4000CF4901EB7A
:10381000001090F8230018280AD10021CC48007825
:103820000C3800EB4000C94A02EB001080F823106E
:10383000C74800780C3800EB4000C44901EB001089
:1038400090F824003D280AD10021C14800780C38A6
:1038500000EB4000BD4A02EB001080F82410BC4889
:1038600000780C3800EB4000B84901EB001090F8EC
:10387000280018280AD10021B54800780C3800EB40
:103880004000B24A02EB001080F82810B0480078DF
:103890000C3800EB4000AD4901EB001090F8290016
:1038A0003D280AD10021AA4800780C3800EB4000DE
:1038B000A64A02EB001080F82910A54800780C38C1
:1038C00000EB4000A14901EB001090F82D001828F2
:1038D0000AD100219E4800780C3800EB40009B4A3A
:1038E00002EB001080F82D10994800780C3800EB9E
:1038F0004000964901EB001090F82E003D280AD1B7
:103900000021934800780C3800EB40008F4A02EB0E
:10391000001080F82E108E4800780C3800EB400024
:103920008A4901EB00104079632809DD632188484A
:1039300000780C3800EB4000844A02EB0010417123
:10394000834800780C3800EB4000804901EB001000
:103950004078052809D100217D4800780C3800EB1B
:1039600040007A4A02EB0010417002F01EBE794816
:103970000078E0BB78480078C8BB78480078B0BBD6
:103980007748007898BB7748007880BB7648007805
:1039900068BB7648007850BB7548007838BB7548DE
:1039A000007820BB7448007808BB744800881090E9
:1039B00000EBD07041101098A0EB410098B964481A
:1039C00000780C3800EB4000604901EB00104078B3
:1039D000401CC1B25E4800780C3800EB40005B4AE6
:1039E00002EB001041705A4800780C3800E012E0F9
:1039F00000EB4000554901EB00104078052809D143
:103A00000021534800780C3800EB40004F4A02EB8D
:103A100000104170E0E200BF4D4800780C3800EB28
:103A200040004A4901EB0010407801287DD15448FC
:103A30000078012812D1464800780C3800EB40008D
:103A400001EB00104079401CC1B2414800780C38AD
:103A500000EB40003D4A02EB0010417148480078FD
:103A6000022813D13A4800780C3800EB400037495F
:103A700001EB00108079401CC1B2354800780C3849
:103A800000EB4000314A02EB001081713C480078A5
:103A9000032813D12E4800780C3800EB40002B4946
:103AA00001EB0010007B401CC1B2294800780C38A3
:103AB00000EB4000254A02EB00100173304800780B
:103AC000042815D1224800780C3800EB40001F492B
:103AD00001EB0010407B08B9012100E000211C48E7
:103AE00000780C3800EB4000184A02EB00104173DC
:103AF000174800780C3800EB4000144901EB001027
:103B0000007B042809D10021114800780C3800EB13
:103B100040000E4A02EB0010017319480078052896
:103B200033D10B4800780C3800E085E000EB400012
:103B3000064901EB00100089401C81B2044800785E
:103B40000C3800EB4000014A1CE00000D8000020C7
:103B50002A040020E0020020E1020020E20200200E
:103B6000E3020020E4020020E5020020E60200203B
:103B7000E7020020E8020020E902002038000020CF
:103B8000EA02002002EB00100181FE4800780628BE
:103B900013D1FD4800780C3800EB4000FB4901EBE5
:103BA00000104089401C81B2F74800780C3800EBC7
:103BB0004000F64A02EB00104181F34800780C38CF
:103BC00000EB4000F14901EB00100089322809DBCD
:103BD0003221ED4800780C3800EB4000EB4A02EB54
:103BE00000100181E84800780C3800EB4000E749FC
:103BF00001EB00104089322809DB3221E2480078CD
:103C00000C3800EB4000E14A02EB00104181DE4835
:103C100000780C3800EB4000DC4901EB00104079E3
:103C20005A2809DD5A21D84800780C3800EB4000AA
:103C3000D64A02EB00104171D34800780C3800EBF3
:103C40004000D24901EB0010407802285CD1D048F6
:103C50000078012812D1CC4800780C3800EB4000E5
:103C600001EB0010408A401C81B2C74800780C3834
:103C700000EB4000C54A02EB00104182C4480078C6
:103C8000022813D1C04800780C3800EB4000BF492F
:103C900001EB0010008A401C81B2BB4800780C3850
:103CA00000EB4000B94A02EB00100182B6480078F0
:103CB0000C3800EB4000B54901EB0010408A42F29D
:103CC0001071884209D10021AF4800780C3800EB10
:103CD0004000AE4A02EB00104182AB4800780C383D
:103CE00000EB4000A94901EB0010008A42F210717C
:103CF000884209D10021A44800780C3800EB40002C
:103D0000A24A02EB001001829F4800780C3800EBB9
:103D100040009E4901EB0010407803287DD19D486A
:103D20000078012812D1984800780C3800EB400048
:103D300001EB00104079401CC1B2934800780C3868
:103D400000EB4000914A02EB00104171914800786D
:103D5000022813D18C4800780C3800EB40008B49C6
:103D600001EB00108079401CC1B2874800780C3804
:103D700000EB4000854A02EB001081718548007815
:103D8000032813D1804800780C3800EB40007F49AD
:103D900001EB0010007B401CC1B27B4800780C385E
:103DA00000EB4000794A02EB00100173794800787B
:103DB000042815D1744800780C3800EB4000734992
:103DC00001EB0010407B08B9012100E000216E48A2
:103DD00000780C3800EB40006C4A02EB0010417395
:103DE000694800780C3800EB4000684901EB00108E
:103DF000007B042809D10021634800780C3800EBCF
:103E00004000624A02EB0010017362480078052806
:103E100015D15D4800780C3800E056E000EB40001A
:103E20005A4901EB0010408A401C81B25648007884
:103E30000C3800EB4000554A02EB00104182554817
:103E40000078062813D1504800780C3800EB400069
:103E50004E4901EB0010008A401C81B24A480078AC
:103E60000C3800EB4000494A02EB00100182464842
:103E700000780C3800EB4000444901EB0010408A08
:103E800042F21071884209D100213F4800780C3875
:103E900000EB40003D4A02EB001041823A480078B6
:103EA0000C3800EB4000394901EB0010008A42F267
:103EB0001071884209D10021334800780C3800EB9A
:103EC0004000324A02EB001001822F4800780C3883
:103ED00000EB40002D4901EB0010407804287BD115
:103EE0002D480078012812D1274800780C3800EBC3
:103EF000400001EB0010C07D401CC1B22248007898
:103F00000C3800EB4000214A02EB0010C17522483A
:103F10000078022813D11C4800780C3800EB4000D0
:103F20001A4901EB0010007E401CC1B2164800780F
:103F30000C3800EB4000154A02EB001001761648E1
:103F40000078032813D1104800780C3800EB4000AB
:103F50000E4901EB0010407E401CC1B20A480078B7
:103F60000C3800EB4000094A02EB001041760A4889
:103F70000078042820D1044800780C3800EB400079
:103F800002490BE0EA0200202A040020D8000020A9
:103F9000EB020020EC020020ED02002001EB0010FB
:103FA000807E401CC1B2FE4800780C3800EB400017
:103FB000FC4A02EB00108176FB480078052816D1F8
:103FC000F74800780C3800EB4000F64901EB001090
:103FD000C07E10B9012101E0D4E30021F04800784F
:103FE0000C3800EB4000EF4A02EB0010C176EE48BF
:103FF0000078062813D1EA4800780C3800EB40001E
:10400000E84901EB0010007F401CC1B2E448007891
:104010000C3800EB4000E34A02EB00100177E24865
:104020000078072813D1DE4800780C3800EB4000F8
:10403000DC4901EB0010407F401CC1B2D848007839
:104040000C3800EB4000D74A02EB00104177D6480D
:104050000078082813D1D24800780C3800EB4000D3
:10406000D04901EB0010807F401CC1B2CC480078E1
:104070000C3800EB4000CB4A02EB00108177CA48B5
:104080000078092813D1C64800780C3800EB4000AE
:10409000C44901EB0010C07F401CC1B2C048007889
:1040A0000C3800EB4000BF4A02EB0010C177BE485D
:1040B00000780A2817D1BA4800780C3800EB400085
:1040C000B84901EB001090F8200008B9012100E088
:1040D0000021B34800780C3800EB4000B14A02EBF5
:1040E000001080F82010B04800780B2815D1AC489B
:1040F00000780C3800EB4000AA4901EB001090F862
:104100002100401CC1B2A64800780C3800EB4000EA
:10411000A44A02EB001080F82110A34800780C2874
:1041200015D19F4800780C3800EB40009D4901EB09
:10413000001090F82200401CC1B2994800780C3859
:1041400000EB4000974A02EB001080F822109648DE
:1041500000780D2815D1924800780C3800EB40000B
:10416000904901EB001090F82300401CC1B28C482C
:1041700000780C3800EB40008A4A02EB001080F80F
:104180002310894800780E2815D1854800780C380E
:1041900000EB4000834901EB001090F82400401C24
:1041A000C1B27F4800780C3800EB40007D4A02EB3A
:1041B000001080F824107C4800780F2817D1784828
:1041C00000780C3800EB4000764901EB001090F8C5
:1041D000250008B9012100E00021714800780C3861
:1041E00000EB40006F4A02EB001080F825106E488B
:1041F0000078102815D16A4800780C3800EB400090
:10420000684901EB001090F82600401CC1B26448D8
:1042100000780C3800EB4000624A02EB001080F896
:10422000261061480078112815D15D4800780C38B7
:1042300000EB40005B4901EB001090F82700401CA8
:10424000C1B2574800780C3800EB4000554A02EBE9
:10425000001080F8271054480078122815D15048D3
:1042600000780C3800EB40004E4901EB001090F84C
:104270002800401CC1B24A4800780C3800EB4000CE
:10428000484A02EB001080F82810474800781328AD
:1042900015D1434800780C3800EB4000414901EB50
:1042A000001090F82900401CC1B23D4800780C383D
:1042B00000EB40003B4A02EB001080F829103A481E
:1042C0000078142817D1364800780C3800EB4000ED
:1042D000344901EB001090F82A0008B9012100E0F0
:1042E00000212F4800780C3800EB40002D4A02EBEB
:1042F000001080F82A102C480078152815D128487D
:1043000000780C3800EB4000264901EB001090F8D3
:104310002B00401CC1B2224800780C3800EB400052
:10432000204A02EB001080F82B101F480078162856
:1043300015D11B4800780C3800EB4000194901EBFF
:10434000001090F82C00401CC1B2154800780C38C1
:1043500000EB4000134A02EB001080F82C101248CA
:104360000078172815D10E4800780C3800EB400073
:104370000C4901EB001090F82D00401CC1B2084818
:1043800000780C3800EB4000064A02EB001080F881
:104390002D100548007818281CD10148007805E048
:1043A0002A040020D8000020ED0200200C3800EB89
:1043B0004000FE4901EB001090F82E00401CC1B2F5
:1043C000FB4800780C3800EB4000F84A02EB001084
:1043D00080F82E10F7480078192817D1F448007893
:1043E0000C3800EB4000F14901EB001090F82F0071
:1043F00008B9012100E00021ED4800780C3800EBFD
:104400004000EA4A02EB001080F82F10E8480078DC
:104410000C3800EB4000E54901EB0010C07D182886
:1044200009D10021E24800780C3800EB4000DF4A57
:1044300002EB0010C175DE4800780C3800EB40003C
:10444000DA4901EB0010007E3D2809D10021D8484F
:1044500000780C3800EB4000D44A02EB00100176E3
:10446000D34800780C3800EB4000D04901EB001035
:10447000007F182809D10021CD4800780C3800EBC6
:104480004000CA4A02EB00100177C94800780C3896
:1044900000EB4000C54901EB0010407F3D2809D1E9
:1044A0000021C34800780C3800EB4000BF4A02EB03
:1044B00000104177BE4800780C3800EB4000BB4943
:1044C00001EB001090F8210018280AD10021B8480B
:1044D00000780C3800EB4000B44A02EB001080F882
:1044E0002110B34800780C3800EB4000AF4901EBD5
:1044F000001090F822003D280AD10021AC48007835
:104500000C3800EB4000A94A02EB001080F82210A2
:10451000A74800780C3800EB4000A44901EB0010DC
:1045200090F8260018280AD10021A14800780C38FC
:1045300000EB40009D4A02EB001080F826109C48DA
:1045400000780C3800EB4000984901EB001090F81F
:1045500027003D280AD10021954800780C3800EB4F
:104560004000924A02EB001080F827109048007833
:104570000C3800EB40008D4901EB001090F82B0047
:1045800018280AD100218A4800780C3800EB400036
:10459000864A02EB001080F82B10854800780C3812
:1045A00000EB4000814901EB001090F82C003D2801
:1045B0000AD100217E4800780C3800EB40007B4A8D
:1045C00002EB001080F82C10794800780C3800EBD2
:1045D0004000764901EB0010407E182809D10021E7
:1045E000734800780C3800EB4000704A02EB001072
:1045F00041766F4800780C3800EB40006B4901EBC6
:104600000010807E3D2809D10021694800780C38CF
:1046100000EB4000654A02EB0010817664480078A8
:104620000C3800EB4000614901EB0010807F182836
:1046300009D100215E4800780C3800EB40005B4A4D
:1046400002EB001081775A4800780C3800EB4000EC
:10465000564901EB0010C07F3D2809D10021544884
:1046600000780C3800EB4000504A02EB0010C17794
:104670004F4800780C3800EB40004C4901EB00102B
:1046800090F8230018280AD10021494800780C38F6
:1046900000EB4000454A02EB001080F8231044482C
:1046A00000780C3800EB4000404901EB001090F816
:1046B00024003D280AD100213D4800780C3800EB49
:1046C00040003A4A02EB001080F824103848007885
:1046D0000C3800EB4000354901EB001090F8280041
:1046E00018280AD10021324800780C3800EB40002D
:1046F0002E4A02EB001080F828102D4800780C3864
:1047000000EB4000294901EB001090F829003D28FA
:104710000AD10021264800780C3800EB4000234ADB
:1047200002EB001080F82910214800780C3800EBCB
:1047300040001E4901EB001090F82D0018280AD106
:1047400000211B4800780C3800EB4000174A02EBB0
:10475000001080F82D10164800780C3800EB40004F
:10476000124901EB001090F82E003D280AD10021DB
:104770000F4800780C3800EB40000C4A02EB0010A8
:1047800080F82E1001F011BF094800780C3820B9CC
:1047900009480078401C08490870054800780C3822
:1047A00001280FD105480078401C09E0D8000020FE
:1047B0002A040020ED020020E0020020E102002097
:1047C000FE490870FE4800780C38022804D1FD48E4
:1047D0000078401CFB490870F94800780C38032821
:1047E00004D1F9480078401CF7490870F448007873
:1047F0000C38042804D1F5480078401CF3490870AF
:10480000EF4800780C38052804D1F1480078401CA6
:10481000EF490870EA4800780C38062804D1ED48C2
:104820000078401CEB490870E54800780C380728F0
:1048300004D1E9480078401CE7490870E048007856
:104840000C38082804D1E5480078401CE34908707A
:10485000DB4800780C38092804D1E1480078401C76
:10486000DF490870DF480078022823DCD34800784D
:1048700002281FDCD348007802281BDCD2480078CD
:10488000022817DCD1480078022813DCD0480078D1
:1048900002280FDCCF48007802280BDCCE480078D5
:1048A000022807DCCD480078022803DCCC480078D9
:1048B000022857DDC24800780C3800EB4000CA4996
:1048C00001EB0010407801280AD1C8480078401C4C
:1048D000C649087008460078072801D101200870F1
:1048E000B74800780C3800EB4000BF4901EB0010DE
:1048F000407802280AD1BE480078401CBC490870A4
:1049000008460078032801D101200870AC480078DF
:104910000C3800EB4000B44901EB0010407803284C
:104920000AD1B4480078401CB249087008460078A3
:10493000072801D101200870A14800780C3800EB4D
:104940004000A94901EB0010407804280AD1AA4888
:104950000078401CA8490870084600781A2801D140
:10496000012008700EE79F48007878BB93480078D4
:1049700060BB9448007848BB9348007830BB9348AC
:10498000007818BB9248007800BB92480078E8B9DC
:1049900091480078D0B991480078B8B9904800782B
:1049A000A0B9874800780C3800EB40008E4901EB35
:1049B00000104078401EC1B2814800780C3800EBEE
:1049C0004000894A02EB00104170FDE3FFE77C489C
:1049D00000780C3800EB4000834901EB0010407870
:1049E00001287DD181480078012812D174480078CF
:1049F0000C3800EB400001EB00104079401EC1B2C2
:104A00006F4800780C3800EB4000774A02EB00104A
:104A1000417176480078022813D1694800780C3833
:104A200000EB4000704901EB00108079401EC1B2DC
:104A3000634800780C3800EB40006B4A02EB001032
:104A400081716A480078032813D15D4800780C38DA
:104A500000EB4000644901EB0010007B401CC1B238
:104A6000574800780C3800EB40005F4A02EB00101A
:104A700001735E480078042815D1514800780C383D
:104A800000EB4000584901EB0010407B08B90121C0
:104A900000E000214A4800780C3800EB4000524A00
:104AA00002EB00104173464800780C3800EB4000E0
:104AB0004D4901EB0010007B042809D1002140483A
:104AC00000780C3800EB4000474A02EB00100173FD
:104AD00046480078052815D1394800780C3800E0A0
:104AE00052E000EB4000404901EB00100089401EFD
:104AF00081B2334800780C3800EB40003A4A02EBB0
:104B00000010018139480078062813D12C4800781C
:104B10000C3800EB4000344901EB00104089401E86
:104B200081B2274800780C3800EB40002E4A02EB97
:104B300000104181224800780C3800EB40002A49DF
:104B400001EB00100089012809DC01211C480078D4
:104B50000C3800EB4000244A02EB00100181184899
:104B600000780C3800EB40001F4901EB0010408931
:104B7000012809DC0121124800780C3800EB4000C4
:104B8000194A02EB001041810D4800780C3800EB07
:104B90004000154901EB0010407802287DD11448EF
:104BA0000078012833D1064800780C3800EB40002B
:104BB00001EB0010408A401E81B21FE0E10200209C
:104BC0002A040020E2020020E3020020E402002088
:104BD000E5020020E6020020E7020020E8020020B3
:104BE000E9020020E0020020D8000020EA020020B4
:104BF000EB020020EC020020ED020020FE480078CD
:104C00000C3800EB4000FD4A02EB00104182FC48EA
:104C10000078022813D1F84800780C3800EB4000E7
:104C2000F64901EB0010008A401E81B2F24800787C
:104C30000C3800EB4000F14A02EB00100182EE4814
:104C400000780C3800EB4000EC4901EB0010408A82
:104C50004FF6FF7188420AD142F20F71E6480078A0
:104C60000C3800EB4000E54A02EB00104182E248BC
:104C700000780C3800EB4000E04901EB0010008A9E
:104C80004FF6FF7188420CD142F20F71DA4800787A
:104C90000C3800EB4000D94A00E002E002EB0010C3
:104CA0000182D54800780C3800EB4000D34901EB75
:104CB0000010407803287DD1D2480078012812D115
:104CC000CD4800780C3800EB400001EB0010407933
:104CD000401EC1B2C84800780C3800EB4000C74AFB
:104CE00002EB00104171C7480078022813D1C24876
:104CF00000780C3800EB4000C04901EB00108079CF
:104D0000401EC1B2BC4800780C3800EB4000BB4AE2
:104D100002EB00108171BB480078032813D1B6481C
:104D200000780C3800EB4000B44901EB0010007B28
:104D3000401CC1B2B04800780C3800EB4000AF4ACC
:104D400002EB00100173AF480078042815D1AA487F
:104D500000780C3800EB4000A84901EB0010407BC4
:104D600008B9012100E00021A34800780C3800EBCD
:104D70004000A24A02EB001041739F4800780C38B3
:104D800000EB40009D4901EB0010007B042809D195
:104D90000021994800780C3800EB4000974A02EB5C
:104DA0000010017397480078052815D192480078C3
:104DB0000C3800E058E000EB4000904901EB001097
:104DC000408A401E81B28C4800780C3800EB4000CD
:104DD0008A4A02EB001041828A480078062813D1E3
:104DE000854800780C3800EB4000844901EB001046
:104DF000008A401E81B2804800780C3800EB4000E9
:104E00007E4A02EB001001827B4800780C3800EBF0
:104E100040007A4901EB0010408A4FF6FF7188424A
:104E20000AD142F20F71744800780C3800EB400050
:104E3000724A02EB001041826F4800780C3800EB98
:104E400040006E4901EB0010008A4FF6FF71884266
:104E50000AD142F20F71684800780C3800EB40002C
:104E6000664A02EB00100182634800780C3800EBC0
:104E70004000624901EB0010407804287ED162486E
:104E80000078012812D15C4800780C3800EB400013
:104E900001EB0010C07D401EC1B2574800780C38AD
:104EA00000EB4000554A02EB0010C17556480078EF
:104EB000022813D1504800780C3800EB40004F49CD
:104EC00001EB0010007E401EC1B24B4800780C3848
:104ED00000EB4000494A02EB001001764A48007896
:104EE000032813D1444800780C3800EB40004349B4
:104EF00001EB0010407E401EC1B23F4800780C38E4
:104F000000EB40003D4A02EB001041763E4800783D
:104F1000042813D1384800780C3800EB400037499A
:104F200001EB0010807E401EC1B2334800780C387F
:104F300000EB4000314A02EB0010817632480078E5
:104F4000052815D12C4800780C3800EB40002B497F
:104F500001EB0010C07E08B9012100E000212648C5
:104F600000780C3800EB4000244A02EB0010C176B8
:104F700025480078062815D11F4800E0D2E30078C4
:104F80000C3800EB40001D4901EB0010007F401E73
:104F9000C1B2194800780C3800EB4000174A02EB08
:104FA0000010017718480078072813D112480078BC
:104FB0000C3800EB4000114901EB0010407F401E0F
:104FC000C1B20D4800780C3800EB40000B4A02EBF0
:104FD000001041770C48007808281ED10648007858
:104FE0000C3800EB4000054901EB0010807F401EAB
:104FF000C1B20148007809E02A040020D80000204E
:10500000EB020020EC020020ED0200200C3800EB47
:105010004000FE4A02EB00108177FD480078092825
:1050200013D1FC4800780C3800EB4000F74901EB45
:105030000010C07F401EC1B2F64800780C3800EB6B
:105040004000F24A02EB0010C177F14800780A28CC
:1050500017D1F04800780C3800EB4000EB4901EB29
:10506000001090F8200008B9012100E00021E94873
:1050700000780C3800EB4000E44A02EB001080F8A6
:105080002010E34800780B2815D1E24800780C384E
:1050900000EB4000DD4901EB001090F82100401EBC
:1050A000C1B2DC4800780C3800EB4000D74A02EB74
:1050B000001080F82110D64800780C2815D1D5486A
:1050C00000780C3800EB4000D04901EB001090F85C
:1050D0002200401EC1B2CF4800780C3800EB4000DF
:1050E000CA4A02EB001080F82210C94800780D2847
:1050F00015D1C84800780C3800EB4000C34901EBDB
:10510000001090F82300401EC1B2C24800780C384D
:1051100000EB4000BD4A02EB001080F82310BC48B1
:1051200000780E2815D1BB4800780C3800EB400001
:10513000B64901EB001090F82400401EC1B2B548FA
:1051400000780C3800EB4000B04A02EB001080F809
:105150002410AF4800780F2817D1AE4800780C38DB
:1051600000EB4000A94901EB001090F8250008B9B8
:10517000012100E00021A74800780C3800EB400036
:10518000A24A02EB001080F82510A14800781028F0
:1051900015D1A04800780C3800EB40009B4901EB8A
:1051A000001090F82600401EC1B29A4800780C38D2
:1051B00000EB4000954A02EB001080F8261094485E
:1051C0000078112817D100E0C1E2924800780C382D
:1051D00000EB40008D4901EB001090F82700401EC5
:1051E000C1B28C4800780C3800EB4000874A02EBD3
:1051F000001080F8271086480078122815D18548BD
:1052000000780C3800EB4000804901EB001090F86A
:105210002800401EC1B27F4800780C3800EB4000E7
:105220007A4A02EB001080F8281079480078132899
:1052300015D1784800780C3800EB4000734901EB39
:10524000001090F82900401EC1B2724800780C3856
:1052500000EB40006D4A02EB001080F829106C480A
:105260000078142817D16B4800780C3800EB400008
:10527000664901EB001090F82A0008B9012100E00E
:105280000021644800780C3800EB40005F4A02EBD4
:10529000001080F82A105E480078152815D15D4866
:1052A00000780C3800EB4000584901EB001090F8F2
:1052B0002B00401EC1B2574800780C3800EB40006C
:1052C000524A02EB001080F82B1051480078162843
:1052D00015D1504800780C3800EB40004B4901EBE9
:1052E000001090F82C00401EC1B24A4800780C38DB
:1052F00000EB4000454A02EB001080F82C104448B7
:105300000078172815D1434800780C3800EB40008E
:105310003E4901EB001090F82D00401EC1B23D48FF
:1053200000780C3800EB4000384A02EB001080F89F
:105330002D1037480078182815D1364800780C38D9
:1053400000EB4000314901EB001090F82E00401EA8
:10535000C1B2304800780C3800EB40002B4A02EB19
:10536000001080F82E102A480078192817D12948F3
:1053700000780C3800EB4000244901EB001090F855
:105380002F0008B9012100E00021224800780C38E4
:1053900000EB40001D4A02EB001080F82F101D4862
:1053A00000780C3800EB4000184901EB0010C07D7C
:1053B000FF2809D11721174800780C3800EB40006E
:1053C000124A02EB0010C175124800780C3800EB4D
:1053D00040000E4901EB0010007EFF2809D13C215E
:1053E0000C4800780C3800EB4000084A02EB001033
:1053F0000176084800780C3800EB4000034901EBC7
:105400000010007FFF2810D1172105E0D8000020F0
:10541000ED0200202A040020FE4800780C3800EB42
:105420004000FD4A02EB00100177FA4800780C3882
:1054300000EB4000F84901EB0010407FFF2809D144
:105440003C21F44800780C3800EB4000F24A02EBB3
:1054500000104177EF4800780C3800EB4000EE492F
:1054600001EB001090F82100FF280AD11721E9482C
:1054700000780C3800EB4000E74A02EB001080F89F
:105480002110E44800780C3800EB4000E24901EBC1
:10549000001090F82200FF280AD13C21DD48007856
:1054A0000C3800EB4000DC4A02EB001080F82210C0
:1054B000D84800780C3800EB4000D74901EB0010C9
:1054C00090F82600FF280AD11721D24800780C381E
:1054D00000EB4000D04A02EB001080F82610CD48C7
:1054E00000780C3800EB4000CB4901EB001090F83D
:1054F0002700FF280AD13C21C64800780C3800EB71
:105500004000C54A02EB001080F82710C14800781F
:105510000C3800EB4000C04901EB001090F82B0064
:10552000FF280AD11721BB4800780C3800EB400057
:10553000B94A02EB001080F82B10B64800780C38FE
:1055400000EB4000B44901EB001090F82C00FF285C
:105550000AD13C21AF4800780C3800EB4000AE4A3D
:1055600002EB001080F82C10AA4800780C3800EBF1
:105570004000A94901EB0010407EFF2809D1172106
:10558000A44800780C3800EB4000A34A02EB00105E
:105590004176A04800780C3800EB40009E4901EBB2
:1055A0000010807EFF2809D13C219A4800780C38F1
:1055B00000EB4000984A02EB001081769548007895
:1055C0000C3800EB4000944901EB0010807FFF286D
:1055D00009D117218F4800780C3800EB40008E4A23
:1055E00002EB001081778B4800780C3800EB40000C
:1055F000894901EB0010C07FFF2809D13C21854873
:1056000000780C3800EB4000834A02EB0010C177B1
:10561000804800780C3800EB40007F4901EB001017
:1056200090F82300FF280AD117217A4800780C3817
:1056300000EB4000784A02EB001080F82310754818
:1056400000780C3800EB4000734901EB001090F833
:105650002400FF280AD13C216E4800780C3800EB6A
:1056600040006D4A02EB001080F824106948007871
:105670000C3800EB4000684901EB001090F828005E
:10568000FF280AD11721634800780C3800EB40004E
:10569000614A02EB001080F828105E4800780C3850
:1056A00000EB40005C4901EB001090F82900FF2856
:1056B0000AD13C21574800780C3800EB4000564A8C
:1056C00002EB001080F82910524800780C3800EBEB
:1056D0004000514901EB001090F82D00FF280AD13D
:1056E00017214C4800780C3800EB40004A4A02EB86
:1056F000001080F82D10474800780C3800EB40006F
:10570000454901EB001090F82E00FF280AD13C21FA
:10571000404800780C3800EB40003F4A02EB001094
:1057200080F82E103B4800780C3800EB40003A49D6
:1057300001EB00108079002809DA00213548007853
:105740000C3800EB4000344A02EB00108171314804
:1057500000780C3800EB40002F4901EB0010407836
:10576000FF2809D104212B4800780C3800EB4000B9
:10577000294A02EB00104170FEE328480078E0BBA4
:1057800027480078C8BB27480078B0BB2648007877
:1057900098BB2648007880BB2548007868BB254820
:1057A000007850BB2448007838BB2448007820BBE0
:1057B0002348007808BB23480088109000EBD07085
:1057C00041101098A0EB410098B9124800780C38AD
:1057D00000EB4000104901EB00104078401EC1B2C0
:1057E0000C4800780C3800EB40000B4A02EB00102C
:1057F0004170084800780C3800E02DE000EB4000D4
:10580000054901EB00104078FF2824D1042101480C
:10581000007819E02A040020D8000020E0020020CF
:10582000E1020020E2020020E3020020E402002066
:10583000E5020020E6020020E7020020E802002046
:10584000E9020020380000200C3800EB4000FE4A3E
:1058500002EB00104170C4E200BFFC4800780C3835
:1058600000EB4000F84901EB0010407801287DD1A1
:10587000F7480078012812D1F44800780C3800EB82
:10588000400001EB00104079401EC1B2EF480078A3
:105890000C3800EB4000EC4A02EB00104171EC4880
:1058A0000078022813D1E94800780C3800EB40005A
:1058B000E54901EB00108079401EC1B2E348007851
:1058C0000C3800EB4000E04A02EB00108171E04828
:1058D0000078032813D1DD4800780C3800EB400035
:1058E000D94901EB0010007B401CC1B2D7480078B9
:1058F0000C3800EB4000D44A02EB00100173D4488E
:105900000078042815D1D14800780C3800EB40000D
:10591000CD4901EB0010407B08B9012100E00021D6
:10592000CA4800780C3800EB4000C74A02EB001070
:105930004173C64800780C3800EB4000C24901EBC7
:105940000010007B042809D10021C04800780C38E1
:1059500000EB4000BC4A02EB00100173BC48007829
:10596000052815D1B94800780C3800E067E000EB55
:105970004000B54901EB00100089401E81B2B348D8
:1059800000780C3800EB4000AF4A02EB00100181B8
:10599000AF480078062813D1AC4800780C3800EBEB
:1059A0004000A94901EB00104089401E81B2A74880
:1059B00000780C3800EB4000A34A02EB0010418154
:1059C000A24800780C3800EB40009F4901EB001022
:1059D0000089012809DC01219C4800780C3800EB83
:1059E0004000994A02EB00100181984800780C3879
:1059F00000EB4000944901EB00104089012809DCCC
:105A00000121924800780C3800EB40008E4A02EBEE
:105A1000001041818D4800780C3800EB40008A4925
:105A200001EB00108079002809DA0021874800780E
:105A30000C3800EB4000844A02EB0010817183486F
:105A400000780C3800EB40007F4901EB00104078F3
:105A500002285ED17F480078012812D17B48007867
:105A60000C3800EB400001EB0010408A401E81B270
:105A7000764800780C3800EB4000734A02EB0010C7
:105A8000418274480078022813D1704800780C389D
:105A900000EB40006C4901EB0010008A401E81B20F
:105AA0006A4800780C3800EB4000674A02EB0010AF
:105AB0000182664800780C3800EB4000624901EB37
:105AC0000010408A4FF6FF7188420AD142F20F71EE
:105AD0005E4800780C3800EB40005B4A02EB001097
