:020000040800F2
:10000000E82900200101000819CE0008B9AF000856
:1000100015CE0008319A0008AF0601080000000064
:10002000000000000000000000000000D9DB000814
:1000300005A1000800000000ADCE0008EDDC0008BE
:100040001B0100081B0100081B010008C1D20008A9
:100050001B0100081B0100081B0100081B01000810
:100060001B0100081B0100081B0100081B01000800
:100070001B0100081B010008359A00081B0100083D
:100080001B0100081B0100081B0100081B010008E0
:100090001B0100081B0100081B0100081B010008D0
:1000A0001B010008B5DD00081B0100081B0100084A
:1000B00071E2000849E6000869ED00081B0100082C
:1000C0001B0100081B0100081B0100081B010008A0
:1000D0001B0100083D0301081B010008A1030108E2
:1000E0001B0100081B0100081B010008DFF80CD0F1
:1000F00000F078FD0048004789260108E829002023
:100100000648804706480047FEE7FEE7FEE7FEE7B1
:10011000FEE7FEE7FEE7FEE7FEE7FEE7F1DC0008AC
:10012000ED00000830B50B460146002020220124D6
:1001300009E021FA02F59D4205D303FA02F5491BB5
:1001400004FA02F52844151EA2F10102F1DC30BDCB
:1001500010B5431A934209D28318881803E010F8A7
:10016000011D03F8011D521EF9D210BD40EA010322
:100170009B0703D009E008C9121F08C0042AFAD25D
:1001800003E011F8013B00F8013B521EF9D210BD0B
:10019000D2B201E000F8012B491EFBD270470022C9
:1001A000F6E710B513460A4604461946FFF7F0FF76
:1001B000204610BD30B505462A460B4612F8010B05
:1001C00013F8014B08B1A042F8D01CB1002802D0AE
:1001D0006D1CF1E7284630BD10B5044604E00B78ED
:1001E00000F8013B03B1491C521EF8D2204610BD55
:1001F000421C10F8011B0029FBD1801A704710B572
:10020000002200E0521C835C8C5CA34201D1002BD5
:10021000F8D1D8B2E1B2401A10BDCBB203E00178F8
:10022000994203D0401C521EF9D200207047034669
:1002300011F8012B00F8012B002AF9D1184670475C
:1002400000F0B4BBF0B480EA0102D40F4200B2EB7C
:10025000410F02D20246084611464A0042D0C30D61
:10026000DDB2C1F3C752AD1A202D35DAC1F3160144
:1002700041F4000204B15242C5F1200602FA06F12F
:100280002A411044B3EBD05F23D0C4B1012DA0EBC1
:10029000C35009DCF0BC4FF0004202EAC352DBB2AB
:1002A00000F5000000F0D3BB400000F1807000EBCF
:1002B000C350A0F1807040EAD170490009E04908BC
:1002C00041EAC071A0EBC35000F50000400800EB0C
:1002D000C350F0BC00F0B2BB6142012202EB41010D
:1002E000001BF6E7F0BC704781F00041AAE780F000
:1002F0000040A7E780EA010210B502F00043400089
:1003000022D04A001FD0010E01EB1261C0F356004B
:10031000C2F3560240F4000042F40002A0FB0220A7
:1003200000047F39140400D0401C50EA124001D46C
:100330004000491EC2B20C0604EBD010401C40081D
:10034000802A02D003E0002010BD20F00100002927
:1003500000DA0020184310BD30B480EA010202F038
:10036000004530F0004221F0004013D090B1C30DA1
:10037000D40DC2F31601C0F31600E41A41F40001D3
:1003800040F400027D34914201D3641C00E0490036
:10039000002C02DA30BC002070474FF4000000232C
:1003A000914201D3891A034340084FEA4101F7D132
:1003B00051B1914202D14FF0004105E002D24FF01D
:1003C000010101E06FF0010103EBC450284430BC8F
:1003D00000F034BB2DE9FE4F804681EA0300C00FD8
:1003E0000C46009021F0004123F00045B8EB0200DC
:1003F000A94105D24046214690461C460B4602467E
:1004000023F00040104347D0270DC7F30A00C3F381
:100410000A510290401A019040286BDAC3F313008E
:1004200040F4801B0098924620B10023D2EB030ACF
:1004300063EB0B0B01985946C0F14002504600F0A7
:1004400046FA06460D4650465946019A00F04EFAC5
:1004500010EB08006141002487EA115284EAE77337
:100460001A4340D0009A62B3019A012A4FEA075218
:1004700015DC001B61EB02014FF0004202EA07525B
:10048000CDE90042001C41F5801132462B4600F0B8
:100490001BFB03B0BDE8F08F40462146F9E7001B87
:1004A00061EB0201001C41F5801300185B4120182C
:1004B000A2F5001747EB030140EAD570B6196D416C
:1004C00011E06D084FEA360645EAC0754FEA07525B
:1004D000001B61EB0201001C41F5801149084FEA45
:1004E00030000019514132462B4603B0BDE8F04FB1
:1004F00000F0DBBA0098012240000023D0EB02029A
:1005000063EBE073009821464FEAE074B8EB00001B
:1005100061EB0401E9E783F000435BE781F0004110
:1005200058E72DE9FE4F81EA030404F0004421F06E
:10053000004100944FF0000B23F0004350EA010407
:100540005ED052EA03045BD0C3F30A54C1F30A55E8
:100550002C44A4F2F3340194A0FB0254C1F3130120
:1005600041F48011C3F3130343F4801301FB0244ED
:1005700000FB034E840A970A44EA815447EA8357F2
:10058000A4FB076802958D0A05FB07854FEA932CAB
:1005900004FB0C542705029D4FEA065847EA16371C
:1005A000B5EB08056EEB070C870E920E47EA811734
:1005B00042EA8312A7FB0201B6EB0B0164EB0004D5
:1005C0002B0D43EA0C335E1844EB1C50DA465146BF
:1005D000E7FB0201C5F313044FEA0B3343EA14535C
:1005E0004FEA0432019C43EA0603A4F10C0402948E
:1005F000009CCDE900B400F067FA03B0BDE8F08FCD
:1006000000200146F9E72DE9F04D81EA030404F0EA
:10061000004B21F0004514464FF0000A23F0004142
:1006200050EA050220D054EA01021DD0C5F30A5752
:100630000246C5F31303C1F31300C1F30A5640F495
:10064000801543F48013A7EB0608101BD64608F26A
:10065000FD3873EB050002D308F1010801E09218A0
:100660005B41B8F1000F03DA00200146BDE8F08DD0
:1006700000204FF48011064684460EE0171B73EBF2
:10068000050705D3121B63EB050306434CEA010C77
:1006900049084FEA300092185B4150EA0107EDD15A
:1006A00052EA030012D082EA040083EA05010843FB
:1006B00005D0101BAB4106D20122002306E0002228
:1006C0004FF0004302E06FF0010253101AEB0600F6
:1006D0004CEB085110EB0A0041EB0B01BDE8F04D6B
:1006E00000F0E3B9C10F80EAE0700844CA0796231E
:1006F000002100F0ACB996230022114600F0A7B902
:10070000F0B4CA17CB0F50405140C61841F1000554
:100710004FEAC372314628004FF0960303D0B62348
:10072000F0BC00F094B930460021F9E700F0004237
:1007300020F00040C10DC0F3160040F400007F29F6
:1007400001DA00207047962903DCC1F19601C84008
:1007500001E096398840002AF4D04042704720F0EA
:100760000040C10DC0F3160040F400007F2901DAFB
:1007700000207047962903DCC1F19601C8407047FC
:1007800096398840704700F0004230F000400AD0AF
:10079000C10D01F56071C0F3160042EA0151C208B3
:1007A00040071143704700200146704730B5041ED2
:1007B00071F1000404DB4FF00044404264EB01019E
:1007C000141E73F1000405DB1C464FF00043524237
:1007D00063EB04038B4208BF824230BD30B5041E78
:1007E00071F1000404DB4FF00044404264EB01016E
:1007F000141E73F1000405DB1C464FF00043524207
:1008000063EB0403994208BF904230BD01F00043FE
:1008100030B421F0004150EA010206D00A0DA2F5E1
:100820006072C1F31301002A02DC30BC0020704763
:10083000440F44EAC104C100E01830BC00EBC250D0
:1008400000F0FCB8002801DBC0F10040002901DB0A
:10085000C1F1004181427047002801DBC0F1004036
:10086000002901DBC1F10041884270472DE9F05FAA
:100870000546002092469B4688460646814640240F
:100880001BE0284641464746224600F0BDF9534644
:100890005A46C01A914110D311461846224600F01C
:1008A00016F82D1A67EB01084F4622460120002159
:1008B00000F00DF817EB00094E41201EA4F10104D1
:1008C000DFDC484631462A464346BDE8F09F202AF1
:1008D00004DB203A00FA02F1002070479140C2F197
:1008E000200320FA03F3194390407047202A06DBC7
:1008F000CB17203A41FA02F043EAE07306E041FAEE
:1009000002F3D040C2F120029140084319467047DB
:100910000FB4002300B589B00CA900910B996FF0BA
:100920000042CB601E4B06931E4B07930423CDE978
:1009300001321D4A089202466B46002000F016FA6A
:1009400009B05DF814FB70B586B006464FF0FF3075
:100950000091CDE90101002015460C460490324675
:10096000694604A8FFF7D4FF02460498211825B170
:1009700008B1084600E020462860049800280DD001
:10098000002A02DD0098884208D0081B0094CDE9B7
:1009900001043246694604A8FFF7BAFF06B070BDED
:1009A000A50F0008C30F0008310C00082DE9F0471F
:1009B00091460E4680460446002514F8017B2FB16F
:1009C00000F032F90068C05DC007F6D12B2F02D0CD
:1009D0002D2F1ED0641E4A463146204600F002FBF1
:1009E00026B13268A24201D1C6F800806A054FF0F4
:1009F000020418D50023D0EB030563EB01025D1B55
:100A0000934109DB0023D0EB030063EB0101BDE858
:100A1000F08745F48065DEE70FF0D4FE0460002027
:100A20004FF00041F3E7021E71F10002EFDA0FF020
:100A3000C9FE04604FF0FF304108E8E70029A8BF75
:100A40007047401C490008BF20F00100704710B4F7
:100A5000B0FA80FC00FA0CF050EA010404BF10BCAC
:100A6000704749B1CCF1200421FA04F411FA0CF1D9
:100A700018BF012121430843A3EB0C01CB1D4FEA12
:100A800000614FEA102042BF002010BC704700EB0D
:100A9000C35010440029A4BF10BC7047401C49003B
:100AA00008BF20F0010010BC704710B5141E73F190
:100AB000000408DA401C41F1000192185B411A431E
:100AC00001D120F0010010BD2DE9F04D92469B466A
:100AD00011B1B1FA81F202E0B0FA80F22032904610
:100AE000FFF7F5FE04460F4640EA0A0041EA0B0113
:100AF00053465A46084313D0114653EA010019D011
:100B0000C8F14002504600F07FF805460E465046B8
:100B100059464246FFF7DBFE084305D0012004E0BA
:100B200020463946BDE8F08D0020054346EAE076D0
:100B30002C4337430A986305E40AA0EB080000221F
:100B4000FD0A44EA47540A3002D500200146E9E78D
:100B5000010510196941DDE9084500196941BDE841
:100B6000F04DA2E770B521F0004303430CD0C1F370
:100B70000A550024D5EB040564EB0403D617AD1A1F
:100B8000B34102DB0020014670BD201841EB025149
:100B900070BD0EB5C10F80EAE0700844CA0700219D
:100BA00040F233438DE80E000A460B46FFF78CFFF8
:100BB00003B000BDC1F30A52C1F3130140F2FF3389
:100BC00041F480119A4202DA00200146704740F257
:100BD00033439A42A2F2334202DC524200F014B88C
:100BE000FFF775BE064C074D06E0E06840F00103D4
:100BF00094E8070098471034AC42F6D3FFF77AFA2E
:100C0000F4D2010814D30108202A04DB203A21FA87
:100C100002F00021704721FA02F3D040C2F1200215
:100C20009140084319467047004870478CD201082C
:100C300010B50446FFF7F8FF0068005D00F0010002
:100C400010BD00002DE9FF4F087883B09946FF28BA
:100C500005D0491C2D2804D00024002008E00020E5
:100C60000BE00124F9E700EB800003EB4000491C96
:100C70000B78FF2BF7D104B1404200230293147884
:100C800019461D462D2C01D02B2C04D1521C2D2C85
:100C900013D000240294AA461478FF2C0FD00A2502
:100CA000A3FB057801FB05814FF0000C03FB0C1141
:100CB000521CE3194AEB0101EEE70124EAE7814403
:100CC00053EA010002D019F5C87F06DA0398002123
:100CD000C0E9001107B0BDE8F08F0025AE4E2F46E9
:100CE000DFF8B882184600F0ECF9CDE90001B9F15F
:100CF000000002DAC9F1000400E004460023A74A1C
:100D00001AEB030B42EB045A12E0E00707D02A4625
:100D1000334638464146FFF704FC074688462A46D4
:100D2000334610461946FFF7FCFB05460E46641095
:100D3000002CEAD1DDE90001B9F1000F5A46534613
:100D400006DAFFF760FC3A464346FFF75CFC05E035
:100D5000FFF7E7FB3A464346FFF7E3FB029A0AB187
:100D600081F00041039AC2E90001B3E72DE9FF4F8A
:100D70001F468DB0D7E901464FF0FF382E2045467B
:100D80004FF000090B90B9696D1C0E988847396ABD
:100D9000824688470028F6D1BAF1FF3F0AD024F4F2
:100DA000D064002E11DDBAF12B0F08D0BAF12D0F4F
:100DB0000BD102E0404611B08DE744F48064B9697C
:100DC0006D1C0E9888478246761E6946600501D5DF
:100DD0002D2000E02B208DF8000001F1010B0DF11A
:100DE000200809E0B9696D1C0E98884782460F9863
:100DF00044F40074761E0560002E02DDBAF1300F57
:100E0000F0D00B998A453ED144F0800406E00F995A
:100E1000681CA9F1010944F400740860B9696D1CEB
:100E2000761E0E98884782463028F0D02BE00B992A
:100E30008A4505D1200603D444F08004761E18E0CC
:100E400050460FF001FE08B30DF11301761E44F475
:100E500000748B4508D2AAF130000BF8010B200674
:100E600007D5A9F1010003E0200602D409F1010031
:100E70008146A00502D50F99681C0860B9696D1CF0
:100E80000E9888478246002ED1DC53E0002E51DDBB
:100E9000BAF1650F02D0BAF1450F4BD1A00549D583
:100EA000B9696D1C24F44074761E0E9888478246FA
:100EB000002E0CDD2B2804D0BAF12D0F07D144F4FD
:100EC0008074B9696D1C0E9888478246761EE005CD
:100ED00001D52D2100E02B2108F8011BCDF82C8035
:100EE00021E00DF12901761E44F4007488450CD2EE
:100EF000AAF1300010F0FF0088F8000002D10B9931
:100F0000884509D908F1010806E0E00501D5244823
:100F100001E042F20F708146B9696D1C0E98884756
:100F200082460F980560002E04DD50460FF08CFDC0
:100F30000028D6D1F9690E988847FF208BF8000069
:100F400088F800000020069007904B466A4608A9E2
:100F500006A8FFF777FEA00502D46FF001002AE78C
:100F600014F0240F0AD0E00714D1DDE90612386826
:100F7000031D3B600068C0E900120BE0DDE90601DB
:100F8000FFF744FC0146E00704D13868021D3A60CF
:100F90000068016028460EE7000014400000F03FA2
:100FA000F1D8FFFF426842B1016811F8013B23B15B
:100FB000521EC0E90012184670470121C160881E08
:100FC000704742685AB1C368016843B983688B426D
:100FD00005D0491E521CC0E90012002070474FF096
:100FE000FF3070472DE9F74F4FF00009009C154680
:100FF000CA4614F8010B302801D0ADB115E014F841
:10100000010B4FF00109782803D0582801D04DB1C9
:101010000BE00DB1102D08D14FF00009102514F888
:10102000010B02E0082500E00A2500273E46B846ED
:101030004FEAE57B16E0A5FB07230BFB073105FB19
:10104000080005FB0616030CD71846F100061FFA28
:1010500080F8381E4FF0010976F5803000D3CA467B
:1010600014F8010B294600F01EF80028E3DA019875
:1010700038B1B9F1000F01D0641E00E0009C019866
:101080000460BAF1000F08D00FF09CFB0221016050
:10109000C81E014603B0BDE8F08F310441EA174194
:1010A00048EA0740F6E73A2800D2303820F020021C
:1010B000412A01D3A2F13700884201D34FF0FF301B
:1010C00070470EB540F2334202920022CDE9002271
:1010D0001346FFF7F9FC03B000BD70B58C1810F88B
:1010E000015B15F0070301D110F8013B2A1106D16D
:1010F00010F8012B03E010F8016B01F8016B5B1E87
:10110000F9D12B0705D40023521E0DD401F8013B61
:10111000FAE710F8013BCB1A921C03E013F8015BCD
:1011200001F8015B521EF9D5A142D8D3002070BD51
:1011300021B1826842F00102826003E0826822F0FD
:10114000010282607047000000B587B001214802AB
:101150000BF0EAFE012104200BF0E6FE1C20ADF8A6
:10116000040000208DF8070001A9184808F0EEFFE0
:10117000002002908DF80C008DF80D004FF46020D7
:1011800004900020059001208DF8180002A9104855
:1011900000F042F801210E48FFF7CAFF4FF440402B
:1011A0000BF086FE0A4800F0BBF800BF084800F0CC
:1011B00028F80028FAD1064800F0C2F800BF044819
:1011C00000F008F80028FAD107B000BD000801407F
:1011D00000240140014600208A6802F004020AB19E
:1011E000012000E0002070470146C86C80B27047C3
:1011F0000246002013680B400BB1012000E00020E4
:101200007047014600208A6802F008020AB10120F6
:1012100000E000207047000030B5024600200023A7
:1012200050680F4C20400D790C6844EA0524204397
:10123000506090680B4C2040D1E902542C434D790A
:1012400044EA450420439060D06A20F470000C7C8E
:10125000641EE4B2234340EA0350D06230BD000074
:10126000FFFEF0FFFDF7F1FFF0B504460D4600204C
:101270000021092D11DDE068A5F10A0606EB4607FD
:10128000072606FA07F18843A5F10A0606EB46068B
:1012900003FA06F10843E0600CE0206905EB45071E
:1012A000072606FA07F1884305EB450603FA06F11F
:1012B00008432061072A0FDA606B561E06EB86078B
:1012C0001F2606FA07F18843561E06EB860605FA26
:1012D00006F10843606322E00D2A0FDA206BD61F67
:1012E00006EB86071F2606FA07F18843D61F06EB92
:1012F000860605FA06F10843206310E0E06AA2F1D1
:101300000D0606EB86071F2606FA07F18843A2F1B1
:101310000D0606EB860605FA06F10843E062F0BD0D
:10132000816841F008018160704721B1826842F410
:10133000A002826003E0826822F4A002826070470B
:10134000816841F004018160704738B504460D465C
:10135000A4F10C000A2881F06281DFE810F00A0095
:10136000FA00E901D802C703B604A505940683076D
:101370007208012306222421104613F00DFC0123DC
:1013800007222421262013F007FC01231A222421FE
:10139000462013F001FC01231B222421662013F0B8
:1013A000FBFB06224821104613F0BCFB0722482114
:1013B000262013F0B7FB1C224821462013F0B2FB75
:1013C0001B224821662013F0ADFB06226C2110463B
:1013D00013F0A8FB07226C21262013F0A3FB1D228B
:1013E0006C21462013F09EFB1B226C21662013F01B
:1013F00099FB06229021104613F094FB07229021BE
:10140000262013F08FFB1E229021462013F08AFB2A
:101410001B229021662013F085FB0622B421104682
:1014200013F080FB0722B421262013F07BFB1F2240
:10143000B421462013F076FB1B22B421662013F062
:1014400071FB062224214FF4AD7013F06BFB0722D1
:1014500024214FF4BD7013F065FB202224214FF4AA
:10146000CD7013F05FFB1B2224214FF4DD7013F0CD
:1014700059FB062248214FF4AD7013F053FB0722AD
:1014800048214FF4BD7013F04DFB212248214FF449
:10149000CD7013F047FB1B2248214FF4DD7013F091
:1014A00041FB06226C214FF4AD7013F03BFB072289
:1014B0006C214FF4BD7013F035FB22226C214FF4E8
:1014C000CD7013F02FFB1B226C214FF4DD7013F055
:1014D00029FB062290214FF4AD7013F023FB072265
:1014E00090214FF4BD7013F01DFB232290214FF487
:1014F000CD7013F017FB1B2290214FF4DD7013F019
:1015000011FB0622B4214FF4AD7013F00BFB072240
:10151000B4214FF4BD7013F005FB00204FF6FF73AC
:101520000122B42100904FF4CD7013F0BFFA0020D7
:101530004FF6FF730246B42100904FF4D57013F0BC
:10154000B5FA1B22B4214FF4DD7013F0EBFA01F071
:1015500067B806222421104613F0E4FA072224215A
:10156000262013F0DFFA1A222421462013F0DAFA9B
:101570001B222421662013F0D5FA012306224821DC
:10158000104613F009FB012307224821262013F0FF
:1015900003FB01231C224821462013F0FDFA0123FE
:1015A0001B224821662013F0F7FA06226C21104610
:1015B00013F0B8FA07226C21262013F0B3FA1D228B
:1015C0006C21462013F0AEFA1B226C21662013F02A
:1015D000A9FA06229021104613F0A4FA07229021BE
:1015E000262013F09FFA1E229021462013F09AFA2B
:1015F0001B229021662013F095FA0622B421104692
:1016000013F090FA0722B421262013F08BFA1F2240
:10161000B421462013F086FA1B22B421662013F071
:1016200081FA062224214FF4AD7013F07BFA0722D1
:1016300024214FF4BD7013F075FA202224214FF4B9
:10164000CD7013F06FFA1B2224214FF4DD7013F0DC
:1016500069FA062248214FF4AD7013F063FA0722AD
:1016600048214FF4BD7013F05DFA212248214FF458
:10167000CD7013F057FA1B2248214FF4DD7013F0A0
:1016800051FA06226C214FF4AD7013F04BFA072289
:101690006C214FF4BD7013F045FA22226C214FF4F7
:1016A000CD7013F03FFA1B226C214FF4DD7013F064
:1016B00039FA062290214FF4AD7013F033FA072265
:1016C00090214FF4BD7013F02DFA232290214FF496
:1016D000CD7013F027FA1B2290214FF4DD7013F028
:1016E00021FA0622B4214FF4AD7013F01BFA072241
:1016F000B4214FF4BD7013F015FA00204FF6FF73BC
:101700000122B42100904FF4CD7013F0CFF90020E6
:101710004FF6FF730246B42100904FF4D57013F0DA
:10172000C5F91B22B4214FF4DD7013F0FBF90EE76D
:1017300006222421104613F0F5F907222421262041
:1017400013F0F0F91A222421462013F0EBF91B22A2
:101750002421662013F0E6F906224821104613F0F2
:10176000E1F907224821262013F0DCF91C22482148
:10177000462013F0D7F91B224821662013F0D2F936
:10178000012306226C21104613F006FA01230722DA
:101790006C21262013F000FA01231D226C21462023
:1017A00013F0FAF901231B226C21662013F0F4F9DF
:1017B00006229021104613F0B5F907229021262029
:1017C00013F0B0F91E229021462013F0ABF91B2232
:1017D0009021662013F0A6F90622B421104613F0DA
:1017E000A1F90722B421262013F09CF91F22B4216D
:1017F000462013F097F91B22B421662013F092F9CA
:10180000062224214FF4AD7013F08CF90722242115
:101810004FF4BD7013F086F9202224214FF4CD70CF
:1018200013F080F91B2224214FF4DD7013F07AF9B4
:10183000062248214FF4AD7013F074F907224821B5
:101840004FF4BD7013F06EF9212248214FF4CD7092
:1018500013F068F91B2248214FF4DD7013F062F990
:1018600006226C214FF4AD7013F05CF907226C2155
:101870004FF4BD7013F056F922226C214FF4CD7055
:1018800013F050F91B226C214FF4DD7013F04AF96C
:10189000062290214FF4AD7013F044F907229021F5
:1018A0004FF4BD7013F03EF9232290214FF4CD7018
:1018B00013F038F91B2290214FF4DD7013F032F948
:1018C0000622B4214FF4AD7013F02CF90722B42195
:1018D0004FF4BD7013F026F900204FF6FF7301227C
:1018E000B42100904FF4CD7013F0E0F800204FF6D3
:1018F000FF730246B42100904FF4D57013F0D6F870
:101900001B22B4214FF4DD7013F00CF91FE6062200
:101910002421104613F006F907222421262013F073
:1019200001F91A222421462013F0FCF81B2224215D
:10193000662013F0F7F806224821104613F0F2F85B
:1019400007224821262013F0EDF81C2248214620CA
:1019500013F0E8F81B224821662013F0E3F8062272
:101960006C21104613F0DEF807226C21262013F0BC
:10197000D9F81D226C21462013F0D4F81B226C21CB
:10198000662013F0CFF8012306229021104613F0B1
:1019900003F9012307229021262013F0FDF80123EB
:1019A0001E229021462013F0F7F801231B229021DC
:1019B000662013F0F1F80622B421104613F0B2F8B5
:1019C0000722B421262013F0ADF81F22B4214620AF
:1019D00013F0A8F81B22B421662013F0A3F8062206
:1019E00024214FF4AD7013F09DF8072224214FF409
:1019F000BD7013F097F8202224214FF4CD7013F01E
:101A000091F81B2224214FF4DD7013F08BF806228D
:101A100048214FF4AD7013F085F8072248214FF4A8
:101A2000BD7013F07FF8212248214FF4CD7013F0E0
:101A300079F81B2248214FF4DD7013F073F8062269
:101A40006C214FF4AD7013F06DF807226C214FF448
:101A5000BD7013F067F822226C214FF4CD7013F0A3
:101A600061F81B226C214FF4DD7013F05BF8062245
:101A700090214FF4AD7013F055F8072290214FF4E8
:101A8000BD7013F04FF8232290214FF4CD7013F066
:101A900049F81B2290214FF4DD7013F043F8062221
:101AA000B4214FF4AD7013F03DF80722B4214FF488
:101AB000BD7013F037F800204FF6FF730122B421F8
:101AC00000904FF4CD7012F0F1FF00204FF6FF733D
:101AD0000246B42100904FF4D57012F0E7FF1B22AC
:101AE000B4214FF4DD7013F01DF830E506222421F7
:101AF000104613F017F807222421262013F012F8BD
:101B00001A222421462013F00DF81B2224216620DE
:101B100013F008F806224821104613F003F80722B4
:101B20004821262012F0FEFF1C224821462012F0F8
:101B3000F9FF1B224821662012F0F4FF06226C21D7
:101B4000104612F0EFFF07226C21262012F0EAFF68
:101B50001D226C21462012F0E5FF1B226C2166201D
:101B600012F0E0FF06229021104612F0DBFF072260
:101B70009021262012F0D6FF1E229021462012F03E
:101B8000D1FF1B229021662012F0CCFF01230622F8
:101B9000B421104613F000F801230722B4212620B7
:101BA00012F0FAFF01231F22B421462012F0F4FFA5
:101BB00001231B22B421662012F0EEFF062224210D
:101BC0004FF4AD7012F0AEFF072224214FF4BD7028
:101BD00012F0A8FF202224214FF4CD7012F0A2FFB2
:101BE0001B2224214FF4DD7012F09CFF06224821B5
:101BF0004FF4AD7012F096FF072248214FF4BD70EC
:101C000012F090FF212248214FF4CD7012F08AFF8C
:101C10001B2248214FF4DD7012F084FF06226C2154
:101C20004FF4AD7012F07EFF07226C214FF4BD70AF
:101C300012F078FF22226C214FF4CD7012F072FF67
:101C40001B226C214FF4DD7012F06CFF06229021F4
:101C50004FF4AD7012F066FF072290214FF4BD7073
:101C600012F060FF232290214FF4CD7012F05AFF42
:101C70001B2290214FF4DD7012F054FF0622B42194
:101C80004FF4AD7012F04EFF0722B4214FF4BD7037
:101C900012F048FF00204FF6FF730122B42100909C
:101CA0004FF4CD7012F002FF00204FF6FF73024692
:101CB000B42100904FF4D57012F0F8FE1B22B4212D
:101CC0004FF4DD7012F02EFF41E40622242110466D
:101CD00012F028FF07222421262012F023FF1A22C7
:101CE0002421462012F01EFF1B222421662012F020
:101CF00019FF06224821104612F014FF072248213E
:101D0000262012F00FFF1C224821462012F00AFF65
:101D10001B224821662012F005FF06226C21104686
:101D200012F000FF07226C21262012F0FBFE1D227C
:101D30006C21462012F0F6FE1B226C21662012F068
:101D4000F1FE06229021104612F0ECFE07229021AF
:101D5000262012F0E7FE1E229021462012F0E2FE1D
:101D60001B229021662012F0DDFE0622B4211046CF
:101D700012F0D8FE0722B421262012F0D3FE1F2233
:101D8000B421462012F0CEFE1B22B421662012F0B0
:101D9000C9FE0123062224214FF4AD7012F0FCFE8F
:101DA0000123072224214FF4BD7012F0F5FE012318
:101DB000202224214FF4CD7012F0EEFE01231B22CD
:101DC00024214FF4DD7012F0E7FE062248214FF483
:101DD000AD7012F0A7FE072248214FF4BD7012F03B
:101DE000A1FE212248214FF4CD7012F09BFE1B2250
:101DF00048214FF4DD7012F095FE06226C214FF45D
:101E0000AD7012F08FFE07226C214FF4BD7012F0FE
:101E100089FE22226C214FF4CD7012F083FE1B222A
:101E20006C214FF4DD7012F07DFE062290214FF4FC
:101E3000AD7012F077FE072290214FF4BD7012F0C2
:101E400071FE232290214FF4CD7012F06BFE1B2205
:101E500090214FF4DD7012F065FE0622B4214FF49C
:101E6000AD7012F05FFE0722B4214FF4BD7012F086
:101E700059FE00204FF6FF730122B42100904FF469
:101E8000CD7012F013FE00204FF6FF730246B4210E
:101E900000904FF4D57012F009FE1B22B4214FF4CC
:101EA000DD7012F03FFEBBE306222421104612F043
:101EB00039FE07222421262012F034FE1A22242182
:101EC000462012F02FFE1B222421662012F02AFE4B
:101ED00006224821104612F025FE0722482126201E
:101EE00012F020FE1C224821462012F01BFE1B226D
:101EF0004821662012F016FE06226C21104612F0D0
:101F000011FE07226C21262012F00CFE1D226C21EE
:101F1000462012F007FE1B226C21662012F002FE02
:101F200006229021104612F0FDFD07229021262066
:101F300012F0F8FD1E229021462012F0F3FD1B2224
:101F40009021662012F0EEFD0622B421104612F018
:101F5000E9FD0722B421262012F0E4FD1F22B4215E
:101F6000462012F0DFFD1B22B421662012F0DAFDBC
:101F7000062224214FF4AD7012F0D4FD0722242153
:101F80004FF4BD7012F0CEFD202224214FF4CD700D
:101F900012F0C8FD1B2224214FF4DD7012F0C2FDA7
:101FA0000123062248214FF4AD7012F0F5FD012304
:101FB000072248214FF4BD7012F0EEFD01232122CB
:101FC00048214FF4CD7012F0E7FD01231B22482178
:101FD0004FF4DD7012F0E0FD06226C214FF4AD707D
:101FE00012F0A0FD07226C214FF4BD7012F09AFD93
:101FF00022226C214FF4CD7012F094FD1B226C2133
:102000004FF4DD7012F08EFD062290214FF4AD707A
:1020100012F088FD072290214FF4BD7012F082FD6E
:10202000232290214FF4CD7012F07CFD1B229021D1
:102030004FF4DD7012F076FD0622B4214FF4AD703E
:1020400012F070FD0722B4214FF4BD7012F06AFD4A
:1020500000204FF6FF730122B42100904FF4CD70A1
:1020600012F024FD00204FF6FF730246B4210090C9
:102070004FF4D57012F01AFD1B22B4214FF4DD701D
:1020800012F050FDCCE206222421104612F04AFD47
:1020900007222421262012F045FD1A222421462061
:1020A00012F040FD1B222421662012F03BFD062287
:1020B0004821104612F036FD07224821262012F052
:1020C00031FD1C224821462012F02CFD1B22482104
:1020D000662012F027FD06226C21104612F022FD28
:1020E00007226C21262012F01DFD1D226C214620A6
:1020F00012F018FD1B226C21662012F013FD06223F
:102100009021104612F00EFD07229021262012F099
:1021100009FD1E229021462012F004FD1B22902171
:10212000662012F0FFFC0622B421104612F0FAFCE1
:102130000722B421262012F0F5FC1F22B4214620EC
:1021400012F0F0FC1B22B421662012F0EBFC0622F8
:1021500024214FF4AD7012F0E5FC072224214FF446
:10216000BD7012F0DFFC202224214FF4CD7012F05C
:10217000D9FC1B2224214FF4DD7012F0D3FC06227F
:1021800048214FF4AD7012F0CDFC072248214FF4E6
:10219000BD7012F0C7FC212248214FF4CD7012F01F
:1021A000C1FC1B2248214FF4DD7012F0BBFC01235F
:1021B00006226C214FF4AD7012F0EEFC01230722D1
:1021C0006C214FF4BD7012F0E7FC012322226C2138
:1021D0004FF4CD7012F0E0FC01231B226C214FF470
:1021E000DD7012F0D9FC062290214FF4AD7012F090
:1021F00099FC072290214FF4BD7012F093FC23222A
:1022000090214FF4CD7012F08DFC1B2290214FF4E1
:10221000DD7012F087FC0622B4214FF4AD7012F08D
:1022200081FC0722B4214FF4BD7012F07BFC00202A
:102230004FF6FF730122B42100904FF4CD7012F0DD
:1022400035FC00204FF6FF730246B42100904FF496
:10225000D57012F02BFC1B22B4214FF4DD7012F06C
:1022600061FCDDE106222421104612F05BFC07220E
:102270002421262012F056FC1A222421462012F096
:1022800051FC1B222421662012F04CFC062248211E
:10229000104612F047FC07224821262012F042FC8B
:1022A0001C224821462012F03DFC1B2248216620BA
:1022B00012F038FC06226C21104612F033FC072283
:1022C0006C21262012F02EFC1D226C21462012F0DB
:1022D00029FC1B226C21662012F024FC062290218E
:1022E000104612F01FFC07229021262012F01AFC43
:1022F0001E229021462012F015FC1B229021662000
:1023000012F010FC0622B421104612F00BFC07223A
:10231000B421262012F006FC1F22B421462012F020
:1023200001FC1B22B421662012F0FCFB06222421B2
:102330004FF4AD7012F0F6FB072224214FF4BD706C
:1023400012F0F0FB202224214FF4CD7012F0EAFBB2
:102350001B2224214FF4DD7012F0E4FB06224821F9
:102360004FF4AD7012F0DEFB072248214FF4BD7030
:1023700012F0D8FB212248214FF4CD7012F0D2FB8D
:102380001B2248214FF4DD7012F0CCFB06226C2199
:102390004FF4AD7012F0C6FB07226C214FF4BD70F4
:1023A00012F0C0FB22226C214FF4CD7012F0BAFB68
:1023B0001B226C214FF4DD7012F0B4FB01230622C6
:1023C00090214FF4AD7012F0E7FB0123072290211A
:1023D0004FF4BD7012F0E0FB0123232290214FF453
:1023E000CD7012F0D9FB01231B2290214FF4DD7038
:1023F00012F0D2FB0622B4214FF4AD7012F092FB22
:102400000722B4214FF4BD7012F08CFB00204FF670
:10241000FF730122B42100904FF4CD7012F046FBFF
:1024200000204FF6FF730246B42100904FF4D570A0
:1024300012F03CFB1B22B4214FF4DD7012F072FB52
:10244000EEE006222421104612F06CFB0722242124
:10245000262012F067FB1A222421462012F062FB8C
:102460001B222421662012F05DFB06224821104623
:1024700012F058FB07224821262012F053FB1C22A1
:102480004821462012F04EFB1B224821662012F004
:1024900049FB06226C21104612F044FB07226C21F6
:1024A000262012F03FFB1D226C21462012F03AFB41
:1024B0001B226C21662012F035FB0622902110466B
:1024C00012F030FB07229021262012F02BFB1E2257
:1024D0009021462012F026FB1B229021662012F04C
:1024E00021FB0622B421104612F01CFB0722B42166
:1024F000262012F017FB1F22B421462012F012FBF7
:102500001B22B421662012F00DFB062224214FF479
:10251000AD7012F007FB072224214FF4BD7012F0BA
:1025200001FB202224214FF4CD7012F0FBFA1B2274
:1025300024214FF4DD7012F0F5FA062248214FF401
:10254000AD7012F0EFFA072248214FF4BD7012F07F
:10255000E9FA212248214FF4CD7012F0E3FA1B2250
:1025600048214FF4DD7012F0DDFA06226C214FF4A1
:10257000AD7012F0D7FA07226C214FF4BD7012F043
:10258000D1FA22226C214FF4CD7012F0CBFA1B222B
:102590006C214FF4DD7012F0C5FA062290214FF441
:1025A000AD7012F0BFFA072290214FF4BD7012F007
:1025B000B9FA232290214FF4CD7012F0B3FA1B2206
:1025C00090214FF4DD7012F0ADFA01230622B42100
:1025D0004FF4AD7012F0E0FA01230722B4214FF45A
:1025E000BD7012F0D9FA4FF6FF7000230122B4211A
:1025F00000904FF4CD7012F059FA4FF6FF7000239F
:102600001A46B42100904FF4D57012F04FFA01230E
:102610001B22B4214FF4DD7012F0BEFA00E000BFBF
:1026200000BF38BD03B591B0FE4800780C2801F01A
:102630009B85FC4800780D28F9D0FA4800780E28D0
:10264000F5D0F84800780F28F1D0F6480078102827
:10265000EDD0F44800781128E9D0F248007812282B
:10266000E5D0F04800781328E1D0EE48007814282F
:10267000DDD0EC4800781528D9D0129802287DD0FA
:10268000042803D0052841F06D85F5E3E64800787D
:1026900078BBE648007860BBE548007848BBE54871
:1026A000007830BBE448007818BBE448007800BBF1
:1026B000E3480078E8B9E3480078D0B9E248007808
:1026C000B8B9E2480078A0B9E14800780C38C0EB0E
:1026D000C000E04901EBC0004078401CC1B2DC48BA
:1026E00000780C38C0EBC000DA4A02EBC000417041
:1026F000FEE3FFE7D64800780C38C0EBC000D549B0
:1027000001EBC000407801287ED1D3480078012831
:1027100015D1CF4800780C38C0EBC00001EBC000E9
:1027200080684FF07E511090FDF78CFDC849097804
:102730000C39C1EBC101C74A02EBC1018860C64830
:102740000078022816D1C24800780C38C0EBC000CF
:10275000C04901EBC000C0684FF07E511090FDF7FA
:1027600071FDBB4909780C39C1EBC101B94A02EBD3
:10277000C101C860B8480078032800E0FEE313D127
:10278000B34800780C38C0EBC000B24901EBC00080
:10279000007D401CC1B2AE4800780C38C0EBC000D0
:1027A000AC4A02EBC0000175AB480078042815D193
:1027B000A74800780C38C0EBC000A64901EBC00068
:1027C000407D08B9012100E00021A14800780C38C3
:1027D000C0EBC0009F4A02EBC00041759C480078E6
:1027E0000C38C0EBC0009B4901EBC000007D042801
:1027F00009D10021964800780C38C0EBC000954AFA
:1028000002EBC000017500E059E09348007805280C
:1028100013D18F4800780C38C0EBC0008D4901EB14
:10282000C000008A401C81B2894800780C38C0EB97
:10283000C000884A02EBC000018287480078062861
:1028400013D1834800780C38C0EBC000814901EBFC
:10285000C000408A401C81B27D4800780C38C0EB33
:10286000C0007C4A02EBC0004182794800780C38F5
:10287000C0EBC000774901EBC000008A1E2809DBCD
:102880001E21734800780C38C0EBC000714A02EB7F
:10289000C00001826E4800780C38C0EBC0006D4962
:1028A00001EBC000408A1E2809DB1E216848007821
:1028B0000C38C0EBC000674A02EBC000418264489C
:1028C00000780C38C0EBC000624901EBC0004078D2
:1028D00002285CD161480078012812D15C48007858
:1028E0000C38C0EBC00001EBC000808B401C81B2F3
:1028F000574800780C38C0EBC000564A02EBC000C5
:10290000818356480078022813D1514800780C384A
:10291000C0EBC0004F4901EBC000408B401C81B2AE
:102920004B4800780C38C0EBC0004A4A02EBC000AC
:102930004183474800780C38C0EBC000454901EBA3
:10294000C000808B42F21071884209D100214048BA
:1029500000780C38C0EBC0003E4A02EBC000818317
:102960003B4800780C38C0EBC0003A4901EBC0008E
:10297000408B42F21071884209D10021344800781E
:102980000C38C0EBC000334A02EBC0004183304832
:1029900000780C38C0EBC0002E4901EBC000407835
:1029A00003287DD12E480078012815D128480078C9
:1029B0000C38C0EBC00001EBC00080684FF07E51C6
:1029C0001090FDF73FFC224909780C39C1EBC10199
:1029D000204A02EBC101886021480078022816D104
:1029E0001B4800780C38C0EBC0001A4901EBC0004E
:1029F000C0684FF07E511090FDF724FC144909780F
:102A00000C39C1EBC101134A02EBC101C860144883
:102A10000078032834D10E4800780C38C0EBC00091
:102A20000C491FE015030020280300202903002083
:102A30002A0300202B0300202C0300202D0300205C
:102A40002E0300202F03002030030020310300203C
:102A500072040020D0000020320300203303002045
:102A60003403002001EBC000007D401CC1B2FE48D1
:102A700000780C38C0EBC000FC4A02EBC0000175C6
:102A8000FB480078042816D1F74800780C38C0EBD2
:102A9000C000F64901EBC000407D10B9012101E002
:102AA0007CE00021F04800780C38C0EBC000EF4A11
:102AB00002EBC0004175EC4800780C38C0EBC00058
:102AC000EA4901EBC000007D042809D10021E64855
:102AD00000780C38C0EBC000E44A02EBC00001757E
:102AE000E3480078052813D1DF4800780C38C0EBA4
:102AF000C000DE4901EBC000808B401C81B2DA4887
:102B000000780C38C0EBC000D84A02EBC0008183CB
:102B1000D7480078062813D1D34800780C38C0EB8A
:102B2000C000D24901EBC000408B401C81B2CE48AE
:102B300000780C38C0EBC000CC4A02EBC0004183E7
:102B4000C94800780C38C0EBC000C84901EBC00090
:102B5000808B42F21071884209D10021C24800786E
:102B60000C38C0EBC000C14A02EBC0008183BE48F4
:102B700000780C38C0EBC000BC4901EBC000408BB2
:102B800042F21071884209D10021B74800780C3810
:102B9000C0EBC000B54A02EBC0004183B2480078E8
:102BA0000C38C0EBC000B14901EBC00040780428EC
:102BB0007ED1B0480078012814D1AB4800780C3899
:102BC000C0EBC00001EBC00090F82100401CC1B276
:102BD000A54800780C38C0EBC000A44A02EBC00046
:102BE00080F82110A3480078022815D19E4800786B
:102BF0000C38C0EBC0009D4901EBC00090F82200EA
:102C0000401CC1B2984800780C38C0EBC000974A0D
:102C100002EBC00080F8221096480078032815D1F6
:102C2000914800780C38C0EBC000904901EBC0001F
:102C300090F82300401CC1B28B4800780C38C0EBE0
:102C4000C0008A4A02EBC00080F82310894800784F
:102C5000042817D1844800780C38C0EBC0008349A1
:102C600001EBC00090F8240008B9012100E0002128
:102C70007D4800780C38C0EBC0007C4A02EBC000F5
:102C800080F824107B480078052817D17648007812
:102C90000C38C0EBC000754901EBC00090F825006E
:102CA000401CC1B2704800780C38C0EBC00000E096
:102CB00000E36E4A02EBC00080F825106D480078F2
:102CC000062815D1684800780C38C0EBC000674969
:102CD00001EBC00090F82600401CC1B262480078A9
:102CE0000C38C0EBC000614A02EBC00080F826102F
:102CF00060480078072815D15B4800780C38C0EB95
:102D0000C0005A4901EBC00090F82700401CC1B236
:102D1000554800780C38C0EBC000544A02EBC000A4
:102D200080F8271053480078082817D14E480078BB
:102D30000C38C0EBC0004D4901EBC00090F82800F2
:102D400008B9012100E00021474800780C38C0EBA9
:102D5000C000464A02EBC00080F8281045480078C1
:102D6000092815D1404800780C38C0EBC0003F4915
:102D700001EBC00090F82900401CC1B23A4800782D
:102D80000C38C0EBC000394A02EBC00080F82910B3
:102D9000384800780A2815D1334800780C38C0EB41
:102DA000C000324901EBC00090F82A00401CC1B2BB
:102DB0002D4800780C38C0EBC0002C4A02EBC00054
:102DC00080F82A102B4800780B2815D12648007867
:102DD0000C38C0EBC000254901EBC00090F82B0077
:102DE000401CC1B2204800780C38C0EBC0001F4A1C
:102DF00002EBC00080F82B101E4800780C2817D179
:102E0000194800780C38C0EBC000184901EBC0002D
:102E100090F82C0008B9012100E000211248007848
:102E20000C38C0EBC000114A02EBC00080F82C1037
:102E3000104800780D2815D10B4800780C38C0EBED
:102E4000C0000A4901EBC00090F82D00401CC1B23F
:102E5000054800780C38C0EBC000044A02EBC00003
:102E600080F82D10034808E072040020D0000020F4
:102E700034030020350300204AE200780E2815D1E3
:102E8000FE4800780C38C0EBC000FD4901EBC000E3
:102E900090F82E00401CC1B2F84800780C38C0EB06
:102EA000C000F74A02EBC00080F82E10F548007809
:102EB0000F2815D1F14800780C38C0EBC000F0495C
:102EC00001EBC00090F82F00401CC1B2EB48007825
:102ED0000C38C0EBC000EA4A02EBC00080F82F10AB
:102EE000E8480078102819D1E44800780C3800E050
:102EF000F8E1C0EBC000E24901EBC00090F83000FF
:102F000008B9012100E00021DC4800780C38C0EB52
:102F1000C000DB4A02EBC00080F83010D9480078CE
:102F2000112815D1D54800780C38C0EBC000D44921
:102F300001EBC00090F83100401CC1B2CF480078CE
:102F40000C38C0EBC000CE4A02EBC00080F8311054
:102F5000CC480078122817D1C84800780C38C0EB4C
:102F6000C000C74901EBC00090F83200401CC1B25C
:102F7000C24800780C38C0EBC00000E0ACE2C04AA8
:102F800002EBC00080F83210BE480078132815D13B
:102F9000BA4800780C38C0EBC000B94901EBC0005A
:102FA00090F83300401CC1B2B44800780C38C0EB34
:102FB000C000B34A02EBC00080F83310B14800787B
:102FC000142817D1AD4800780C38C0EBC000AC49CC
:102FD00001EBC00090F8340008B9012100E00021A5
:102FE000A64800780C38C0EBC000A54A02EBC00030
:102FF00080F83410A14800780C38C0EBC000A0491C
:1030000001EBC00090F8210018280AD100219B484C
:1030100000780C38C0EBC000994A02EBC00080F881
:103020002110964800780C38C0EBC000944901EBA1
:10303000C00090F822003D280AD100218F48007876
:103040000C38C0EBC0008E4A02EBC00080F82210A2
:103050008A4800780C38C0EBC000894901EBC000F9
:1030600090F823003D280AD10021844800780C38CC
:10307000C0EBC000824A02EBC00080F823107F48FA
:1030800000780C38C0EBC0007D4901EBC00090F81F
:10309000250018280AD10021784800780C38C0EBA8
:1030A000C000774A02EBC00080F825107348007812
:1030B0000C38C0EBC000724901EBC00090F826004C
:1030C0003D280AD100216D4800780C38C0EBC000C3
:1030D0006B4A02EBC00080F82610684800780C3874
:1030E000C0EBC000664901EBC00090F827003D2806
:1030F0000AD10021614800780C38C0EBC000604A5A
:1031000002EBC00080F827105C4800780C38C0EB58
:10311000C0005B4901EBC00090F8290018280AD1D3
:103120000021564800780C38C0EBC000544A02EB2E
:10313000C00080F82910514800780C38C0EBC0005E
:103140004F4901EBC00090F82A003D280AD1002128
:103150004A4800780C38C0EBC000494A02EBC00076
:1031600080F82A10454800780C38C0EBC00044496C
:1031700001EBC00090F82B003D280AD100213F4808
:1031800000780C38C0EBC0003D4A02EBC00080F86C
:103190002B103A4800780C38C0EBC000384901EBDE
:1031A000C00090F82D0018280AD10021334800787B
:1031B0000C38C0EBC000324A02EBC00080F82D1082
:1031C0002E4800780C38C0EBC0002D4901EBC00040
:1031D00090F82E003D280AD10021284800780C38AC
:1031E000C0EBC000264A02EBC00080F82E10234836
:1031F00000780C38C0EBC000214901EBC00090F80A
:103200002F003D280AD100211C4800780C38C0EB63
:10321000C0001B4A02EBC00080F82F10174800784E
:103220000C38C0EBC000164901EBC00090F831002B
:1032300018280AD10021114800780C38C0EBC000D2
:103240000F4A02EBC00080F831100C4800780C38AF
:10325000C0EBC0000A4901EBC00090F832003D28E5
:103260000AD10021054800780C38C0EBC000044AA0
:1032700002EBC00080F83210004805E07204002024
:10328000D00000203503002000780C38C0EBC000CF
:10329000FE4901EBC00090F833003D280AD100211F
:1032A000FB4800780C38C0EBC000F84A02EBC000C5
:1032B00080F83310F64800780C38C0EBC000F349B2
:1032C00001EBC0008068F3491090FDF7C5FA09D200
:1032D000F049EF4800780C38C0EBC000EB4A02EB35
:1032E000C0008160EA4800780C38C0EBC000E749B4
:1032F00001EBC0004078052809D10021E44800789E
:103300000C38C0EBC000E14A02EBC0004170FCE3A6
:10331000DF4800780C3820B9DF480078401CDE49CF
:103320000870DB4800780C38012804D1DB480078AD
:10333000401CDA490870D64800780C38022804D1BD
:10334000D7480078401CD6490870D14800780C381E
:10335000032804D1D3480078401CD2490870CC48D7
:1033600000780C38042804D1CF480078401CCE499E
:103370000870C74800780C38052804D1CB4800787D
:10338000401CCA490870C24800780C38062804D18D
:10339000C7480078401CC6490870BD4800780C3802
:1033A000072804D1C3480078401CC2490870B848B7
:1033B00000780C38082804D1BF480078401CBE496A
:1033C0000870B34800780C38092804D1BB4800784D
:1033D000401CBA490870B0480078022823DCAF4886
:1033E000007802281FDCAE48007802281BDCAD48BC
:1033F0000078022817DCAC480078022813DCAB48C0
:10340000007802280FDCAA48007802280BDCA948C3
:103410000078022807DCA8480078022803DCA748C7
:103420000078022857DD9A4800780C38C0EBC000BD
:10343000964901EBC000407801280AD1A0480078E5
:10344000401C9F49087008460078072801D10120D8
:1034500008708F4800780C38C0EBC0008B4901EB36
:10346000C000407802280AD196480078401C95494F
:10347000087008460078032801D1012008708448AC
:1034800000780C38C0EBC000804901EBC0004078E8
:1034900003280AD18C480078401C8B4908700846E4
:1034A0000078072801D101200870794800780C388D
:1034B000C0EBC000754901EBC000407804280AD178
:1034C00082480078401C8149087008460078152819
:1034D00001D1012008701AE76F48007878BB6F4867
:1034E000007860BB6E48007848BB6E48007830BBFF
:1034F0006D48007818BB6D48007800BB6C480078B8
:10350000E8B96C480078D0B96B480078B8B96B4816
:103510000078A0B95E4800780C38C0EBC0005B4969
:1035200001EBC0004078401EC1B2594800780C3809
:10353000C0EBC000554A02EBC0004170FEE3FFE75C
:10354000534800780C38C0EBC000504901EBC00074
:10355000407801287ED15A480078012815D14C487E
:1035600000780C38C0EBC00001EBC00080684FF061
:103570007E511090FCF7B8FE454909780C39C1EB33
:10358000C101424A02EBC10188604D48007802281F
:1035900016D13F4800780C38C0EBC0003B4901EB26
:1035A000C000C0684FF07E511090FCF79DFE384976
:1035B00009780C39C1EBC101344A02EBC101C86082
:1035C0003F480078032813D1314800780C38C0EB0D
:1035D000C0002E4901EBC000007D401CC1B22C4848
:1035E00000780C38C0EBC000284A02EBC00001751F
:1035F00033480078042815D1254800780C38C0EBF2
:10360000C000224901EBC000407D08B9012100E063
:1036100000211F4800780C38C0EBC0001B4A02EBA9
:10362000C00041751A4800780C38C0EBC00017493B
:1036300001EBC000007D042809D100211448007866
:103640000C38C0EBC000114A02EBC00001751C48E9
:10365000007800E07AE0052813D10D4800780C3896
:10366000C0EBC000094901EBC000008A401E81B2D6
:10367000074800780C38C0EBC000044A02EBC000D9
:1036800001820F480078062836D121E0D0000020C2
:10369000720400200000C6422803002029030020F5
:1036A0002A0300202B0300202C0300202D030020E0
:1036B0002E0300202F0300203003002031030020C0
:1036C00032030020330300203403002035030020A0
:1036D000FC4800780C38C0EBC000FB4901EBC0008F
:1036E000408A401E81B2F74800780C38C0EBC00019
:1036F000F54A02EBC0004182F24800780C38C0EB7A
:10370000C000F14901EBC000008A012809DC012159
:10371000EC4800780C38C0EBC000EB4A02EBC0006C
:103720000182E84800780C38C0EBC000E64901EBA4
:10373000C000408A012809DC0121E24800780C38E9
:10374000C0EBC000E04A02EBC0004182DD480078D7
:103750000C38C0EBC000DC4901EBC0004078022807
:103760005ED1DA480078012812D1D64800780C38AA
:10377000C0EBC00001EBC000808B401E81B2D1487D
:1037800000780C38C0EBC000CF4A02EBC000818348
:10379000CE480078022813D1CA4800780C38C0EB14
:1037A000C000C94901EBC000408B401E81B2C54832
:1037B00000780C38C0EBC000C34A02EBC000418364
:1037C000C04800780C38C0EBC000BF4901EBC00016
:1037D000808B4FF6FF7188420AD142F20F71B948CF
:1037E00000780C38C0EBC000B74A02EBC000818300
:1037F000B44800780C38C0EBC000B34901EBC000FE
:10380000408B4FF6FF7188420AD142F20F71AD48EA
:1038100000780C38C0EBC000AB4A02EBC00041831B
:10382000A84800780C38C0EBC000A74901EBC000E5
:10383000407803287ED1A6480078012815D1A148F8
:1038400000780C38C0EBC00001EBC00080684FF07E
:103850007E511090FCF748FD9A4909780C39C1EB6C
:10386000C101994A02EBC101886099480078022899
:1038700016D1944800780C38C0EBC000924901EB97
:10388000C000C0684FF07E511090FCF72DFD8D49AF
:1038900009780C39C1EBC1018B4A02EBC101C86048
:1038A0008B480078032813D1864800780C38C0EB89
:1038B000C000854901EBC000007D401CC1B28148B9
:1038C00000780C38C0EBC0007F4A02EBC0000175E5
:1038D0007F480078042815D17A4800780C38C0EB6E
:1038E000C000794901EBC000407D08B9012100E02A
:1038F0000021744800780C38C0EBC000724A02EB1B
:10390000C00041756F4800780C38C0EBC0006E49AC
:1039100001EBC000007D042809D10021694800782E
:103920000C38C0EBC000684A02EBC0000175684863
:10393000007800E05DE0052813D1624800780C387B
:10394000C0EBC000604901EBC000808B401E81B21B
:103950005C4800780C38C0EBC0005B4A02EBC0004A
:1039600081835B480078062813D1564800780C38CC
:10397000C0EBC000544901EBC000408B401E81B237
:10398000504800780C38C0EBC0004F4A02EBC00032
:1039900041834C4800780C38C0EBC0004A4901EB29
:1039A000C000808B4FF6FF7188420AD142F20F713E
:1039B000444800780C38C0EBC000434A02EBC0001A
:1039C0008183404800780C38C0EBC0003E4901EBD1
:1039D000C000408B4FF6FF7188420AD142F20F714E
:1039E000384800780C38C0EBC000374A02EBC00002
:1039F0004183344800780C38C0EBC000324901EBF9
:103A0000C0004078042867D132480078012814D1DA
:103A10002C4800780C38C0EBC00001EBC00090F8D7
:103A20002100401EC1B2274800780C38C0EBC0000E
:103A3000254A02EBC00080F82110264800780228B1
:103A400015D1204800780C38C0EBC0001E4901EBAE
:103A5000C00090F82200401EC1B21A4800780C380D
:103A6000C0EBC000184A02EBC00080F822101948D1
:103A70000078032815D1134800780C38C0EBC0003B
:103A8000114901EBC00090F82300401EC1B20D485F
:103A900000780C38C0EBC0000B4A02EBC00080F885
:103AA00023100C480078042822D1064800780C38EE
:103AB000C0EBC000044901EBC00090F8240060B9DD
:103AC00001210BE072040020D0000020330300200D
:103AD000340300203503002016E30021FE4800785F
:103AE0000C38C0EBC000FD4A02EBC00080F8241087
:103AF000FB480078052817D1F74800780C38C0EB50
:103B0000C000F64901EBC00000E02AE390F8250070
:103B1000401EC1B2F04800780C38C0EBC000EF4A3C
:103B200002EBC00080F82510ED480078062815D17A
:103B3000E94800780C38C0EBC000E84901EBC00050
:103B400090F82600401EC1B2E34800780C38C0EB64
:103B5000C000E24A02EBC00080F82610E04800787E
:103B6000072815D1DC4800780C38C0EBC000DB49D1
:103B700001EBC00090F82700401EC1B2D648007883
:103B80000C38C0EBC000D54A02EBC00080F827100B
:103B9000D3480078082817D1CF4800780C38C0EBFC
:103BA000C000CE4901EBC00090F8280008B90121FF
:103BB00000E00021C84800780C38C0EBC000C74ABC
:103BC00002EBC00080F82810C5480078092815D1FC
:103BD000C14800780C38C0EBC000C04901EBC00000
:103BE00090F82900401EC1B2BB4800780C38C0EBE9
:103BF000C000BA4A02EBC00080F82910B84800782B
:103C00000A2815D1B44800780C38C0EBC000B3497D
:103C100001EBC00090F82A00401EC1B2AE48007807
:103C20000C38C0EBC000AD4A02EBC00080F82A108F
:103C3000AB4800780B2815D1A74800780C38C0EBAA
:103C4000C000A64901EBC00090F82B00401EC1B295
:103C5000A14800780C38C0EBC000A04A02EBC000BD
:103C600080F82B109E4800780C2817D19A480078CD
:103C70000C38C0EBC000994901EBC00090F82C0053
:103C800008B9012100E00021934800780C38C0EB0E
:103C9000C000924A02EBC00080F82C1090480078D7
:103CA0000D2815D18C4800780C38C0EBC0008B492A
:103CB00001EBC00090F82D00401EC1B2864800788C
:103CC0000C38C0EBC000854A02EBC00080F82D1014
:103CD000834800780E2815D17F4800780C38C0EB57
:103CE000C0007E4901EBC00090F82E00401EC1B21A
:103CF000794800780C38C0EBC000784A02EBC0006D
:103D000080F82E10764800780F2815D17248007878
:103D10000C38C0EBC000714901EBC00090F82F00D7
:103D2000401EC1B26C4800780C38C0EBC0006B4A32
:103D300002EBC00080F82F10694800E0FCE1007839
:103D4000102817D1644800780C38C0EBC0006349D4
:103D500001EBC00090F8300008B9012100E000211B
:103D60005D4800780C38C0EBC0005C4A02EBC00034
:103D700080F830105A480078112815D1564800783C
:103D80000C38C0EBC000554901EBC00090F8310081
:103D9000401EC1B2504800780C38C0EBC0004F4AFA
:103DA00002EBC00080F831104D480078122815D180
:103DB000494800780C38C0EBC000484901EBC0000E
:103DC00090F83200401EC1B2434800780C38C0EB76
:103DD000C000424A02EBC00080F832104048007830
:103DE000132815D13C4800780C38C0EBC0003B4983
:103DF00001EBC00090F83300401EC1B23648007895
:103E00000C38C0EBC000354A02EBC00080F833101C
:103E100033480078142817D12F4800780C38C0EBAD
:103E2000C0002E4901EBC00090F8340008B9012110
:103E300000E00021284800780C38C0EBC000274A79
:103E400002EBC00080F83410234800780C38C0EB37
:103E5000C000224901EBC00090F82100FF280AD1E0
:103E600017211D4800780C38C0EBC0001B4A02EB3C
:103E7000C00080F82110184800780C38C0EBC00052
:103E8000164901EBC00090F82200FF280AD13C211E
:103E9000114800780C38C0EBC000104A02EBC0009B
:103EA00080F822100C4800780C38C0EBC0000B4999
:103EB00001EBC00090F82300FF280AD13C210648FE
:103EC00000780C38C0EBC000044A02EBC00080F858
:103ED00023100148007805E072040020D000002083
:103EE000350300200C38C0EBC000FE4901EBC000D8
:103EF00090F82500FF280AD11721FB4800780C38DC
:103F0000C0EBC000F74A02EBC00080F82510F6486D
:103F100000780C38C0EBC000F24901EBC00090F80B
:103F20002600FF280AD13C21EF4800780C38C0EB6E
:103F3000C000EC4A02EBC00080F82610EA48007886
:103F40000C38C0EBC000E74901EBC00090F8270037
:103F5000FF280AD13C21E44800780C38C0EBC000AF
:103F6000E04A02EBC00080F82710DF4800780C38E8
:103F7000C0EBC000DB4901EBC00090F82900FF282E
:103F80000AD11721D84800780C38C0EBC000D54AB8
:103F900002EBC00080F82910D34800780C38C0EB41
:103FA000C000D04901EBC00090F82A00FF280AD1D8
:103FB0003C21CD4800780C38C0EBC000C94A02EB68
:103FC000C00080F82A10C84800780C38C0EBC00048
:103FD000C44901EBC00090F82B00FF280AD13C2116
:103FE000C14800780C38C0EBC000BE4A02EBC000EC
:103FF00080F82B10BC4800780C38C0EBC000B949E1
:1040000001EBC00090F82D00FF280AD11721B64817
:1040100000780C38C0EBC000B24A02EBC00080F858
:104020002D10B14800780C38C0EBC000AD4901EB51
:10403000C00090F82E00FF280AD13C21AA48007841
:104040000C38C0EBC000A74A02EBC00080F82E106D
:10405000A54800780C38C0EBC000A24901EBC000B5
:1040600090F82F00FF280AD13C219F4800780C3897
:10407000C0EBC0009B4A02EBC00080F82F109A48AA
:1040800000780C38C0EBC000964901EBC00090F8F6
:104090003100FF280AD11721934800780C38C0EB73
:1040A000C000904A02EBC00080F831108E480078C2
:1040B0000C38C0EBC0008B4901EBC00090F8320017
:1040C000FF280AD13C21884800780C38C0EBC0009A
:1040D000844A02EBC00080F83210834800780C3824
:1040E000C0EBC0007F4901EBC00090F83300FF280F
:1040F0000AD13C217C4800780C38C0EBC000794ADA
:1041000002EBC00080F83310774800780C38C0EB21
:10411000C000744901EBC000C06800211090FCF79A
:1041200091FB09D20021704800780C38C0EBC00028
:104130006C4A02EBC000C1606B4800780C38C0EBE1
:10414000C000684901EBC0004078FF2809D1042174
:10415000654800780C38C0EBC000624A02EBC00032
:10416000417000E000BF03E0604800785E490870DD
:104170005F480078002841F092815E48007800286E
:10418000F9D15D4800780028F5D15C480078002816
:10419000F1D15B4800780028EDD15A48007800281A
:1041A000E9D1594800780028E5D15848007800281E
:1041B000E1D1574800780028DDD156480078002822
:1041C000D9D10120544908705449087054490870E5
:1041D000544908705449087054490870544908708B
:1041E0005449087054490870544908703E48007892
:1041F0000C38C0EBC0003B4901EBC00040780528FB
:104200006ED2DFE800F00313FCFBFA005C222321EE
:10421000A02010F087FC5A222321C02010F082FC3D
:104220005B222321E02010F07DFCFDE32E48007886
:104230000C38C0EBC0002B4901EBC0008068029035
:10424000FCF78DFAC0B21090274800780C38C0EB0C
:10425000C001244800EBC100C0680290FCF77FFA5F
:10426000C0B20F90204800780C38C0EBC0011D4848
:1042700000EBC100008A0E901B4800780C38C0EBA0
:10428000C001184800EBC100408A0D90272223216D
:10429000A02010F047FC0A222321C02010F042FC8D
:1042A00026222321E02010F03DFC29224321062074
:1042B00010F038FC2A224321262010F033FC27225C
:1042C0004321462010F02EFC2C224321662010F0C2
:1042D00029FC29226721062010F024FC2B222FE044
:1042E000FEE30000D000002072040020150300202F
:1042F00028030020290300202A0300202B0300208C
:104300002C0300202D0300202E0300202F0300206B
:1043100030030020310300201E0300201F03002073
:10432000200300202103002022030020230300207B
:10433000240300202503002026030020270300205B
:104340006721262010F0EEFB27226721462010F07F
:10435000E9FB2C226721662010F0E4FB32228B213E
:10436000062010F0DFFB33228B21262010F0DAFB31
:1043700034228B21462010F0D5FB35228B2166207C
:1043800010F0D0FB36228B21862010F0CBFB2C22A4
:104390008B21A62010F0C6FB3722AF21062010F09B
:1043A000C1FB3822AF21262010F0BCFB3922AF21FF
:1043B000462010F0B7FB3A22AF21662010F0B2FB86
:1043C0002C22AF21862010F0ADFB6922D3210620DC
:1043D00010F0A8FB6A22D321262010F0A3FB29228B
:1043E000D321462010F09EFB2A22D321662010F014
:1043F00099FB5822D321862002E0FDE358E26DE1CB
:1044000010F090FB2C22D321A62010F08BFB692208
:10441000F721062010F086FB6A22F721262010F0F3
:1044200081FB2922F721462010F07CFB2B22F7216B
:10443000662010F077FB5822F721862010F072FBDF
:104440002C22F721A62010F06DFB0A21109890FB7A
:10445000F1F0C0B2029000204FF6FF7300904321AC
:104460008620029A10F022FB0A21109890FBF1F2AC
:1044700001FB1200C0B2029000204FF6FF730090C3
:1044800043219620029A10F011FB0A210F9890FB0D
:10449000F1F0C0B2029000204FF6FF730090672148
:1044A0008620029A10F002FB0A210F9890FBF1F28D
:1044B00001FB1200C0B2029000204FF6FF73009083
:1044C00067219620029A10F0F1FAF74800780C382C
:1044D000C0EBC000F54901EBC000007DA8B9272260
:1044E0008B21C72010F01EFB42228B21E72010F009
:1044F00019FB3F228B2140F2071010F013FB2622FC
:104500008B2140F2271010F00DFBE74800780C38A3
:10451000C0EBC001E54800EBC100007D012815D1CA
:1045200027228B21C72010F0FDFA42228B21E720A1
:1045300010F0F8FA40228B2140F2071010F0F2FA46
:1045400026228B2140F2271010F0ECFAD648007892
:104550000C38C0EBC000D54901EBC000007D02283B
:1045600015D127228B21C72010F0DCFA42228B21A3
:10457000E72010F0D7FA41228B2140F2071010F00B
:10458000D1FA26228B2140F2271010F0CBFAC64830
:1045900000780C38C0EBC000C44901EBC000007DBE
:1045A000032815D143228B21C72010F0BBFA4422E7
:1045B0008B21E72010F0B6FA27228B2140F207105A
:1045C00010F0B0FA42228B2140F2271010F0AAFA24
:1045D000B54800780C38C0EBC000B44901EBC0000E
:1045E000407D50B13D22AF21A72010F09BFA3E2222
:1045F000AF21C72010F096FA09E03B22AF21A72097
:1046000010F090FA3C22AF21C72010F08BFA642101
:104610000E9890FBF1F0C0B2029000204FF6FF73AD
:104620000090D321C820029A10F040FA0A210E9877
:1046300090FBF1F090FBF1F201FB1200C0B202908E
:1046400000204FF6FF730090D321D820029A10F07B
:104650002DFA0A210E9890FBF1F201FB1200C0B274
:10466000029000204FF6FF730090D321E820029AB9
:1046700010F01CFA64210D9890FBF1F0C0B202908A
:1046800000204FF6FF730090F721C820029A10F027
:104690000DFA0A210D9890FBF1F090FBF1F201FB6D
:1046A0001200C0B2029000204FF6FF730090F72175
:1046B000D820029A10F0FAF90A210D9890FBF1F235
:1046C00001FB1200C0B2029000204FF6FF73009071
:1046D000F721E820029A10F0E9F9A6E5724800787F
:1046E0000C38C0EBC000714901EBC000808B0C900E
:1046F0006D4800780C38C0EBC0016C4800EBC1007D
:10470000408B0B9012222321A02010F00BFA0A22DA
:104710002321C02010F006FA26222321E02010F0E9
:1047200001FA30224321062010F0FCF93122432106
:10473000262010F0F7F912224321462010F0F2F95A
:1047400013224321662010F0EDF92C22432186200C
:1047500010F0E8F92E228B21062010F0E3F92F2229
:104760008B21262010F0DEF912228B21462010F03A
:10477000D9F913228B21662010F0D4F92C228B2139
:10478000862010F0CFF94FF47A710C9890FBF1F07D
:10479000C0B2029000204FF6FF7300904321A62084
:1047A000029A10F083F964210C9890FBF1F00A2131
:1047B00090FBF1F201FB1200C0B2029000204FF614
:1047C000FF7300904321B620029A10F06FF90A217E
:1047D0000C9890FBF1F090FBF1F201FB1200C0B2DB
:1047E000029000204FF6FF7300904321C620029AEA
:1047F00010F05CF90A210C9890FBF1F201FB120019
:10480000C0B2029000204FF6FF7300904321D620E3
:10481000029A10F04BF94FF47A710B9890FBF1F07B
:10482000C0B2029000204FF6FF7300908B21A620AB
:10483000029A10F03BF964210B9890FBF1F00A21E9
:1048400090FBF1F201FB1200C0B2029000204FF683
:10485000FF7300908B21B620029A10F027F90A21ED
:104860000B9890FBF1F090FBF1F201FB1200C0B24B
:10487000029000204FF6FF7300908B21C620029A11
:1048800010F014F90A210B9890FBF1F201FB1200D1
:10489000C0B2029000204FF6FF7300908B21D6200B
:1048A000029A10F003F9C0E472040020D000002046
:1048B000FE4800780C38C0EBC000FD4901EBC00099
:1048C00080680290FBF74BFFC0B20A90F74800786F
:1048D0000C38C0EBC000F64901EBC000C068029084
:1048E000FBF73DFFC0B20990F04800780C38C0EBF0
:1048F000C001EF4800EBC100808B0890EB480078C6
:104900000C38C0EBC000EA4901EBC000408B0790B7
:1049100027222321A02010F005F912222321C020F4
:1049200010F000F90A222321E02010F0FBF82922E0
:104930004321062010F0F6F82A224321262010F009
:10494000F1F827224321462010F0ECF82C224321D5
:10495000662010F0E7F829226721062010F0E2F81F
:104960002B226721262010F0DDF827226721462020
:1049700010F0D8F82C226721662010F0D3F83222EC
:104980008B21062010F0CEF833228B21262010F048
:10499000C9F834228B21462010F0C4F835228B212F
:1049A000662010F0BFF836228B21862010F0BAF86E
:1049B0002C228B21A62010F0B5F83722AF2106203B
:1049C00010F0B0F83822AF21262010F0ABF83922D1
:1049D000AF21462010F0A6F83A22AF21662010F051
:1049E000A1F82C22AF21862010F09CF80A210A9809
:1049F00090FBF1F0C0B2029000204FF6FF730090E0
:104A000043218620029A10F051F80A210A9890FB5F
:104A1000F1F201FB1200C0B2029000204FF6FF73CA
:104A200000904321962000E0FDE3029A10F03EF84A
:104A30000A21099890FBF1F0C0B2029000204FF6D5
:104A4000FF73009067218620029A10F02FF80A2148
:104A5000099890FBF1F201FB1200C0B20290002015
:104A60004FF6FF73009067219620029A10F01EF80F
:104A70008E4800780C38C0EBC0018D4800EBC100B7
:104A8000007DA8B927228B21C72010F04BF84222C5
:104A90008B21E72010F046F83F228B2140F20710CF
:104AA00010F040F826228B2140F2271010F03AF83F
:104AB0007E4800780C38C0EBC0017D4800EBC10097
:104AC000007D012817D127228B21C72010F02AF85A
:104AD00042228B21E72010F025F840228B2100E0B4
:104AE000FEE340F2071010F01DF826228B2140F261
:104AF000271010F017F86D4800780C38C0EBC00193
:104B00006B4800EBC100007D022815D127228B21C4
:104B1000C72010F007F842228B21E72010F002F89E
:104B200041228B2140F207100FF0FCFF26228B213F
:104B300040F227100FF0F6FF5C4800780C38C0EB0D
:104B4000C0015B4800EBC100007D032815D1432262
:104B50008B21C7200FF0E6FF44228B21E7200FF0C6
:104B6000E1FF27228B2140F207100FF0DBFF4222EA
:104B70008B2140F227100FF0D5FF4C4800780C38FD
:104B8000C0EBC0004A4901EBC000407D50B13D225E
:104B9000AF21A7200FF0C6FF3E22AF21C7200FF0A4
:104BA000C1FF09E03B22AF21A7200FF0BBFF3C2251
:104BB000AF21C7200FF0B6FF3022D32106200FF01F
:104BC000B1FF3122D32126200FF0ACFF1222D321D6
:104BD00046200FF0A7FF1322D32166200FF0A2FF7B
:104BE0002C22D32186200FF09DFF2E22F7210620B4
:104BF0000FF098FF2F2200E0A9E0F72126200FF008
:104C000091FF1222F72146200FF08CFF1322F7218B
:104C100066200FF087FF2C22F72186200FF082FFFD
:104C20004FF47A71089890FBF1F0C0B20290002026
:104C30004FF6FF730090D321A620029A0FF036FFA3
:104C40006421089890FBF1F00A2190FBF1F201FB3E
:104C50001200C0B2029000204FF6FF730090D321E3
:104C6000B620029A0FF022FF0A21089890FBF1F07B
:104C700090FBF1F201FB1200C0B2029000204FF64F
:104C8000FF730090D321C620029A0FF00FFF0A2174
:104C9000089890FBF1F201FB1200C0B202900020D4
:104CA0004FF6FF730090D321D62003E0720400205A
:104CB000D0000020029A0FF0F9FE4FF47A710798A5
:104CC00090FBF1F0C0B2029000204FF6FF7300900D
:104CD000F721A620029A0FF0E9FE6421079890FBC5
:104CE000F1F00A2190FBF1F201FB1200C0B2029038
:104CF00000204FF6FF730090F721B620029A0FF0C4
:104D0000D5FE0A21079890FBF1F2084692FBF0F1DC
:104D100000FB1120C0B2029000204FF6FF730090FC
:104D2000F721C620029A0FF0C1FE0A21079890FBD6
:104D3000F1F201FB1200C0B2029000204FF6FF73A7
:104D40000090F721D620029A0FF0B0FEA6E30020D3
:104D50000390049005900690FE4800780C38C0EB54
:104D6000C000FD4901EBC00090F821008DF80C0057
:104D7000F84800780C38C0EBC00001EBC00090F898
:104D800022008DF80D00F34800780C38C0EBC0000D
:104D900001EBC00090F823008DF80E00ED4800787C
:104DA0000C38C0EBC00001EBC00090F825008DF876
:104DB0000F00E84800780C38C0EBC00001EBC000E1
:104DC00090F826108DF81010E24800780C38C0EBEF
:104DD000C000E14901EBC00090F827108DF81110D8
:104DE000DC4800780C38C0EBC000DB4901EBC000A8
:104DF00090F829008DF81200D64800780C38C0EBE6
:104E0000C00001EBC00090F82A108DF81310D148B3
:104E100000780C38C0EBC000CF4901EBC00090F81F
:104E20002B108DF81410CB4800780C38C0EBC00064
:104E3000C94901EBC00090F82D008DF81500C54858
:104E400000780C38C0EBC00001EBC00090F82E10C9
:104E50008DF81610BF4800780C38C0EBC000BE4972
:104E600001EBC00090F82F108DF81710B9480078AA
:104E70000C38C0EBC000B84901EBC00090F831001D
:104E80008DF81800B34800780C38C0EBC00001EB77
:104E9000C00090F832108DF81910AE4800780C3828
:104EA000C0EBC000AC4901EBC00090F833108DF8A6
:104EB0001A1028222321A0200FF034FE12222321D1
:104EC000C0200FF02FFE0A222321E0200FF02AFE3F
:104ED0004E22432100200FF025FE122243216C2098
:104EE0000FF020FE28224321B4200FF01BFE4522A4
:104EF0004321FC200FF016FE9DF80C000A2190FBC8
:104F0000F1F0C0B2029000204FF6FF7300904321F1
:104F10004820029A0FF0CAFD9DF80C000A2190FB70
:104F2000F1F201FB1200C0B2029000204FF6FF73B5
:104F3000009043215820029A0FF0B8FD9DF80D0013
:104F40000A2190FBF1F0C0B2029000204FF6FF73EF
:104F5000009043219020029A0FF0A8FD9DF80D00CB
:104F60000A2190FBF1F201FB1200C0B20290002076
:104F70004FF6FF7300904321A020029A0FF096FD98
:104F80009DF80E000A2190FBF1F0C0B202900020C3
:104F90004FF6FF7300904321D820029A0FF086FD50
:104FA0009DF80E000A2190FBF1F201FB1200C0B245
:104FB000029000204FF6FF7300904321E820029AF0
:104FC0000FF074FD634800780C38C0EBC0006249F4
:104FD00001EBC00090F8240030B14622432140F29A
:104FE0003B100FF09FFD05E04722432140F23B10AC
:104FF0000FF098FD4F22672100200FF093FD122241
:1050000067216C200FF08EFD28226721B4200FF05D
:1050100089FD45226721FC200FF084FD9DF80F00DB
:105020000A2190FBF1F0C0B2029000204FF6FF730E
:10503000009067214820029A0FF038FD9DF80F007C
:105040000A2190FBF1F201FB1200C0B20290002095
:105050004FF6FF73009067215820029A0FF026FD4B
:105060009DF810000A2190FBF1F0C0B202900020E0
:105070004FF6FF73009067219020029A0FF016FD03
:105080009DF810000A2190FBF1F201FB1200C0B262
:10509000029000204FF6FF7300906721A020029A33
:1050A0000FF004FD9DF811000A2190FBF1F0C0B251
:1050B000029000204FF6FF7300906721D820029ADB
:1050C0000FF0F4FC9DF811000A2190FBF1F201FBB6
:1050D0001200C0B2029000204FF6FF7300906721CB
:1050E000E820029A0FF0E2FC1A4800780C38C0EB76
:1050F000C000194901EBC00090F8280030B14622E9
:10510000672140F23B100FF00DFD05E047226721BB
:1051100040F23B100FF006FD50228B2100200FF0D3
:1051200001FD12228B216C200FF0FCFC28228B2128
:10513000B4200FF0F7FC45228B21FC200FF0F2FC8D
:105140009DF812000A2190FBF1F0C0B202900020FD
:1051500004E0000072040020D00000204FF6FF732E
:1051600000908B214820029A0FF0A0FC9DF81200BD
:105170000A2190FBF1F201FB1200C0B20290002064
:105180004FF6FF7300908B215820029A0FF08EFC8F
:105190009DF813000A2190FBF1F0C0B202900020AC
:1051A0004FF6FF7300908B219020029A0FF07EFC47
:1051B0009DF813000A2190FBF1F201FB1200C0B22E
:1051C000029000204FF6FF7300908B21A020029ADE
:1051D0000FF06CFC9DF814000A2190FBF1F0C0B2B6
:1051E000029000204FF6FF7300908B21D820029A86
:1051F0000FF05CFC9DF814000A2190FBF1F201FB1A
:105200001200C0B2029000204FF6FF7300908B2175
:10521000E820029A0FF04AFCFE4800780C38C0EBF8
:10522000C000FD4900E039E101EBC00090F82C001E
:1052300030B146228B2140F23B100FF073FC05E0A9
:1052400047228B2140F23B100FF06CFC5122AF2122
:1052500000200FF067FC1222AF216C200FF062FCDF
:105260002822AF21B4200FF05DFC4522AF21FC20A5
:105270000FF058FC9DF815000A2190FBF1F0C0B228
:10528000029000204FF6FF730090AF214820029A51
:105290000FF00CFC9DF815000A2190FBF1F201FBC8
:1052A0001200C0B2029000204FF6FF730090AF21B1
:1052B0005820029A0FF0FAFB9DF816000A2190FB85
:1052C000F1F0C0B2029000204FF6FF730090AF21C2
:1052D0009020029A0FF0EAFB9DF816000A2100E0E8
:1052E000DBE090FBF1F201FB1200C0B20290002063
:1052F0004FF6FF730090AF21A020029A0FF0D6FB6B
:105300009DF817000A2190FBF1F0C0B20290002036
:105310004FF6FF730090AF21D820029A0FF0C6FB22
:105320009DF817000A2190FBF1F201FB1200C0B2B8
:10533000029000204FF6FF730090AF21E820029A00
:105340000FF0B4FBB34800780C38C0EBC000B24992
:1053500001EBC00090F8300030B14622AF2140F29E
:105360003B100FF0DFFB05E04722AF2140F23B107E
:105370000FF0D8FB5222D32100200FF0D3FB1222D2
:10538000D3216C200FF0CEFB2822D321B4200FF0C4
:10539000C9FB4522D321FC200FF0C4FB9DF8180067
:1053A0000A2190FBF1F0C0B2029000204FF6FF738B
:1053B0000090D3214820029A0FF078FB9DF8180046
:1053C0000A2190FBF1F201FB1200C0B20290002012
:1053D0004FF6FF730090D3215820029A0FF066FB1E
:1053E0009DF819000A2190FBF1F0C0B20290002054
:1053F0004FF6FF730090D3219020029A0FF056FBD6
:105400009DF819000A2190FBF1F201FB1200C0B2D5
:10541000029000204FF6FF730090D321A020029A43
:105420000FF044FB9DF81A000A2190FBF1F0C0B286
:10543000029000204FF6FF730090D321D820029AEB
:105440000FF034FB9DF81A000A2190FBF1F201FBEA
:105450001200C0B2029000204FF6FF730090D321DB
:10546000E820029A0FF022FB6A4800780C38C0EB63
:10547000C000694901EBC00090F8340030B1462209
:10548000D32140F23B100FF04DFB05E04722D32122
:1054900040F23B100FF046FB00E000BF14E000209C
:1054A0005E4908705E4908705E4908705E49087080
:1054B0005E4908705E4908705E4908705E49087070
:1054C0005E4908705E4908705E480078D0B95E4851
:1054D0000078B8B95D480078A0B95D48007888B90F
:1054E0005C48007870B95C48007858B95B4800782F
:1054F00040B95B48007828B95A48007810B95A4832
:105500000078C0B1434800780C38C0EBC000424975
:1055100001EBC000407870B95C222321A0200FF07D
:1055200001FB5A222321C0200FF0FCFA5B22232129
:10553000E0200FF0F7FA43480078D8B942480078E5
:10554000C0B942480078A8B94148007890B94148AC
:10555000007878B94048007860B94048007848B988
:105560003F48007830B93F48007818B93E48007885
:1055700000287BD0274800780C38C0EBC0002649B3
:1055800001EBC0004078012870D1224800780C3827
:10559000C0EBC00001EBC00080680C90FBF7DFF8A7
:1055A000C0B210901B4800780C38C0EBC0001A49FC
:1055B00001EBC000C0680C90FBF7D1F8C0B20F90AF
:1055C000144800780C38C0EBC000134901EBC00050
:1055D000008A0E900F4800780C38C0EBC00001EB39
:1055E000C000408A0D9027222321A0200FF09AFAB4
:1055F0000A222321C0200FF095FA26222321E02041
:105600000FF090FA2922432106200FF08BFA2A226C
:1056100043212CE072040020D00000201E03002053
:105620001F0300202003002021030020220300206C
:10563000230300202403002025030020260300204C
:105640002703002028030020290300202A0300202C
:105650002B0300202C0300202D0300202E0300200C
:105660002F0300203003002031030020FEE326201A
:105670000FF058FA2722432146200FF053FA2C222C
:10568000432166200FF04EFA2922672106200FF0F1
:1056900049FA2B22672126200FF044FA272267219E
:1056A00046200FF03FFA2C22672166200FF03AFACD
:1056B00032228B2106200FF035FA33228B2126204F
:1056C0000FF030FA34228B2146200FF02BFA3522CE
:1056D0008B2166200FF026FA36228B2186200FF0D0
:1056E00021FA2C228B21A6200FF01CFA3722AF21A1
:1056F00006200FF017FA3822AF2126200FF012FAF9
:105700003922AF2146200FF00DFA3A22AF21662050
:105710000FF008FA2C22AF2186200FF003FA69223D
:10572000D32106200FF0FEF96A22D32126200FF0A4
:10573000F9F92922D32146200FF0F4F92A22D321A6
:1057400066200FF0EFF95822D32186200FF0EAF9F6
:105750002C22D321A6200FF0E5F96922F72106209B
:105760000FF0E0F96A22F72126200FF0DBF9292259
:10577000F72146200FF0D6F92B22F72166200FF0F3
:10578000D1F95822F72186200FF0CCF92C22F721ED
:10579000A6200FF0C7F9FE48007807287ED2DFE880
:1057A00010F07D0007005201A30204045405A30673
:1057B0000A21109890FBF1F0C0B20C904FF6FF70E8
:1057C00000230090432186200C9A0FF06FF90A21E4
:1057D000109890FBF1F201FB1200C0B20C904FF652
:1057E000FF7000230090432196200C9A0FF05EF981
:1057F0000A210F9890FBF1F0C0B20C9000204FF6F8
:10580000FF730090672186200C9A0FF04FF90A2150
:105810000F9890FBF1F201FB1200C0B20C90002037
:105820004FF6FF730090672196200C9A0FF03EF917
:10583000D84800780C38C0EBC000D74901EBC00055
:10584000007DA8B927228B21C7200FF06BF94222D7
:105850008B21E7200FF066F93F228B2140F20710E1
:105860000FF060F926228B2140F227100FF05AF931
:10587000C84800780C38C0EBC000C74901EBC00035
:10588000007D012817D127228B21C7200FF04AF96C
:1058900042228B21E7200FF045F900E0FDE3402292
:1058A0008B2140F207100FF03DF926228B2140F2A8
:1058B00027100FF037F9B74800780C38C0EBC0005C
:1058C000B54901EBC000007D022815D127228B21AC
:1058D000C7200FF027F942228B21E7200FF022F991
:1058E00041228B2140F207100FF01CF926228B2158
:1058F00040F227100FF016F9A64800780C38C0EBDC
:10590000C001A54800EBC100007D032815D143224A
:105910008B21C7200FF006F944228B21E7200FF0DE
:1059200001F927228B2140F207100FF0FBF84222E9
:105930008B2140F227100FF0F5F8964800780C38CC
:10594000C0EBC000944901EBC000407D50B13D2246
:10595000AF21A7200FF0E6F83E22AF21C7200FF0BD
:10596000E1F809E03B22AF21A7200FF0DBF83C2251
:10597000AF21C7200FF0D6F864210E9890FBF1F00C
:10598000C0B20C9000204FF6FF730090D321C820C6
:105990000C9A0FF08BF80A210E9890FBF1F090FB17
:1059A000F1F201FB1200C0B20C9000204FF6FF7321
:1059B0000090D321D8200C9A0FF078F80A210E9885
:1059C00090FBF1F201FB1200C0B20C9000204FF6E8
:1059D000FF730090D321E8200C9A0FF067F8642140
:1059E0000D9890FBF1F0C0B20C9000204FF6FF73C1
:1059F0000090F721C8200C9A0FF058F80A210D9852
:105A000090FBF1F090FBF1F201FB1200C0B20C90A0
:105A100000204FF6FF730090F721D8200C9A0FF06A
:105A200045F80A210D9890FBF1F201FB1200C0B27B
:105A30000C9000204FF6FF730090F721E8200C9A9D
:105A40000FF034F8B0E20A21109890FBF1F0C0B2E8
:105A50000C9000204FF6FF730090432186200C9A93
:105A60000FF024F80A21109890FBF1F201FB1200CC
:105A7000C0B20C9000204FF6FF7300904321962097
:105A80000C9A0FF013F80A210F9890FBF1F0C0B2B6
:105A90000C904FF6FF7000230090672186200C9A2F
:105AA0000FF004F80A210F9890FBF1F201FB1200AD
:105AB000C0B20C904FF6FF70002300906721962033
:105AC0000C9A0EF0F3FF334800780C38C0EBC0019D
:105AD000314800EBC100007DA8B927228B21C720E7
