:020000040800F2
:10000000204700200101000889D40008CDA0000885
:1000100085D40008A18900085B09010800000000E0
:100020000000000000000000000000002DE40008B7
:1000300075900008000000001DD5000841E500088B
:100040001B0100081B0100081B01000815D900084E
:100050001B0100081B0100081B0100081B01000810
:100060001B0100081B0100081B0100081B01000800
:100070001B0100081B010008A58900081B010008DE
:100080001B0100081B0100081B0100081B010008E0
:100090001B0100081B0100081B0100081B010008D0
:1000A0001B01000805E600081B0100081B010008F1
:1000B000A9EA000829F2000869F900081B010008F4
:1000C0001B0100081B0100081B0100081B010008A0
:1000D0001B010008C90501081B0100084D060108A5
:1000E0001B0100081B0100081B010008DFF80CD0F1
:1000F00000F0AAFE00480047012A0108204700201E
:100100000648804706480047FEE7FEE7FEE7FEE7B1
:10011000FEE7FEE7FEE7FEE7FEE7FEE745E500084F
:10012000ED00000830B50B460146002020220124D6
:1001300009E021FA02F59D4205D303FA02F5491BB5
:1001400004FA02F52844151EA2F10102F1DC30BDCB
:100150002DE9F05F0546002092469B4688460646FC
:10016000814640241BE0284641464746224600F08F
:100170009CFC53465A46C01A914110D3114618466A
:10018000224600F083FC2D1A67EB01084F462246F9
:100190000120002100F07AFC17EB00094E41201EDF
:1001A000A4F10104DFDC484631462A464346BDE857
:1001B000F09F10B5431A934209D28318881803E0C0
:1001C00010F8011D03F8011D521EF9D210BD40EABE
:1001D00001039B0703D009E008C9121F08C0042AC5
:1001E000FAD203E011F8013B00F8013B521EF9D2AC
:1001F00010BDD2B201E000F8012B491EFBD27047BE
:100200000022F6E710B513460A4604461946FFF7E2
:10021000F0FF204610BD421E12F8013F002BFBD11B
:1002200011F8013B02F8013B002BF9D1704730B5C2
:1002300005462A460B4612F8010B13F8014B08B18C
:10024000A042F8D01CB1002802D06D1CF1E728466E
:1002500030BD10B5044604E00B7800F8013B03B153
:10026000491C521EF8D2204610BD421C10F8011B3A
:100270000029FBD1801A704710B5002200E0521C03
:10028000835C8C5CA34201D1002BF8D1D8B2E1B2DF
:10029000401A10BDCBB203E00178994203D0401C54
:1002A000521EF9D20020704730B5044600200346A4
:1002B00000E05B1C934203D2E05CCD5C401BF8D0B5
:1002C00030BD034611F8012B00F8012B002AF9D1AB
:1002D000184670470FB400B58DB010A909900B9067
:1002E00000914FF0FF300A9000200C9005480690D6
:1002F000054807906A4609A80F9900F00DFC0DB05B
:100300005DF814FB350B0008530B00082DE9FF5F67
:100310001D464FF0FF3BD5E9014691465F464FF041
:100320000008A9697F1C01988847296A8246884786
:100330000028F6D1BAF1FF3F0CD024F4C064002E9F
:1003400019DD600614D5BAF12B0F09D0BAF12D0FC3
:100350000ED103E0584604B0BDE8F09F44F4806439
:10036000A9697F1C01988847761E8246002E02DD0F
:10037000BAF1300F03D0B9F1000F26D032E0A969ED
:10038000761E44F400747F1C019888478246002E34
:1003900005DDBAF1780F06D0BAF1580F03D0B9F1E4
:1003A000000F10D01EE0B9F1000F02D0B9F1100F0C
:1003B00018D1A969761E24F400747F1C019888471F
:1003C0008246102002E0082000E00A20814609E071
:1003D00008FB0908A969761E44F400747F1C019883
:1003E00088478246002E05DD4946504600F07FFBD7
:1003F0000028EDDAE96901988847A00502D46FF07A
:100400000100A8E7E00725D1600613D5600502D5F5
:10041000C8F1000000E0404629680A1D2A6009680A
:10042000220501D5087015E0220701D5088011E0EA
:1004300008600FE02868011D29600068210502D5C9
:1004400080F8008006E0210702D5A0F8008001E0D6
:10045000C0F8008038467EE700F0DABBF0B480EAEE
:100460000102D40F4200B2EB410F02D2024608460D
:1004700011464A0042D0C30DDDB2C1F3C752AD1AD6
:10048000202D35DAC1F3160141F4000204B15242C5
:10049000C5F1200602FA06F12A411044B3EBD05F01
:1004A00023D0C4B1012DA0EBC35009DCF0BC4FF048
:1004B000004202EAC352DBB200F5000000F0F9BBD3
:1004C000400000F1807000EBC350A0F1807040EA62
:1004D000D170490009E0490841EAC071A0EBC3505E
:1004E00000F50000400800EBC350F0BC00F0D8BBA2
:1004F0006142012202EB4101001BF6E7F0BC7047AC
:1005000081F00041AAE780F00040A7E780EA0102FD
:1005100010B502F00043400022D04A001FD0010E67
:1005200001EB1261C0F35600C2F3560240F4000022
:1005300042F40002A0FB022000047F39140400D022
:10054000401C50EA124001D44000491EC2B20C06C1
:1005500004EBD010401C4008802A02D003E00020A9
:1005600010BD20F00100002900DA0020184310BD62
:1005700030B480EA010202F0004530F0004221F080
:10058000004013D090B1C30DD40DC2F31601C0F3D7
:100590001600E41A41F4000140F400027D34914257
:1005A00001D3641C00E04900002C02DA30BC0020BA
:1005B00070474FF400000023914201D3891A03438E
:1005C00040084FEA4101F7D151B1914202D14FF0B9
:1005D000004105E002D24FF0010101E06FF001019E
:1005E00003EBC450284430BC00F05ABB2DE9FE4F49
:1005F000804681EA0300C00F0C46009021F00041C4
:1006000023F00045B8EB0200A94105D2404621463F
:1006100090461C460B46024623F00040104347D04C
:10062000270DC7F30A00C3F30A510290401A019044
:1006300040286BDAC3F3130040F4801B0098924605
:1006400020B10023D2EB030A63EB0B0B0198594650
:10065000C0F14002504600F019FA06460D465046D9
:100660005946019A00F031FA10EB0800614100246C
:1006700087EA115284EAE7731A4340D0009A62B3C2
:10068000019A012A4FEA075215DC001B61EB0201B7
:100690004FF0004202EA0752CDE90042001C41F54A
:1006A000801132462B4600F041FB03B0BDE8F08FCD
:1006B00040462146F9E7001B61EB0201001C41F5B1
:1006C000801300185B412018A2F5001747EB0301C7
:1006D00040EAD570B6196D4111E06D084FEA360653
:1006E00045EAC0754FEA0752001B61EB0201001C8E
:1006F00041F5801149084FEA300000195141324656
:100700002B4603B0BDE8F04F00F001BB009801227A
:1007100040000023D0EB020263EBE0730098214617
:100720004FEAE074B8EB000061EB0401E9E783F005
:1007300000435BE781F0004158E72DE9FE4F81EA75
:10074000030404F0004421F0004100944FF0000B3A
:1007500023F0004350EA01045ED052EA03045BD068
:10076000C3F30A54C1F30A552C44A4F2F3340194A0
:10077000A0FB0254C1F3130141F48011C3F313032E
:1007800043F4801301FB024400FB034E840A970AE2
:1007900044EA815447EA8357A4FB076802958D0A0F
:1007A00005FB07854FEA932C04FB0C542705029D9B
:1007B0004FEA065847EA1637B5EB08056EEB070C0B
:1007C000870E920E47EA811742EA8312A7FB0201C5
:1007D000B6EB0B0164EB00042B0D43EA0C335E18FF
:1007E00044EB1C50DA465146E7FB0201C5F3130403
:1007F0004FEA0B3343EA14534FEA0432019C43EAB5
:100800000603A4F10C040294009CCDE900B400F0AE
:100810008DFA03B0BDE8F08F00200146F9E72DE91D
:10082000F04D81EA030404F0004B21F0004514462A
:100830004FF0000A23F0004150EA050220D054EAAC
:1008400001021DD0C5F30A570246C5F31303C1F3D5
:100850001300C1F30A5640F4801543F48013A7EB4C
:100860000608101BD64608F2FD3873EB050002D3CC
:1008700008F1010801E092185B41B8F1000F03DABA
:1008800000200146BDE8F08D00204FF4801106469F
:1008900084460EE0171B73EB050705D3121B63EBB1
:1008A000050306434CEA010C49084FEA3000921850
:1008B0005B4150EA0107EDD152EA030012D082EA0F
:1008C000040083EA0501084305D0101BAB4106D2A2
:1008D0000122002306E000224FF0004302E06FF007
:1008E000010253101AEB06004CEB085110EB0A0002
:1008F00041EB0B01BDE8F04D00F009BAC10F80EAF1
:10090000E0700844CA079623002100F0D2B996236C
:100910000022114600F0CDB900F0004220F0004066
:10092000C10DC0F3160040F400007F2901DA002059
:100930007047962903DCC1F19601C84001E0963961
:100940008840002AF4D04042704720F00040C10D9A
:10095000C0F3160040F400007F2901DA0020704740
:10096000962903DCC1F19601C8407047963988404A
:100970007047C1F30A5210B5C1F3130140F2FF33BF
:1009800041F480119A4201DA002010BD40F2334355
:100990009A42A2F2334203DC524200F086F810BDC4
:1009A000904010BD00F0004230F000400AD0C10D70
:1009B00001F56071C0F3160042EA0151C208400718
:1009C00011437047002001467047000030B5041EF7
:1009D00071F1000404DB4FF00044404264EB01017C
:1009E000141E73F1000405DB1C464FF00043524215
:1009F00063EB04038B4208BF824230BD30B5041E56
:100A000071F1000404DB4FF00044404264EB01014B
:100A1000141E73F1000405DB1C464FF000435242E4
:100A200063EB0403994208BF904230BD01F00043DC
:100A300030B421F0004150EA010206D00A0DA2F5BF
:100A40006072C1F31301002A02DC30BC0020704741
:100A5000440F44EAC104C100E01830BC00EBC250AE
:100A600000F01EB9002801DBC0F10040002901DBC5
:100A7000C1F1004181427047002801DBC0F1004014
:100A8000002901DBC1F1004188427047202A04DBC4
:100A9000203A00FA02F1002070479140C2F1200391
:100AA00020FA03F3194390407047202A04DB203AD0
:100AB00021FA02F00021704721FA02F3D040C2F17E
:100AC00020029140084319467047202A06DBCB17C5
:100AD000203A41FA02F043EAE07306E041FA02F3F9
:100AE000D040C2F1200291400843194670473A288D
:100AF00000D2303820F02002412A01D3A2F1370081
:100B0000884201D34FF0FF30704700000268114463
:100B10001378016018467047D16004495161044957
:100B2000116200211161114600F0AEB90D0B0008F1
:100B3000750E0008426842B1016811F8013B23B10B
:100B4000521EC0E90012184670470121C160881E7C
:100B5000704742685AB1C368016843B983688B42E1
:100B600005D0491E521CC0E90012002070474FF00A
:100B7000FF3070470FB4002300B589B00CA9009175
:100B80000B996FF00042CB601E4B06931E4B0793F0
:100B90000423CDE901321D4A089202466B4600202B
:100BA00000F09CFB09B05DF814FB70B586B00646FA
:100BB0004FF0FF300091CDE90101002015460C46B1
:100BC00004903246694604A8FFF7D4FF0246049811
:100BD000211825B108B1084600E020462860049895
:100BE00000280DD0002A02DD0098884208D0081B9A
:100BF0000094CDE901043246694604A8FFF7BAFF24
:100C000006B070BD350B0008530B0008750E0008C8
:100C10002DE9F04791460E4680460446002514F81B
:100C2000017B2FB100F022F90068C05DC007F6D14A
:100C30002B2F02D02D2F1ED0641E4A46314620464F
:100C400000F068FC26B13268A24201D1C6F80080EB
:100C50006A054FF0020418D50023D0EB030563EBBF
:100C600001025D1B934109DB0023D0EB030063EB22
:100C70000101BDE8F08745F48065DEE70FF05AFF1B
:100C8000046000204FF00041F3E7021E71F1000202
:100C9000EFDA0FF04FFF04604FF0FF304108E8E754
:100CA0000029A8BF7047401C490008BF20F0010080
:100CB000704710B4B0FA80FC00FA0CF050EA01045E
:100CC00004BF10BC704749B1CCF1200421FA04F4F0
:100CD00011FA0CF118BF012121430843A3EB0C01C9
:100CE000CB1D4FEA00614FEA102042BF002010BC2C
:100CF000704700EBC35010440029A4BF10BC7047DC
:100D0000401C490008BF20F0010010BC704710B51E
:100D1000141E73F1000408DA401C41F1000192181E
:100D20005B411A4301D120F0010010BD2DE9F04DC7
:100D300092469B4611B1B1FA81F202E0B0FA80F21C
:100D400020329046FFF7A2FE04460F4640EA0A0012
:100D500041EA0B0153465A46084313D0114653EA61
:100D6000010019D0C8F140025046FFF79EFE05462B
:100D70000E46504659464246FFF788FE084305D0C6
:100D8000012004E020463946BDE8F08D00200543EF
:100D900046EAE0762C4337430A986305E40AA0EB61
:100DA00008000022FD0A44EA47540A3002D5002018
:100DB0000146E9E7010510196941DDE90845001917
:100DC0006941BDE8F04DA2E770B521F0004303434F
:100DD0000CD0C1F30A550024D5EB040564EB0403E1
:100DE000D617AD1AB34102DB0020014670BD2018B2
:100DF00041EB025170BD0EB5C10F80EAE0700844AE
:100E0000CA07002140F233438DE80E000A460B4624
:100E1000FFF78CFF03B000BDC1F30A52C1F3130109
:100E200040F2FF3341F480119A4202DA0020014679
:100E3000704740F233439A42A2F2334202DC5242FC
:100E4000FFF733BEFFF722BE064C074D06E0E06811
:100E500040F0010394E8070098471034AC42F6D301
:100E6000FFF748F91CD501083CD501080048704738
:100E7000ACD4010810B50446FFF7F8FF0068005D28
:100E800000F0010010BD00002DE9F34F8BB04FF0D2
:100E9000000801F10C000C464FF0010B46460DF125
:100EA000080A01906269012101989047051E2DD022
:100EB000252D2CD0216A8847C0B162690121019893
:100EC0009047216A88470028F7D1411E626901983E
:100ED000904700E0761CA1690B988847216A8847F3
:100EE0000028F7D1E1690B988847DBE7A1690B98E7
:100EF00088470746A84201D1761CD3E7E1690B98E1
:100F000088477F1C02D1B8F1000F6FD046E100275F
:100F100062693D463946019890472A2804D16269A2
:100F20000121019890470125DFF88492626901212F
:100F300001989047A0F130010A290AD24F45E5DC1B
:100F400007EB870100EB4107303FDFD445F0100588
:100F5000ECE7E90601D46FF000476C280AD04C2872
:100F600014D0682815D06A280DD074281CD07A288F
:100F70001AD01DE062690121019890476C2802D0C7
:100F800045F0040514E045F002050DE045F02005AC
:100F90000AE06269012101989047682802D045F073
:100FA000080505E045F40065626901210198904754
:100FB000C4E9015765283DD019DC58287AD00CDCEB
:100FC000452837D004DC252826D0412831D131E00E
:100FD00046282FD047282CD12CE05B2877D06128D9
:100FE00028D063287CD0642823D15AE0D0E06F2831
:100FF00048D008DC66281DD067281BD0692821D07E
:101000006E2816D127E0702845D0732868D075283F
:1010100047D078280DD14DE0A1690B988847054647
:1010200025283FF469AFE1690B9888476D1C3FF4B0
:101030006AAFB3E023466A466FF001000B9900F0F7
:101040004DF99EE045F040006060A80723464FF050
:10105000000236D43EE0E8077FF447AF2068011D68
:1010600021600068290501D506701BE7290701D515
:10107000068017E7A90703D5F117C0E9006111E75A
:1010800006600FE745F040006060A80723464FF078
:10109000080216D41EE040F60E0125EA0100606049
:1010A00016E045F040006060A80723464FF00A02B2
:1010B00007D40FE045F040006060A80708D523463C
:1010C00010226FF001000B99AFF3008059E007E0A8
:1010D000234610226FF001000B99FFF717F950E03B
:1010E0004FF000094F464B46632802D05B2806D0DC
:1010F00040E0E80601D40120A06001273AE06269DF
:101100000121019890475E2805D14FF001096269DD
:10111000494601989047216939B900210A4653464A
:1011200043F82120491C0829FADBB0B3216969B9C9
:10113000C11700EBD16253110AEB830122F01F02A9
:10114000821A01200B68904003430B606269012101
:10115000019890475D28E8D1B9F1000F09D000202F
:10116000514651F82020D24341F82020401C082845
:10117000F7DB02AB224600976FF001000B99AFF34B
:10118000008000280CDA401C08D1BBF1000F05D00C
:101190004FF0FF300DB0BDE8F08FFFE74046F9E7B4
:1011A000E90701D108F1010806444FF0000B79E688
:1011B000CCCCCC0C2DE9FF4F087883B09946FF28A2
:1011C00005D0491C2D2804D00024002008E0002070
:1011D0000BE00124F9E700EB800003EB4000491C21
:1011E0000B78FF2BF7D104B140420023029314780F
:1011F00019461D462D2C01D02B2C04D1521C2D2C10
:1012000013D000240294AA461478FF2C0FD00A258C
:10121000A3FB057801FB05814FF0000C03FB0C11CB
:10122000521CE3194AEB0101EEE70124EAE781448D
:1012300053EA010002D019F5C87F06DA03980021AD
:10124000C0E9001107B0BDE8F08F0025AE4E2F4673
:10125000DFF8B882184600F0BEF9CDE90001B9F117
:10126000000002DAC9F1000400E004460023A74AA6
:101270001AEB030B42EB045A12E0E00707D02A46B0
:10128000334638464146FFF758FA074688462A460D
:10129000334610461946FFF750FA05460E466410CD
:1012A000002CEAD1DDE90001B9F1000F5A4653469E
:1012B00006DAFFF7B4FA3A464346FFF7B0FA05E01C
:1012C000FFF73BFA3A464346FFF737FA029A0AB16C
:1012D00081F00041039AC2E90001B3E72DE9FF4F15
:1012E0001F468DB0D7E901464FF0FF382E20454606
:1012F0004FF000090B90B9696D1C0E988847396A48
:10130000824688470028F6D1BAF1FF3F0AD024F47C
:10131000D064002E11DDBAF12B0F08D0BAF12D0FD9
:101320000BD102E0404611B08DE744F48064B96906
:101330006D1C0E9888478246761E6946600501D569
:101340002D2000E02B208DF8000001F1010B0DF1A4
:10135000200809E0B9696D1C0E98884782460F98ED
:1013600044F40074761E0560002E02DDBAF1300FE1
:10137000F0D00B998A453ED144F0800406E00F99E5
:10138000681CA9F1010944F400740860B9696D1C76
:10139000761E0E98884782463028F0D02BE00B99B5
:1013A0008A4505D1200603D444F08004761E18E057
:1013B00050460FF001FD08B30DF11301761E44F401
:1013C00000748B4508D2AAF130000BF8010B2006FF
:1013D00007D5A9F1010003E0200602D409F10100BC
:1013E0008146A00502D50F99681C0860B9696D1C7B
:1013F0000E9888478246002ED1DC53E0002E51DD46
:10140000BAF1650F02D0BAF1450F4BD1A00549D50D
:10141000B9696D1C24F44074761E0E988847824684
:10142000002E0CDD2B2804D0BAF12D0F07D144F487
:101430008074B9696D1C0E9888478246761EE00557
:1014400001D52D2100E02B2108F8011BCDF82C80BF
:1014500021E00DF12901761E44F4007488450CD278
:10146000AAF1300010F0FF0088F8000002D10B99BB
:10147000884509D908F1010806E0E00501D52448AE
:1014800001E042F20F708146B9696D1C0E988847E1
:1014900082460F980560002E04DD50460FF08CFC4C
:1014A0000028D6D1F9690E988847FF208BF80000F4
:1014B00088F800000020069007904B466A4608A96D
:1014C00006A8FFF777FEA00502D46FF001002AE717
:1014D00014F0240F0AD0E00714D1DDE906123868B1
:1014E000031D3B600068C0E900120BE0DDE9060166
:1014F000FFF79CFA0146E00704D13868021D3A6004
:101500000068016028460EE7000014400000F03F2C
:10151000F1D8FFFF2DE9F74F4FF00009009C154669
:10152000CA4614F8010B302801D0ADB115E014F80B
:10153000010B4FF00109782803D0582801D04DB194
:101540000BE00DB1102D08D14FF00009102514F853
:10155000010B02E0082500E00A2500273E46B846B8
:101560004FEAE57B16E0A5FB07230BFB073105FBE4
:10157000080005FB0616030CD71846F100061FFAF3
:1015800080F8381E4FF0010976F5803000D3CA4646
:1015900014F8010B2946FFF7AAFA0028E3DA0198AC
:1015A00038B1B9F1000F01D0641E00E0009C019831
:1015B0000460BAF1000F08D00FF0BCFA02210160FC
:1015C000C81E014603B0BDE8F08F310441EA17415F
:1015D00048EA0740F6E70EB540F233420292002295
:1015E000CDE900221346FFF7A1FB03B000BD70B5A3
:1015F0008D1810F8014B14F0030201D110F8012BE3
:10160000231106D110F8013B03E010F8016B01F83B
:10161000016B521EF9D1ABB110F8012B04F00C0490
:101620008A1A0C2C03D0A2EB84129B1C08E010F841
:10163000014BA2EB0422F8E712F8014B01F8014B31
:101640005B1EF9D5A942D4D3002070BD21B18268B8
:1016500042F00102826003E0826822F001028260AF
:101660007047000000B587B0012148020BF094FFDD
:10167000012104200BF090FF1C20ADF80400002095
:101680008DF8070001A9184807F0A8FD0020029076
:101690008DF80C008DF80D004FF4602004900020B0
:1016A000059001208DF8180002A9104800F042F8BA
:1016B00001210E48FFF7CAFF4FF440400BF030FF06
:1016C0000A4800F0BBF800BF084800F028F80028DE
:1016D000FAD1064800F0C2F800BF044800F008F84C
:1016E0000028FAD107B000BD0008014000240140E5
:1016F000014600208A6802F004020AB1012000E0DD
:10170000002070470146C86C80B270470246002036
:1017100013680B400BB1012000E000207047014628
:1017200000208A6802F008020AB1012000E00020CF
:101730007047000030B502460020002350680F4C6F
:1017400020400D790C6844EA0524204350609068DD
:101750000B4C2040D1E902542C434D7944EA450416
:1017600020439060D06A20F470000C7C641EE4B2C8
:10177000234340EA0350D06230BD0000FFFEF0FF7B
:10178000FDF7F1FFF0B504460D4600200021092DBC
:1017900011DDE068A5F10A0606EB4607072606FA02
:1017A00007F18843A5F10A0606EB460603FA06F19F
:1017B0000843E0600CE0206905EB4507072606FAC0
:1017C00007F1884305EB450603FA06F1084320615B
:1017D000072A0FDA606B561E06EB86071F2606FAED
:1017E00007F18843561E06EB860605FA06F1084304
:1017F000606322E00D2A0FDA206BD61F06EB860706
:101800001F2606FA07F18843D61F06EB860605FA5F
:1018100006F10843206310E0E06AA2F10D0606EB32
:1018200086071F2606FA07F18843A2F10D0606EB8C
:10183000860605FA06F10843E062F0BD816841F0D2
:1018400008018160704721B1826842F4A002826081
:1018500003E0826822F4A00282607047816841F050
:1018600004018160704738B504460D460C2C13D036
:1018700006222421104615F02DF8072224212620C7
:1018800015F028F81A222421462015F023F81B22EF
:101890002421662015F01EF80D2C13D006224821B5
:1018A000104615F017F807224821262015F012F8E7
:1018B0001C224821462015F00DF81B2248216620E5
:1018C00015F008F80E2C13D006226C21104615F0E6
:1018D00001F807226C21262014F0FCFF1D226C2148
:1018E000462014F0F7FF1B226C21662014F0F2FF53
:1018F0000F2C13D006229021104614F0EBFF072284
:101900009021262014F0E6FF1E229021462014F09C
:10191000E1FF1B229021662014F0DCFF102C13D075
:101920000622B421104614F0D5FF0722B421262048
:1019300014F0D0FF1F22B421462014F0CBFF1B224D
:10194000B421662014F0C6FF112C17D006222421E2
:101950004FF4AD7014F0BEFF072224214FF4BD7088
:1019600014F0B8FF202224214FF4CD7014F0B2FF00
:101970001B2224214FF4DD7014F0ACFF122C17D081
:10198000062248214FF4AD7014F0A4FF072248212D
:101990004FF4BD7014F09EFF212248214FF4CD700A
:1019A00014F098FF1B2248214FF4DD7014F092FFD1
:1019B000132C17D006226C214FF4AD7014F08AFF5F
:1019C00007226C214FF4BD7014F084FF22226C2199
:1019D0004FF4CD7014F07EFF1B226C214FF4DD70AC
:1019E00014F078FF142C17D0062290214FF4AD701C
:1019F00014F070FF072290214FF4BD7014F06AFFBD
:101A0000232290214FF4CD7014F064FF1B2290210B
:101A10004FF4DD7014F05EFF152C25D00622B421A2
:101A20004FF4AD7014F056FF0722B4214FF4BD708F
:101A300014F050FF00204FF6FF730122B4210090F4
:101A40004FF4CD7014F00AFF00204FF6FF730246EA
:101A5000B42100904FF4D57014F000FF1B22B42184
:101A60004FF4DD7014F036FFA4F10C000A287ED28A
:101A7000DFE800F0051E37506984A1BEDBF90123C1
:101A800006222421104614F05FFF0123072224219F
:101A9000262014F059FF01231A222421462014F095
:101AA00053FF01231B222421662014F04DFF05E182
:101AB000012306224821104614F046FF0123072285
:101AC0004821262014F040FF01231C2248214620F3
:101AD00014F03AFF01231B224821662014F034FF42
:101AE000ECE0012306226C21104614F02DFF0123A7
:101AF00007226C21262014F027FF01231D226C21D0
:101B0000462014F021FF01231B226C21662014F0D3
:101B10001BFFD3E0012306229021104614F014FF8E
:101B2000012307229021262014F00EFF01231E22FC
:101B30009021462014F008FF01231B2290216620EB
:101B400014F002FFBAE001230622B421104614F07B
:101B5000FBFE01230722B421262014F0F5FE012309
:101B60001F22B421462014F0EFFE012300E0A4E080
:101B70001B22B421662014F0E7FE9FE00123062219
:101B800024214FF4AD7014F0DFFE0123072224213D
:101B90004FF4BD7014F0D8FE0123202224214FF40D
:101BA000CD7014F0D1FE01231B2224214FF4DD70EF
:101BB00014F0CAFE82E00123062248214FF4AD70E2
:101BC00014F0C2FE0123072248214FF4BD7014F027
:101BD000BBFE0123212248214FF4CD7014F0B4FE46
:101BE00001231B2248214FF4DD7014F0ADFE65E0A7
:101BF000012306226C214FF4AD7014F0A5FE0123E1
:101C000007226C214FF4BD7014F09EFE01232222A6
:101C10006C214FF4CD7014F097FE01231B226C2130
:101C20004FF4DD7014F090FE48E00123062290216D
:101C30004FF4AD7014F088FE0123072290214FF479
:101C4000BD7014F081FE0123232290214FF4CD704A
:101C500014F07AFE01231B2290214FF4DD7014F062
:101C600073FE2BE0FFE701230622B4214FF4AD7091
:101C700014F06AFE01230722B4214FF4BD7014F062
:101C800063FE4FF6FF7000230122B42100904FF451
:101C9000CD7014F0E3FD4FF6FF7000231A46B42117
:101CA00000904FF4D57014F0D9FD01231B22B4210C
:101CB0004FF4DD7014F048FE00E000BF00BF38BDF7
:101CC00003B5ADF5097D4FF4F072FE4911A8FEF79A
:101CD00070FAFD4800780C2801F0B487FA480078C3
:101CE0000D28F9D0F84800780E28F5D0F64800788D
:101CF0000F28F1D0F44800781028EDD0F248007891
:101D00001128E9D0F04800781228E5D0EE48007894
:101D10001328E1D0EC4800781428DDD0EA48007898
:101D20001528D9D08A9802287ED0042803D0052807
:101D300041F08687E5E3E548007878BBE448007821
:101D400060BBE448007848BBE348007830BBE34818
:101D5000007818BBE248007800BBE2480078E8B998
:101D6000E1480078D0B9E1480078B8B9E048007897
:101D7000A0B9E04800780C3800EB4000D14901EBF5
:101D800000104078401CC1B2DA4800780C3800EBF3
:101D90004000CC4A02EB0010417014E3FFE7D54845
:101DA00000780C3800EB4000C64901EB0010407889
:101DB00001287DD1D0480078012812D1CD48007883
:101DC0000C3800EB400001EB00104079401CC1B220
:101DD000C84800780C3800EB4000BA4A02EB00100B
:101DE0004171C5480078022829D1C24800780C38D2
:101DF00000EB4000B34901EB00108079401CBD4965
:101E000009780C3901EB4101AE4A02EB0111497925
:101E1000884214DAB74800780C3800EB40001146CD
:101E200001EB0010807900E0FEE3401CC1B2B14834
:101E300000780C3800EB400002EB00108171AE48D6
:101E40000078032813D1AB4800780C3800EB400031
:101E50009C4901EB0010007B401CC1B2A5480078F2
:101E60000C3800EB4000974A02EB00100173A248C7
:101E70000078042815D19F4800780C3800EB40000A
:101E8000904901EB0010407B08B9012100E00021DE
:101E9000984800780C3800EB40008A4A02EB0010AA
:101EA0004173944800780C3800EB4000854900E00D
:101EB0007CE001EB0010007B042809D100218D4853
:101EC00000780C3800EB40007E4A02EB00100173F2
:101ED00089480078052813D1864800780C3800EB33
:101EE0004000784901EB00100089401C81B2814814
:101EF00000780C3800EB4000724A02EB00100181C0
:101F00007D480078062827D17A4800780C3800EB05
:101F100040006C4901EB00104089401C754909786C
:101F20000C3901EB4101674A02EB01110989884232
:101F300012DA704800780C3800EB4000114601EBD3
:101F400000104089401C81B26A4800780C3800EBD0
:101F5000400002EB00104181664800780C3800EB2D
:101F60004000584901EB00100089322809DB32217A
:101F7000604800780C3800EB4000524A02EB001039
:101F800001815C4800780C3800EB40004D4901EBC2
:101F9000001040795A2809DD5A21564800780C383B
:101FA00000EB4000474A02EB0010417151480078B5
:101FB0000C3800EB4000434901EB00104078022848
:101FC0005CD14E480078012812D14A4800780C387C
:101FD00000EB400001EB0010408A401C81B24548F4
:101FE00000780C3800EB4000364A02EB00104182CA
:101FF00042480078022813D13E4800780C3800EBA4
:102000004000304901EB0010008A401C81B2394881
:1020100000780C3800EB40002A4A02EB00100182E5
:10202000344800780C3800EB4000264901EB0010E2
:10203000408A42F21071884209D100212D4800786F
:102040000C3800EB40001F4A02EB00104182294887
:1020500000780C3800EB40001A4901EB0010008AB0
:1020600042F21071884209D10021224800780C38D0
:1020700000EB4000134A02EB001001821D4800787B
:102080000C3800EB40000F4901EB001040780328AA
:102090007ED11B480078012812D1164800780C38F0
:1020A00000EB400001EB00104079401CC1B2114828
:1020B00000780C3800EB4000024A02EB001041713E
:1020C0000F481FE0F8100020291300203B130020C8
:1020D0003C1300203D1300203E1300203F1300203E
:1020E000401300204113002042130020431300201E
:1020F000441300208A1400204513002046130020BA
:10210000471300200078022827D1FE4800780C38B9
:1021100000EB4000FC4901EB00108079401CF949BC
:1021200009780C3901EB4101F74A02EB01114979B9
:10213000884212DAF34800780C3800EB4000114670
:1021400001EB00108079401CC1B2EE4800780C38D9
:1021500000EB400002EB00108171EC48007803288E
:1021600013D1E84800780C3800EB4000E64901EB59
:102170000010007B401CC1B2E24800780C3800EB34
:102180004000E14A02EB00100173E048007800E0F3
:102190009FE0042815D1DB4800780C3800EB4000A4
:1021A000D94901EB0010407B08B9012100E0002172
:1021B000D44800780C3800EB4000D34A02EB001002
:1021C0004173D04800780C3800EB4000CE4901EB59
:1021D0000010007B042809D10021CA4800780C387F
:1021E00000EB4000C84A02EB00100173C7480078BA
:1021F000052813D1C34800780C3800EB4000C249D1
:1022000001EB0010408A401C81B2BE4800780C38B7
:1022100000EB4000BC4A02EB00104182BB48007852
:10222000062813D1B74800780C3800EB4000B649B7
:1022300001EB0010008A401C81B2B24800780C38D3
:1022400000EB4000B04A02EB00100182AD4800787C
:102250000C3800EB4000AC4901EB0010408A42F220
:102260001071884209D10021A64800780C3800EB93
:102270004000A54A02EB00104182A24800780C38C9
:1022800000EB4000A04901EB0010008A42F21071FF
:10229000884209D100219B4800780C3800EB4000AF
:1022A000994A02EB00100182964800780C3800EB46
:1022B0004000954901EB001040795A2809DD5A2168
:1022C000904800780C3800EB40008F4A02EB001079
:1022D00041718C4800780C3800EB40008A4901EBD2
:1022E0000010407804286ED189480078012812D166
:1022F000844800780C3800EB400001EB0010C07DF2
:10230000401CC1B27F4800780C3800EB40007E4A88
:1023100002EB0010C1757E480078022813D179487D
:1023200000780C3800EB4000774901EB0010007E8C
:10233000401CC1B2734800780C3800EB4000724A70
:1023400002EB0010017672480078032813D16D4823
:1023500000780C3800EB40006B4901EB0010407E28
:10236000401CC1B2674800780C3800EB4000664A58
:1023700002EB0010417666480078042813D16148CA
:1023800000780C3800EB40005F4901EB0010807EC4
:10239000401CC1B25B4800780C3800EB40005A4A40
:1023A00002EB001081765A480078052816D155486E
:1023B00000780C3800EB4000534901EB0010C07E60
:1023C00010B9012101E0E1E300214E4800780C380A
:1023D00000EB40004C4A02EB0010C1764C480078FC
:1023E000062813D1474800780C3800EB40004649D6
:1023F00001EB0010007F401CC1B2424800780C384D
:1024000000EB4000404A02EB0010017740480078A2
:10241000072813D13B4800780C3800EB40003A49BC
:1024200001EB0010407F401CC1B2364800780C38E8
:1024300000EB4000344A02EB00104177344800784A
:10244000082813D12F4800780C3800EB40002E49A3
:1024500001EB0010807F401CC1B22A4800780C3884
:1024600000EB4000284A02EB0010817728480078F2
:10247000092813D1234800780C3800EB400022498A
:1024800001EB0010C07F401CC1B21E4800780C3820
:1024900000EB40001C4A02EB0010C1771C4800789A
:1024A0000A2817D1174800780C3800EB400016496D
:1024B00001EB001090F8200008B9012100E0002194
:1024C000104800780C3800EB40000F4A02EB001077
:1024D00080F820100E4800780B281FD1094800789A
:1024E0000C3800EB4000084901EB001090F8210087
:1024F000401CC1B2034800780C3800EB4000024A8F
:1025000008E059E38A140020F81000204713002047
:102510004813002002EB001080F82110FE480078DC
:102520000C2815D1FD4800780C3800EB4000FC4920
:1025300001EB001090F82200401CC1B2F74800786F
:102540000C3800EB4000F64A02EB001080F8221035
:10255000F14800780D2815D1F04800780C3800EBD0
:102560004000EF4901EB001090F82300401CC1B27D
:10257000EA4800780C3800EB4000E94A02EB001012
:1025800080F82310E44800780E2815D1E34800783D
:102590000C3800EB4000E24901EB001090F82400F9
:1025A000401CC1B2DD4800780C3800EB4000DC4A2A
:1025B00002EB001080F82410D74800780F2817D1BC
:1025C000D64800780C3800EB4000D54901EB0010EC
:1025D00090F8250008B9012100E00021CF480078DB
:1025E0000C3800EB4000CE4A02EB001080F82510BA
:1025F000C9480078102815D1C84800780C3800EB7D
:102600004000C74901EB001090F82600401CC1B201
:10261000C24800780C3800EB4000C14A02EB0010C1
:1026200080F82610BC4800E0C7E30078112815D1D7
:10263000BA4800780C3800EB4000B94901EB0010B3
:1026400090F82700401CC1B2B44800780C3800EB69
:102650004000B34A02EB001080F82710AE48007823
:10266000122815D1AD4800780C3800EB4000AC4979
:1026700001EB001090F82800401CC1B2A748007878
:102680000C3800EB4000A64A02EB001080F828103E
:10269000A1480078132815D1A04800780C3800EB29
:1026A00040009F4901EB001090F82900401CC1B286
:1026B0009A4800780C3800EB4000994A02EB001071
:1026C00080F8291094480078142817D1934800788E
:1026D0000C3800EB4000924901EB001090F82A0002
:1026E00008B9012100E000218C4800780C3800EB8B
:1026F00040008B4A02EB001080F82A1086480078D0
:10270000152815D1854800780C3800EB4000844925
:1027100001EB001090F82B00401CC1B27F480078FC
:102720000C3800EB40007E4A02EB001080F82B10C2
:1027300079480078162815D1784800780C3800EBD5
:102740004000774901EB001090F82C00401CC1B20A
:10275000724800780C3800EB4000714A02EB001020
:1027600080F82C106C480078172815D16B48007839
:102770000C3800EB40006A4901EB001090F82D0086
:10278000401CC1B2654800780C3800EB4000644A38
:1027900002EB001080F82D105F480078182815D142
:1027A0005E4800780C3800EB40005D4901EB0010FA
:1027B00090F82E00401CC1B2584800780C3800EB4D
:1027C0004000574A02EB001080F82E105248007863
:1027D000192817D1514800780C3800EB40005049B7
:1027E00001EB001090F82F0008B9012100E0002152
:1027F0004A4800780C3800EB4000494A02EB0010D0
:1028000080F82F10454800780C3800EB4000444910
:1028100001EB0010C07D182809D100213F48007845
:102820000C3800EB40003E4A02EB0010C1753B48FB
:1028300000780C3800EB4000394901EB0010007EB5
:102840003D2809D10021354800780C3800EB4000C4
:10285000334A02EB00100176304800780C3800EB68
:1028600040002F4901EB0010007F182809D10021FA
:102870002A4800780C3800EB4000294A02EB00108F
:102880000177264800780C3800EB4000244901EB22
:102890000010407F3D2809D10021204800780C38E5
:1028A00000EB40001E4A02EB001041771B48007805
:1028B0000C3800EB40001A4901EB001090F82100A1
:1028C00018280AD10021154800780C3800EB400088
:1028D000134A02EB001080F82110104800780C38E1
:1028E00000EB40000E4901EB001090F822003D285B
:1028F0000AD10021094800780C3800EB4000084A52
:1029000002EB001080F82210044800780C3800EB2D
:102910004000034906E00000481300208A1400200C
:10292000F810002001EB001090F8260018280AD1BA
:102930000021FE4800780C3800EB4000FC4A02EB16
:10294000001080F82610F94800780C3800EB4000A1
:10295000F74901EB001090F827003D280AD100212B
:10296000F24800780C3800EB4000F14A02EB00100E
:1029700080F82710ED4800780C3800EB4000EC4957
:1029800001EB001090F82B0018280AD10021E7482D
:1029900000780C3800EB4000E54A02EB001080F8AC
:1029A0002B10E24800780C3800EB4000E04901EBC6
:1029B000001090F82C003D280AD10021DB48007857
:1029C0000C3800EB4000DA4A02EB001080F82C10C3
:1029D000D64800780C3800EB4000D54901EB0010D8
:1029E000407E182809D10021D04800780C3800EB2F
:1029F0004000CF4A02EB00104176CC4800780C38FA
:102A000000EB4000CA4901EB0010807E3D2809D14F
:102A10000021C64800780C3800EB4000C44A02EBA5
:102A200000108176C14800780C3800EB4000C049A6
:102A300001EB0010807F182809D10021BB480078E5
:102A40000C3800EB4000BA4A02EB00108177B7481F
:102A500000780C3800EB4000B54901EB0010C07F56
:102A60003D2809D10021B14800780C3800EB400026
:102A7000AF4A02EB0010C177AC4800780C3800EB8D
:102A80004000AB4901EB001090F8230018280AD150
:102A90000021A64800780C3800EB4000A44A02EB65
:102AA000001080F82310A14800780C3800EB40009B
:102AB0009F4901EB001090F824003D280AD1002125
:102AC0009A4800780C3800EB4000994A02EB00105D
:102AD00080F82410954800780C3800EB40009449A9
:102AE00001EB001090F8280018280AD100218F4827
:102AF00000780C3800EB40008D4A02EB001080F8A3
:102B000028108A4800780C3800EB4000884901EB17
:102B1000001090F829003D280AD100218348007850
:102B20000C3800EB4000824A02EB001080F82910BC
:102B30007E4800780C3800EB40007D4901EB001026
:102B400090F82D0018280AD10021784800780C3818
:102B500000EB4000764A02EB001080F82D1073481D
:102B600000780C3800EB4000714901EB001090F840
:102B70002E003D280AD100216C4800780C3800EB6B
:102B800040006B4A02EB001080F82E106748007876
:102B90000C3800EB4000664901EB00104078052836
:102BA00009D10021614800780C3800EB4000604AF0
:102BB00002EB00104170FDE35C4800780C3820B94E
:102BC0005C480078401C5B490870584800780C3815
:102BD000012804D158480078401C574908705348D0
:102BE00000780C38022804D154480078401C53491E
:102BF00008704E4800780C38032804D150480078FB
:102C0000401C4F490870494800780C38042804D10A
:102C10004C480078401C4B490870444800780C38F8
:102C2000052804D148480078401C474908703F48AF
:102C300000780C38062804D144480078401C4349E9
:102C400008703A4800780C38072804D140480078CA
:102C5000401C3F490870354800780C38082804D1DA
:102C60003C480078401C3B490870304800780C38DC
:102C7000092804D138480078401C374908702D488D
:102C80000078022823DC2C48007802281FDC2B481F
:102C9000007802281BDC2A480078022817DC294823
:102CA0000078022813DC2848007802280FDC274827
:102CB000007802280BDC26480078022807DC25482B
:102CC0000078022803DC24480078022874DD1748C5
:102CD00000780C3800EB4000154901EB00104078FB
:102CE00001280AD11D480078401C1C49087008467C
:102CF0000078072801D1012008700C4800780C38B2
:102D000000EB40000A4901EB0010407802280AD18C
:102D100013480078401C12490870084600780328C0
:102D200001D101200870014800781BE08A140020BE
:102D3000F81000203B1300203C1300203D1300201E
:102D40003E1300203F1300204013002041130020B9
:102D50004213002043130020441300204513002099
:102D6000461300200C3800EB4000FE4901EB001038
:102D7000407803280AD1FC480078401CFA490870C2
:102D800008460078072801D101200870F74800782C
:102D90000C3800EB4000F34901EB001040780428A8
:102DA0000AD1F3480078401CF149087008460078C1
:102DB0001A2801D101200870FDE6EE48007878BBA2
:102DC000ED48007860BBED48007848BBEC480078DF
:102DD00030BBEC48007818BBEB48007800BBEB48F0
:102DE0000078E8B9EA480078D0B9EA480078B8B97C
:102DF000E9480078A0B9DD4800780C3800EB4000C5
:102E0000D84901EB00104078401EC1B2D748007885
:102E10000C3800EB4000D34A02EB0010417018E37D
:102E2000FFE7D24800780C3800EB4000CD4901EBB9
:102E30000010407801287DD1D8480078012826D19B
:102E4000CA4800780C3800EB400001EB00104079D4
:102E5000401EC64909780C3901EB4101C14A02EB19
:102E600001118979884212DDC04800780C3800EBE6
:102E70004000114601EB00104079401EC1B2BB4832
:102E800000780C3800EB400002EB00104171C348A1
:102E90000078022813D1B54800780C3800EB4000C8
:102EA000B04901EB00108079401EC1B2AF480078F4
:102EB0000C3800EB4000AB4A02EB00108171B748C0
:102EC0000078032813D1A94800780C3800EB4000A3
:102ED000A44901EB0010007B401CC1B2A34800785C
:102EE0000C3800EB40009F4A02EB00100173AB4826
:102EF0000078042815D19D4800780C3800EB40007C
:102F0000984901EB0010407B08B9012100E0002145
:102F1000964800780C3800EB4000924A02EB001013
:102F20004173924800780C3800EB40008D4901EB6A
:102F3000001000E07AE0007B042809D100218B48D2
:102F400000780C3800EB4000864A02EB0010017359
:102F500092480078052827D1844800780C3800EB87
:102F60004000804901EB00100089401E7F4909782C
:102F70000C3901EB41017B4A02EB0111498988427E
:102F800012DD7A4800780C3800EB4000114601EB66
:102F900000100089401E81B2744800780C3800EBA4
:102FA000400002EB001001817C480078062813D114
:102FB0006E4800780C3800EB40006A4901EB0010C5
:102FC0004089401E81B2694800780C3800EB40000F
:102FD000644A02EB00104181644800780C3800EB31
:102FE0004000604901EB00104089012809DC012103
:102FF0005E4800780C3800EB40005A4A02EB0010A3
:1030000041815A4800780C3800EB4000554901EBEB
:1030100000108079FF2809D10021544800780C382D
:1030200000EB40004F4A02EB001081714F480078DE
:103030000C3800EB40004B4901EB001040780228AF
:103040005ED157480078012812D1484800780C38E2
:1030500000EB400001EB0010408A401E81B2434863
:1030600000780C3800EB40003E4A02EB0010418231
:103070004B480078022813D13C4800780C3800EB0C
:103080004000384901EB0010008A401E81B23748E9
:1030900000780C3800EB4000324A02EB001001824D
:1030A000324800780C3800EB40002E4901EB00104C
:1030B000408A4FF6FF7188420AD142F20F712B48C5
:1030C00000780C3800EB4000264A02EB00104182E9
:1030D000264800780C3800EB4000224901EB001034
:1030E000008A4FF6FF7188420AD142F20F711F48E1
:1030F00000780C3800EB40001A4A02EB0010018205
:103100001A4800780C3800EB4000164901EB00101B
:10311000407803287ED114480078012847D113480D
:1031200000780C3800EB400001EB00104079401EA5
:103130000E4909780C3901EB41010A4A02EB0111F1
:103140008979884233DD094800780C3800EB40006B
:10315000114601EB00104079401EC1B203480078CF
:103160000C381FE0F8100020471300208A140020BC
:10317000481300203B1300203C1300203D13002087
:103180003E1300203F130020401300204113002075
:103190004213002043130020441300204513002055
:1031A0004613002000EB400002EB00104171FE4886
:1031B0000078022813D1FD4800780C3800EB40005D
:1031C000FB4901EB00108079401EC1B2F74800783E
:1031D0000C3800EB4000F64A02EB00108171F24817
:1031E0000078032813D1F14800780C3800EB400038
:1031F000EF4901EB0010007B401CC1B2EB480078A6
:103200000C3800EB4000EA4A02EB00100173E6487C
:10321000007800E0A1E0042815D1E44800780C38DB
:1032200000EB4000E24901EB0010407B08B90121AE
:1032300000E00021DD4800780C3800EB4000DC4A5B
:1032400002EB00104173D94800780C3800EB4000C5
:10325000D74901EB0010007B042809D10021D34895
:1032600000780C3800EB4000D14A02EB00100173EB
:10327000CD480078052813D1CC4800780C3800EBF5
:103280004000CB4901EB0010408A401E81B2C74884
:1032900000780C3800EB4000C54A02EB0010418278
:1032A000C1480078062813D1C04800780C3800EBDC
:1032B0004000BF4901EB0010008A401E81B2BB48AC
:1032C00000780C3800EB4000B94A02EB0010018294
:1032D000B64800780C3800EB4000B54901EB00100F
:1032E000408A4FF6FF7188420AD142F20F71AF480F
:1032F00000780C3800EB4000AD4A02EB0010418230
:10330000AA4800780C3800EB4000A94901EB0010F6
:10331000008A4FF6FF7188420AD142F20F71A3482A
:1033200000780C3800EB4000A14A02EB001001824B
:103330009E4800780C3800EB40009D4901EB0010DE
:103340008079FF2809D10021984800780C3800EBDB
:103350004000974A02EB00108171944800780C38C5
:1033600000EB4000924901EB00104078042870D136
:1033700090480078012812D18C4800780C3800EB76
:10338000400001EB0010C07D401EC1B287480078AC
:103390000C3800EB4000864A02EB0010C1758548EE
:1033A0000078022815D1814800780C3800EB4000E5
:1033B0007F4900E0FDE301EB0010007E401EC1B23A
:1033C0007A4800780C3800EB4000794A02EB001094
:1033D000017678480078032813D1744800780C38B7
:1033E00000EB4000724901EB0010407E401EC1B26C
:1033F0006E4800780C3800EB40006D4A02EB00107C
:1034000041766C480078042813D1684800780C385D
:1034100000EB4000664901EB0010807E401EC1B207
:10342000624800780C3800EB4000614A02EB001063
:10343000817660480078052816D15C4800780C3801
:1034400000EB40005A4901EB0010C07E10B9012189
:1034500001E0DFE30021554800780C3800EB400024
:10346000534A02EB0010C17652480078062813D167
:103470004E4800780C3800EB40004D4901EB00103D
:10348000007F401EC1B2494800780C3800EB400074
:10349000474A02EB0010017746480078072813D10D
:1034A000424800780C3800EB4000414901EB001025
:1034B000407F401EC1B23D4800780C3800EB400010
:1034C0003B4A02EB001041773A480078082813D1B4
:1034D000364800780C3800EB4000354901EB00100D
:1034E000807F401EC1B2314800780C3800EB4000AC
:1034F0002F4A02EB001081772E480078092813D15B
:103500002A4800780C3800EB4000294901EB0010F4
:10351000C07F401EC1B2254800780C3800EB400047
:10352000234A02EB0010C177224800780A2817D1FD
:103530001E4800780C3800EB40001D4901EB0010DC
:1035400090F8200008B9012100E000211748007818
:103550000C3800EB4000164A02EB001080F82010F7
:10356000144800780B2815D1104800780C3800EB6F
:1035700040000F4901EB001090F82100401EC1B23D
:103580000A4800780C3800EB4000094A02EB0010B2
:1035900080F82110074800780C281ED103480078D5
:1035A0000C3800EB400007E0471300208A1400208D
:1035B000F810002048130020FE4901EB001090F89D
:1035C0002200401EC1B2FC4800780C3800EB4000DD
:1035D000F84A02EB001080F82210F84800780D2815
:1035E00015D1F54800780C3800EB4000F14901EBAB
:1035F000001090F82300401EC1B2EF4800780C384C
:1036000000EB4000EB4A02EB001080F82310EB487F
:1036100000780E2815D1E84800780C3800EB4000FF
:10362000E44901EB001090F82400401EC1B2E248CA
:1036300000780C3800EB4000DE4A02EB001080F806
:103640002410DE4800780F2817D1DB4800780C38AA
:1036500000EB4000D74901EB001090F8250008B9B5
:10366000012100E00021D44800780C3800EB400034
:10367000D04A02EB001080F82510D04800781028BE
:1036800015D1CD4800780C3800EB4000C94901EB5A
:10369000001090F82600401EC1B2C74800780C38D0
:1036A00000EB4000C34A02EB001080F82610C3482C
:1036B0000078112815D1C04800780C3800EB400084
:1036C000BC4901EB001090F82700401EC1B2BA4877
:1036D00000780C3800EB4000B64A02EB001080F88E
:1036E0002710B6480078122815D1B34800780C3856
:1036F00000EB4000AF4901EB001090F82800401E9D
:10370000C1B2AD4800780C3800EB4000A94A02EB8A
:10371000001080F82810A9480078132815D1A64871
:1037200000780C3800EB4000A24901EB001090F843
:103730002900401EC1B2A04800780C3800EB4000C0
:103740009C4A02EB001080F829109C48007814284D
:1037500017D1994800780C3800EB4000954901EBEF
:10376000001090F82A0008B9012100E000219248D9
:1037700000780C3800EB40008E4A02EB001080F815
:103780002A108E480078152815D18B4800780C38FF
:1037900000EB4000874901EB001090F82B00401E21
:1037A000C1B2854800780C3800EB4000814A02EB3A
:1037B000001080F82B1081480078162815D17E481B
:1037C00000780C3800EB40007A4901EB001090F8CB
:1037D0002C00401EC1B2784800780C3800EB400045
:1037E000744A02EB001080F82C10744800781728F7
:1037F00015D1714800780C3800EB40006D4901EBA1
:10380000001090F82D00401EC1B26B4800780C38B3
:1038100000EB4000674A02EB001080F82D1067486B
:103820000078182815D1644800780C3800EB400067
:10383000604901EB001090F82E00401EC1B25E48B6
:1038400000780C3800EB40005A4A02EB001080F878
:103850002E105A480078192817D1574800780C388C
:1038600000EB4000534901EB001090F82F0008B91D
:10387000012100E00021504800780C3800EB4000A6
:103880004C4A02EB001080F82F104B4800780C389F
:1038900000EB4000474901EB0010C07DFF2809D133
:1038A0001721454800780C3800EB4000414A02EBF4
:1038B0000010C175404800780C3800EB40003D49CD
:1038C00001EB0010007EFF2809D13C213A48007826
:1038D0000C3800EB4000374A02EB00100176364806
:1038E00000780C3800EB4000324901EB0010007FFB
:1038F000FF2809D11721304800780C3800EB400030
:103900002C4A02EB001001772B4800780C3800EBB2
:103910004000284901EB0010407FFF2809D13C21DD
:10392000254800780C3800EB4000224A02EB0010DA
:103930004177214800780C3800EB40001D4901EB2D
:10394000001090F82100FF280AD117211A480078AA
:103950000C3800EB4000174A02EB001080F82110F1
:10396000154800780C3800EB4000124901EB0010BC
:1039700090F82200FF280AD13C210F4800780C382B
:1039800000EB40000B4A02EB001080F822100A48BE
:1039900000780C3800EB4000064901EB001090F86D
:1039A0002600FF2811D11721034800780C3800EBBE
:1039B000400005E0F81000208A1400204813002081
:1039C000FE4A02EB001080F82610FD4800780C3803
:1039D00000EB4000F94901EB001090F82700FF28A8
:1039E0000AD13C21F64800780C3800EB4000F34A3D
:1039F00002EB001080F82710F14800780C3800EB3B
:103A00004000EE4901EB001090F82B00FF280AD18E
:103A10001721EB4800780C3800EB4000E74A02EB36
:103A2000001080F82B10E64800780C3800EB4000BE
:103A3000E24901EB001090F82C00FF280AD13C214C
:103A4000DF4800780C3800EB4000DC4A02EB001045
:103A500080F82C10DA4800780C3800EB4000D74989
:103A600001EB0010407EFF2809D11721D4480078CF
:103A70000C3800EB4000D14A02EB00104176D048F0
:103A800000780C3800EB4000CC4901EB0010807E40
:103A9000FF2809D13C21CA4800780C3800EB4000CF
:103AA000C64A02EB00108176C54800780C3800EB5E
:103AB0004000C24901EB0010807FFF2809D1172187
:103AC000BF4800780C3800EB4000BC4A02EB001005
:103AD0008177BB4800780C3800EB4000B74901EB18
:103AE0000010C07FFF2809D13C21B54800780C3870
:103AF00000EB4000B14A02EB0010C177B0480078FB
:103B00000C3800EB4000AD4901EB001090F82300A9
:103B1000FF280AD11721AA4800780C3800EB400092
:103B2000A64A02EB001080F82310A54800780C3854
:103B300000EB4000A14901EB001090F82400FF28A1
:103B40000AD13C219E4800780C3800EB40009B4A8B
:103B500002EB001080F82410994800780C3800EB34
:103B60004000964901EB001090F82800FF280AD188
:103B70001721934800780C3800EB40008F4A02EB85
:103B8000001080F828108E4800780C3800EB4000B8
:103B90008A4901EB001090F82900FF280CD13C2144
:103BA000874800780C3800EB4000844A02EB001094
:103BB00000E046E080F82910814800780C3800EBDE
:103BC00040007E4901EB001090F82D00FF280AD13B
:103BD00017217B4800780C3800EB4000774A02EB55
:103BE000001080F82D10764800780C3800EB40006B
:103BF000724901EB001090F82E00FF280AD13C21F9
:103C00006F4800780C3800EB40006C4A02EB001063
:103C100080F82E106A4800780C3800EB40006749A5
:103C200001EB00104078FF2809D104216448007896
:103C30000C3800EB4000614A02EB0010417000E0DC
:103C400000BF03E05F4800785D4908705E48007877
:103C5000002841F0D6825D4800780028F9D15C4800
:103C600000780028F5D15B4800780028F1D15A4847
:103C700000780028EDD1594800780028E9D158484B
:103C800000780028E5D1574800780028E1D156484F
:103C900000780028DDD1554800780028D9D10120CE
:103CA00053490870534908705349087053490870C4
:103CB00053490870534908705349087053490870B4
:103CC00053490870534908703D4800780C3800EBA0
:103CD00040003A4901EB00104078052881F08F82BE
:103CE000DFE800F00314FEFDFC005C222321A0208D
:103CF00012F0F0FD5A222321C02012F0EBFD5B22CE
:103D00002321E02012F0E6FD01F07ABA2C48007879
:103D10000C3800EB4000294901EB0010407910906D
:103D2000274800780C3800EB400001EB0010807948
:103D30000F90234800780C3800EB40011F4800EB3F
:103D4000011000890E901E4800780C3800EB4000EE
:103D50001A4901EB001040890D9027222321A02051
:103D600012F0B8FD0A222321C02012F0B3FD262252
:103D70002321E02012F0AEFD29224321062012F07B
:103D8000A9FD2A224321262012F0A4FD2722432147
:103D9000462012F09FFD2C224321662012F09AFD4E
:103DA00029226721062012F095FD2B22672126206B
:103DB00012F090FD2722672146202DE0F810002008
:103DC0008A140020291300203B1300203C130020FC
:103DD0003D1300203E1300203F130020401300201D
:103DE00041130020421300204313002044130020FD
:103DF000311300203213002033130020341300202D
:103E0000351300203613002037130020381300200C
:103E1000391300203A13002012F05CFD2C22672198
:103E2000662012F057FD32228B21062012F052FD3F
:103E300033228B21262012F04DFD34228B21462087
:103E400012F048FD35228B21662012F043FD362208
:103E50008B21862012F03EFD2C228B21A62012F011
:103E600039FD3722AF21062012F034FD3822AF2170
:103E7000262012F02FFD3922AF21462012F02AFD14
:103E80003A22AF21662012F025FD2C22AF21862098
:103E900012F020FD6922D321062012F01BFD6A22B8
:103EA000D321262012F016FD2922D321462012F01C
:103EB00011FD2A22D321662012F00CFD5822D321B5
:103EC000862012F007FD2C22D321A62012F002FD3D
:103ED0006922F721062012F0FDFC02E0FEE34DE22C
:103EE00061E16A22F721262012F0F4FC2922F72151
:103EF000462012F0EFFC2B22F721662012F0EAFC9C
:103F00005822F721862012F0E5FC2C22F721A6206A
:103F100012F0E0FC0A21109890FBF1F0C0B2019081
:103F200000204FF6FF73009043218620019A12F083
:103F300095FC0A21109890FBF1F201FB1200C0B22F
:103F4000019000204FF6FF73009043219620019AC4
:103F500012F084FC0A210F9890FBF1F0C0B201909E
:103F600000204FF6FF73009067218620019A12F01F
:103F700075FC0A210F9890FBF1F201FB1200C0B210
:103F8000019000204FF6FF73009067219620019A60
:103F900012F064FCF74800780C3800EB4000F6495A
:103FA00001EB0010007BA8B927228B21C72012F05B
:103FB00091FC42228B21E72012F08CFC3F228B21C6
:103FC00040F2071012F086FC26228B2140F22710C7
:103FD00012F080FCE74800780C3800EB4000E6491E
:103FE00001EB0010007B012815D127228B21C7206F
:103FF00012F070FC42228B21E72012F06BFC402271
:104000008B2140F2071012F065FC26228B2140F232
:10401000271012F05FFCD74800780C3800EB400105
:10402000D54800EB0110007B022815D127228B21F7
:10403000C72012F04FFC42228B21E72012F04AFCED
:1040400041228B2140F2071012F044FC26228B21E2
:1040500040F2271012F03EFCC64800780C3800EB06
:104060004000C54901EB0010007B032815D1432215
:104070008B21C72012F02EFC44228B21E72012F066
:1040800029FC27228B2140F2071012F023FC422248
:104090008B2140F2271012F01DFCB64800780C3836
:1040A00000EB4000B44901EB0010407B50B13D22D1
:1040B000AF21A72012F00EFC3E22AF21C72012F044
:1040C00009FC09E03B22AF21A72012F003FC3C22AF
:1040D000AF21C72012F0FEFB64210E9890FBF1F097
:1040E000C0B2019000204FF6FF730090D321C8208A
:1040F000019A12F0B3FB0A210E9890FBF1F090FBAD
:10410000F1F201FB1200C0B2019000204FF6FF73E4
:104110000090D321D820019A12F0A0FB0A210E981A
:1041200090FBF1F201FB1200C0B2019000204FF6AB
:10413000FF730090D321E820019A12F08FFB6421D5
:104140000D9890FBF1F0C0B2019000204FF6FF7384
:104150000090F721C820019A12F080FB0A210D98E7
:1041600090FBF1F090FBF1F201FB1200C0B2019064
:1041700000204FF6FF730090F721D820019A12F02B
:104180006DFB0A210D9890FBF1F201FB1200C0B209
:10419000019000204FF6FF730090F721E820019A6C
:1041A00012F05CFBB0E5734800780C3800EB40007F
:1041B000714901EB0010408A0C906E4800780C3871
:1041C00000EB400001EB0010008A0B90122223212B
:1041D000A02012F07FFB0A222321C02012F07AFBDC
:1041E00026222321E02012F075FB302243210620F5
:1041F00012F070FB31224321262012F06BFB1222B9
:104200004321462012F066FB13224321662012F060
:1042100061FB2C224321862012F05CFB2E228B2195
:10422000062012F057FB2F228B21262012F052FB82
:1042300012228B21462012F04DFB13228B21662087
:1042400012F048FB2C228B21862012F043FB4FF406
:104250007A710C9890FBF1F0C0B2019000204FF6FB
:10426000FF7300904321A620019A12F0F7FA64210F
:104270000C9890FBF1F00A2190FBF1F201FB120087
:10428000C0B2019000204FF6FF7300904321B6208A
:10429000019A12F0E3FA0A210C9890FBF1F090FBDE
:1042A000F1F201FB1200C0B2019000204FF6FF7343
:1042B00000904321C620019A12F0D0FA0A210C98EE
:1042C00090FBF1F201FB1200C0B2019000204FF60A
:1042D000FF7300904321D620019A12F0BFFA4FF4E9
:1042E0007A710B9890FBF1F0C0B2019000204FF66C
:1042F000FF7300908B21A620019A12F0AFFA64217F
:104300000B9890FBF1F00A2190FBF1F201FB1200F7
:10431000C0B2019000204FF6FF7300908B21B620B1
:10432000019A12F09BFA0A210B9890FBF1F10A22F4
:1043300091FBF2F002FB1010C0B2019000204FF68A
:10434000FF7300908B21C620019A12F087FA0A2190
:104350000B9890FBF1F201FB1200C0B2019000201B
:104360004FF6FF7300908B21D620019A12F076FA57
:10437000CAE400008A140020F8100020FE480078EB
:104380000C3800EB4000FD4901EB001040790A9029
:10439000F94800780C3800EB400001EB0010807900
:1043A0000990F54800780C3800EB400001EB001054
:1043B000408A0890F04800780C3800EB400001EB90
:1043C0000010008A079027222321A02012F082FAF1
:1043D00012222321C02012F07DFA0A222321E0209C
:1043E00012F078FA29224321062012F073FA2A22C9
:1043F0004321262012F06EFA27224321462012F094
:1044000069FA2C224321662012F064FA29226721DE
:10441000062012F05FFA2B226721262012F05AFAAA
:1044200027226721462012F055FA2C2267216620A8
:1044300012F050FA32228B21062012F04BFA33226E
:104440008B21262012F046FA34228B21462012F0CE
:1044500041FA35228B21662012F03CFA36228B215C
:10446000862012F037FA2C228B21A62012F032FA85
:104470003722AF21062012F02DFA3822AF21262054
:1044800012F028FA3922AF21462012F023FA3A22FC
:10449000AF21662012F01EFA2C22AF21862012F0E6
:1044A00019FA0A210A9890FBF1F0C0B2019000209D
:1044B0004FF6FF73009043218620019A12F0CEF947
:1044C0000A210A9890FBF1F201FB1200C0B20190A0
:1044D00000204FF6FF73009043219620019A12F0BE
:1044E000BDF90A21099890FBF1F0C0B201900020BB
:1044F0004FF6FF73009067218620019A12F0AEF903
:104500000A21099890FBF1F201FB1200C0B2019060
:1045100000204FF6FF73009067219620019A12F059
:104520009DF9954800780C3800EB4001934800EB6A
:104530000110007BA8B927228B21C72012F0CAF9ED
:1045400042228B21E72012F0C5F93F228B2140F255
:10455000071012F0BFF926228B2140F2271012F02B
:10456000B9F9854800780C3800EB4001834800EB2E
:104570000110007B012815D127228B21C72012F0C2
:10458000A9F942228B21E72012F0A4F940228B21C5
:1045900040F2071012F09EF926228B2140F22710DC
:1045A00012F098F9744800780C3800EB4001734819
:1045B00000EB0110007B022815D127228B21C72098
:1045C00012F088F942228B21E72012F083F9412270
:1045D0008B2140F2071012F07DF926228B2140F248
:1045E000271012F077F9644800780C3800EB40008F
:1045F000624901EB0010007B032815D143228B2177
:10460000C72012F067F944228B21E72012F062F9EB
:1046100027228B2140F2071012F05CF942228B21F5
:1046200040F2271012F056F9534800780C3800EB8E
:104630004001524800EB0110407B50B13D22AF21B8
:10464000A72012F047F93E22AF21C72012F042F90D
:1046500009E03B22AF21A72012F03CF93C22AF2118
:10466000C72012F037F93022D321062012F032F998
:104670003122D321262012F02DF91222D3214620F7
:1046800012F028F91322D321662012F023F92C22EC
:10469000D321862012F01EF92E22F721062012F0D7
:1046A00019F92F22F721262012F014F91222F721EE
:1046B000462012F00FF91322F721662012F00AF9B2
:1046C0002C22F721862012F005F94FF47A71089810
:1046D00090FBF1F0C0B20190002000E08DE04FF6B9
:1046E000FF730090D321A620019A12F0B7F864213D
:1046F000089890FBF1F00A2190FBF1F201FB120007
:10470000C0B2019000204FF6FF730090D321B62075
:10471000019A12F0A3F80A21089890FBF1F090FB9F
:10472000F1F201FB1200C0B2019000204FF6FF73BE
:104730000090D321C620019A12F090F80A2108981F
:1047400090FBF1F201FB1200C0B2019000204FF685
:10475000FF730090D321D620019A12F07FF84FF416
:104760007A71079890FBF1F0C0B2019000204FF6EB
:10477000FF730090F72103E08A140020F810002056
:10478000A620019A12F06AF86421079890FBF1F1D3
:104790000A2091FBF0F200FB1210C0B20190002041
:1047A0004FF6FF730090F721B620019A12F056F8E9
:1047B0000A21079890FBF1F090FBF1F201FB120047
:1047C000C0B2019000204FF6FF730090F721C62081
:1047D000019A12F043F80A21079890FBF1F201FBCD
:1047E0001200C0B2019000204FF6FF730090F72135
:1047F000D620019A12F032F8FDE3142102A8FBF74B
:10480000FFFCF94800780C3800EB4000F74901EB59
:104810000010C07D8DF80800F34800780C3800EBDC
:10482000400001EB0010007E8DF80900EE48007892
:104830000C3800EB400001EB0010407E8DF80A00C0
:10484000E94800780C3800EB400001EB0010807E56
:104850008DF80B00E44800780C3800EB400001EBC9
:104860000010007F8DF80C00DF4800780C3800EB5A
:10487000400001EB0010417F8DF80D10DA48007800
:104880000C3800EB4000D94901EB0010817F8DF816
:104890000E10D54800780C3800EB4000D34901EBEE
:1048A0000010C17F8DF80F10CF4800780C3800EB56
:1048B0004000CE4901EB001090F821008DF8100067
:1048C000C94800780C3800EB400001EB001090F86C
:1048D00022108DF81110C44800780C3800EB40000D
:1048E000C24901EB001090F823108DF81210BE4859
:1048F00000780C3800EB4000BC4901EB001090F848
:1049000024108DF81310B84800780C3800EB4000E4
:10491000B64901EB001090F826008DF81400B2485B
:1049200000780C3800EB400001EB001090F82710E5
:104930008DF81510AC4800780C3800EB4000AB49FE
:1049400001EB001090F828108DF81610A64800789A
:104950000C3800EB4000A54901EB001090F829103D
:104960008DF81710A04800780C3800EB40009F49E4
:1049700001EB001090F82B008DF818009A48007891
:104980000C3800EB400001EB001090F82C108DF873
:104990001910954800780C3800EB4000934901EB62
:1049A000001090F82D108DF81A108F4800780C38F0
:1049B00000EB40008D4901EB001090F82E108DF8AF
:1049C0001B1028222321A02011F084FF1222232172
:1049D000C02011F07FFF0A222321E02011F07AFF8E
:1049E00000204FF4FC63732243210090502011F00B
:1049F000E5FF00204FF4FC637422432100907020F7
:104A000011F0DCFF00204FF4FC63122243210090E0
:104A1000902011F0D3FF00204FF4FC6313224321B8
:104A20000090B02011F0CAFF00204FF478437522A7
:104A3000432100904FF4887011F0C0FF00204FF424
:104A400078437622432100904FF4987011F0B6FF1E
:104A500000204FF478431222432100904FF4A870B5
:104A600011F0ACFF00204FF4784313224321009053
:104A70004FF4B87011F0A2FF4E226321002011F014
:104A800029FF12226321602011F024FF28226321D4
:104A9000A02011F01FFF12226321100111F01AFF54
:104AA000282263214FF4B07011F014FF9DF8080024
:104AB0000A2190FBF1F0C0B2019000204FF6FF7385
:104AC000009063214020019A11F0C8FE9DF8080073
:104AD0000A2190FBF1F201FB1200C0B2019000200C
:104AE0004FF6FF73009063215020019A11F0B6FE3B
:104AF0009DF809000A2190FBF1F0C0B2019000205E
:104B00004FF6FF73009063218020019A11F0A6FEFA
:104B10009DF809000A2190FBF1F201FB1200C0B2DE
:104B2000019000204FF6FF73009063219020019ABE
:104B300011F094FE9DF80A000A2190FBF1F0C0B23A
:104B4000019000204FF6FF73009063214FF48070B6
:104B5000019A11F083FE9DF80A000A2190FBF1F200
:104B600001FB1200C0B2019000204FF6FF730090CD
:104B700063214FF48870019A11F070FE9DF80B00CC
:104B80000A2190FBF1F0C0B2019000204FF6FF73B4
:104B9000009063214FF4A070019A11F05FFE9DF820
:104BA0000B000A2190FBF1F201FB1200C0B2019050
:104BB00000204FF6FF73009063214FF4A870019A14
:104BC00011F04CFE084800780C3800EB4000074913
:104BD00001EB0010C07E58B1462263214FF4D07023
:104BE00011F078FE0AE000008A140020F81000207E
:104BF000472263214FF4D07011F06CFE4F228321C5
:104C0000002011F067FE12228321602011F062FE65
:104C100028228321A02011F05DFE122283211001A1
:104C200011F058FE282283214FF4B07011F052FE8B
:104C30009DF80C000A2190FBF1F0C0B20190002019
:104C40004FF6FF73009083214020019A11F006FE79
:104C50009DF80C000A2190FBF1F201FB1200C0B29A
:104C6000019000204FF6FF73009083215020019A9D
:104C700011F0F4FD9DF80D000A2190FBF1F0C0B297
:104C8000019000204FF6FF73009083218020019A4D
:104C900011F0E4FD9DF80D000A2190FBF1F201FBFB
:104CA0001200C0B2019000204FF6FF7300908321E4
:104CB0009020019A11F0D2FD9DF80E000A2190FB80
:104CC000F1F0C0B2019000204FF6FF7300908321F5
:104CD0004FF48070019A11F0C1FD9DF80E000A2179
:104CE00090FBF1F201FB1200C0B2019000204FF6E0
:104CF000FF73009083214FF48870019A11F0AEFD8C
:104D00009DF80F000A2190FBF1F0C0B20190002045
:104D10004FF6FF73009083214FF4A070019A11F0B9
:104D20009DFD9DF80F000A2190FBF1F201FB12009E
:104D3000C0B2019000204FF6FF73009083214FF422
:104D4000A870019A11F08AFDFE4800780C3800EB3B
:104D50004000FD4901EB001090F8200030B14622E0
:104D600083214FF4D07011F0B5FD05E04722832177
:104D70004FF4D07011F0AEFD5022A321002011F0AD
:104D8000A9FD1222A321602011F0A4FD2822A32155
:104D9000A02011F09FFD1222A321100111F09AFD15
:104DA0002822A3214FF4B07011F094FD9DF810005B
:104DB0000A2190FBF1F0C0B2019000204FF6FF7382
:104DC0000090A3214020019A11F048FD9DF81000A9
:104DD0000A2190FBF1F201FB1200C0B20190002009
:104DE0004FF6FF730090A3215020019A11F036FD79
:104DF0009DF811000A2190FBF1F0C0B20190002053
:104E00004FF6FF730090A3218020019A11F026FD38
:104E10009DF811000A2190FBF1F201FB1200C0B2D3
:104E2000019000204FF6FF730090A3219020019A7B
:104E300011F014FD9DF812000A2190FBF1F0C0B2B0
:104E4000019000204FF6FF730090A3214FF4807073
:104E5000019A11F003FD9DF812000A2190FBF1F276
:104E600001FB1200C0B2019000204FF6FF730090CA
:104E7000A3214FF48870019A11F0F0FC9DF8130003
:104E80000A2190FBF1F0C0B2019000204FF6FF73B1
:104E90000090A3214FF4A070019A11F0DFFC9DF85F
:104EA00013000A2190FBF1F201FB1200C0B2019045
:104EB00000204FF6FF730090A3214FF4A870019AD1
:104EC00011F0CCFC9F4800780C3800EB40009E4964
:104ED00001EB001090F8250030B14622A3214FF4D9
:104EE000D07011F0F7FC05E04722A3214FF4D070F9
:104EF00011F0F0FC5122C321002011F0EBFC122232
:104F0000C321602011F0E6FC2822C321A02011F06B
:104F1000E1FC1222C321100111F0DCFC2822C32184
:104F20004FF4B07011F0D6FC9DF814000A2190FBEC
:104F3000F1F0C0B2019000204FF6FF730090C32142
:104F40004020019A11F08AFC9DF814000A2190FB80
:104F5000F1F201FB1200C0B2019000204FF6FF7386
:104F60000090C3215020019A11F078FC9DF81500A3
:104F70000A2190FBF1F0C0B2019000204FF6FF73C0
:104F80000090C3218020019A11F068FC9DF8150063
:104F90000A2190FBF1F201FB1200C0B20190002047
:104FA0004FF6FF730090C3219020019A11F056FC38
:104FB0009DF816000A2190FBF1F0C0B2019000208C
:104FC0004FF6FF730090C3214FF48070019A11F0E7
:104FD00045FC9DF816000A2190FBF1F201FB12003E
:104FE000C0B2019000204FF6FF730090C3214FF430
:104FF0008870019A00E003E111F030FC9DF8170081
:105000000A2190FBF1F0C0B2019000204FF6FF732F
:105010000090C3214FF4A070019A11F01FFC9DF87D
:1050200017000A2190FBF1F201FB1200C0B20190BF
:1050300000204FF6FF730090C3214FF4A870019A2F
:1050400011F00CFC3F4800780C3800EB40003E4962
:1050500001EB001090F82A0030B14622C3214FF432
:10506000D07011F037FC05E04722C3214FF4D07017
:1050700011F030FC5222E321002011F02BFC12220F
:10508000E321602011F026FC2822E321A02011F06A
:1050900021FC1222E321100111F01CFC2822E32143
:1050A0004FF4B07011F016FC9DF818000A2190FB27
:1050B000F1F0C0B2019000204FF6FF730090E321A1
:1050C0004020019A11F0CAFB9DF818000A2190FBBC
:1050D000F1F201FB1200C0B2019000204FF6FF7305
:1050E0000090E3215020019A11F0B8FB9DF81900BF
:1050F0000A2190FBF1F0C0B2019000204FF6FF733F
:105100000090E3218020019A11F0A8FB9DF819007E
:105110000A2190FBF1F201FB1200C0B201900020C5
:105120004FF6FF730090E3219020019A11F096FB57
:105130009DF81A000A2190FBF1F0C0B20190002006
:1051400004E000008A140020F81000204FF6FF73DE
:105150000090E3214FF48070019A11F07FFB9DF8DD
:105160001A000A2190FBF1F201FB1200C0B201907B
:1051700000204FF6FF730090E3214FF48870019AEE
:1051800011F06CFB9DF81B000A2190FBF1F0C0B2FE
:10519000019000204FF6FF730090E3214FF4A070C0
:1051A000019A11F05BFB9DF81B000A2190FBF1F2C4
:1051B00001FB1200C0B2019000204FF6FF73009077
:1051C000E3214FF4A870019A11F048FBFE480078E3
:1051D0000C3800EB4000FD4901EB001090F82F0067
:1051E00030B14622E3214FF4D07011F073FB05E09B
:1051F0004722E3214FF4D07011F06CFB00E000BFB8
:1052000014E00020F2490870F2490870F249087071
:10521000F2490870F2490870F2490870F2490870C2
:10522000F2490870F2490870F2490870F2480078B3
:10523000D0B9F2480078B8B9F1480078A0B9F1487F
:10524000007888B9F048007870B9F048007858B90B
:10525000EF48007840B9EF48007828B9EE48007868
:1052600010B9EE480078C0B1D74800780C3800EB90
:105270004000D64901EB0010407870B95C22232130
:10528000A02011F027FB5A222321C02011F022FB7D
:105290005B222321E02011F01DFBD7480078D8B90C
:1052A000D6480078C0B9D6480078A8B9D548007863
:1052B00090B9D548007878B9D448007860B9D44816
:1052C000007848B9D348007830B9D348007818B985
:1052D000D248007800287DD0BB4800780C3800EB1D
:1052E0004000BA4901EB00104078012872D1B6485D
:1052F00000780C3800EB400001EB00104079109072
:10530000B14800780C3800EB4001B04800EB0110C8
:1053100080790F90AC4800780C3800EB4000AB4926
:1053200001EB001000890E90A74800780C3800EBC4
:105330004001A64800EB011040890D90272223214F
:10534000A02011F0C7FA0A222321C02011F0C2FACE
:1053500026222321E02011F0BDFA29224321062034
:1053600011F0B8FA2A224321262011F0B3FA27229D
:105370004321462011F0AEFA2C224321662011F081
:10538000A9FA29226721062011F0A4FA2B2267210D
:10539000262011F09FFA27226721462011F09AFA61
:1053A0002C226721662011F095FA32228B210620EB
:1053B00011F090FA33228B21262011F08BFA34223F
:1053C0008B21462011F086FA35228B21662011F0C0
:1053D00081FA00E068E336228B21862011F07AFA08
:1053E0002C228B21A62011F075FA3722AF2106203E
:1053F00011F070FA3822AF21262011F06BFA392211
:10540000AF21462011F066FA3A22AF21662011F052
:1054100061FA2C22AF21862011F05CFA6922D32197
:10542000062011F057FA6A22D321262011F052FAF1
:105430002922D321462011F04DFA2A22D3216620B9
:1054400011F048FA5822D321862011F043FA2C2279
:10545000D321A62011F03EFA6922F721062011F08F
:1054600039FA6A22F721262011F034FA2922F7218D
:10547000462011F02FFA2B22F721662011F02AFA8C
:105480005822F721862011F025FA2C22F721A62098
:1054900011F020FA6248007801281FD00A211098E4
:1054A00090FBF1F0C0B20C9000204FF6FF7300901B
:1054B000432186200C9A11F0D1F90A21109890FB13
:1054C000F1F201FB1200C0B20C9000204FF6FF7306
:1054D0000090432196200C9A11F0C0F950480078B2
:1054E00002281FD00A210F9890FBF1F0C0B20C9057
:1054F00000204FF6FF730090672186200C9A11F070
:10550000ADF90A210F9890FBF1F201FB1200C0B235
:105510000C9000204FF6FF730090672196200C9AA4
:1055200011F09CF93E48007803287BD0264800788B
:105530000C3800EB4001254800EB0110007BA8B9B6
:1055400027228B21C72011F0C5F942228B21E720A9
:1055500011F0C0F93F228B2140F2071011F0BAF987
:1055600026228B2140F2271011F0B4F9164800785A
:105570000C3800EB4001154800EB0110007B0128BE
:1055800015D127228B21C72011F0A4F942228B21AB
:10559000E72011F09FF940228B2140F2071011F013
:1055A00099F926228B2140F2271011F093F9064831
:1055B00000780C3800EB4001044800EB0110007B40
:1055C000022845D127222EE08A140020F81000205E
:1055D0003113002032130020331300203413002035
:1055E0003513002036130020371300203813002015
:1055F000391300203A1300203B1300203C130020F5
:105600003D1300203E1300203F13002040130020D4
:1056100041130020421300204313002044130020B4
:105620004513002035E08B21C72011F053F94222A9
:105630008B21E72011F04EF941228B2140F2071017
:1056400011F048F926228B2140F2271011F042F97F
:10565000FE4800780C3800EB4001FD4800EB0110DB
:10566000007B032815D143228B21C72011F032F98A
:1056700044228B21E72011F02DF927228B2140F2C3
:10568000071011F027F942228B2140F2271011F068
:1056900021F9F048007804281ED0EC4800780C3836
:1056A00000EB4000EA4901EB0010407B50B13D2285
:1056B000AF21A72011F00EF93E22AF21C72011F033
:1056C00009F909E03B22AF21A72011F003F93C22A0
:1056D000AF21C72011F0FEF8DE480078052832D04F
:1056E00064210E9890FBF1F0C0B20C9000204FF6B0
:1056F000FF730090D321C8200C9A11F0AFF80A2153
:105700000E9890FBF1F090FBF1F201FB1200C0B299
:105710000C9000204FF6FF730090D321D8200C9AF4
:1057200011F09CF80A210E9890FBF1F201FB120097
:10573000C0B20C9000204FF6FF730090D321E820F8
:105740000C9A11F08BF8C3480078062832D06421F7
:105750000D9890FBF1F0C0B20C9000204FF6FF7353
:105760000090F721C8200C9A11F078F80A210D98C2
:1057700090FBF1F090FBF1F201FB1200C0B20C9033
:1057800000204FF6FF730090F721D8200C9A11F0FB
:1057900065F80A210D9890FBF1F201FB1200C0B2EE
:1057A0000C9000204FF6FF730090F721E8200C9A30
:1057B00011F054F8A748007807287DD2DFE800F000
:1057C0007C042546DCF4F3000A21109890FBF1F0EC
:1057D000C0B20C904FF6FF7000230090432186204A
:1057E0000C9A11F03BF80A21109890FBF1F201FBA2
:1057F0001200C0B20C904FF6FF70002300904321BE
:1058000096200C9A11F02AF84CE10A210F9890FB8F
:10581000F1F0C0B20C904FF6FF70002300906721AA
:1058200086200C9A11F01AF80A210F9890FBF1F2D9
:1058300001FB1200C0B20C904FF6FF7000230090E5
:10584000672196200C9A11F009F82BE17F48007827
:105850000C3800EB40007E4901EB0010007BC8B91A
:10586000012327228B21C72011F06EF80123422249
:105870008B21E72011F068F801233F228B2140F2B1
:10588000071011F061F8012326228B2140F2271026
:1058900011F05AF86D4800780C3800EB40006C4964
:1058A00001EB0010007B01281BD1012327228B2153
:1058B000C72011F049F800E0F3E0012342228B21D8
:1058C000E72011F041F8012340228B2140F207101C
:1058D00011F03AF8012326228B2140F2271011F013
:1058E00033F85A4800780C3800EB4001584800EB78
:1058F0000110007B022819D1012327228B21C72008
:1059000011F022F8012342228B21E72011F01CF82C
:10591000012341228B2140F2071011F015F80123D9
:1059200026228B2140F2271011F00EF8474800780C
:105930000C3800EB4000464901EB0010007B0328C7
:1059400019D1012343228B21C72010F0FDFF012331
:1059500044228B21E72010F0F7FF012327228B211F
:1059600040F2071010F0F0FF012342228B2140F299
:10597000271010F0E9FF95E0344800780C3800EB70
:105980004001334800EB0110407B70B101233D2200
:10599000AF21A72010F0D8FF01233E22AF21C7205E
:1059A00010F0D2FF0DE041E00CE001233B22AF21DB
:1059B000A72010F0C9FF01233C22AF21C72010F01F
:1059C000C3FF6FE064210E9890FBF1F0C0B20C9021
:1059D0004FF6FF7000230090D321C8200C9A10F0DE
:1059E0003DFF0A210E9890FBF1F090FBF1F201FBD4
:1059F0001200C0B20C904FF6FF7000230090D3212C
:105A0000D8200C9A10F02AFF0A210E9890FBF1F290
:105A100001FB1200C0B20C904FF6FF700023009003
:105A2000D321E8200C9A10F019FF3BE064210D9877
:105A300090FBF1F0C0B20C904FF6FF700023009085
:105A4000F721C8200C9A10F009FF05E08A14002005
:105A5000F8100020451300200A210D9890FBF1F06A
:105A600090FBF1F201FB1200C0B20C904FF6FF70F8
:105A700000230090F721D8200C9A10F0EFFE0A21A5
:105A80000D9890FBF1F201FB1200C0B20C904FF6A2
:105A9000FF7000230090F721E8200C9A10F0DEFE42
:105AA00000E000BF00BF00BFFE480078D0B9FE484C
:105AB0000078B8B9FD480078A0B9FD48007888B9E9
:105AC000FC48007870B9FC48007858B9FB48007869
:105AD00040B9FB48007828B9FA48007810B9FA486C
