:020000040800F2
:10000000084700200101000871D30008C99F0008BB
:100010006DD30008BD890008CB0601080000000070
:10002000000000000000000000000000F5E20008F1
:10003000919000080000000005D4000809E40008C1
:100040001B0100081B0100081B010008FDD7000868
:100050001B0100081B0100081B0100081B01000810
:100060001B0100081B0100081B0100081B01000800
:100070001B0100081B010008C18900081B010008C2
:100080001B0100081B0100081B0100081B010008E0
:100090001B0100081B0100081B0100081B010008D0
:1000A0001B010008CDE400081B0100081B0100082B
:1000B0006DE9000899EF0008D9F600081B01000857
:1000C0001B0100081B0100081B0100081B010008A0
:1000D0001B010008390301081B010008BD030108CA
:1000E0001B0100081B0100081B010008DFF80CD0F1
:1000F00000F0B8FE004800478D26010808470020A0
:100100000648804706480047FEE7FEE7FEE7FEE7B1
:10011000FEE7FEE7FEE7FEE7FEE7FEE70DE4000888
:10012000ED00000830B50B460146002020220124D6
:1001300009E021FA02F59D4205D303FA02F5491BB5
:1001400004FA02F52844151EA2F10102F1DC30BDCB
:100150002DE9F05F0546002092469B4688460646FC
:10016000814640241BE0284641464746224600F08F
:10017000BAFC53465A46C01A914110D3114618464C
:10018000224600F0A1FC2D1A67EB01084F462246DB
:100190000120002100F098FC17EB00094E41201EC1
:1001A000A4F10104DFDC484631462A464346BDE857
:1001B000F09F10B5431A934209D28318881803E0C0
:1001C00010F8011D03F8011D521EF9D210BD40EABE
:1001D00001039B0703D009E008C9121F08C0042AC5
:1001E000FAD203E011F8013B00F8013B521EF9D2AC
:1001F00010BDD2B201E000F8012B491EFBD27047BE
:100200000022F6E710B513460A4604461946FFF7E2
:10021000F0FF204610BD421E12F8013F002BFBD11B
:1002200011F8013B02F8013B002BF9D1704730B5C2
:1002300005462A460B4612F8010B13F8014B08B18C
:10024000A042F8D01CB1002802D06D1CF1E728466E
:1002500030BD10B5044604E00B7800F8013B03B153
:10026000491C521EF8D2204610BD421C10F8011B3A
:100270000029FBD1801A704710B5002200E0521C03
:10028000835C8C5CA34201D1002BF8D1D8B2E1B2DF
:10029000401A10BDCBB203E00178994203D0401C54
:1002A000521EF9D20020704730B5044600200346A4
:1002B00000E05B1C934203D2E05CCD5C401BF8D0B5
:1002C00030BD034611F8012B00F8012B002AF9D1AB
:1002D000184670470FB400B58DB010A909900B9067
:1002E00000914FF0FF300A9000200C9005480690D6
:1002F000054807906A4609A80F9900F02BFC0DB03D
:100300005DF814FB710B00088F0B00082DE9FF5FEF
:100310001D464FF0FF3BD5E9014691465F464FF041
:100320000008A9697F1C01988847296A8246884786
:100330000028F6D1BAF1FF3F0CD024F4C064002E9F
:1003400019DD600614D5BAF12B0F09D0BAF12D0FC3
:100350000ED103E0584604B0BDE8F09F44F4806439
:10036000A9697F1C01988847761E8246002E02DD0F
:10037000BAF1300F03D0B9F1000F26D032E0A969ED
:10038000761E44F400747F1C019888478246002E34
:1003900005DDBAF1780F06D0BAF1580F03D0B9F1E4
:1003A000000F10D01EE0B9F1000F02D0B9F1100F0C
:1003B00018D1A969761E24F400747F1C019888471F
:1003C0008246102002E0082000E00A20814609E071
:1003D00008FB0908A969761E44F400747F1C019883
:1003E00088478246002E05DD4946504600F09DFBB9
:1003F0000028EDDAE96901988847A00502D46FF07A
:100400000100A8E7E00725D1600613D5600502D5F5
:10041000C8F1000000E0404629680A1D2A6009680A
:10042000220501D5087015E0220701D5088011E0EA
:1004300008600FE02868011D29600068210502D5C9
:1004400080F8008006E0210702D5A0F8008001E0D6
:10045000C0F8008038467EE700F0F8BBF0B480EAD0
:100460000102D40F4200B2EB410F02D2024608460D
:1004700011464A0042D0C30DDDB2C1F3C752AD1AD6
:10048000202D35DAC1F3160141F4000204B15242C5
:10049000C5F1200602FA06F12A411044B3EBD05F01
:1004A00023D0C4B1012DA0EBC35009DCF0BC4FF048
:1004B000004202EAC352DBB200F5000000F017BCB4
:1004C000400000F1807000EBC350A0F1807040EA62
:1004D000D170490009E0490841EAC071A0EBC3505E
:1004E00000F50000400800EBC350F0BC00F0F6BB84
:1004F0006142012202EB4101001BF6E7F0BC7047AC
:1005000081F00041AAE780F00040A7E780EA0102FD
:1005100010B502F00043400022D04A001FD0010E67
:1005200001EB1261C0F35600C2F3560240F4000022
:1005300042F40002A0FB022000047F39140400D022
:10054000401C50EA124001D44000491EC2B20C06C1
:1005500004EBD010401C4008802A02D003E00020A9
:1005600010BD20F00100002900DA0020184310BD62
:1005700030B480EA010202F0004530F0004221F080
:10058000004013D090B1C30DD40DC2F31601C0F3D7
:100590001600E41A41F4000140F400027D34914257
:1005A00001D3641C00E04900002C02DA30BC0020BA
:1005B00070474FF400000023914201D3891A03438E
:1005C00040084FEA4101F7D151B1914202D14FF0B9
:1005D000004105E002D24FF0010101E06FF001019E
:1005E00003EBC450284430BC00F078BB2DE9FE4F2B
:1005F000804681EA0300C00F0C46009021F00041C4
:1006000023F00045B8EB0200A94105D2404621463F
:1006100090461C460B46024623F00040104347D04C
:10062000270DC7F30A00C3F30A510290401A019044
:1006300040286BDAC3F3130040F4801B0098924605
:1006400020B10023D2EB030A63EB0B0B0198594650
:10065000C0F14002504600F037FA06460D465046BB
:100660005946019A00F04FFA10EB0800614100244E
:1006700087EA115284EAE7731A4340D0009A62B3C2
:10068000019A012A4FEA075215DC001B61EB0201B7
:100690004FF0004202EA0752CDE90042001C41F54A
:1006A000801132462B4600F05FFB03B0BDE8F08FAF
:1006B00040462146F9E7001B61EB0201001C41F5B1
:1006C000801300185B412018A2F5001747EB0301C7
:1006D00040EAD570B6196D4111E06D084FEA360653
:1006E00045EAC0754FEA0752001B61EB0201001C8E
:1006F00041F5801149084FEA300000195141324656
:100700002B4603B0BDE8F04F00F01FBB009801225C
:1007100040000023D0EB020263EBE0730098214617
:100720004FEAE074B8EB000061EB0401E9E783F005
:1007300000435BE781F0004158E72DE9FE4F81EA75
:10074000030404F0004421F0004100944FF0000B3A
:1007500023F0004350EA01045ED052EA03045BD068
:10076000C3F30A54C1F30A552C44A4F2F3340194A0
:10077000A0FB0254C1F3130141F48011C3F313032E
:1007800043F4801301FB024400FB034E840A970AE2
:1007900044EA815447EA8357A4FB076802958D0A0F
:1007A00005FB07854FEA932C04FB0C542705029D9B
:1007B0004FEA065847EA1637B5EB08056EEB070C0B
:1007C000870E920E47EA811742EA8312A7FB0201C5
:1007D000B6EB0B0164EB00042B0D43EA0C335E18FF
:1007E00044EB1C50DA465146E7FB0201C5F3130403
:1007F0004FEA0B3343EA14534FEA0432019C43EAB5
:100800000603A4F10C040294009CCDE900B400F0AE
:10081000ABFA03B0BDE8F08F00200146F9E72DE9FF
:10082000F04D81EA030404F0004B21F0004514462A
:100830004FF0000A23F0004150EA050220D054EAAC
:1008400001021DD0C5F30A570246C5F31303C1F3D5
:100850001300C1F30A5640F4801543F48013A7EB4C
:100860000608101BD64608F2FD3873EB050002D3CC
:1008700008F1010801E092185B41B8F1000F03DABA
:1008800000200146BDE8F08D00204FF4801106469F
:1008900084460EE0171B73EB050705D3121B63EBB1
:1008A000050306434CEA010C49084FEA3000921850
:1008B0005B4150EA0107EDD152EA030012D082EA0F
:1008C000040083EA0501084305D0101BAB4106D2A2
:1008D0000122002306E000224FF0004302E06FF007
:1008E000010253101AEB06004CEB085110EB0A0002
:1008F00041EB0B01BDE8F04D00F027BAC10F80EAD3
:10090000E0700844CA079623002100F0F0B996234E
:100910000022114600F0EBB90EB5C10F80EAE0707D
:100920000844CA07002140F233438DE80E000A460E
:100930000B4600F019FA03B000BD0EB540F233418A
:1009400002910021CDE900110A460B4600F00CFA95
:1009500003B000BD00F0004220F00040C10DC0F324
:10096000160040F400007F2901DA00207047962924
:1009700003DCC1F19601C84001E096398840002AA5
:10098000F4D04042704720F00040C10DC0F3160083
:1009900040F400007F2901DA00207047962903DC2B
:1009A000C1F19601C8407047963988407047C1F33D
:1009B0000A5210B5C1F3130140F2FF3341F4801124
:1009C0009A4201DA002010BD40F233439A42A2F26B
:1009D000334203DC524200F086F810BD904010BD57
:1009E00000F0004230F000400AD0C10D01F5607106
:1009F000C0F3160042EA0151C20840071143704794
:100A0000002001467047000030B5041E71F100045B
:100A100004DB4FF00044404264EB0101141E73F10B
:100A2000000405DB1C464FF00043524263EB040315
:100A30008B4208BF824230BD30B5041E71F1000404
:100A400004DB4FF00044404264EB0101141E73F1DB
:100A5000000405DB1C464FF00043524263EB0403E5
:100A6000994208BF904230BD01F0004330B421F0FC
:100A7000004150EA010206D00A0DA2F56072C1F3EE
:100A80001301002A02DC30BC00207047440F44EA06
:100A9000C104C100E01830BC00EBC25000F01EB928
:100AA000002801DBC0F10040002901DBC1F1004159
:100AB00081427047002801DBC0F10040002901DBC2
:100AC000C1F1004188427047202A04DB203A00FA35
:100AD00002F1002070479140C2F1200320FA03F395
:100AE000194390407047202A04DB203A21FA02F093
:100AF0000021704721FA02F3D040C2F12002914058
:100B0000084319467047202A06DBCB17203A41FAE2
:100B100002F043EAE07306E041FA02F3D040C2F18A
:100B2000200291400843194670473A2800D23038D5
:100B300020F02002412A01D3A2F13700884201D3DC
:100B40004FF0FF30704700000268114413780160D5
:100B500018467047D160044951610449116200216F
:100B60001161114600F09EB9490B0008910E000872
:100B7000426842B1016811F8013B23B1521EC0E93D
:100B80000012184670470121C160881E70474268F4
:100B90005AB1C368016843B983688B4205D0491EC6
:100BA000521CC0E90012002070474FF0FF30704720
:100BB0000FB4002300B589B00CA900910B996FF018
:100BC0000042CB601E4B06931E4B07930423CDE9D6
:100BD00001321D4A089202466B46002000F08CFB51
:100BE00009B05DF814FB70B586B006464FF0FF30D3
:100BF0000091CDE90101002015460C4604903246D3
:100C0000694604A8FFF7D4FF02460498211825B1CD
:100C100008B1084600E020462860049800280DD05E
:100C2000002A02DD0098884208D0081B0094CDE914
:100C300001043246694604A8FFF7BAFF06B070BD4A
:100C4000710B00088F0B0008910E00082DE9F0478A
:100C500091460E4680460446002514F8017B2FB1CC
:100C600000F012F90068C05DC007F6D12B2F02D04A
:100C70002D2F1ED0641E4A463146204600F058FCF7
:100C800026B13268A24201D1C6F800806A054FF051
:100C9000020418D50023D0EB030563EB01025D1BB2
:100CA000934109DB0023D0EB030063EB0101BDE8B6
:100CB000F08745F48065DEE70FF092FD04600020C8
:100CC0004FF00041F3E7021E71F10002EFDA0FF07E
:100CD00087FD04604FF0FF304108E8E70029A8BF16
:100CE0007047401C490008BF20F00100704710B455
:100CF000B0FA80FC00FA0CF050EA010404BF10BC0A
:100D0000704749B1CCF1200421FA04F411FA0CF136
:100D100018BF012121430843A3EB0C01CB1D4FEA6F
:100D200000614FEA102042BF002010BC704700EB6A
:100D3000C35010440029A4BF10BC7047401C490098
:100D400008BF20F0010010BC704710B5141E73F1ED
:100D5000000408DA401C41F1000192185B411A437B
:100D600001D120F0010010BD2DE9F04D92469B46C7
:100D700011B1B1FA81F202E0B0FA80F2203290466D
:100D8000FFF7A2FE04460F4640EA0A0041EA0B01C3
:100D900053465A46084313D0114653EA010019D06E
:100DA000C8F140025046FFF79EFE05460E465046EB
:100DB00059464246FFF788FE084305D0012004E06B
:100DC00020463946BDE8F08D0020054346EAE0762E
:100DD0002C4337430A986305E40AA0EB080000227D
:100DE000FD0A44EA47540A3002D500200146E9E7EB
:100DF000010510196941DDE9084500196941BDE89F
:100E0000F04DA2E770B521F0004303430CD0C1F3CD
:100E10000A550024D5EB040564EB0403D617AD1A7C
:100E2000B34102DB0020014670BD201841EB0251A6
:100E300070BDC1F30A52C1F3130140F2FF3341F414
:100E400080119A4202DA00200146704740F2334393
:100E50009A42A2F2334202DC5242FFF744BEFFF74D
:100E600033BE0000064C074D06E0E06840F0010389
:100E700094E8070098471034AC42F6D3FFF73AF9EC
:100E80009CCD0108BCCD0108004870472CCD01085D
:100E900010B50446FFF7F8FF0068005D00F00100A0
:100EA00010BD00002DE9F34F8BB04FF0000801F1A9
:100EB0000C000C464FF0010B46460DF1080A01905C
:100EC0006269012101989047051E2DD0252D2CD057
:100ED000216A8847C0B16269012101989047216A5F
:100EE00088470028F7D1411E62690198904700E0C9
:100EF000761CA1690B988847216A88470028F7D19A
:100F0000E1690B988847DBE7A1690B98884707469A
:100F1000A84201D1761CD3E7E1690B9888477F1C72
:100F200002D1B8F1000F6FD046E1002762693D465B
:100F30003946019890472A2804D162690121019815
:100F400090470125DFF8849262690121019890475A
:100F5000A0F130010A290AD24F45E5DC07EB8701F1
:100F600000EB4107303FDFD445F01005ECE7E90620
:100F700001D46FF000476C280AD04C2814D06828A0
:100F800015D06A280DD074281CD07A281AD01DE0FC
:100F900062690121019890476C2802D045F0040550
:100FA00014E045F002050DE045F020050AE0626915
:100FB000012101989047682802D045F0080505E016
:100FC00045F400656269012101989047C4E9015721
:100FD00065283DD019DC58287AD00CDC452837D05C
:100FE00004DC252826D0412831D131E046282FD0F5
:100FF00047282CD12CE05B2877D0612828D06328A3
:101000007CD0642823D15AE0D0E06F2848D008DC97
:1010100066281DD067281BD0692821D06E2816D1DC
:1010200027E0702845D0732868D0752847D07828E5
:101030000DD14DE0A1690B988847054625283FF45E
:1010400069AFE1690B9888476D1C3FF46AAFB3E064
:1010500023466A466FF001000B9900F04DF99EE0BF
:1010600045F040006060A80723464FF0000236D4E8
:101070003EE0E8077FF447AF2068011D216000686B
:10108000290501D506701BE7290701D5068017E75A
:10109000A90703D5F117C0E9006111E706600FE762
:1010A00045F040006060A80723464FF0080216D4C0
:1010B0001EE040F60E0125EA0100606016E045F0F2
:1010C00040006060A80723464FF00A0207D40FE0F3
:1010D00045F040006060A80708D5234610226FF055
:1010E00001000B99AFF3008059E007E0234610227E
:1010F0006FF001000B99FFF709F950E04FF000097C
:101100004F464B46632802D05B2806D040E0E806F5
:1011100001D40120A06001273AE062690121019811
:1011200090475E2805D14FF0010962694946019850
:101130009047216939B900210A46534643F82120D6
:10114000491C0829FADBB0B3216969B9C11700EB62
:10115000D16253110AEB830122F01F02821A01208F
:101160000B68904003430B6062690121019890472E
:101170005D28E8D1B9F1000F09D00020514651F89F
:101180002020D24341F82020401C0828F7DB02AB86
:10119000224600976FF001000B99AFF30080002802
:1011A0000CDA401C08D1BBF1000F05D04FF0FF3026
:1011B0000DB0BDE8F08FFFE74046F9E7E90701D140
:1011C00008F1010806444FF0000B79E6CCCCCC0CBA
:1011D0002DE9FF4F087883B09946FF2805D0491CB8
:1011E0002D2804D00024002008E000200BE001247A
:1011F000F9E700EB800003EB4000491C0B78FF2B64
:10120000F7D104B1404200230293147819461D46D9
:101210002D2C01D02B2C04D1521C2D2C13D00024AA
:101220000294AA461478FF2C0FD00A25A3FB057858
:1012300001FB05814FF0000C03FB0C11521CE3195C
:101240004AEB0101EEE70124EAE7814453EA010099
:1012500002D019F5C87F06DA03980021C0E9001111
:1012600007B0BDE8F08F0025AE4E2F46DFF8B882FC
:10127000184600F0BEF9CDE90001B9F1000002DA2C
:10128000C9F1000400E004460023A74A1AEB030B4F
:1012900042EB045A12E0E00707D02A4633463846AC
:1012A0004146FFF74AFA074688462A463346104623
:1012B0001946FFF742FA05460E466410002CEAD1A3
:1012C000DDE90001B9F1000F5A46534606DAFFF78F
:1012D000A6FA3A464346FFF7A2FA05E0FFF72DFAD1
:1012E0003A464346FFF729FA029A0AB181F00041D3
:1012F000039AC2E90001B3E72DE9FF4F1F468DB005
:10130000D7E901464FF0FF382E2045464FF000093F
:101310000B90B9696D1C0E988847396A82468847D8
:101320000028F6D1BAF1FF3F0AD024F4D064002E91
:1013300011DDBAF12B0F08D0BAF12D0F0BD102E05D
:10134000404611B08DE744F48064B9696D1C0E9875
:1013500088478246761E6946600501D52D2000E04B
:101360002B208DF8000001F1010B0DF1200809E0A0
:10137000B9696D1C0E98884782460F9844F4007432
:10138000761E0560002E02DDBAF1300FF0D00B9909
:101390008A453ED144F0800406E00F99681CA9F10B
:1013A000010944F400740860B9696D1C761E0E983A
:1013B000884782463028F0D02BE00B998A4505D12A
:1013C000200603D444F08004761E18E050460FF047
:1013D00049FB08B30DF11301761E44F400748B45EC
:1013E00008D2AAF130000BF8010B200607D5A9F1AD
:1013F000010003E0200602D409F101008146A005A6
:1014000002D50F99681C0860B9696D1C0E98884751
:101410008246002ED1DC53E0002E51DDBAF1650F7B
:1014200002D0BAF1450F4BD1A00549D5B9696D1C61
:1014300024F44074761E0E9888478246002E0CDDF8
:101440002B2804D0BAF12D0F07D144F48074B96968
:101450006D1C0E9888478246761EE00501D52D2129
:1014600000E02B2108F8011BCDF82C8021E00DF1C4
:101470002901761E44F4007488450CD2AAF130008C
:1014800010F0FF0088F8000002D10B99884509D9B7
:1014900008F1010806E0E00501D5244801E042F228
:1014A0000F708146B9696D1C0E98884782460F9867
:1014B0000560002E04DD50460FF0D4FA0028D6D186
:1014C000F9690E988847FF208BF8000088F8000023
:1014D0000020069007904B466A4608A906A8FFF729
:1014E00077FEA00502D46FF001002AE714F0240F64
:1014F0000AD0E00714D1DDE906123868031D3B600D
:101500000068C0E900120BE0DDE90601FFF7ACFA64
:101510000146E00704D13868021D3A6000680160A6
:1015200028460EE7000014400000F03FF1D8FFFF0E
:101530002DE9F74F4FF00009009C1546CA4614F8F4
:10154000010B302801D0ADB115E014F8010B4FF0BC
:101550000109782803D0582801D04DB10BE00DB116
:10156000102D08D14FF00009102514F8010B02E0EE
:10157000082500E00A2500273E46B8464FEAE57BED
:1015800016E0A5FB07230BFB073105FB080005FB55
:101590000616030CD71846F100061FFA80F8381E0D
:1015A0004FF0010976F5803000D3CA4614F8010BDC
:1015B0002946FFF7BAFA0028E3DA019838B1B9F101
:1015C000000F01D0641E00E0009C01980460BAF195
:1015D000000F08D00FF004F902210160C81E014677
:1015E00003B0BDE8F08F310441EA174148EA0740F3
:1015F000F6E70EB540F2334202920022CDE9002216
:101600001346FFF7B1FB03B000BD70B58D1810F89D
:10161000014B14F0030201D110F8012B231106D164
:1016200010F8013B03E010F8016B01F8016B521E4A
:10163000F9D1ABB110F8012B04F00C048A1A0C2C70
:1016400003D0A2EB84129B1C08E010F8014BA2EB24
:101650000422F8E712F8014B01F8014B5B1EF9D5A3
:10166000A942D4D3002070BD21B1826842F00102AA
:10167000826003E0826822F001028260704700000D
:1016800000B587B0012148020BF0FAFE01210420C9
:101690000BF0F6FE1C20ADF8040000208DF80700CA
:1016A00001A9184807F018FD002002908DF80C00E1
:1016B0008DF80D004FF4602004900020059001206B
:1016C0008DF8180002A9104800F042F801210E48D8
:1016D000FFF7CAFF4FF440400BF096FE0A4800F0B7
:1016E000BBF800BF084800F028F80028FAD10648E7
:1016F00000F0C2F800BF044800F008F80028FAD152
:1017000007B000BD00080140002401400146002050
:101710008A6802F004020AB1012000E0002070474C
:101720000146C86C80B270470246002013680B4027
:101730000BB1012000E000207047014600208A68BC
:1017400002F008020AB1012000E00020704700000A
:1017500030B502460020002350680F4C20400D7920
:101760000C6844EA05242043506090680B4C2040EC
:10177000D1E902542C434D7944EA4504204390605A
:10178000D06A20F470000C7C641EE4B2234340EA6B
:101790000350D06230BD0000FFFEF0FFFDF7F1FF07
:1017A000F0B504460D4600200021092D11DDE0684A
:1017B000A5F10A0606EB4607072606FA07F1884355
:1017C000A5F10A0606EB460603FA06F10843E060B7
:1017D0000CE0206905EB4507072606FA07F1884368
:1017E00005EB450603FA06F108432061072A0FDAE4
:1017F000606B561E06EB86071F2606FA07F1884324
:10180000561E06EB860605FA06F10843606322E0E1
:101810000D2A0FDA206BD61F06EB86071F2606FA65
:1018200007F18843D61F06EB860605FA06F1084342
:10183000206310E0E06AA2F10D0606EB86071F2682
:1018400006FA07F18843A2F10D0606EB860605FAB3
:1018500006F10843E062F0BD816841F00801816053
:10186000704721B1826842F4A002826003E082687E
:1018700022F4A00282607047816841F00401816017
:10188000704738B504460D460C2C13D0062224218F
:10189000104614F005FD07222421262014F000FD37
:1018A0001A222421462014F0FBFC1B22242166204E
:1018B00014F0F6FC0D2C13D006224821104614F02B
:1018C000EFFC07224821262014F0EAFC1C224821C4
:1018D000462014F0E5FC1B224821662014F0E0FCB1
:1018E0000E2C13D006226C21104614F0D9FC0722CE
:1018F0006C21262014F0D4FC1D226C21462014F00B
:10190000CFFC1B226C21662014F0CAFC0F2C13D0D4
:1019100006229021104614F0C3FC072290212620B5
:1019200014F0BEFC1E229021462014F0B9FC1B22AC
:101930009021662014F0B4FC102C13D00622B421A0
:10194000104614F0ADFC0722B421262014F0A8FCA8
:101950001F22B421462014F0A3FC1B22B4216620D0
:1019600014F09EFC112C17D0062224214FF4AD70E8
:1019700014F096FC072224214FF4BD7014F090FC63
:10198000202224214FF4CD7014F08AFC1B22242144
:101990004FF4DD7014F084FC122C17D0062248217D
:1019A0004FF4AD7014F07CFC072248214FF4BD7059
:1019B00014F076FC212248214FF4CD7014F070FC15
:1019C0001B2248214FF4DD7014F06AFC132C17D051
:1019D00006226C214FF4AD7014F062FC07226C21DA
:1019E0004FF4BD7014F05CFC22226C214FF4CD70DA
:1019F00014F056FC1B226C214FF4DD7014F050FCE7
:101A0000142C17D0062290214FF4AD7014F048FC2E
:101A1000072290214FF4BD7014F042FC2322902144
:101A20004FF4CD7014F03CFC1B2290214FF4DD707C
:101A300014F036FC152C25D00622B4214FF4AD70DD
:101A400014F02EFC0722B4214FF4BD7014F028FCD2
:101A500000204FF6FF730122B42100904FF4CD70A7
:101A600014F0E2FB00204FF6FF730246B421009011
:101A70004FF4D57014F0D8FB1B22B4214FF4DD7065
:101A800014F00EFCA4F10C000A287ED2DFE800F06E
:101A9000051E37506984A1BEDBF9012306222421EB
:101AA000104614F037FC012307222421262014F0CD
:101AB00031FC01231A222421462014F02BFC01239F
:101AC0001B222421662014F025FC05E101230622B7
:101AD0004821104614F01EFC01230722482126202D
:101AE00014F018FC01231C224821462014F012FC9B
:101AF00001231B224821662014F00CFCECE001239A
:101B000006226C21104614F005FC012307226C21EB
:101B1000262014F0FFFB01231D226C21462014F027
:101B2000F9FB01231B226C21662014F0F3FBD3E0A8
:101B3000012306229021104614F0ECFB012307221A
:101B40009021262014F0E6FB01231E22902146203E
:101B500014F0E0FB01231B229021662014F0DAFB35
:101B6000BAE001230622B421104614F0D3FB01236E
:101B70000722B421262014F0CDFB01231F22B4211B
:101B8000462014F0C7FB012300E0A4E01B22B4218F
:101B9000662014F0BFFB9FE00123062224214FF4AE
:101BA000AD7014F0B7FB0123072224214FF4BD7060
:101BB00014F0B0FB0123202224214FF4CD7014F047
:101BC000A9FB01231B2224214FF4DD7014F0A2FB9A
:101BD00082E00123062248214FF4AD7014F09AFBF5
:101BE0000123072248214FF4BD7014F093FB012319
:101BF000212248214FF4CD7014F08CFB01231B22CD
:101C000048214FF4DD7014F085FB65E001230622C6
:101C10006C214FF4AD7014F07DFB012307226C2181
:101C20004FF4BD7014F076FB012322226C214FF497
:101C3000CD7014F06FFB01231B226C214FF4DD707B
:101C400014F068FB48E00123062290214FF4AD70A8
:101C500014F060FB0123072290214FF4BD7014F0B3
:101C600059FB0123232290214FF4CD7014F052FB35
:101C700001231B2290214FF4DD7014F04BFB2BE06D
:101C8000FFE701230622B4214FF4AD7014F042FBAC
:101C900001230722B4214FF4BD7014F03BFB4FF633
:101CA000FF7000230122B42100904FF4CD7014F096
:101CB000BBFA4FF6FF7000231A46B42100904FF490
:101CC000D57014F0B1FA01231B22B4214FF4DD705A
:101CD00014F020FB00E000BF00BF38BD03B5ADF538
:101CE000097D4FF4F072FE4911A8FEF762FAFD4833
:101CF00000780C2801F0B487FA4800780D28F9D054
:101D0000F84800780E28F5D0F64800780F28F1D072
:101D1000F44800781028EDD0F24800781128E9D076
:101D2000F04800781228E5D0EE4800781328E1D07A
:101D3000EC4800781428DDD0EA4800781528D9D07E
:101D40008A9802287ED0042803D0052841F086878F
:101D5000E5E3E548007878BBE448007860BBE448F8
:101D6000007848BBE348007830BBE348007818BBF4
:101D7000E248007800BBE2480078E8B9E148007822
:101D8000D0B9E1480078B8B9E0480078A0B9E04897
:101D900000780C3800EB4000D14901EB001040788E
:101DA000401CC1B2DA4800780C3800EB4000CC4A45
:101DB00002EB0010417014E3FFE7D54800780C38BF
:101DC00000EB4000C64901EB0010407801287DD1AE
:101DD000D0480078012812D1CD4800780C3800EBAB
:101DE000400001EB00104079401CC1B2C8480078A7
:101DF0000C3800EB4000BA4A02EB00104171C548B4
:101E00000078022829D1C24800780C3800EB400045
:101E1000B34901EB00108079401CBD4909780C39A9
:101E200001EB4101AE4A02EB01114979884214DA13
:101E3000B74800780C3800EB4000114601EB001069
:101E4000807900E0FEE3401CC1B2B14800780C3854
:101E500000EB400002EB00108171AE4800780328CF
:101E600013D1AB4800780C3800EB40009C4901EBE3
:101E70000010007B401CC1B2A54800780C3800EB74
:101E80004000974A02EB00100173A2480078042832
:101E900015D19F4800780C3800EB4000904901EBC9
:101EA0000010407B08B9012100E00021984800782B
:101EB0000C3800EB40008A4A02EB00104173944852
:101EC00000780C3800EB4000854900E07CE001EB35
:101ED0000010007B042809D100218D4800780C38BF
:101EE00000EB40007E4A02EB001001738948007845
:101EF000052813D1864800780C3800EB400078495B
:101F000001EB00100089401C81B2814800780C3838
:101F100000EB4000724A02EB001001817D4800781E
:101F2000062827D17A4800780C3800EB40006C492D
:101F300001EB00104089401C754909780C3901EB10
:101F40004101674A02EB01110989884212DA70489F
:101F500000780C3800EB4000114601EB001040897E
:101F6000401C81B26A4800780C3800EB400002EB5C
:101F700000104181664800780C3800EB4000584959
:101F800001EB00100089322809DB3221604800781B
:101F90000C3800EB4000524A02EB001001815C4813
:101FA00000780C3800EB40004D4901EB00104079FF
:101FB0005A2809DD5A21564800780C3800EB4000B9
:101FC000474A02EB00104171514800780C3800EB91
:101FD0004000434901EB0010407802285CD14E4894
:101FE0000078012812D14A4800780C3800EB4000F4
:101FF00001EB0010408A401C81B2454800780C3843
:1020000000EB4000364A02EB001041824248007863
:10201000022813D13E4800780C3800EB40003049CC
:1020200001EB0010008A401C81B2394800780C385E
:1020300000EB40002A4A02EB00100182344800788D
:102040000C3800EB4000264901EB0010408A42F2B8
:102050001071884209D100212D4800780C3800EB1E
:1020600040001F4A02EB00104182294800780C38DA
:1020700000EB40001A4901EB0010008A42F2107197
:10208000884209D10021224800780C3800EB40003A
:10209000134A02EB001001821D4800780C3800EB57
:1020A00040000F4901EB0010407803287ED11B4807
:1020B0000078012812D1164800780C3800EB400057
:1020C00001EB00104079401CC1B2114800780C3877
:1020D00000EB4000024A02EB001041710F481FE084
:1020E000E0100020111300202313002024130020EF
:1020F000251300202613002027130020281300207A
:10210000291300202A1300202B1300202C13002059
:10211000721400202D1300202E1300202F130020F6
:102120000078022827D1FE4800780C3800EB4000E8
:10213000FC4901EB00108079401CF94909780C3901
:1021400001EB4101F74A02EB01114979884212DAA9
:10215000F34800780C3800EB4000114601EB00100A
:102160008079401CC1B2EE4800780C3800EB40008A
:1021700002EB00108171EC480078032813D1E84885
:1021800000780C3800EB4000E64901EB0010007BC2
:10219000401CC1B2E24800780C3800EB4000E14A34
:1021A00002EB00100173E048007800E09FE0042893
:1021B00015D1DB4800780C3800EB4000D94901EB21
:1021C0000010407B08B9012100E00021D4480078CC
:1021D0000C3800EB4000D34A02EB00104173D048AA
:1021E00000780C3800EB4000CE4901EB0010007B7A
:1021F000042809D10021CA4800780C3800EB4000BF
:10220000C84A02EB00100173C7480078052813D1B3
:10221000C34800780C3800EB4000C24901EB0010C5
:10222000408A401C81B2BE4800780C3800EB400068
:10223000BC4A02EB00104182BB480078062813D14B
:10224000B74800780C3800EB4000B64901EB0010AD
:10225000008A401C81B2B24800780C3800EB400084
:10226000B04A02EB00100182AD4800780C3800EB58
:102270004000AC4901EB0010408A42F210718842E4
:1022800009D10021A64800780C3800EB4000A54A8F
:1022900002EB00104182A24800780C3800EB4000AD
:1022A000A04901EB0010008A42F21071884209D166
:1022B00000219B4800780C3800EB4000994A02EB63
:1022C00000100182964800780C3800EB40009549D8
:1022D00001EB001040795A2809DD5A219048007816
:1022E0000C3800EB40008F4A02EB001041718C4823
:1022F00000780C3800EB40008A4901EB0010407870
:1023000004286ED189480078012812D184480078C9
:102310000C3800EB400001EB0010C07D401CC1B246
:102320007F4800780C3800EB40007E4A02EB00103A
:10233000C1757E480078022813D1794800780C389E
:1023400000EB4000774901EB0010007E401CC1B259
:10235000734800780C3800EB4000724A02EB001022
:10236000017672480078032813D16D4800780C3844
:1023700000EB40006B4901EB0010407E401CC1B2F5
:10238000674800780C3800EB4000664A02EB00100A
:10239000417666480078042813D1614800780C38EB
:1023A00000EB40005F4901EB0010807E401CC1B291
:1023B0005B4800780C3800EB40005A4A02EB0010F2
:1023C00081765A480078052816D1554800780C388F
:1023D00000EB4000534901EB0010C07E10B9012111
:1023E00001E0E1E300214E4800780C3800EB4000AA
:1023F0004C4A02EB0010C1764C480078062813D1F5
:10240000474800780C3800EB4000464901EB0010CB
:10241000007F401CC1B2424800780C3800EB4000FD
:10242000404A02EB0010017740480078072813D19A
:102430003B4800780C3800EB40003A4901EB0010B3
:10244000407F401CC1B2364800780C3800EB400099
:10245000344A02EB0010417734480078082813D141
:102460002F4800780C3800EB40002E4901EB00109B
:10247000807F401CC1B22A4800780C3800EB400035
:10248000284A02EB0010817728480078092813D1E8
:10249000234800780C3800EB4000224901EB001083
:1024A000C07F401CC1B21E4800780C3800EB4000D1
:1024B0001C4A02EB0010C1771C4800780A2817D18B
:1024C000174800780C3800EB4000164901EB00106B
:1024D00090F8200008B9012100E0002110480078A0
:1024E0000C3800EB40000F4A02EB001080F820107F
:1024F0000E4800780B281FD1094800780C3800EBF3
:102500004000084901EB001090F82100401CC1B2C6
:10251000034800780C3800EB4000024A08E059E319
:1025200072140020E01000202F1300203013002030
:1025300002EB001080F82110FE4800780C2815D11D
:10254000FD4800780C3800EB4000FC4901EB00101E
:1025500090F82200401CC1B2F74800780C3800EB1C
:102560004000F64A02EB001080F82210F148007893
:102570000D2815D1F04800780C3800EB4000EF49E9
:1025800001EB001090F82300401CC1B2EA4800782B
:102590000C3800EB4000E94A02EB001080F82310F1
:1025A000E44800780E2815D1E34800780C3800EB99
:1025B0004000E24901EB001090F82400401CC1B239
:1025C000DD4800780C3800EB4000DC4A02EB0010DC
:1025D00080F82410D74800780F2817D1D648007803
:1025E0000C3800EB4000D54901EB001090F82500B5
:1025F00008B9012100E00021CF4800780C3800EB39
:102600004000CE4A02EB001080F82510C94800783F
:10261000102815D1C84800780C3800EB4000C74995
:1026200001EB001090F82600401CC1B2C2480078AF
:102630000C3800EB4000C14A02EB001080F8261075
:10264000BC4800E0C7E30078112815D1BA480078EB
:102650000C3800EB4000B94901EB001090F827005E
:10266000401CC1B2B44800780C3800EB4000B34ABB
:1026700002EB001080F82710AE480078122815D120
:10268000AD4800780C3800EB4000AC4901EB00107D
:1026900090F82800401CC1B2A74800780C3800EB25
:1026A0004000A64A02EB001080F82810A1480078EC
:1026B000132815D1A04800780C3800EB40009F4942
:1026C00001EB001090F82900401CC1B29A48007834
:1026D0000C3800EB4000994A02EB001080F82910FA
:1026E00094480078142817D1934800780C3800EBF0
:1026F0004000924901EB001090F82A0008B901212E
:1027000000E000218C4800780C3800EB40008B4A38
:1027100002EB001080F82A1086480078152815D1A1
:10272000854800780C3800EB4000844901EB00102C
:1027300090F82B00401CC1B27F4800780C3800EBA9
:1027400040007E4A02EB001080F82B107948007898
:10275000162815D1784800780C3800EB40007749EE
:1027600001EB001090F82C00401CC1B272480078B8
:102770000C3800EB4000714A02EB001080F82C107E
:102780006C480078172815D16B4800780C3800EB9E
:1027900040006A4901EB001090F82D00401CC1B2C6
:1027A000654800780C3800EB4000644A02EB0010EA
:1027B00080F82D105F480078182815D15E48007801
:1027C0000C3800EB40005D4901EB001090F82E0042
:1027D000401CC1B2584800780C3800EB4000574A02
:1027E00002EB001080F82E1052480078192817D1FB
:1027F000514800780C3800EB4000504901EB0010C4
:1028000090F82F0008B9012100E000214A48007823
:102810000C3800EB4000494A02EB001080F82F1002
:10282000454800780C3800EB4000444901EB0010AB
:10283000C07D182809D100213F4800780C3800EBF2
:1028400040003E4A02EB0010C1753B4800780C384E
:1028500000EB4000394901EB0010007E3D2809D112
:102860000021354800780C3800EB4000334A02EB79
:1028700000100176304800780C3800EB40002F49FA
:1028800001EB0010007F182809D100212A480078A8
:102890000C3800EB4000294A02EB00100177264873
:1028A00000780C3800EB4000244901EB0010407F19
:1028B0003D2809D10021204800780C3800EB400069
:1028C0001E4A02EB001041771B4800780C3800EBE1
:1028D00040001A4901EB001090F8210018280AD195
:1028E0000021154800780C3800EB4000134A02EB39
:1028F000001080F82110104800780C3800EB4000E0
:102900000E4901EB001090F822003D280AD1002169
:10291000094800780C3800EB4000084A02EB001030
:1029200080F82210044800780C3800EB400003497E
:1029300006E000003013002072140020E010002098
:1029400001EB001090F8260018280AD10021FE485B
:1029500000780C3800EB4000FC4A02EB001080F8D5
:102960002610F94800780C3800EB4000F74901EBDD
:10297000001090F827003D280AD10021F248007885
:102980000C3800EB4000F14A02EB001080F82710F1
:10299000ED4800780C3800EB4000EC4901EB0010EA
:1029A00090F82B0018280AD10021E74800780C384D
:1029B00000EB4000E54A02EB001080F82B10E248E3
:1029C00000780C3800EB4000E04901EB001090F873
:1029D0002C003D280AD10021DB4800780C3800EBA0
:1029E0004000DA4A02EB001080F82C10D64800783C
:1029F0000C3800EB4000D54901EB0010407E182850
:102A000009D10021D04800780C3800EB4000CF4AB3
:102A100002EB00104176CC4800780C3800EB400007
:102A2000CA4901EB0010807E3D2809D10021C6482B
:102A300000780C3800EB4000C44A02EB00108176AD
:102A4000C14800780C3800EB4000C04901EB001091
:102A5000807F182809D10021BB4800780C3800EB92
:102A60004000BA4A02EB00108177B74800780C3872
:102A700000EB4000B54901EB0010C07F3D2809D1B3
:102A80000021B14800780C3800EB4000AF4A02EB5F
:102A90000010C177AC4800780C3800EB4000AB491F
:102AA00001EB001090F8230018280AD10021A64855
:102AB00000780C3800EB4000A44A02EB001080F8CC
:102AC0002310A14800780C3800EB40009F4901EB2F
:102AD000001090F824003D280AD100219A4800787F
:102AE0000C3800EB4000994A02EB001080F82410EB
:102AF000954800780C3800EB4000944901EB001039
:102B000090F8280018280AD100218F4800780C3846
:102B100000EB40008D4A02EB001080F828108A4834
:102B200000780C3800EB4000884901EB001090F869
:102B300029003D280AD10021834800780C3800EB99
:102B40004000824A02EB001080F829107E4800788D
:102B50000C3800EB40007D4901EB001090F82D008F
:102B600018280AD10021784800780C3800EB400082
:102B7000764A02EB001080F82D10734800780C386C
:102B800000EB4000714901EB001090F82E003D2849
:102B90000AD100216C4800780C3800EB40006B4AE9
:102BA00002EB001080F82E10674800780C3800EB1C
:102BB0004000664901EB00104078052809D100214A
:102BC000614800780C3800EB4000604A02EB0010CE
:102BD0004170FDE35C4800780C3820B95C4800780F
:102BE000401C5B490870584800780C38012804D113
:102BF00058480078401C57490870534800780C38F2
:102C0000022804D154480078401C534908704E48AB
:102C100000780C38032804D150480078401C4F49F4
:102C20000870494800780C38042804D14C480078D2
:102C3000401C4B490870444800780C38052804D1E2
:102C400048480078401C474908703F4800780C38D5
:102C5000062804D144480078401C434908703A488B
:102C600000780C38072804D140480078401C3F49C0
:102C70000870354800780C38082804D13C480078A2
:102C8000401C3B490870304800780C38092804D1B2
:102C900038480078401C374908702D4800780228D1
:102CA00023DC2C48007802281FDC2B4800780228FF
:102CB0001BDC2A480078022817DC29480078022803
:102CC00013DC2848007802280FDC27480078022807
:102CD0000BDC26480078022807DC2548007802280B
:102CE00003DC24480078022874DD174800780C388B
:102CF00000EB4000154901EB0010407801280AD193
:102D00001D480078401C1C490870084600780728B8
:102D100001D1012008700C4800780C3800EB40000D
:102D20000A4901EB0010407802280AD113480078C4
:102D3000401C1249087008460078032801D1012080
:102D40000870014800781BE072140020E010002099
:102D50002313002024130020251300202613002015
:102D60002713002028130020291300202A130020F5
:102D70002B1300202C1300202D1300202E130020D5
:102D80000C3800EB4000FE4901EB001040780328AE
:102D90000AD1FC480078401CFA49087008460078BF
:102DA000072801D101200870F74800780C3800EBA3
:102DB0004000F34901EB0010407804280AD1F348A1
:102DC0000078401CF1490870084600781A2801D1A3
:102DD00001200870FDE6EE48007878BBED480078E9
:102DE00060BBED48007848BBEC48007830BBEC484D
:102DF000007818BBEB48007800BBEB480078E8B9D6
:102E0000EA480078D0B9EA480078B8B9E9480078CB
:102E1000A0B9DD4800780C3800EB4000D84901EB40
:102E200000104078401EC1B2D74800780C3800EB43
:102E30004000D34A02EB0010417018E3FFE7D2488C
:102E400000780C3800EB4000CD4901EB00104078D1
:102E500001287DD1D8480078012826D1CA480078B9
:102E60000C3800EB400001EB00104079401EC649D1
:102E700009780C3901EB4101C14A02EB0111897952
:102E8000884212DDC04800780C3800EB4000114643
:102E900001EB00104079401EC1B2BB4800780C38ED
:102EA00000EB400002EB00104171C348007802289B
:102EB00013D1B54800780C3800EB4000B04901EB65
:102EC00000108079401EC1B2AF4800780C3800EB8A
:102ED0004000AB4A02EB00108171B748007803282C
:102EE00013D1A94800780C3800EB4000A44901EB4D
:102EF0000010007B401CC1B2A34800780C3800EBE6
:102F000040009F4A02EB00100173AB480078042890
:102F100015D19D4800780C3800EB4000984901EB32
:102F20000010407B08B9012100E00021964800789C
:102F30000C3800EB4000924A02EB001041739248BB
:102F400000780C3800EB40008D4901EB001000E0E8
:102F50007AE0007B042809D100218B4800780C38E6
:102F600000EB4000864A02EB0010017392480078A3
:102F7000052827D1844800780C3800EB40008049B0
:102F800001EB00100089401E7F4909780C3901EBE4
:102F900041017B4A02EB01114989884212DD7A48DE
:102FA00000780C3800EB4000114601EB001000895E
:102FB000401E81B2744800780C3800EB400002EBF0
:102FC000001001817C480078062813D16E480078F3
:102FD0000C3800EB40006A4901EB00104089401EAC
:102FE00081B2694800780C3800EB4000644A02EB7B
:102FF00000104181644800780C3800EB40006049C3
:1030000001EB00104089012809DC01215E480078AD
:103010000C3800EB40005A4A02EB001041815A483C
:1030200000780C3800EB4000554901EB0010807926
:10303000FF2809D10021544800780C3800EB4000EB
:103040004F4A02EB001081714F4800780C3800EBBA
:1030500040004B4901EB0010407802285ED15748F0
:103060000078012812D1484800780C3800EB400065
:1030700001EB0010408A401E81B2434800780C38B2
:1030800000EB40003E4A02EB001041824B480078C2
:10309000022813D13C4800780C3800EB4000384936
:1030A00001EB0010008A401E81B2374800780C38CE
:1030B00000EB4000324A02EB0010018232480078F7
:1030C0000C3800EB40002E4901EB0010408A4FF60F
:1030D000FF7188420AD142F20F712B4800780C38F8
:1030E00000EB4000264A02EB00104182264800789F
:1030F0000C3800EB4000224901EB0010008A4FF62B
:10310000FF7188420AD142F20F711F4800780C38D3
:1031100000EB40001A4A02EB001001821A480078C6
:103120000C3800EB4000164901EB001040780328F2
:103130007ED114480078012847D1134800780C3814
:1031400000EB400001EB00104079401E0E49097869
:103150000C3901EB41010A4A02EB011189798842DD
:1031600033DD094800780C3800EB4000114601EBD4
:1031700000104079401EC1B2034800780C381FE0AF
:10318000E01000202F1300207214002030130020C4
:1031900023130020241300202513002026130020D1
:1031A0002713002028130020291300202A130020B1
:1031B0002B1300202C1300202D1300202E13002091
:1031C00000EB400002EB00104171FE48007802283D
:1031D00013D1FD4800780C3800EB4000FB4901EBAF
:1031E00000108079401EC1B2F74800780C3800EB1F
:1031F0004000F64A02EB00108171F2480078032883
:1032000013D1F14800780C3800EB4000EF4901EB96
:103210000010007B401CC1B2EB4800780C3800EB7A
:103220004000EA4A02EB00100173E648007800E033
:10323000A1E0042815D1E44800780C3800EB4000E8
:10324000E24901EB0010407B08B9012100E00021B8
:10325000DD4800780C3800EB4000DC4A02EB00103F
:103260004173D94800780C3800EB4000D74901EB96
:103270000010007B042809D10021D34800780C38C5
:1032800000EB4000D14A02EB00100173CD480078FA
:10329000052813D1CC4800780C3800EB4000CB490E
:1032A00001EB0010408A401E81B2C74800780C38FC
:1032B00000EB4000C54A02EB00104182C148007893
:1032C000062813D1C04800780C3800EB4000BF49F5
:1032D00001EB0010008A401E81B2BB4800780C3818
:1032E00000EB4000B94A02EB00100182B6480078BA
:1032F0000C3800EB4000B54901EB0010408A4FF656
:10330000FF7188420AD142F20F71AF4800780C3841
:1033100000EB4000AD4A02EB00104182AA48007861
:103320000C3800EB4000A94901EB0010008A4FF671
:10333000FF7188420AD142F20F71A34800780C381D
:1033400000EB4000A14A02EB001001829E48007889
:103350000C3800EB40009D4901EB00108079FF28FC
:1033600009D10021984800780C3800EB4000974ABA
:1033700002EB00108171944800780C3800EB40009B
:10338000924901EB00104078042870D190480078F1
:10339000012812D18C4800780C3800EB400001EB7A
:1033A0000010C07D401EC1B2874800780C3800EB89
:1033B0004000864A02EB0010C1758548007802285B
:1033C00015D1814800780C3800EB40007F4900E0BF
:1033D000FDE301EB0010007E401EC1B27A48007888
:1033E0000C3800EB4000794A02EB00100176784877
:1033F0000078032813D1744800780C3800EB4000A3
:10340000724901EB0010407E401EC1B26E48007848
:103410000C3800EB40006D4A02EB001041766C481E
:103420000078042813D1684800780C3800EB40007D
:10343000664901EB0010807E401EC1B262480078F0
:103440000C3800EB4000614A02EB001081766048C6
:103450000078052816D15C4800780C3800EB400055
:103460005A4901EB0010C07E10B9012101E0DFE3F1
:103470000021554800780C3800EB4000534A02EB1D
:103480000010C17652480078062813D14E480078C3
:103490000C3800EB40004D4901EB0010007F401E4E
:1034A000C1B2494800780C3800EB4000474A02EBB3
:1034B0000010017746480078072813D14248007869
:1034C0000C3800EB4000414901EB0010407F401EEA
:1034D000C1B23D4800780C3800EB40003B4A02EB9B
:1034E000001041773A480078082813D13648007810
:1034F0000C3800EB4000354901EB0010807F401E86
:10350000C1B2314800780C3800EB40002F4A02EB82
:10351000001081772E480078092813D12A480078B6
:103520000C3800EB4000294901EB0010C07F401E21
:10353000C1B2254800780C3800EB4000234A02EB6A
:103540000010C177224800780A2817D11E48007859
:103550000C3800EB40001D4901EB001090F82000F2
:1035600008B9012100E00021174800780C3800EB71
:103570004000164A02EB001080F820101448007832
:103580000B2815D1104800780C3800EB40000F498B
:1035900001EB001090F82100401EC1B20A480078EB
:1035A0000C3800EB4000094A02EB001080F82110B3
:1035B000074800780C281ED1034800780C3800EB2F
:1035C000400007E02F13002072140020E0100020BC
:1035D00030130020FE4901EB001090F82200401E3D
:1035E000C1B2FC4800780C3800EB4000F84A02EB0E
:1035F000001080F82210F84800780D2815D1F54801
:1036000000780C3800EB4000F14901EB001090F815
:103610002300401EC1B2EF4800780C3800EB400098
:10362000EB4A02EB001080F82310EB4800780E28DC
:1036300015D1E84800780C3800EB4000E44901EB74
:10364000001090F82400401EC1B2E24800780C3807
:1036500000EB4000DE4A02EB001080F82410DE4848
:1036600000780F2817D1DB4800780C3800EB4000B9
:10367000D74901EB001090F8250008B9012100E0BE
:103680000021D44800780C3800EB4000D04A02EB0F
:10369000001080F82510D0480078102815D1CD48AA
:1036A00000780C3800EB4000C94901EB001090F89D
:1036B0002600401EC1B2C74800780C3800EB40001D
:1036C000C34A02EB001080F82610C3480078112886
:1036D00015D1C04800780C3800EB4000BC4901EB24
:1036E000001090F82700401EC1B2BA4800780C388C
:1036F00000EB4000B64A02EB001080F82710B648F5
:103700000078122815D1B34800780C3800EB40003F
:10371000AF4901EB001090F82800401EC1B2AD483F
:1037200000780C3800EB4000A94A02EB001080F84A
:103730002810A9480078132815D1A64800780C381D
:1037400000EB4000A24901EB001090F82900401E58
:10375000C1B2A04800780C3800EB40009C4A02EB54
:10376000001080F829109C480078142817D1994837
:1037700000780C3800EB4000954901EB001090F800
:103780002A0008B9012100E00021924800780C3895
:1037900000EB40008E4A02EB001080F82A108E48A1
:1037A0000078152815D18B4800780C3800EB4000C4
:1037B000874901EB001090F82B00401EC1B28548EC
:1037C00000780C3800EB4000814A02EB001080F8D2
:1037D0002B1081480078162815D17E4800780C38C7
:1037E00000EB40007A4901EB001090F82C00401EDD
:1037F000C1B2784800780C3800EB4000744A02EB04
:10380000001080F82C1074480078172815D17148E2
:1038100000780C3800EB40006D4901EB001090F887
:103820002D00401EC1B26B4800780C3800EB400000
:10383000674A02EB001080F82D10674800781828BE
:1038400015D1644800780C3800EB4000604901EB6A
:10385000001090F82E00401EC1B25E4800780C386F
:1038600000EB40005A4A02EB001080F82E105A4834
:103870000078192817D1574800780C3800EB400021
:10388000534901EB001090F82F0008B9012100E026
:103890000021504800780C3800EB40004C4A02EB05
:1038A000001080F82F104B4800780C3800EB4000D7
:1038B000474901EB0010C07DFF2809D11721454879
:1038C00000780C3800EB4000414A02EB0010C17553
:1038D000404800780C3800EB40003D4901EB0010F7
:1038E000007EFF2809D13C213A4800780C3800EBD3
:1038F0004000374A02EB00100176364800780C3859
:1039000000EB4000324901EB0010007FFF2809D195
:103910001721304800780C3800EB40002C4A02EBAD
:10392000001001772B4800780C3800EB4000284944
:1039300001EB0010407FFF2809D13C212548007889
:103940000C3800EB4000224A02EB0010417721487E
:1039500000780C3800EB40001D4901EB001090F896
:103960002100FF280AD117211A4800780C3800EBF3
:103970004000174A02EB001080F82110154800782B
:103980000C3800EB4000124901EB001090F82200C7
:10399000FF280AD13C210F4800780C3800EB40008A
:1039A0000B4A02EB001080F822100A4800780C380D
:1039B00000EB4000064901EB001090F82600FF28BC
:1039C00011D11721034800780C3800EB400005E0C6
:1039D000E01000207214002030130020FE4A02EB99
:1039E000001080F82610FD4800780C3800EB4000ED
:1039F000F94901EB001090F82700FF280AD13C217B
:103A0000F64800780C3800EB4000F34A02EB001057
:103A100080F82710F14800780C3800EB4000EE49A0
:103A200001EB001090F82B00FF280AD11721EB487A
:103A300000780C3800EB4000E74A02EB001080F8F9
:103A40002B10E64800780C3800EB4000E24901EB0F
:103A5000001090F82C00FF280AD13C21DF480078A4
:103A60000C3800EB4000DC4A02EB001080F82C1010
:103A7000DA4800780C3800EB4000D74901EB001021
:103A8000407EFF2809D11721D44800780C3800EB7C
:103A90004000D14A02EB00104176D04800780C3843
:103AA00000EB4000CC4901EB0010807EFF2809D1DB
:103AB0003C21CA4800780C3800EB4000C64A02EBB3
:103AC00000108176C54800780C3800EB4000C249F0
:103AD00001EB0010807FFF2809D11721BF48007833
:103AE0000C3800EB4000BC4A02EB00108177BB4869
:103AF00000780C3800EB4000B74901EB0010C07FA4
:103B0000FF2809D13C21B54800780C3800EB400073
:103B1000B14A02EB0010C177B04800780C3800EBD6
:103B20004000AD4901EB001090F82300FF280AD1B6
:103B30001721AA4800780C3800EB4000A64A02EB97
:103B4000001080F82310A54800780C3800EB4000E6
:103B5000A14901EB001090F82400FF280AD13C2174
:103B60009E4800780C3800EB40009B4A02EB0010A6
:103B700080F82410994800780C3800EB40009649F2
:103B800001EB001090F82800FF280AD11721934874
:103B900000780C3800EB40008F4A02EB001080F8F0
:103BA00028108E4800780C3800EB40008A4901EB61
:103BB000001090F82900FF280CD13C21874800789C
:103BC0000C3800EB4000844A02EB001000E046E0B5
:103BD00080F82910814800780C3800EB40007E49BD
:103BE00001EB001090F82D00FF280AD117217B4827
:103BF00000780C3800EB4000774A02EB001080F8A8
:103C00002D10764800780C3800EB4000724901EB2B
:103C1000001090F82E00FF280AD13C216F48007850
:103C20000C3800EB40006C4A02EB001080F82E10BC
:103C30006A4800780C3800EB4000674901EB00103F
:103C40004078FF2809D10421644800780C3800EB43
:103C50004000614A02EB0010417000E000BF03E049
:103C60005F4800785D4908705E480078002841F0A0
:103C7000D6825D4800780028F9D15C480078002899
:103C8000F5D15B4800780028F1D15A480078002827
:103C9000EDD1594800780028E9D15848007800282B
:103CA000E5D1574800780028E1D15648007800282F
:103CB000DDD1554800780028D9D10120534908703A
:103CC00053490870534908705349087053490870A4
:103CD0005349087053490870534908705349087094
:103CE000534908703D4800780C3800EB40003A49D1
:103CF00001EB00104078052881F08F82DFE800F0AA
:103D00000314FEFDFC005C222321A02012F0C8FA5F
:103D10005A222321C02012F0C3FA5B222321E02083
:103D200012F0BEFA01F07ABA2C4800780C3800EB99
:103D30004000294901EB0010407910902748007895
:103D40000C3800EB400001EB001080790F90234805
:103D500000780C3800EB40011F4800EB011000898F
:103D60000E901E4800780C3800EB40001A4901EB19
:103D7000001040890D9027222321A02012F090FAF4
:103D80000A222321C02012F08BFA26222321E020D0
:103D900012F086FA29224321062012F081FA2A2203
:103DA0004321262012F07CFA27224321462012F0DC
:103DB00077FA2C224321662012F072FA2922672119
:103DC000062012F06DFA2B226721262012F068FAE5
:103DD0002722672146202DE0E010002072140020E9
:103DE000111300202313002024130020251300208A
:103DF0002613002027130020281300202913002059
:103E00002A1300202B1300202C130020191300204C
:103E10001A1300201B1300201C1300201D13002068
:103E20001E1300201F130020201300202113002048
:103E30002213002012F034FA2C226721662012F09F
:103E40002FFA32228B21062012F02AFA33228B21FC
:103E5000262012F025FA34228B21462012F020FA77
:103E600035228B21662012F01BFA36228B21862008
:103E700012F016FA2C228B21A62012F011FA37220A
:103E8000AF21062012F00CFA3822AF21262012F0C2
:103E900007FA3922AF21462012F002FA3A22AF2166
:103EA000662012F0FDF92C22AF21862012F0F8F9DD
:103EB0006922D321062012F0F3F96A22D3212620A9
:103EC00012F0EEF92922D321462012F0E9F92A2234
:103ED000D321662012F0E4F95822D321862012F073
:103EE000DFF92C22D321A62012F0DAF96922F7217A
:103EF000062012F0D5F902E0FEE34DE261E16A220C
:103F0000F721262012F0CCF92922F721462012F0C1
:103F1000C7F92B22F721662012F0C2F95822F721A7
:103F2000862012F0BDF92C22F721A62012F0B8F954
:103F30000A21109890FBF1F0C0B2019000204FF6DA
:103F4000FF73009043218620019A12F06DF90A2137
:103F5000109890FBF1F201FB1200C0B2019000201A
:103F60004FF6FF73009043219620019A12F05CF9FE
:103F70000A210F9890FBF1F0C0B2019000204FF69B
:103F8000FF73009067218620019A12F04DF90A21F3
:103F90000F9890FBF1F201FB1200C0B201900020DB
:103FA0004FF6FF73009067219620019A12F03CF9BA
:103FB000F74800780C3800EB4000F64901EB0010A0
:103FC000007BA8B927228B21C72012F069F9422271
:103FD0008B21E72012F064F93F228B2140F2071079
:103FE00012F05EF926228B2140F2271012F058F9C8
:103FF000E74800780C3800EB4000E64901EB001080
:10400000007B012815D127228B21C72012F048F907
:1040100042228B21E72012F043F940228B2140F20B
:10402000071012F03DF926228B2140F2271012F0E2
:1040300037F9D74800780C3800EB4001D54800EB41
:104040000110007B022815D127228B21C72012F0F6
:1040500027F942228B21E72012F022F941228B21FD
:1040600040F2071012F01CF926228B2140F2271093
:1040700012F016F9C64800780C3800EB4000C5492C
:1040800001EB0010007B032815D143228B21C720B0
:1040900012F006F944228B21E72012F001F92722C1
:1040A0008B2140F2071012F0FBF842228B2140F2E4
:1040B000271012F0F5F8B64800780C3800EB4000F5
:1040C000B44901EB0010407B50B13D22AF21A72045
:1040D00012F0E6F83E22AF21C72012F0E1F809E025
:1040E0003B22AF21A72012F0DBF83C22AF21C720F2
:1040F00012F0D6F864210E9890FBF1F0C0B2019056
:1041000000204FF6FF730090D321C820019A12F0CF
:104110008BF80A210E9890FBF1F090FBF1F201FB75
:104120001200C0B2019000204FF6FF730090D3211F
:10413000D820019A12F078F80A210E9890FBF1F23B
:1041400001FB1200C0B2019000204FF6FF730090F7
:10415000D321E820019A12F067F864210D9890FBB2
:10416000F1F0C0B2019000204FF6FF730090F721EC
:10417000C820019A12F058F80A210D9890FBF1F02E
:1041800090FBF1F201FB1200C0B2019000204FF64B
:10419000FF730090F721D820019A12F045F80A2108
:1041A0000D9890FBF1F201FB1200C0B201900020CB
:1041B0004FF6FF730090F721E820019A12F034F8CF
:1041C000B0E5734800780C3800EB4000714901EB12
:1041D0000010408A0C906E4800780C3800EB4000CC
:1041E00001EB0010008A0B9012222321A02012F074
:1041F00057F80A222321C02012F052F82622232148
:10420000E02012F04DF830224321062012F048F849
:1042100031224321262012F043F812224321462066
:1042200012F03EF813224321662012F039F82C22B6
:104230004321862012F034F82E228B21062012F022
:104240002FF82F228B21262012F02AF812228B2100
:10425000462012F025F813228B21662012F020F858
:104260002C228B21862012F01BF84FF47A710C98C7
:1042700090FBF1F0C0B2019000204FF6FF73009068
:104280004321A620019A11F0CFFF64210C9890FBE6
:10429000F1F00A2190FBF1F201FB1200C0B2019093
:1042A00000204FF6FF7300904321B620019A11F0D1
:1042B000BBFF0A210C9890FBF1F090FBF1F201FB9F
:1042C0001200C0B2019000204FF6FF73009043210E
:1042D000C620019A11F0A8FF0A210C9890FBF1F278
:1042E00001FB1200C0B2019000204FF6FF73009056
:1042F0004321D620019A11F097FF4FF47A710B9861
:1043000090FBF1F0C0B2019000204FF6FF730090D7
:104310008B21A620019A11F087FF64210B9890FB56
:10432000F1F00A2190FBF1F201FB1200C0B2019002
:1043300000204FF6FF7300908B21B620019A11F0F8
:1043400073FF0A210B9890FBF1F10A2291FBF2F026
:1043500002FB1010C0B2019000204FF6FF730090D6
:104360008B21C620019A11F05FFF0A210B9890FB68
:10437000F1F201FB1200C0B2019000204FF6FF7372
:1043800000908B21D620019A11F04EFFCAE4000064
:1043900072140020E0100020FE4800780C3800EB7A
:1043A0004000FD4901EB001040790A90F94800787F
:1043B0000C3800EB400001EB001080790990F548C3
:1043C00000780C3800EB400001EB0010408A0890A8
:1043D000F04800780C3800EB400001EB0010008A38
:1043E000079027222321A02011F05AFF1222232117
:1043F000C02011F055FF0A222321E02011F050FFC8
:1044000029224321062011F04BFF2A224321262096
:1044100011F046FF27224321462011F041FF2C22B4
:104420004321662011F03CFF29226721062011F06C
:1044300037FF2B226721262011F032FF2722672128
:10444000462011F02DFF2C226721662011F028FF55
:1044500032228B21062011F023FF33228B212620CC
:1044600011F01EFF34228B21462011F019FF352256
:104470008B21662011F014FF36228B21862011F04B
:104480000FFF2C228B21A62011F00AFF3722AF212B
:10449000062011F005FF3822AF21262011F000FF81
:1044A0003922AF21462011F0FBFE3A22AF216620CF
:1044B00011F0F6FE2C22AF21862011F0F1FE0A2128
:1044C0000A9890FBF1F0C0B2019000204FF6FF7304
:1044D000009043218620019A11F0A6FE0A210A9835
:1044E00090FBF1F201FB1200C0B2019000204FF6E8
:1044F000FF73009043219620019A11F095FE0A2146
:10450000099890FBF1F0C0B2019000204FF6FF73C4
:10451000009067218620019A11F086FE0A210998F1
:1045200090FBF1F201FB1200C0B2019000204FF6A7
:10453000FF73009067219620019A11F075FE95484F
:1045400000780C3800EB4001934800EB0110007B31
:10455000A8B927228B21C72011F0A2FE42228B216D
:10456000E72011F09DFE3F228B2140F2071011F051
:1045700097FE26228B2140F2271011F091FE8548EC
:1045800000780C3800EB4001834800EB0110007B01
:10459000012815D127228B21C72011F081FE42224C
:1045A0008B21E72011F07CFE40228B2140F2071086
:1045B00011F076FE26228B2140F2271011F070FEBA
:1045C000744800780C3800EB4001734800EB011090
:1045D000007B022815D127228B21C72011F060FE15
:1045E00042228B21E72011F05BFE41228B2140F219
:1045F000071011F055FE26228B2140F2271011F0F2
:104600004FFE644800780C3800EB4000624901EB33
:104610000010007B032815D143228B21C72011F005
:104620003FFE44228B21E72011F03AFE27228B2106
:1046300040F2071011F034FE42228B2140F2271085
:1046400011F02EFE534800780C3800EB4001524820
:1046500000EB0110407B50B13D22AF21A72011F0AB
:104660001FFE3E22AF21C72011F01AFE09E03B22B7
:10467000AF21A72011F014FE3C22AF21C72011F07A
:104680000FFE3022D321062011F00AFE3122D32161
:10469000262011F005FE1222D321462011F000FE43
:1046A0001322D321662011F0FBFD2C22D32186207A
:1046B00011F0F6FD2E22F721062011F0F1FD2F2238
:1046C000F721262011F0ECFD1222F721462011F0EF
:1046D000E7FD1322F721662011F0E2FD2C22F721DD
:1046E000862011F0DDFD4FF47A71089890FBF1F00F
:1046F000C0B20190002000E08DE04FF6FF73009003
:10470000D321A620019A11F08FFD6421089890FB17
:10471000F1F00A2190FBF1F201FB1200C0B201900E
:1047200000204FF6FF730090D321B620019A11F0BC
:104730007BFD0A21089890FBF1F090FBF1F201FB60
:104740001200C0B2019000204FF6FF730090D321F9
:10475000C620019A11F068FD0A21089890FBF1F239
:1047600001FB1200C0B2019000204FF6FF730090D1
:10477000D321D620019A11F057FD4FF47A71079892
:1047800090FBF1F0C0B2019000204FF6FF73009053
:10479000F72103E072140020E0100020A620019A07
:1047A00011F042FD6421079890FBF1F10A2091FB82
:1047B000F0F200FB1210C0B2019000204FF6FF7320
:1047C0000090F721B620019A11F02EFD0A210798DA
:1047D00090FBF1F090FBF1F201FB1200C0B20190EE
:1047E00000204FF6FF730090F721C620019A11F0C8
:1047F0001BFD0A21079890FBF1F201FB1200C0B2E9
:10480000019000204FF6FF730090F721D620019A07
:1048100011F00AFDFDE3142102A8FBF7F1FCF948B1
:1048200000780C3800EB4000F74901EB0010C07D28
:104830008DF80800F34800780C3800EB400001EBDD
:104840000010007E8DF80900EE4800780C3800EB6F
:10485000400001EB0010407E8DF80A00E948007826
:104860000C3800EB400001EB0010807E8DF80B004F
:10487000E44800780C3800EB400001EB0010007FAA
:104880008DF80C00DF4800780C3800EB400001EB9D
:104890000010417F8DF80D10DA4800780C3800EBDD
:1048A0004000D94901EB0010817F8DF80E10D548EA
:1048B00000780C3800EB4000D34901EB0010C17FB9
:1048C0008DF80F10CF4800780C3800EB4000CE492F
:1048D00001EB001090F821008DF81000C948007815
:1048E0000C3800EB400001EB001090F822108DF81E
:1048F0001110C44800780C3800EB4000C24901EBAD
:10490000001090F823108DF81210BE4800780C3873
:1049100000EB4000BC4901EB001090F824108DF82A
:104920001310B84800780C3800EB4000B64901EB92
:10493000001090F826008DF81400B24800780C386A
:1049400000EB400001EB001090F827108DF81510D7
:10495000AC4800780C3800EB4000AB4901EB00108C
:1049600090F828108DF81610A64800780C3800EB47
:104970004000A54901EB001090F829108DF81710A0
:10498000A04800780C3800EB40009F4901EB001074
:1049900090F82B008DF818009A4800780C3800EB3E
:1049A000400001EB001090F82C108DF8191095487C
:1049B00000780C3800EB4000934901EB001090F8B0
:1049C0002D108DF81A108F4800780C3800EB40003D
:1049D0008D4901EB001090F82E108DF81B10282245
:1049E0002321A02011F05CFC12222321C02011F011
:1049F00057FC0A222321E02011F052FC00204FF442
:104A0000FC63732243210090502011F0BDFC002074
:104A10004FF4FC63742243210090702011F0B4FC29
:104A200000204FF4FC63122243210090902011F0EB
:104A3000ABFC00204FF4FC63132243210090B02014
:104A400011F0A2FC00204FF478437522432100901E
:104A50004FF4887011F098FC00204FF478437622D0
:104A6000432100904FF4987011F08EFC00204FF419
:104A700078431222432100904FF4A87011F084FC77
:104A800000204FF478431322432100904FF4B87074
:104A900011F07AFC4E226321002011F001FC122259
:104AA0006321602011F0FCFB28226321A02011F07B
:104AB000F7FB12226321100111F0F2FB282263217F
:104AC0004FF4B07011F0ECFB9DF808000A2190FB48
:104AD000F1F0C0B2019000204FF6FF730090632107
:104AE0004020019A11F0A0FB9DF808000A2190FBDC
:104AF000F1F201FB1200C0B2019000204FF6FF73EB
:104B0000009063215020019A11F08EFB9DF809005E
:104B10000A2190FBF1F0C0B2019000204FF6FF7324
:104B2000009063218020019A11F07EFB9DF809001E
:104B30000A2190FBF1F201FB1200C0B201900020AB
:104B40004FF6FF73009063219020019A11F06CFBE7
:104B50009DF80A000A2190FBF1F0C0B201900020FC
:104B60004FF6FF73009063214FF48070019A11F0AB
:104B70005BFB9DF80A000A2190FBF1F201FB120099
:104B8000C0B2019000204FF6FF73009063214FF4F4
:104B90008870019A11F048FB9DF80B000A2190FBE8
:104BA000F1F0C0B2019000204FF6FF730090632136
:104BB0004FF4A070019A11F037FB9DF80B000A2109
:104BC00090FBF1F201FB1200C0B2019000204FF601
:104BD000FF73009063214FF4A870019A11F024FB39
:104BE000084800780C3800EB4000074901EB001042
:104BF000C07E58B1462263214FF4D07011F050FBB3
:104C00000AE0000072140020E01000204722632117
:104C10004FF4D07011F044FB4F228321002011F09B
:104C20003FFB12228321602011F03AFB28228321CE
:104C3000A02011F035FB12228321100111F030FB6E
:104C4000282283214FF4B07011F02AFB9DF80C004C
:104C50000A2190FBF1F0C0B2019000204FF6FF73E3
:104C6000009083214020019A11F0DEFA9DF80C009B
:104C70000A2190FBF1F201FB1200C0B2019000206A
:104C80004FF6FF73009083215020019A11F0CCFA67
:104C90009DF80D000A2190FBF1F0C0B201900020B8
:104CA0004FF6FF73009083218020019A11F0BCFA27
:104CB0009DF80D000A2190FBF1F201FB1200C0B239
:104CC000019000204FF6FF73009083219020019AFD
:104CD00011F0AAFA9DF80E000A2190FBF1F0C0B283
:104CE000019000204FF6FF73009083214FF48070F5
:104CF000019A11F099FA9DF80E000A2190FBF1F249
:104D000001FB1200C0B2019000204FF6FF7300902B
:104D100083214FF48870019A11F086FA9DF80F00F4
:104D20000A2190FBF1F0C0B2019000204FF6FF7312
:104D3000009083214FF4A070019A11F075FA9DF84C
:104D40000F000A2190FBF1F201FB1200C0B20190AA
:104D500000204FF6FF73009083214FF4A870019A52
:104D600011F062FAFE4800780C3800EB4000FD4973
:104D700001EB001090F8200030B1462283214FF45F
:104D8000D07011F08DFA05E0472283214FF4D070E6
:104D900011F086FA5022A321002011F081FA12228C
:104DA000A321602011F07CFA2822A321A02011F079
:104DB00077FA1222A321100111F072FA2822A321FE
:104DC0004FF4B07011F06CFA9DF810000A2190FBBE
:104DD000F1F0C0B2019000204FF6FF730090A321C4
:104DE0004020019A11F020FA9DF810000A2190FB52
:104DF000F1F201FB1200C0B2019000204FF6FF73E8
:104E00000090A3215020019A11F00EFA9DF8110094
:104E10000A2190FBF1F0C0B2019000204FF6FF7321
:104E20000090A3218020019A11F0FEF99DF8110055
:104E30000A2190FBF1F201FB1200C0B201900020A8
:104E40004FF6FF730090A3219020019A11F0ECF926
:104E50009DF812000A2190FBF1F0C0B201900020F1
:104E60004FF6FF730090A3214FF48070019A11F068
:104E7000DBF99DF812000A2190FBF1F201FB120010
:104E8000C0B2019000204FF6FF730090A3214FF4B1
:104E90008870019A11F0C8F99DF813000A2190FB5F
:104EA000F1F0C0B2019000204FF6FF730090A321F3
:104EB0004FF4A070019A11F0B7F99DF813000A2180
:104EC00090FBF1F201FB1200C0B2019000204FF6FE
:104ED000FF730090A3214FF4A870019A11F0A4F978
:104EE0009F4800780C3800EB40009E4901EB001011
:104EF00090F8250030B14622A3214FF4D07011F074
:104F0000CFF905E04722A3214FF4D07011F0C8F982
:104F10005122C321002011F0C3F91222C3216020C5
:104F200011F0BEF92822C321A02011F0B9F91222F4
:104F3000C321100111F0B4F92822C3214FF4B0703D
:104F400011F0AEF99DF814000A2190FBF1F0C0B207
:104F5000019000204FF6FF730090C3214020019A7A
:104F600011F062F99DF814000A2190FBF1F201FBA7
:104F70001200C0B2019000204FF6FF730090C321D1
:104F80005020019A11F050F99DF815000A2190FB6C
:104F9000F1F0C0B2019000204FF6FF730090C321E2
:104FA0008020019A11F040F99DF815000A2190FB2C
:104FB000F1F201FB1200C0B2019000204FF6FF7326
:104FC0000090C3219020019A11F02EF99DF816004F
:104FD0000A2190FBF1F0C0B2019000204FF6FF7360
:104FE0000090C3214FF48070019A11F01DF99DF8D3
:104FF00016000A2190FBF1F201FB1200C0B20190F1
:1050000000204FF6FF730090C3214FF48870019A7F
:1050100000E003E111F008F99DF817000A2190FB68
:10502000F1F0C0B2019000204FF6FF730090C32151
:105030004FF4A070019A11F0F7F89DF817000A21BB
:1050400090FBF1F201FB1200C0B2019000204FF67C
:10505000FF730090C3214FF4A870019A11F0E4F897
:105060003F4800780C3800EB40003E4901EB00104F
:1050700090F82A0030B14622C3214FF4D07011F0CD
:105080000FF905E04722C3214FF4D07011F008F961
:105090005222E321002011F003F91222E3216020C3
:1050A00011F0FEF82822E321A02011F0F9F81222D5
:1050B000E321100111F0F4F82822E3214FF4B0703D
:1050C00011F0EEF89DF818000A2190FBF1F0C0B243
:1050D000019000204FF6FF730090E3214020019AD9
:1050E00011F0A2F89DF818000A2190FBF1F201FBE3
:1050F0001200C0B2019000204FF6FF730090E32130
:105100005020019A11F090F89DF819000A2190FBA7
:10511000F1F0C0B2019000204FF6FF730090E32140
:105120008020019A11F080F89DF819000A2190FB67
:10513000F1F201FB1200C0B2019000204FF6FF73A4
:105140000090E3219020019A11F06EF89DF81A006A
:105150000A2190FBF1F0C0B20190002004E00000B1
:1051600072140020E01000204FF6FF730090E3213E
:105170004FF48070019A11F057F89DF81A000A2137
:1051800090FBF1F201FB1200C0B2019000204FF63B
:10519000FF730090E3214FF48870019A11F044F8F6
:1051A0009DF81B000A2190FBF1F0C0B20190002095
:1051B0004FF6FF730090E3214FF4A070019A11F0B5
:1051C00033F89DF81B000A2190FBF1F201FB12005D
:1051D000C0B2019000204FF6FF730090E3214FF41E
:1051E000A870019A11F020F8FE4800780C3800EB06
:1051F0004000FD4901EB001090F82F0030B146222D
:10520000E3214FF4D07011F04BF805E04722E32181
:105210004FF4D07011F044F800E000BF14E000201B
:10522000F2490870F2490870F2490870F2490870B2
:10523000F2490870F2490870F2490870F2490870A2
:10524000F2490870F2490870F2480078D0B9F24883
:105250000078B8B9F1480078A0B9F148007888B969
:10526000F048007870B9F048007858B9EF480078F5
:1052700040B9EF48007828B9EE48007810B9EE48F8
:105280000078C0B1D74800780C3800EB4000D64910
:1052900001EB0010407870B95C222321A02010F0AF
:1052A000FFFF5A222321C02010F0FAFF5B222321A6
:1052B000E02010F0F5FFD7480078D8B9D64800783C
:1052C000C0B9D6480078A8B9D548007890B9D54873
:1052D000007878B9D448007860B9D448007848B9E3
:1052E000D348007830B9D348007818B9D24800784C
:1052F00000287DD0BB4800780C3800EB4000BA494C
:1053000001EB00104078012872D1B64800780C38C3
:1053100000EB400001EB001040791090B14800789C
:105320000C3800EB4001B04800EB011080790F9081
:10533000AC4800780C3800EB4000AB4901EB0010A2
:1053400000890E90A74800780C3800EB4001A64871
:1053500000EB011040890D9027222321A02010F09E
:105360009FFF0A222321C02010F09AFF262223212A
:10537000E02010F095FF29224321062010F090FF35
:105380002A224321262010F08BFF2722432146208A
:1053900010F086FF2C224321662010F081FF292285
:1053A0006721062010F07CFF2B226721262010F0B9
:1053B00077FF27226721462010F072FF2C226721F9
:1053C000662010F06DFF32228B21062010F068FF5E
:1053D00033228B21262010F063FF34228B214620BC
:1053E00010F05EFF35228B21662010F059FF00E09F
:1053F00068E336228B21862010F052FF2C228B216D
:10540000A62010F04DFF3722AF21062010F048FFF4
:105410003822AF21262010F043FF3922AF21462049
:1054200010F03EFF3A22AF21662010F039FF2C2207
:10543000AF21862010F034FF6922D321062010F01E
:105440002FFF6A22D321262010F02AFF2922D32100
:10545000462010F025FF2A22D321662010F020FFDD
:105460005822D321862010F01BFF2C22D321A62006
:1054700010F016FF6922F721062010F011FF6A22B2
:10548000F721262010F00CFF2922F721462010F0EA
:1054900007FF2B22F721662010F002FF5822F72188
:1054A000862010F0FDFE2C22F721A62010F0F8FE39
:1054B0006248007801281FD00A21109890FBF1F073
:1054C000C0B20C9000204FF6FF730090432186205D
:1054D0000C9A10F0A9FE0A21109890FBF1F201FB42
:1054E0001200C0B20C9000204FF6FF7300904321D1
:1054F00096200C9A10F098FE5048007802281FD091
:105500000A210F9890FBF1F0C0B20C9000204FF6EA
:10551000FF730090672186200C9A10F085FE0A2107
:105520000F9890FBF1F201FB1200C0B20C9000202A
:105530004FF6FF730090672196200C9A10F074FECE
:105540003E48007803287BD0264800780C3800EBD2
:105550004001254800EB0110007BA8B927228B21D0
:10556000C72010F09DFE42228B21E72010F098FE0C
:105570003F228B2140F2071010F092FE26228B2151
:1055800040F2271010F08CFE164800780C3800EB23
:105590004001154800EB0110007B012815D127229E
:1055A0008B21C72010F07CFE42228B21E72010F0D7
:1055B00077FE40228B2140F2071010F071FE262268
:1055C0008B2140F2271010F06BFE064800780C3853
:1055D00000EB4001044800EB0110007B022845D19C
:1055E00027222EE072140020E01000201913002062
:1055F0001A1300201B1300201C1300201D13002071
:105600001E1300201F130020201300202113002050
:105610002213002023130020241300202513002030
:105620002613002027130020281300202913002010
:105630002A1300202B1300202C1300202D130020F0
:1056400035E08B21C72010F02BFE42228B21E72072
:1056500010F026FE41228B2140F2071010F020FEB0
:1056600026228B2140F2271010F01AFEFE48007807
:105670000C3800EB4001FD4800EB0110007B0328D3
:1056800015D143228B21C72010F00AFE44228B2122
:10569000E72010F005FE27228B2140F2071010F0C2
:1056A000FFFD42228B2140F2271010F0F9FDF04857
:1056B000007804281ED0EC4800780C3800EB40003D
:1056C000EA4901EB0010407B50B13D22AF21A720F9
:1056D00010F0E6FD3E22AF21C72010F0E1FD09E009
:1056E0003B22AF21A72010F0DBFD3C22AF21C720D9
:1056F00010F0D6FDDE480078052832D064210E98DF
:1057000090FBF1F0C0B20C9000204FF6FF730090B8
:10571000D321C8200C9A10F087FD0A210E9890FB27
:10572000F1F090FBF1F201FB1200C0B20C900020EE
:105730004FF6FF730090D321D8200C9A10F074FD1F
:105740000A210E9890FBF1F201FB1200C0B20C90FE
:1057500000204FF6FF730090D321E8200C9A10F040
:1057600063FDC3480078062832D064210D9890FB71
:10577000F1F0C0B20C9000204FF6FF730090F721BB
:10578000C8200C9A10F050FD0A210D9890FBF1F002
:1057900090FBF1F201FB1200C0B20C9000204FF61A
:1057A000FF730090F721D8200C9A10F03DFD0A21DC
:1057B0000D9890FBF1F201FB1200C0B20C9000209A
:1057C0004FF6FF730090F721E8200C9A10F02CFDA3
:1057D000A748007807287DD2DFE800F07C04254642
:1057E000DCF4F3000A21109890FBF1F0C0B20C90A9
:1057F0004FF6FF7000230090432186200C9A10F092
:1058000013FD0A21109890FBF1F201FB1200C0B2C7
:105810000C904FF6FF7000230090432196200C9AC5
:1058200010F002FD4CE10A210F9890FBF1F0C0B29C
:105830000C904FF6FF7000230090672186200C9A91
:1058400010F0F2FC0A210F9890FBF1F201FB12001C
:10585000C0B20C904FF6FF70002300906721962095
:105860000C9A10F0E1FC2BE17F4800780C3800EB3B
:1058700040007E4901EB0010007BC8B901232722BC
:105880008B21C72010F046FD012342228B21E72007
:1058900010F040FD01233F228B2140F2071010F051
:1058A00039FD012326228B2140F2271010F032FD12
:1058B0006D4800780C3800EB40006C4901EB00109B
:1058C000007B01281BD1012327228B21C72010F048
:1058D00021FD00E0F3E0012342228B21E72010F0BC
:1058E00019FD012340228B2140F2071010F012FD18
:1058F000012326228B2140F2271010F00BFD5A487D
:1059000000780C3800EB4001584800EB0110007B98
:10591000022819D1012327228B21C72010F0FAFC7D
:10592000012342228B21E72010F0F4FC01234122C5
:105930008B2140F2071010F0EDFC012326228B2171
:1059400040F2271010F0E6FC474800780C3800EBD6
:105950004000464901EB0010007B032819D10123C8
:1059600043228B21C72010F0D5FC012344228B2138
:10597000E72010F0CFFC012327228B2140F20710F3
:1059800010F0C8FC012342228B2140F2271010F0B6
:10599000C1FC95E0344800780C3800EB40013348F6
:1059A00000EB0110407B70B101233D22AF21A72005
:1059B00010F0B0FC01233E22AF21C72010F0AAFC5A
:1059C0000DE041E00CE001233B22AF21A72010F0C5
:1059D000A1FC01233C22AF21C72010F09BFC6FE00B
:1059E00064210E9890FBF1F0C0B20C904FF6FF705E
:1059F00000230090D321C8200C9A10F015FC0A2136
:105A00000E9890FBF1F090FBF1F201FB1200C0B296
:105A10000C904FF6FF7000230090D321D8200C9AF1
:105A200010F002FC0A210E9890FBF1F201FB12002B
:105A3000C0B20C904FF6FF7000230090D321E820F5
:105A40000C9A10F0F1FB3BE064210D9890FBF1F013
:105A5000C0B20C904FF6FF7000230090F721C820D1
:105A60000C9A10F0E1FB05E072140020E010002019
:105A70002D1300200A210D9890FBF1F090FBF1F21C
:105A800001FB1200C0B20C904FF6FF700023009093
:105A9000F721D8200C9A10F0C7FB0A210D9890FB33
:105AA000F1F201FB1200C0B20C904FF6FF70002320
:105AB0000090F721E8200C9A10F0B6FB00E000BF40
:105AC00000BF00BFFE480078D0B9FE480078B8B9E2
:105AD000FD480078A0B9FD48007888B9FC480078F6
