:020000040800F2
:100000001832002001010008F1D300088DB5000866
:10001000EDD3000805A00008A70D010800000000AE
:1000200000000000000000000000000011E20008D5
:10003000D9A600080000000085D4000825E30008C8
:100040001B0100081B0100081B01000899D80008CB
:100050001B0100081B0100081B0100081B01000810
:100060001B0100081B0100081B0100081B01000800
:100070001B0100081B01000809A000081B01000863
:100080001B0100081B0100081B0100081B010008E0
:100090001B0100081B0100081B0100081B010008D0
:1000A0001B010008EDE300081B0100081B0100080C
:1000B000A9E80008C9EC000861F400081B01000869
:1000C0001B0100081B0100081B0100081B010008A0
:1000D0001B010008350A01081B010008990A0108E4
:1000E0001B0100081B0100081B010008DFF80CD0F1
:1000F00000F062FD00480047512D01081832002031
:100100000648804706480047FEE7FEE7FEE7FEE7B1
:10011000FEE7FEE7FEE7FEE7FEE7FEE729E300086D
:10012000ED00000830B50B460146002020220124D6
:1001300009E021FA02F59D4205D303FA02F5491BB5
:1001400004FA02F52844151EA2F10102F1DC30BDCB
:1001500010B5431A934209D28318881803E010F8A7
:10016000011D03F8011D521EF9D210BD40EA010322
:100170009B0703D009E008C9121F08C0042AFAD25D
:1001800003E011F8013B00F8013B521EF9D210BD0B
:10019000D2B201E000F8012B491EFBD270470022C9
:1001A000F6E710B513460A4604461946FFF7F0FF76
:1001B000204610BD30B505462A460B4612F8010B05
:1001C00013F8014B08B1A042F8D01CB1002802D0AE
:1001D0006D1CF1E7284630BD10B5044604E00B78ED
:1001E00000F8013B03B1491C521EF8D2204610BD55
:1001F000421C10F8011B0029FBD1801A704710B572
:10020000002200E0521C835C8C5CA34201D1002BD5
:10021000F8D1D8B2E1B2401A10BDCBB203E00178F8
:10022000994203D0401C521EF9D200207047034669
:1002300011F8012B00F8012B002AF9D1184670475C
:1002400000F09EBBF0B480EA0102D40F4200B2EB92
:10025000410F02D20246084611464A0042D0C30D61
:10026000DDB2C1F3C752AD1A202D35DAC1F3160144
:1002700041F4000204B15242C5F1200602FA06F12F
:100280002A411044B3EBD05F23D0C4B1012DA0EBC1
:10029000C35009DCF0BC4FF0004202EAC352DBB2AB
:1002A00000F5000000F0BDBB400000F1807000EBE5
:1002B000C350A0F1807040EAD170490009E04908BC
:1002C00041EAC071A0EBC35000F50000400800EB0C
:1002D000C350F0BC00F09CBB6142012202EB410123
:1002E000001BF6E7F0BC704781F00041AAE780F000
:1002F0000040A7E780EA010210B502F00043400089
:1003000022D04A001FD0010E01EB1261C0F356004B
:10031000C2F3560240F4000042F40002A0FB0220A7
:1003200000047F39140400D0401C50EA124001D46C
:100330004000491EC2B20C0604EBD010401C40081D
:10034000802A02D003E0002010BD20F00100002927
:1003500000DA0020184310BD30B480EA010202F038
:10036000004530F0004221F0004013D090B1C30DA1
:10037000D40DC2F31601C0F31600E41A41F40001D3
:1003800040F400027D34914201D3641C00E0490036
:10039000002C02DA30BC002070474FF4000000232C
:1003A000914201D3891A034340084FEA4101F7D132
:1003B00051B1914202D14FF0004105E002D24FF01D
:1003C000010101E06FF0010103EBC450284430BC8F
:1003D00000F01EBB2DE9FE4F804681EA0300C00FEE
:1003E0000C46009021F0004123F00045B8EB0200DC
:1003F000A94105D24046214690461C460B4602467E
:1004000023F00040104347D0270DC7F30A00C3F381
:100410000A510290401A019040286BDAC3F313008E
:1004200040F4801B0098924620B10023D2EB030ACF
:1004300063EB0B0B01985946C0F14002504600F0A7
:1004400030FA06460D4650465946019A00F038FAF1
:1004500010EB08006141002487EA115284EAE77337
:100460001A4340D0009A62B3019A012A4FEA075218
:1004700015DC001B61EB02014FF0004202EA07525B
:10048000CDE90042001C41F5801132462B4600F0B8
:1004900005FB03B0BDE8F08F40462146F9E7001B9D
:1004A00061EB0201001C41F5801300185B4120182C
:1004B000A2F5001747EB030140EAD570B6196D416C
:1004C00011E06D084FEA360645EAC0754FEA07525B
:1004D000001B61EB0201001C41F5801149084FEA45
:1004E00030000019514132462B4603B0BDE8F04FB1
:1004F00000F0C5BA0098012240000023D0EB0202B0
:1005000063EBE073009821464FEAE074B8EB00001B
:1005100061EB0401E9E783F000435BE781F0004110
:1005200058E72DE9FE4F81EA030404F0004421F06E
:10053000004100944FF0000B23F0004350EA010407
:100540005ED052EA03045BD0C3F30A54C1F30A55E8
:100550002C44A4F2F3340194A0FB0254C1F3130120
:1005600041F48011C3F3130343F4801301FB0244ED
:1005700000FB034E840A970A44EA815447EA8357F2
:10058000A4FB076802958D0A05FB07854FEA932CAB
:1005900004FB0C542705029D4FEA065847EA16371C
:1005A000B5EB08056EEB070C870E920E47EA811734
:1005B00042EA8312A7FB0201B6EB0B0164EB0004D5
:1005C0002B0D43EA0C335E1844EB1C50DA465146BF
:1005D000E7FB0201C5F313044FEA0B3343EA14535C
:1005E0004FEA0432019C43EA0603A4F10C0402948E
:1005F000009CCDE900B400F051FA03B0BDE8F08FE3
:1006000000200146F9E72DE9F04D81EA030404F0EA
:10061000004B21F0004514464FF0000A23F0004142
:1006200050EA050220D054EA01021DD0C5F30A5752
:100630000246C5F31303C1F31300C1F30A5640F495
:10064000801543F48013A7EB0608101BD64608F26A
:10065000FD3873EB050002D308F1010801E09218A0
:100660005B41B8F1000F03DA00200146BDE8F08DD0
:1006700000204FF48011064684460EE0171B73EBF2
:10068000050705D3121B63EB050306434CEA010C77
:1006900049084FEA300092185B4150EA0107EDD15A
:1006A00052EA030012D082EA040083EA05010843FB
:1006B00005D0101BAB4106D20122002306E0002228
:1006C0004FF0004302E06FF0010253101AEB0600F6
:1006D0004CEB085110EB0A0041EB0B01BDE8F04D6B
:1006E00000F0CDB9C10F80EAE0700844CA07962334
:1006F000002100F096B996230022114600F091B92E
:1007000000F0004220F00040C10DC0F3160040F49C
:1007100000007F2901DA00207047962903DCC1F12F
:100720009601C84001E096398840002AF4D0404242
:10073000704720F00040C10DC0F3160040F40000E7
:100740007F2901DA00207047962903DCC1F1960168
:10075000C840704796398840704700F0004230F03A
:1007600000400AD0C10D01F56071C0F3160042EAE5
:100770000151C208400711437047002001467047ED
:1007800030B5041E71F1000404DB4FF00044404218
:1007900064EB0101141E73F1000405DB1C464FF0ED
:1007A0000043524263EB04038B4208BF824230BDD8
:1007B00030B5041E71F1000404DB4FF000444042E8
:1007C00064EB0101141E73F1000405DB1C464FF0BD
:1007D0000043524263EB0403994208BF904230BD8C
:1007E00001F0004330B421F0004150EA010206D08C
:1007F0000A0DA2F56072C1F31301002A02DC30BCBD
:1008000000207047440F44EAC104C100E01830BC26
:1008100000EBC25000F0FCB8002801DBC0F1004042
:10082000002901DBC1F1004181427047002801DB52
:10083000C0F10040002901DBC1F10041884270474E
:100840002DE9F05F0546002092469B468846064605
:10085000814640241BE0284641464746224600F098
:10086000BDF953465A46C01A914110D31146184655
:10087000224600F016F82D1A67EB01084F46224673
:100880000120002100F00DF817EB00094E41201E59
:10089000A4F10104DFDC484631462A464346BDE860
:1008A000F09F202A04DB203A00FA02F10020704772
:1008B0009140C2F1200320FA03F31943904070479E
:1008C000202A06DBCB17203A41FA02F043EAE07314
:1008D00006E041FA02F3D040C2F120029140084301
:1008E000194670470FB4002300B589B00CA90091D8
:1008F0000B996FF00042CB601E4B06931E4B079383
:100900000423CDE901321D4A089202466B460020BD
:1009100000F016FA09B05DF814FB70B586B0064613
:100920004FF0FF300091CDE90101002015460C4643
:1009300004903246694604A8FFF7D4FF02460498A3
:10094000211825B108B1084600E020462860049827
:1009500000280DD0002A02DD0098884208D0081B2C
:100960000094CDE901043246694604A8FFF7BAFFB6
:1009700006B070BD790F0008970F0008050C00083D
:100980002DE9F04791460E4680460446002514F8AE
:10099000017B2FB100F032F90068C05DC007F6D1CD
:1009A0002B2F02D02D2F1ED0641E4A4631462046E2
:1009B00000F002FB26B13268A24201D1C6F80080E5
:1009C0006A054FF0020418D50023D0EB030563EB52
:1009D00001025D1B934109DB0023D0EB030063EBB5
:1009E0000101BDE8F08745F48065DEE710F066FAA6
:1009F000046000204FF00041F3E7021E71F1000295
:100A0000EFDA10F05BFA04604FF0FF304108E8E7DE
:100A10000029A8BF7047401C490008BF20F0010012
:100A2000704710B4B0FA80FC00FA0CF050EA0104F0
:100A300004BF10BC704749B1CCF1200421FA04F482
:100A400011FA0CF118BF012121430843A3EB0C015B
:100A5000CB1D4FEA00614FEA102042BF002010BCBE
:100A6000704700EBC35010440029A4BF10BC70476E
:100A7000401C490008BF20F0010010BC704710B5B1
:100A8000141E73F1000408DA401C41F100019218B1
:100A90005B411A4301D120F0010010BD2DE9F04D5A
:100AA00092469B4611B1B1FA81F202E0B0FA80F2AF
:100AB00020329046FFF7F5FE04460F4640EA0A0052
:100AC00041EA0B0153465A46084313D0114653EAF4
:100AD000010019D0C8F14002504600F07FF80546E9
:100AE0000E46504659464246FFF7DBFE084305D006
:100AF000012004E020463946BDE8F08D0020054382
:100B000046EAE0762C4337430A986305E40AA0EBF3
:100B100008000022FD0A44EA47540A3002D50020AA
:100B20000146E9E7010510196941DDE908450019A9
:100B30006941BDE8F04DA2E770B521F000430343E1
:100B40000CD0C1F30A550024D5EB040564EB040373
:100B5000D617AD1AB34102DB0020014670BD201844
:100B600041EB025170BD0EB5C10F80EAE070084440
:100B7000CA07002140F233438DE80E000A460B46B7
:100B8000FFF78CFF03B000BDC1F30A52C1F313019C
:100B900040F2FF3341F480119A4202DA002001460C
:100BA000704740F233439A42A2F2334202DC52428F
:100BB00000F014B8FFF775BE064C074D06E0E0687C
:100BC00040F0010394E8070098471034AC42F6D394
:100BD000FFF790FA40E3010860E30108202A04DBF4
:100BE000203A21FA02F00021704721FA02F3D040A6
:100BF000C2F12002914008431946704700487047EF
:100C0000DCE2010810B50446FFF7F8FF0068005D5C
:100C100000F0010010BD00002DE9FF4F087883B0FF
:100C20009946FF2805D0491C2D2804D00024002017
:100C300008E000200BE00124F9E700EB800003EB63
:100C40004000491C0B78FF2BF7D104B14042002330
:100C50000293147819461D462D2C01D02B2C04D15B
:100C6000521C2D2C13D000240294AA461478FF2C79
:100C70000FD00A25A3FB057801FB05814FF0000C7E
:100C800003FB0C11521CE3194AEB0101EEE70124AE
:100C9000EAE7814453EA010002D019F5C87F06DA79
:100CA00003980021C0E9001107B0BDE8F08F0025CE
:100CB000AE4E2F46DFF8B882184600F0ECF9CDE9C9
:100CC0000001B9F1000002DAC9F1000400E00446B5
:100CD0000023A74A1AEB030B42EB045A12E0E00789
:100CE00007D02A46334638464146FFF71AFC0746E6
:100CF00088462A46334610461946FFF712FC054639
:100D00000E466410002CEAD1DDE90001B9F1000FB4
:100D10005A46534606DAFFF776FC3A464346FFF753
:100D200072FC05E0FFF7FDFB3A464346FFF7F9FB8F
:100D3000029A0AB181F00041039AC2E90001B3E7C7
:100D40002DE9FF4F1F468DB0D7E901464FF0FF3820
:100D50002E2045464FF000090B90B9696D1C0E9886
:100D60008847396A824688470028F6D1BAF1FF3FA2
:100D70000AD024F4D064002E11DDBAF12B0F08D074
:100D8000BAF12D0F0BD102E0404611B08DE744F4CB
:100D90008064B9696D1C0E9888478246761E694644
:100DA000600501D52D2000E02B208DF8000001F119
:100DB000010B0DF1200809E0B9696D1C0E988847F8
:100DC00082460F9844F40074761E0560002E02DD02
:100DD000BAF1300FF0D00B998A453ED144F080042F
:100DE00006E00F99681CA9F1010944F40074086039
:100DF000B9696D1C761E0E98884782463028F0D05F
:100E00002BE00B998A4505D1200603D444F08004D9
:100E1000761E18E0504610F093F908B30DF1130157
:100E2000761E44F400748B4508D2AAF130000BF80A
:100E3000010B200607D5A9F1010003E0200602D42A
:100E400009F101008146A00502D50F99681C0860D0
:100E5000B9696D1C0E9888478246002ED1DC53E09C
:100E6000002E51DDBAF1650F02D0BAF1450F4BD11A
:100E7000A00549D5B9696D1C24F44074761E0E98FE
:100E800088478246002E0CDD2B2804D0BAF12D0FA6
:100E900007D144F48074B9696D1C0E988847824666
:100EA000761EE00501D52D2100E02B2108F8011B5D
:100EB000CDF82C8021E00DF12901761E44F4007458
:100EC00088450CD2AAF1300010F0FF0088F800002D
:100ED00002D10B99884509D908F1010806E0E0051F
:100EE00001D5244801E042F20F708146B9696D1CBA
:100EF0000E98884782460F980560002E04DD504604
:100F000010F01EF90028D6D1F9690E988847FF2005
:100F10008BF8000088F800000020069007904B46F0
:100F20006A4608A906A8FFF777FEA00502D46FF06D
:100F300001002AE714F0240F0AD0E00714D1DDE9FC
:100F400006123868031D3B600068C0E900120BE020
:100F5000DDE90601FFF744FC0146E00704D13868EB
:100F6000021D3A600068016028460EE70000144048
:100F70000000F03FF1D8FFFF426842B1016811F86C
:100F8000013B23B1521EC0E90012184670470121EF
:100F9000C160881E704742685AB1C368016843B98E
:100FA00083688B4205D0491E521CC0E90012002004
:100FB00070474FF0FF3070472DE9F74F4FF00009B1
:100FC000009C1546CA4614F8010B302801D0ADB17B
:100FD00015E014F8010B4FF00109782803D05828C8
:100FE00001D04DB10BE00DB1102D08D14FF000092B
:100FF000102514F8010B02E0082500E00A2500275F
:101000003E46B8464FEAE57B16E0A5FB07230BFBFF
:10101000073105FB080005FB0616030CD71846F13F
:1010200000061FFA80F8381E4FF0010976F580306F
:1010300000D3CA4614F8010B294600F01EF8002818
:10104000E3DA019838B1B9F1000F01D0641E00E075
:10105000009C01980460BAF1000F08D00FF02EFF39
:1010600002210160C81E014603B0BDE8F08F3104C3
:1010700041EA174148EA0740F6E73A2800D23038FB
:1010800020F02002412A01D3A2F13700884201D387
:101090004FF0FF3070470EB540F23342029200220B
:1010A000CDE900221346FFF7F9FC03B000BD70B58F
:1010B0008C1810F8015B15F0070301D110F8013B03
:1010C0002A1106D110F8012B03E010F8016B01F88A
:1010D000016B5B1EF9D12B0705D40023521E0DD4E2
:1010E00001F8013BFAE710F8013BCB1A921C03E030
:1010F00013F8015B01F8015B521EF9D5A142D8D368
:10110000002070BD21B1826842F00102826003E0DC
:10111000826822F0010282607047000000B587B04B
:10112000012148020CF0ECF9012104200CF0E8F94F
:101130001C20ADF8040000208DF8070001A9184814
:1011400009F0EEFA002002908DF80C008DF80D00E9
:101150004FF4602004900020059001208DF81800C5
:1011600002A9104800F042F801210E48FFF7CAFF1B
:101170004FF440400CF088F90A4800F0BBF800BF7B
:10118000084800F028F80028FAD1064800F0C2F814
:1011900000BF044800F008F80028FAD107B000BDED
:1011A0000008014000240140014600208A6802F046
:1011B00004020AB1012000E0002070470146C86C1B
:1011C00080B270470246002013680B400BB101202B
:1011D00000E000207047014600208A6802F0080203
:1011E0000AB1012000E000207047000030B502463F
:1011F0000020002350680F4C20400D790C6844EA11
:1012000005242043506090680B4C2040D1E90254E3
:101210002C434D7944EA450420439060D06A20F481
:1012200070000C7C641EE4B2234340EA0350D06299
:1012300030BD0000FFFEF0FFFDF7F1FFF0B5044602
:101240000D4600200021092D11DDE068A5F10A06F8
:1012500006EB4607072606FA07F18843A5F10A06BA
:1012600006EB460603FA06F10843E0600CE020694D
:1012700005EB4507072606FA07F1884305EB450607
:1012800003FA06F108432061072A0FDA606B561E45
:1012900006EB86071F2606FA07F18843561E06EB63
:1012A000860605FA06F10843606322E00D2A0FDA8C
:1012B000206BD61F06EB86071F2606FA07F1884328
:1012C000D61F06EB860605FA06F10843206310E0F8
:1012D000E06AA2F10D0606EB86071F2606FA07F163
:1012E0008843A2F10D0606EB860605FA06F10843CF
:1012F000E062F0BD816841F008018160704721B172
:10130000826842F4A002826003E0826822F4A002B4
:1013100082607047816841F004018160704738B590
:1013200004460D46A4F10C000A2881F06281DFE832
:1013300010F00A00FA00E901D802C703B604A505B7
:10134000940683077208012306222421104614F014
:1013500011FA012307222421262014F00BFA01237D
:101360001A222421462014F005FA01231B222421ED
:10137000662014F0FFF906224821104614F0C0F947
:1013800007224821262014F0BBF91C2248214620C0
:1013900014F0B6F91B224821662014F0B1F9062298
:1013A0006C21104614F0ACF907226C21262014F0B1
:1013B000A7F91D226C21462014F0A2F91B226C21F2
:1013C000662014F09DF906229021104614F098F939
:1013D00007229021262014F093F91E229021462006
:1013E00014F08EF91B229021662014F089F9062250
:1013F000B421104614F084F90722B421262014F0F9
:101400007FF91F22B421462014F07AF91B22B4215F
:10141000662014F075F9062224214FF4AD7014F003
:101420006FF9072224214FF4BD7014F069F92022CE
:1014300024214FF4CD7014F063F91B2224214FF4C2
:10144000DD7014F05DF9062248214FF4AD7014F000
:1014500057F9072248214FF4BD7014F051F92122A9
:1014600048214FF4CD7014F04BF91B2248214FF462
:10147000DD7014F045F906226C214FF4AD7014F0C4
:101480003FF907226C214FF4BD7014F039F9222284
:101490006C214FF4CD7014F033F91B226C214FF402
:1014A000DD7014F02DF9062290214FF4AD7014F088
:1014B00027F9072290214FF4BD7014F021F923225F
:1014C00090214FF4CD7014F01BF91B2290214FF4A2
:1014D000DD7014F015F90622B4214FF4AD7014F04C
:1014E0000FF90722B4214FF4BD7014F009F9002060
:1014F0004FF6FF730122B42100904FF4CD7014F029
:10150000C3F800204FF6FF730246B42100904FF459
:10151000D57014F0B9F81B22B4214FF4DD7014F02B
:10152000EFF801F067B806222421104614F0E8F81D
:1015300007222421262014F0E3F81A222421462031
:1015400014F0DEF81B222421662014F0D9F80123C0
:1015500006224821104614F00DF9012307224821E4
:10156000262014F007F901231C224821462014F0FC
:1015700001F901231B224821662014F0FBF8062202
:101580006C21104614F0BCF807226C21262014F0C0
:10159000B7F81D226C21462014F0B2F81B226C21F2
:1015A000662014F0ADF806229021104614F0A8F839
:1015B00007229021262014F0A3F81E229021462015
:1015C00014F09EF81B229021662014F099F8062250
:1015D000B421104614F094F80722B421262014F008
:1015E0008FF81F22B421462014F08AF81B22B42160
:1015F000662014F085F8062224214FF4AD7014F013
:101600007FF8072224214FF4BD7014F079F82022CE
:1016100024214FF4CD7014F073F81B2224214FF4D1
:10162000DD7014F06DF8062248214FF4AD7014F00F
:1016300067F8072248214FF4BD7014F061F82122A9
:1016400048214FF4CD7014F05BF81B2248214FF471
:10165000DD7014F055F806226C214FF4AD7014F0D3
:101660004FF807226C214FF4BD7014F049F8222284
:101670006C214FF4CD7014F043F81B226C214FF411
:10168000DD7014F03DF8062290214FF4AD7014F097
:1016900037F8072290214FF4BD7014F031F823225F
:1016A00090214FF4CD7014F02BF81B2290214FF4B1
:1016B000DD7014F025F80622B4214FF4AD7014F05B
:1016C0001FF80722B4214FF4BD7014F019F8002060
:1016D0004FF6FF730122B42100904FF4CD7013F048
:1016E000D3FF00204FF6FF730246B42100904FF461
:1016F000D57013F0C9FF1B22B4214FF4DD7013F035
:10170000FFFF0EE706222421104613F0F9FF0722FF
:101710002421262013F0F4FF1A222421462013F05E
:10172000EFFF1B222421662013F0EAFF0622482146
:10173000104613F0E5FF07224821262013F0E0FFB2
:101740001C224821462013F0DBFF1B224821662083
:1017500013F0D6FF012306226C21104614F00AF87C
:10176000012307226C21262014F004F801231D22F6
:101770006C21462013F0FEFF01231B226C21662002
:1017800013F0F8FF06229021104613F0B9FF07224C
:101790009021262013F0B4FF1E229021462013F042
:1017A000AFFF1B229021662013F0AAFF0622B4216E
:1017B000104613F0A5FF0722B421262013F0A0FF46
:1017C0001F22B421462013F09BFF1B22B421662068
:1017D00013F096FF062224214FF4AD7013F090FF12
:1017E000072224214FF4BD7013F08AFF2022242108
:1017F0004FF4CD7013F084FF1B2224214FF4DD70D1
:1018000013F07EFF062248214FF4AD7013F078FFED
:10181000072248214FF4BD7013F072FF21224821A6
:101820004FF4CD7013F06CFF1B2248214FF4DD7094
:1018300013F066FF06226C214FF4AD7013F060FFC9
:1018400007226C214FF4BD7013F05AFF22226C2145
:101850004FF4CD7013F054FF1B226C214FF4DD7058
:1018600013F04EFF062290214FF4AD7013F048FFA5
:10187000072290214FF4BD7013F042FF23229021E4
:101880004FF4CD7013F03CFF1B2290214FF4DD701C
:1018900013F036FF0622B4214FF4AD7013F030FF81
:1018A0000722B4214FF4BD7013F02AFF00204FF639
:1018B000FF730122B42100904FF4CD7013F0E4FEC9
:1018C00000204FF6FF730246B42100904FF4D5700C
:1018D00013F0DAFE1B22B4214FF4DD7013F010FF79
:1018E0001FE606222421104613F00AFF07222421B6
:1018F000262013F005FF1A222421462013F000FFB2
:101900001B222421662013F0FBFE062248211046EC
:1019100013F0F6FE07224821262013F0F1FE1C22C8
:101920004821462013F0ECFE1B224821662013F0CC
:10193000E7FE06226C21104613F0E2FE07226C211E
:10194000262013F0DDFE1D226C21462013F0D8FE68
:101950001B226C21662013F0D3FE01230622902166
:10196000104613F007FF012307229021262013F0D1
:1019700001FF01231E229021462013F0FBFE0123CC
:101980001B229021662013F0F5FE0622B42110469A
:1019900013F0B6FE0722B421262013F0B1FE1F2259
:1019A000B421462013F0ACFE1B22B421662013F0B4
:1019B000A7FE062224214FF4AD7013F0A1FE0722EA
:1019C00024214FF4BD7013F09BFE202224214FF4FC
:1019D000CD7013F095FE1B2224214FF4DD7013F01F
:1019E0008FFE062248214FF4AD7013F089FE0722C6
:1019F00048214FF4BD7013F083FE212248214FF49B
:101A0000CD7013F07DFE1B2248214FF4DD7013F0E2
:101A100077FE06226C214FF4AD7013F071FE0722A1
:101A20006C214FF4BD7013F06BFE22226C214FF439
:101A3000CD7013F065FE1B226C214FF4DD7013F0A6
:101A40005FFE062290214FF4AD7013F059FE07227D
:101A500090214FF4BD7013F053FE232290214FF4D8
:101A6000CD7013F04DFE1B2290214FF4DD7013F06A
:101A700047FE0622B4214FF4AD7013F041FE072259
:101A8000B4214FF4BD7013F03BFE00204FF6FF73FE
:101A90000122B42100904FF4CD7013F0F5FD002029
:101AA0004FF6FF730246B42100904FF4D57013F047
:101AB000EBFD1B22B4214FF4DD7013F021FE30E565
:101AC00006222421104613F01BFE07222421262083
:101AD00013F016FE1A222421462013F011FE1B22B9
:101AE0002421662013F00CFE06224821104613F034
:101AF00007FE07224821262013F002FE1C2248215F
:101B0000462013F0FDFD1B224821662013F0F8FD4E
:101B100006226C21104613F0F3FD07226C212620CB
:101B200013F0EEFD1D226C21462013F0E9FD1B226F
:101B30006C21662013F0E4FD06229021104613F07C
:101B4000DFFD07229021262013F0DAFD1E229021CE
:101B5000462013F0D5FD1B229021662013F0D0FD06
:101B600001230622B421104613F004FE01230722AC
:101B7000B421262013F0FEFD01231F22B4214620AC
:101B800013F0F8FD01231B22B421662013F0F2FDAF
:101B9000062224214FF4AD7013F0B2FD0722242158
:101BA0004FF4BD7013F0ACFD202224214FF4CD7012
:101BB00013F0A6FD1B2224214FF4DD7013F0A0FDCD
:101BC000062248214FF4AD7013F09AFD07224821F8
:101BD0004FF4BD7013F094FD212248214FF4CD70D5
:101BE00013F08EFD1B2248214FF4DD7013F088FDA9
:101BF00006226C214FF4AD7013F082FD07226C2198
:101C00004FF4BD7013F07CFD22226C214FF4CD7097
:101C100013F076FD1B226C214FF4DD7013F070FD84
:101C2000062290214FF4AD7013F06AFD0722902137
:101C30004FF4BD7013F064FD232290214FF4CD705A
:101C400013F05EFD1B2290214FF4DD7013F058FD60
:101C50000622B4214FF4AD7013F052FD0722B421D7
:101C60004FF4BD7013F04CFD00204FF6FF730122BE
:101C7000B42100904FF4CD7013F006FD00204FF614
:101C8000FF730246B42100904FF4D57013F0FCFCB2
:101C90001B22B4214FF4DD7013F032FD41E4062223
:101CA0002421104613F02CFD07222421262013F0B6
:101CB00027FD1A222421462013F022FD1B22242175
:101CC000662013F01DFD06224821104613F018FD72
:101CD00007224821262013F013FD1C22482146200C
:101CE00013F00EFD1B224821662013F009FD062289
:101CF0006C21104613F004FD07226C21262013F0FE
:101D0000FFFC1D226C21462013F0FAFC1B226C21E3
:101D1000662013F0F5FC06229021104613F0F0FC2B
:101D200007229021262013F0EBFC1E229021462052
:101D300013F0E6FC1B229021662013F0E1FC062242
:101D4000B421104613F0DCFC0722B421262013F046
:101D5000D7FC1F22B421462013F0D2FC1B22B42151
:101D6000662013F0CDFC0123062224214FF4AD7030
:101D700013F000FD0123072224214FF4BD7013F05E
:101D8000F9FC0123202224214FF4CD7013F0F2FC42
:101D900001231B2224214FF4DD7013F0EBFC0622FB
:101DA00048214FF4AD7013F0ABFC072248214FF4EB
:101DB000BD7013F0A5FC212248214FF4CD7013F023
:101DC0009FFC1B2248214FF4DD7013F099FC062282
:101DD0006C214FF4AD7013F093FC07226C214FF48B
:101DE000BD7013F08DFC22226C214FF4CD7013F0E6
:101DF00087FC1B226C214FF4DD7013F081FC06225E
:101E000090214FF4AD7013F07BFC072290214FF42A
:101E1000BD7013F075FC232290214FF4CD7013F0A8
:101E20006FFC1B2290214FF4DD7013F069FC062239
:101E3000B4214FF4AD7013F063FC0722B4214FF4CA
:101E4000BD7013F05DFC00204FF6FF730122B4213A
:101E500000904FF4CD7013F017FC00204FF6FF7385
:101E60000246B42100904FF4D57013F00DFC1B22F4
:101E7000B4214FF4DD7013F043FCBBE306222421B0
:101E8000104613F03DFC07222421262013F038FCD5
:101E90001A222421462013F033FC1B222421662021
:101EA00013F02EFC06224821104613F029FC0722CD
:101EB0004821262013F024FC1C224821462013F040
:101EC0001FFC1B224821662013F01AFC06226C21FD
:101ED000104613F015FC07226C21262013F010FC8D
:101EE0001D226C21462013F00BFC1B226C21662066
:101EF00013F006FC06229021104613F001FC072285
:101F00009021262013F0FCFB1E229021462013F086
:101F1000F7FB1B229021662013F0F2FB0622B4216E
:101F2000104613F0EDFB0722B421262013F0E8FB46
:101F30001F22B421462013F0E3FB1B22B4216620AC
:101F400013F0DEFB062224214FF4AD7013F0D8FB12
:101F5000072224214FF4BD7013F0D2FB202224214C
:101F60004FF4CD7013F0CCFB1B2224214FF4DD7015
:101F700013F0C6FB0123062248214FF4AD7013F085
:101F8000F9FB0123072248214FF4BD7013F0F2FB47
:101F90000123212248214FF4CD7013F0EBFB0123E4
:101FA0001B2248214FF4DD7013F0E4FB06226C2164
:101FB0004FF4AD7013F0A4FB07226C214FF4BD70F9
:101FC00013F09EFB22226C214FF4CD7013F098FB8E
:101FD0001B226C214FF4DD7013F092FB062290213E
:101FE0004FF4AD7013F08CFB072290214FF4BD70BD
:101FF00013F086FB232290214FF4CD7013F080FB69
:102000001B2290214FF4DD7013F07AFB0622B421DD
:102010004FF4AD7013F074FB0722B4214FF4BD7080
:1020200013F06EFB00204FF6FF730122B4210090E5
:102030004FF4CD7013F028FB00204FF6FF730246DB
:10204000B42100904FF4D57013F01EFB1B22B42175
:102050004FF4DD7013F054FBCCE20622242110462D
:1020600013F04EFB07222421262013F049FB1A22ED
:102070002421462013F044FB1B222421662013F068
:102080003FFB06224821104613F03AFB0722482165
:10209000262013F035FB1C224821462013F030FB8C
:1020A0001B224821662013F02BFB06226C211046D0
:1020B00013F026FB07226C21262013F021FB1D22A2
:1020C0006C21462013F01CFB1B226C21662013F0B0
:1020D00017FB06229021104613F012FB07229021D5
:1020E000262013F00DFB1E229021462013F008FB42
:1020F0001B229021662013F003FB0622B421104618
:1021000013F0FEFA0722B421262013F0F9FA1F2259
:10211000B421462013F0F4FA1B22B421662013F0F8
:10212000EFFA062224214FF4AD7013F0E9FA0722EA
:1021300024214FF4BD7013F0E3FA202224214FF440
:10214000CD7013F0DDFA1B2224214FF4DD7013F063
:10215000D7FA062248214FF4AD7013F0D1FA0722C6
:1021600048214FF4BD7013F0CBFA212248214FF4DF
:10217000CD7013F0C5FA1B2248214FF4DD7013F027
:10218000BFFA012306226C214FF4AD7013F0F2FA6E
:10219000012307226C214FF4BD7013F0EBFA0123E9
:1021A00022226C214FF4CD7013F0E4FA01231B229C
:1021B0006C214FF4DD7013F0DDFA062290214FF40C
:1021C000AD7013F09DFA072290214FF4BD7013F00B
:1021D00097FA232290214FF4CD7013F091FA1B222D
:1021E00090214FF4DD7013F08BFA0622B4214FF4E6
:1021F000AD7013F085FA0722B4214FF4BD7013F0CF
:102200007FFA00204FF6FF730122B42100904FF4B3
:10221000CD7013F039FA00204FF6FF730246B42157
:1022200000904FF4D57013F02FFA1B22B4214FF415
:10223000DD7013F065FADDE106222421104613F06B
:102240005FFA07222421262013F05AFA1A222421A9
:10225000462013F055FA1B222421662013F050FA71
:1022600006224821104613F04BFA07224821262067
:1022700013F046FA1C224821462013F041FA1B2293
:102280004821662013F03CFA06226C21104613F018
:1022900037FA07226C21262013F032FA1D226C2116
:1022A000462013F02DFA1B226C21662013F028FA29
:1022B00006229021104613F023FA072290212620AF
:1022C00013F01EFA1E229021462013F019FA1B2249
:1022D0009021662013F014FA0622B421104613F060
:1022E0000FFA0722B421262013F00AFA1F22B42184
:1022F000462013F005FA1B22B421662013F000FAE1
:10230000062224214FF4AD7013F0FAF9072224219C
:102310004FF4BD7013F0F4F9202224214FF4CD7056
:1023200013F0EEF91B2224214FF4DD7013F0E8F9CD
:10233000062248214FF4AD7013F0E2F9072248213C
:102340004FF4BD7013F0DCF9212248214FF4CD7019
:1023500013F0D6F91B2248214FF4DD7013F0D0F9A9
:1023600006226C214FF4AD7013F0CAF907226C21DC
:102370004FF4BD7013F0C4F922226C214FF4CD70DC
:1023800013F0BEF91B226C214FF4DD7013F0B8F985
:102390000123062290214FF4AD7013F0EBF90123D5
:1023A000072290214FF4BD7013F0E4F9012323229A
:1023B00090214FF4CD7013F0DDF901231B22902101
:1023C0004FF4DD7013F0D6F90622B4214FF4AD704E
:1023D00013F096F90722B4214FF4BD7013F090F971
:1023E00000204FF6FF730122B42100904FF4CD700E
:1023F00013F04AF900204FF6FF730246B421009013
:102400004FF4D57013F040F91B22B4214FF4DD7066
:1024100013F076F9EEE006222421104613F070F94D
:1024200007222421262013F06BF91A2224214620AA
:1024300013F066F91B222421662013F061F90622AD
:102440004821104613F05CF907224821262013F09A
:1024500057F91C224821462013F052F91B2248212B
:10246000662013F04DF906226C21104613F048F94E
:1024700007226C21262013F043F91D226C214620EF
:1024800013F03EF91B226C21662013F039F9062265
:102490009021104613F034F907229021262013F0E2
:1024A0002FF91E229021462013F02AF91B22902199
:1024B000662013F025F90622B421104613F020F906
:1024C0000722B421262013F01BF91F22B421462035
:1024D00013F016F91B22B421662013F011F906221D
:1024E00024214FF4AD7013F00BF9072224214FF48F
:1024F000BD7013F005F9202224214FF4CD7013F0A4
:10250000FFF81B2224214FF4DD7013F0F9F80622A6
:1025100048214FF4AD7013F0F3F8072248214FF42F
:10252000BD7013F0EDF8212248214FF4CD7013F067
:10253000E7F81B2248214FF4DD7013F0E1F8062282
:102540006C214FF4AD7013F0DBF807226C214FF4CF
:10255000BD7013F0D5F822226C214FF4CD7013F02A
:10256000CFF81B226C214FF4DD7013F0C9F806225E
:1025700090214FF4AD7013F0C3F8072290214FF46F
:10258000BD7013F0BDF8232290214FF4CD7013F0ED
:10259000B7F81B2290214FF4DD7013F0B1F801233E
:1025A0000622B4214FF4AD7013F0E4F801230722A2
:1025B000B4214FF4BD7013F0DDF84FF6FF70002327
:1025C0000122B42100904FF4CD7013F05DF84FF666
:1025D000FF7000231A46B42100904FF4D57013F019
:1025E00053F801231B22B4214FF4DD7013F0C2F81D
:1025F00000E000BF00BF38BD03B591B0FE480078D1
:102600000C2801F05D87FC4800780D28F9D0FA48C5
:1026100000780E28F5D0F84800780F28F1D0F64859
:1026200000781028EDD0F44800781128E9D0F2485D
:1026300000781228E5D0F04800781328E1D0EE4861
:1026400000781428DDD0EC4800781528D9D01298ED
:1026500002287DD0042803D0052841F02F87EEE31F
:10266000E648007898BBE648007880BBE5480078EB
:1026700068BBE548007850BBE448007838BBE448C4
:10268000007820BBE348007808BBE3480078F0B945
:10269000E2480078D8B9E2480078C0B9E14800784B
:1026A0000C3800EB400101EBC000DF4901EB80007A
:1026B0004078401CC1B2DB4800780C3800EB400287
:1026C00002EBC000D84A02EB80004170FEE3FFE756
:1026D000D44800780C3800EB400101EBC000D2492F
:1026E00001EB8000407801287ED1D0480078012895
:1026F00017D1CC4800780C3800EB400101EBC0004A
:10270000C94901EB80004079401CC1B2C54800783E
:102710000C3800EB400202EBC000C34A02EB800021
:102720004171C2480078022819D1BE4800780C389F
:1027300000EB400101EBC000BB4901EB8000807958
:10274000401CC1B2B74800780C3800EB400200E0F2
:10275000FEE302EBC000B44A02EB80008171B34893
:102760000078032817D1AF4800780C3800EB4001FF
:1027700001EBC000AC4901EB8000007B401CC1B202
:10278000A84800780C3800EB400202EBC000A64AD3
:1027900002EB80000173A5480078042819D1A148F4
:1027A00000780C3800EB400101EBC0009E4901EBC2
:1027B0008000407B08B9012100E0002199480078A1
:1027C0000C3800EB400202EBC000974A02EB80009D
:1027D0004173944800780C3800EB400101EBC000D5
:1027E000914901EB800000E078E0007B04280BD1E8
:1027F00000218C4800780C3800EB400202EBC0004E
:10280000894A02EB8000017388480078052817D1B7
:10281000844800780C3800EB400101EBC00082498D
:1028200001EB80000089401C81B27E4800780C38A2
:1028300000EB400202EBC0007B4A02EB800001810A
:102840007A480078062817D1764800780C3800EBD3
:10285000400101EBC000744901EB80004089401C3D
:1028600081B2704800780C3800EB400202EBC000E7
:102870006D4A02EB800041816A4800780C3800EB19
:10288000400101EBC000684901EB8000008932285B
:102890000BDB3221634800780C3800EB400202EB7E
:1028A000C000614A02EB800001815E4800780C386C
:1028B00000EB400101EBC0005B4901EB8000408967
:1028C00032280BDB3221574800780C3800EB4002ED
:1028D00002EBC000544A02EB80004181514800786D
:1028E0000C3800EB400101EBC0004F4901EB8000C8
:1028F000407802286DD14E480078012817D1494808
:1029000000780C3800EB400101EBC000464901EBB8
:102910008000408A401C81B2424800780C3800EBAD
:10292000400202EBC000404A02EB80004182404876
:102930000078022817D13B4800780C3800EB4001A2
:1029400001EBC000384901EB8000008A401C81B2D5
:10295000344800780C3800EB400202EBC000324AE9
:1029600002EB800001822F4800780C3800EB400118
:1029700001EBC0002C4901EB8000408A42F210714B
:1029800088420BD10021274800780C3800EB400228
:1029900002EBC000244A02EB80004182214800780B
:1029A0000C3800EB400101EBC0001F4901EB800037
:1029B000008A42F2107188420BD100211948007838
:1029C0000C3800EB400202EBC000174A02EB80001B
:1029D0000182144800780C3800EB400101EBC00084
:1029E000114901EB8000407803287CD11148007820
:1029F000012838D10B481FE0A1020020B4020020BA
:102A0000B5020020B6020020B7020020B802002064
:102A1000B9020020BA020020BB020020BC02002044
:102A2000BD020020FE030020D4000020BE020020D2
:102A3000BF020020C002002000780C3800EB4001EB
:102A400001EBC000FE4901EB80004079401CC1B29F
:102A5000FC4800780C3800EB400202EBC000F84A5A
:102A600002EB80004171F8480078022817D1F54840
:102A700000780C3800EB400101EBC000F04901EB9D
:102A800080008079401CC1B2EE4800780C3800EB21
:102A9000400202EBC000EA4A02EB80008171EA4882
:102AA0000078032817D1E74800780C3800EB400184
:102AB00001EBC000E24901EB8000007B401CC1B289
:102AC000E04800780C3800EB400202EBC000DC4A22
:102AD00002EB80000173DC48007804281BD1D94840
:102AE00000780C3800E09DE000EB400101EBC000F5
:102AF000D34901EB8000407B08B9012100E00021AF
:102B0000D04800780C3800EB400202EBC000CC4A01
:102B100002EB80004173CB4800780C3800EB400199
:102B200001EBC000C64901EB8000007B04280BD1FB
:102B30000021C44800780C3800EB400202EBC000D2
:102B4000BF4A02EB80000173BF480078052817D107
:102B5000BC4800780C3800EB400101EBC000B849DC
:102B600001EB8000408A401C81B2B64800780C38E6
:102B700000EB400202EBC000B14A02EB8000418250
:102B8000B1480078062817D1AE4800780C3800EB21
:102B9000400101EBC000AA4901EB8000008A401C03
:102BA00081B2A84800780C3800EB400202EBC0006C
:102BB000A34A02EB80000182A24800780C3800EBA7
:102BC000400101EBC0009E4901EB8000408A42F2C7
:102BD000107188420BD100219A4800780C3800EB24
:102BE000400202EBC000964A02EB80004182954809
:102BF00000780C3800EB400101EBC000904901EB7C
:102C00008000008A42F2107188420BD100218D4869
:102C100000780C3800EB400202EBC000884A02EB5F
:102C200080000182874800780C3800EB400101EBFE
:102C3000C000834901EB8000407804287ED183489E
:102C40000078012817D17F4800780C3800EB40014C
:102C500001EBC0007A4901EB8000C07D401CC1B28D
:102C6000784800780C3800EB400202EBC000744A50
:102C700002EB8000C17575480078022817D17148B1
:102C800000780C3800EB400101EBC0006C4901EB0F
:102C90008000007E401CC1B26A4800780C3800EB0E
:102CA000400202EBC000664A02EB800001766748F2
:102CB0000078032817D1634800780C3800EB4001F6
:102CC00001EBC0005E4901EB8000407E401CC1B2B8
:102CD0005C4800780C3800EB400202EBC000584A18
:102CE00002EB8000417659480078042819D15548F4
:102CF00000780C3800EB400101EBC000504901EBBB
:102D00008000807E08B9012100E000214D48007854
:102D10000C3800EB400202EBC000494A02EB800095
:102D200081764A480078052819D1464800780C3841
:102D300000EB400101EBC000414900E06EE301EB14
:102D40008000C07E401CC1B23E4800780C3800EBC9
:102D5000400202EBC0003A4A02EB8000C1763B48D9
:102D60000078062817D1374800780C3800EB40016E
:102D700001EBC000324901EB8000007F401CC1B272
:102D8000304800780C3800EB400202EBC0002C4ABF
:102D900002EB800001772D480078072817D12948D9
:102DA00000780C3800EB400101EBC000244901EB36
:102DB0008000407F401CC1B2224800780C3800EBF4
:102DC000400202EBC0001E4A02EB800041771F4820
:102DD0000078082819D11B4800780C3800EB400116
:102DE00001EBC000164901EB8000807F08B901218A
:102DF00000E00021134800780C3800EB400202EBA1
:102E0000C0000F4A02EB8000817710480078092843
:102E100021D10C4800780C3800EB400101EBC000D8
:102E2000074901EB8000C07F401CC1B20548007813
:102E30000C3800EB400202EBC000014A08E020E33E
:102E4000D4000020FE030020C0020020C1020020A8
:102E500002EB8000C177FE4800780A2819D1FD48AE
:102E600000780C3800EB400101EBC000FA4901EB9F
:102E7000800090F82000401CC1B2F64800780C3861
:102E800000EB400202EBC000F34A02EB800080F846
:102E90002010EF4800780B281BD1EE4800780C3842
:102EA00000EB400101EBC000EB4901EB800090F822
:102EB0002100401CC1B2E74800780C3800EB40020A
:102EC00002EBC000E44A02EB800000E0BFE280F8C1
:102ED0002110DF4800780C281BD1DE4800780C3820
:102EE00000EB400101EBC000DB4901EB800090F8F2
:102EF000220008B9012100E00021D64800780C38F2
:102F000000EB400202EBC000D34A02EB800080F8E5
:102F10002210CF4800780D2819D1CE4800780C38FF
:102F200000EB400101EBC000CB4901EB800090F8C1
:102F30002300401CC1B2C74800780C3800EB4002A7
:102F400002EBC000C44A02EB800080F8231000E0CE
:102F5000A4E3BF4800780E2819D1BE4800780C3889
:102F600000EB400101EBC000BB4901EB800090F891
:102F70002400401CC1B2B74800780C3800EB400276
:102F800002EBC000B44A02EB800080F82410B04885
:102F900000780F2819D1AF4800780C3800EB4001B9
:102FA00001EBC000AC4901EB800090F82500401C0B
:102FB000C1B2A84800780C3800EB400202EBC00018
:102FC000A54A02EB800080F82510A148007810285F
:102FD0001BD1A04800780C3800EB400101EBC00089
:102FE0009D4901EB800090F8260008B9012100E01E
:102FF0000021984800780C3800EB400202EBC0003A
:10300000954A02EB800080F826109148007811283C
:1030100019D1904800780C3800EB400101EBC0005A
:103020008D4901EB800090F82700401CC1B289480F
:1030300000780C3800EB400202EBC000864A02EB3D
:10304000800080F8271082480078122819D1814822
:1030500000780C3800EB400101EBC0007E4901EB29
:10306000800090F82800401CC1B27A4800780C38E3
:1030700000EB400202EBC000774A02EB800080F8D0
:10308000281073480078132819D1724800780C383A
:1030900000EB400101EBC0006F4901EB800090F8AC
:1030A0002900401CC1B26B4800780C3800EB40028C
:1030B00002EBC000684A02EB800080F829106448E7
:1030C000007814281BD1634800780C3800EB4001CD
:1030D00001EBC000604901EB800090F82A0008B9BC
:1030E000012100E000215B4800780C3800EB400231
:1030F00002EBC000584A02EB800080F82A105548C5
:1031000000780C3800EB400101EBC000524901EBA4
:103110008000C07D18280BD100214E4800780C3863
:1031200000EB400202EBC0004B4A02EB8000C1758D
:10313000484800780C3800EB400101EBC0004649DC
:1031400001EB8000007E3D280BD100214148007832
:103150000C3800EB400202EBC0003F4A02EB80005B
:1031600001763C4800780C3800EB400101EBC000D0
:10317000394901EB8000407E3D280BD100213548C4
:1031800000780C3800EB400202EBC000324A02EB40
:10319000800041762F4800780C3800EB400101EBAD
:1031A000C0002D4901EB8000C07E18280BD1002102
:1031B000284800780C3800EB400202EBC000264A99
:1031C00002EB8000C176234800780C3800EB400108
:1031D00001EBC000204901EB8000007F3D280BD1AE
:1031E00000211C4800780C3800EB400202EBC000C4
:1031F000194A02EB80000177164800780C3800EB82
:10320000400101EBC000144901EB8000407F3D28E4
:103210000BD100210F4800780C3800EB400202EB84
:10322000C0000D4A02EB800041770A4800780C3854
:1032300000EB400101EBC000074901EB8000C07FBB
:10324000182813D10021034800780C3806E000004C
:10325000C1020020FE030020D400002000EB400249
:1032600002EBC000FD4A02EB8000C177FC48007809
:103270000C3800EB400101EBC000F84901EB800085
:1032800090F820003D280CD10021F54800780C383A
:1032900000EB400202EBC000F04A02EB800080F835
:1032A0002010EF4800780C3800EB400101EBC00023
:1032B000EA4901EB800090F821003D280CD1002163
:1032C000E74800780C3800EB400202EBC000E34A0C
:1032D00002EB800080F82110E14800780C3800EB08
:1032E000400101EBC000DD4901EB800090F82300B4
:1032F00018280CD10021DA4800780C3800EB400285
:1033000002EBC000D54A02EB800080F82310D448BD
:1033100000780C3800EB400101EBC000CF4901EB15
:10332000800090F824003D280CD10021CC48007882
:103330000C3800EB400202EBC000C84A02EB8000F0
:1033400080F82410C64800780C3800EB400101EBEF
:10335000C000C24901EB800090F825003D280CD147
:103360000021BF4800780C3800EB400202EBC0009F
:10337000BA4A02EB800080F82510B94800780C3872
:1033800000EB400101EBC000B44901EB800090F874
:10339000270018280CD10021B14800780C3800EB28
:1033A000400202EBC000AD4A02EB800080F827101B
:1033B000AB4800780C3800EB400101EBC000A74996
:1033C00001EB800090F828003D280CD10021A44892
:1033D00000780C3800EB400202EBC0009F4A02EB81
:1033E000800080F828109E4800780C3800EB4001DF
:1033F00001EBC000994901EB800090F829003D28BD
:103400000CD10021964800780C3800EB400202EB0A
:10341000C000924A02EB800080F8291090480078A2
:103420000C3800EB400101EBC0008C4901EB80003F
:10343000407963280BDD6321894800780C3800EB64
:10344000400202EBC000854A02EB800041718448D3
:1034500000780C3800EB400101EBC0007F4901EB24
:103460008000407805280BD100217D4800780C3879
:1034700000EB400202EBC000784A02EB8000417092
:10348000FEE3774800780C3820B976480078401C75
:1034900074490870724800780C38012804D17248C9
:1034A0000078401C704908706D4800780C3802287C
:1034B00004D16E480078401C6C4908706848007858
:1034C0000C38032804D16A480078401C6849087009
:1034D000634800780C38042804D166480078401C02
:1034E000644908705E4800780C38052804D16248A9
:1034F0000078401C60490870594800780C3806284C
:1035000004D15E480078401C5C490870544800783B
:103510000C38072804D15A480078401C58490870D4
:103520004F4800780C38082804D156480078401CD1
:10353000544908704A4800780C38092804D1524888
:103540000078401C5049087046480078022823DC67
:103550004548007802281FDC4448007802281BDC1C
:1035600043480078022817DC42480078022813DC20
:103570004148007802280FDC4048007802280BDC24
:103580003F480078022807DC3E480078022803DC28
:103590003D48007802285FDD314800780C3800EBA8
:1035A000400101EBC0002D4901EB8000407801286B
:1035B0000AD136480078401C344908700846007823
:1035C000072801D101200870254800780C3800EB4D
:1035D000400101EBC000214901EB80004078022846
:1035E0000AD12B480078401C294908700846007809
:1035F000032801D101200870194800780C3800EB2D
:10360000400101EBC000154901EB80004078032820
:103610000AD120480078401C1E49087008460078EE
:10362000072801D1012008700D4800780C3800EB04
:10363000400101EBC000094901EB800040780428FB
:103640000AD115480078401C1349087008460078D4
:10365000152801D10120087012E70000D4000020D5
:10366000FE030020B4020020B5020020B6020020B4
:10367000B7020020B8020020B9020020BA020020E0
:10368000BB020020BC020020BD020020BE020020C0
:10369000BF020020C0020020C1020020FE480078C6
:1036A00098BBFE48007880BBFD48007868BBFD48A9
:1036B000007850BBFC48007838BBFC48007820BB41
:1036C000FB48007808BBFB480078F0B9FA4800785E
:1036D000D8B9FA480078C0B9F94800780C3800EB3E
:1036E000400101EBC000F74901EB80004078401E2B
:1036F000C1B2F34800780C3800EB400202EBC00086
:10370000F04A02EB80004170E1E3FFE7EC4800780B
:103710000C3800EB400101EBC000EA4901EB8000EE
:10372000407801287ED1E8480078012817D1E44884
:1037300000780C3800EB400101EBC000E14901EBDF
:1037400080004079401EC1B2DD4800780C3800EBA3
:10375000400202EBC000DB4A02EB80004171DA4814
:103760000078022817D1D64800780C3800EB4001C9
:1037700001EBC000D34901EB80008079401EC1B24B
:10378000CF4800780C3800EB400202EBC000CD4A75
:1037900002EB80008171CC480078032817D1C8481B
:1037A00000780C3800EB400101EBC000C54901EB8B
:1037B0008000007B401CC1B2C14800780C3800EB8F
:1037C000400202EBC000BF4A02EB80000173BE481A
:1037D0000078042819D1BA4800780C3800EB400171
:1037E00001EBC000B74901EB8000407B08B9012123
:1037F00000E00021B24800780C3800EB400202EBF8
:10380000C000B04A02EB80004173AD4800780C382C
:1038100000EB400101EBC000AA4901EB8000007BF6
:10382000042800E076E00BD10021A54800780C3890
:1038300000EB400202EBC000A24A02EB80000173E1
:10384000A1480078052817D19D4800780C3800EB76
:10385000400101EBC0009B4901EB80000089401E44
:1038600081B2974800780C3800EB400202EBC000B0
:10387000944A02EB8000018193480078062817D112
:103880008F4800780C3800EB400101EBC0008D49F7
:1038900001EB80004089401E81B2894800780C38D5
:1038A00000EB400202EBC000864A02EB800041813F
:1038B000834800780C3800EB400101EBC0008149DF
:1038C00001EB8000008901280BDC01217C48007895
:1038D0000C3800EB400202EBC0007A4A02EB800099
:1038E0000181774800780C3800EB400101EBC00003
:1038F000744901EB8000408901280BDC01217048EC
:1039000000780C3800EB400202EBC0006D4A02EB7D
:10391000800041816A4800780C3800EB400101EBDF
:10392000C000684901EB8000407802286FD16748E9
:103930000078012817D1624800780C3800EB40016C
:1039400001EBC0005F4901EB8000408A401E81B25C
:103950005B4800780C3800EB400202EBC000594A8B
:1039600002EB8000418259480078022817D1544860
:1039700000780C3800EB400101EBC000514901EB2D
:103980008000008A401E81B24D4800780C3800EB60
:10399000400202EBC0004B4A02EB80000182484823
:1039A00000780C3800EB400101EBC000454901EB09
:1039B0008000408A4FF6FF7188420CD142F20F71AD
:1039C0003F4800780C3800EB400202EBC0003D4A53
:1039D00002EB800041823A4800780C3800EB40014D
:1039E00001EBC000374901EB8000008A4FF6FF7100
:1039F00088420CD142F20F71314800780C3800EB4C
:103A0000400202EBC0002F4A02EB800001822C48EA
:103A100000780C3800EB400101EBC000294901EBB4
:103A20008000407803287CD129480078012817D1EC
:103A3000234800780C3800EB400101EBC00021491D
:103A400001EB80004079401EC1B21D4800780C385F
:103A500000EB400202EBC0001A4A02EB8000417109
:103A60001B480078022836D1154800780C3800EB46
:103A7000400101EBC000134901EB80008079401E3A
:103A8000C1B20F4800780C3800EB400202EBC000D6
:103A90000C4A02EB80001DE0B4020020B5020020B9
:103AA000B6020020B7020020B8020020B9020020B0
:103AB000BA020020BB020020BC020020BD02002090
:103AC000FE030020D4000020BE020020BF02002020
:103AD000C00200208171FE480078032817D1FD48FC
:103AE00000780C3800EB400101EBC000FA4901EB13
:103AF0008000007B401CC1B2F64800780C3800EB17
:103B0000400202EBC000F44A02EB80000173F0486F
:103B1000007804281BD1EF4800780C3800EB4001F6
:103B200000E09DE001EBC000EB4901EB8000407B31
:103B300008B9012100E00021E64800780C3800EBCC
:103B4000400202EBC000E44A02EB80004173E1480E
:103B500000780C3800EB400101EBC000DE4901EBBE
:103B60008000007B04280BD10021DA4800780C3853
:103B700000EB400202EBC000D74A02EB8000017369
:103B8000D3480078052817D1D24800780C3800EBCC
:103B9000400101EBC000D04901EB8000408A401E8B
:103BA00081B2CC4800780C3800EB400202EBC00038
:103BB000C94A02EB80004182C5480078062817D127
:103BC000C44800780C3800EB400101EBC000C2494A
:103BD00001EB8000008A401E81B2BE4800780C389C
:103BE00000EB400202EBC000BB4A02EB8000018206
:103BF000B84800780C3800EB400101EBC000B64932
:103C000001EB8000408A4FF6FF7188420CD142F2EE
:103C10000F71B04800780C3800EB400202EBC00096
:103C2000AD4A02EB80004182AA4800780C3800EBD4
:103C3000400101EBC000A84901EB8000008A4FF66B
:103C4000FF7188420CD142F20F71A24800780C3803
:103C500000EB400202EBC0009F4A02EB80000182B1
:103C60009C4800780C3800EB400101EBC0009A49F9
:103C700001EB8000407804287DD19848007800E06E
:103C8000FEE3012817D1934800780C3800EB40017F
:103C900001EBC000904901EB8000C07D401EC1B225
:103CA0008C4800780C3800EB400202EBC0008A4AD6
:103CB00002EB8000C17589480078022817D1854839
:103CC00000780C3800EB400101EBC000824901EBA9
:103CD0008000007E401EC1B27E4800780C3800EBA8
:103CE000400202EBC0007C4A02EB800001767B4878
:103CF0000078032817D1774800780C3800EB400192
:103D000001EBC000744901EB8000407E401EC1B24F
:103D1000704800780C3800EB400202EBC0006E4A9D
:103D200002EB800041766D480078042819D169487B
:103D300000780C3800EB400101EBC000664901EB54
:103D40008000807E08B9012100E0002161480078F0
:103D50000C3800EB400202EBC0005F4A02EB80002F
:103D600081765E480078052819D15A4800780C38C9
:103D700000EB400100E06CE301EBC000564901EBB1
:103D80008000C07E401EC1B2524800780C3800EB63
:103D9000400202EBC000504A02EB8000C1764F485F
:103DA0000078062817D14B4800780C3800EB40010A
:103DB00001EBC000484901EB8000007F401EC1B20A
:103DC000444800780C3800EB400202EBC000424A45
:103DD00002EB8000017741480078072817D13D4861
:103DE00000780C3800EB400101EBC0003A4901EBD0
:103DF0008000407F401EC1B2364800780C3800EB8E
:103E0000400202EBC000344A02EB800041773348A5
:103E10000078082819D12F4800780C3800EB4001B1
:103E200001EBC0002C4901EB8000807F08B9012123
:103E300000E00021274800780C3800EB400202EB3C
:103E4000C000254A02EB80008177244800780928C9
:103E500017D1204800780C3800EB400101EBC0007E
:103E60001D4901EB8000C07F401EC1B21948007897
:103E70000C3800EB400202EBC000174A02EB800056
:103E8000C177164800780A2819D1124800780C38F2
:103E900000EB400101EBC0000F4901EB800090F8FE
:103EA0002000401EC1B20B4800780C3800EB4002E5
:103EB00002EBC000084A02EB800080F8201007489F
:103EC00000780B2823D1034800780C3808E0DBE2A7
:103ED000C0020020FE030020D4000020C102002008
:103EE00000EB400101EBC000FE4901EB800090F8BF
:103EF0002100401EC1B2FC4800780C3800EB4002A3
:103F000002EBC000F74A02EB800080F82110F7486E
:103F100000780C281BD1F44800780C3800EB4001E5
:103F200001EBC000EF4901EB800090F8220008B9D6
:103F3000012100E00021EC4800780C3800EB400241
:103F400002EBC000E74A02EB800080F82210E7484D
:103F500000780D2819D1E44800780C3800EB4001B6
:103F600001EBC000DF4901EB800090F82300401E08
:103F7000C1B2DD4800780C3800EB400202EBC00013
:103F8000D84A02EB800080F82310D84800780E2829
:103F900019D1D54800780C3800EB400101EBC00086
:103FA000D04901EB800090F82400401EC1B2CE48F9
:103FB00000780C3800EB400202EBC000C94A02EB6B
:103FC000800080F82410C94800780F2819D1C6480D
:103FD00000780C3800EB400101EBC000C14901EB57
:103FE000800090F82500401EC1B2BF4800780C3810
:103FF00000EB400202EBC000BA4A02EB800080F8FE
:104000002510BA48007810281BD1B74800780C3822
:1040100000EB400101EBC000B24901EB800090F8D9
:10402000260008B9012100E00021AF4800780C38D3
:1040300000EB400202EBC000AA4A02EB800080F8CD
:104040002610AA480078112819D1A74800780C3802
:1040500000EB400101EBC000A24901EB800090F8A9
:104060002700401EC1B2A04800780C3800EB400287
:1040700002EBC0009B4A02EB800080F827109B48AF
:104080000078122819D1984800780C3800EB4001CC
:1040900001EBC000934901EB800090F82800401E1E
:1040A000C1B2914800780C3800EB400202EBC0002E
:1040B0008C4A02EB800080F828108C480078132886
:1040C00019D1894800780C3800EB400101EBC000A1
:1040D000844901EB800090F82900401EC1B282485B
:1040E00000780C3800EB400202EBC0007D4A02EB86
:1040F000800080F829107D48007814281BD17A4868
:1041000000780C3800EB400101EBC000754901EB71
:10411000800090F82A0008B9012100E000217248CF
:1041200000780C3800EB400202EBC0006D4A02EB55
:10413000800080F82A106C4800780C3800EB4001B1
:1041400001EBC000674901EB8000C07DFF280BD167
:104150001721654800780C3800EB400202EBC000E4
:10416000604A02EB8000C1755F4800780C3800EBB4
:10417000400101EBC0005B4901EB8000007EFF289D
:104180000BD13C21584800780C3800EB400202EB80
:10419000C000544A02EB80000176534800780C3886
:1041A00000EB400101EBC0004E4901EB8000407E76
:1041B000FF280BD13C214C4800780C3800EB400222
:1041C00002EBC000474A02EB800041764648007887
:1041D0000C3800EB400101EBC000424901EB8000CC
:1041E000C07EFF280BD117213F4800780C3800EB28
:1041F000400202EBC0003B4A02EB8000C1763A4825
:1042000000780C3800EB400101EBC000354901EBB0
:104210008000007FFF280BD13C21334800780C3808
:1042200000EB400202EBC0002E4A02EB8000017757
:104230002D4800780C3800EB400101EBC000294903
:1042400001EB8000407FFF280BD13C2126480078FD
:104250000C3800EB400202EBC000224A02EB800067
:104260004177214800780C3800EB400101EBC00099
:104270001C4901EB8000C07FFF280BD117211A4891
:1042800000780C3800EB400202EBC000154A02EB4C
:104290008000C177144800780C3800EB400101EB36
:1042A000C000104901EB800090F82000FF280CD1DD
:1042B0003C210D4800780C3800EB400202EBC000B6
:1042C000084A02EB800080F82010074800780C387C
:1042D00000EB400101EBC000024901EB800090F8C7
:1042E000210005E0D4000020FE030020C1020020D0
:1042F000FF280CD13C21FE4800780C3800EB40022E
:1043000002EBC000FB4A02EB800080F82110F84865
:1043100000780C3800EB400101EBC000F54901EBDF
:10432000800090F82300FF280CD11721F048007876
:104330000C3800EB400202EBC000EE4A02EB8000BA
:1043400080F82310EA4800780C3800EB400101EBBC
:10435000C000E84901EB800090F82400FF280CD150
:104360003C21E34800780C3800EB400202EBC0002F
:10437000E04A02EB800080F82410DD4800780C3819
:1043800000EB400101EBC000DA4901EB800090F83E
:104390002500FF280CD13C21D54800780C3800EBD3
:1043A000400202EBC000D34A02EB800080F82510E7
:1043B000CF4800780C3800EB400101EBC000CD493C
:1043C00001EB800090F82700FF280CD11721C84886
:1043D00000780C3800EB400202EBC000C54A02EB4B
:1043E000800080F82710C24800780C3800EB4001AC
:1043F00001EBC000BF4901EB800090F82800FF28C6
:104400000CD13C21BA4800780C3800EB400202EB9A
:10441000C000B84A02EB800080F82810B448007849
:104420000C3800EB400101EBC000B24901EB800009
:1044300090F82900FF280CD13C21AD4800780C38B9
:1044400000EB400202EBC000AA4A02EB800080F8B9
:104450002910A74800780C3800EB400101EBC000A0
:10446000A44901EB8000807900280DDA0021A048E2
:1044700000780C3800EB400202EBC0009D4A00E0DF
:104480001DE002EB80008171994800780C3800EB48
:10449000400101EBC000974901EB80004078FF2804
:1044A0000BD10421924800780C3800EB400202EB5B
:1044B000C000904A02EB8000417000E000BF03E0C2
:1044C0008D4800788A4908708C480078002841F0AF
:1044D000CA818B4800780028F9D18A4800780028E2
:1044E000F5D1894800780028F1D188480078002863
:1044F000EDD1874800780028E9D186480078002867
:10450000E5D1854800780028E1D18448007800286A
:10451000DDD1834800780028D9D101208149087075
:104520008149087081490870814908708149087083
:104530008149087081490870814908708149087073
:10454000814908706A4800780C3800EB400101EBA3
:10455000C000684901EB80004078052881F0818126
:10456000DFE800F00313F6F5F4005C222321A0201D
:1045700011F0C6F85A222321C02011F0C1F85B22A5
:104580002321E02011F0BCF8FEE3594800780C38F4
:1045900000EB400101EBC000564901EB800040797F
:1045A0001090534800780C3800EB400101EBC0003C
:1045B000504901EB800080790F904D4800780C380D
:1045C00000EB400101EBC0014A4800EB810000898B
:1045D0000E90474800780C3800EB400101EBC00119
:1045E000444800EB810040890D9027222321A02020
:1045F00011F086F80A222321C02011F081F826222A
:104600002321E02011F07CF829224321062011F01B
:1046100077F82A224321262011F072F8272243211D
:10462000462011F06DF82C224321662011F068F825
:1046300029226721062011F063F82B22672126200A
:1046400011F05EF827226721462011F059F82C223C
:104650006721662011F054F832228B21062011F0D8
:104660004FF833228B21262011F04AF834228B2177
:10467000462011F045F835228B21662011F040F8D4
:1046800036228B21862011F03BF82C228B21A6208C
:1046900011F036F83722AF21062011F031F8382218
:1046A000AF21262011F02CF83922AF21462011F03D
:1046B00027F83A22AF21662011F022F82C22AF21F0
:1046C000862011F01DF86922D321062011F018F878
:1046D0006A22D321262011F013F82922D321462063
:1046E00011F00EF82A22D321662011F009F830E0EB
:1046F000FE030020D4000020A1020020B40200200C
:10470000B5020020B6020020B7020020B802002047
:10471000B9020020BA020020BB020020BC02002027
:10472000BD020020AA020020AB020020AC02002043
:10473000AD020020AE020020AF020020B002002037
:10474000B1020020B2020020B3020020FEE369E2C1
:104750007AE15822D321862010F0D2FF2C22D321D7
:10476000A62010F0CDFF6922F721062010F0C8FF27
:104770006A22F721262010F0C3FF2922F7214620C4
:1047800010F0BEFF2B22F721662010F0B9FF58224F
:10479000F721862010F0B4FF2C22F721A62010F07C
:1047A000AFFF0A21109890FBF1F0C0B202900020F8
:1047B0004FF6FF73009043218620029A10F064FFA9
:1047C0000A21109890FBF1F201FB1200C0B2029096
:1047D00000204FF6FF73009043219620029A10F0BC
:1047E00053FF0A210F9890FBF1F0C0B20290002015
:1047F0004FF6FF73009067218620029A10F044FF65
:104800000A210F9890FBF1F201FB1200C0B2029056
:1048100000204FF6FF73009067219620029A10F057
:1048200033FFFE4800780C3800EB400101EBC0007C
:10483000FB4901EB8000007BA8B927228B21C72010
:1048400010F05EFF42228B21E72010F059FF3F223B
:104850008B2140F2071010F053FF26228B2140F2EB
:10486000271010F04DFFED4800780C3800EB4001A8
:1048700001EBC000EA4901EB8000007B012815D163
:1048800027228B21C72010F03BFF42228B21E720FB
:1048900010F036FF40228B2140F2071010F030FF5D
:1048A00026228B2140F2271010F02AFFDB480078E7
:1048B0000C3800EB400101EBC001D94800EB81004E
:1048C000007B022815D127228B21C72010F018FF6A
:1048D00042228B21E72010F013FF41228B2140F26E
:1048E000071010F00DFF26228B2140F2271010F048
:1048F00007FFCA4800780C3800EB400101EBC0000C
:10490000C74901EB8000007B032815D143228B218E
:10491000C72010F0F5FE44228B21E72010F0F0FEB6
:1049200027228B2140F2071010F0EAFE42228B2151
:1049300040F2271010F0E4FEB84800780C3800EB85
:10494000400101EBC000B64901EB8000407B50B153
:104950003D22AF21A72010F0D3FE3E22AF21C72079
:1049600010F0CEFE09E03B22AF21A72010F0C8FED8
:104970003C22AF21C72010F0C3FE64210E9890FBAB
:10498000F1F0C0B2029000204FF6FF730090D321E7
:10499000C820029A10F078FE0A210E9890FBF1F0E0
:1049A00090FBF1F201FB1200C0B2029000204FF622
:1049B000FF730090D321D820029A10F065FE0A21DF
:1049C0000E9890FBF1F201FB1200C0B202900020A1
:1049D0004FF6FF730090D321E820029A10F054FEA6
:1049E00064210D9890FBF1F0C0B2029000204FF6C8
:1049F000FF730090F721C820029A10F045FE0A21AB
:104A00000D9890FBF1F090FBF1F201FB1200C0B2A7
:104A1000029000204FF6FF730090F721D820029AF1
:104A200010F032FE0A210D9890FBF1F201FB12000A
:104A3000C0B2029000204FF6FF730090F721E820EB
:104A4000029A10F021FE9FE5744800780C3800EBC4
:104A5000400101EBC000724901EB8000408A0C90DC
:104A60006E4800780C3800EB400101EBC0006C4947
:104A700001EB8000008A0B9012222321A02010F06D
:104A80003FFE0A222321C02010F03AFE26222321D5
:104A9000E02010F035FE30224321062010F030FED9
:104AA00031224321262010F02BFE122243214620E2
:104AB00010F026FE13224321662010F021FE2C2246
:104AC0004321862010F01CFE2E228B21062010F0A0
:104AD00017FE2F228B21262010F012FE12228B218E
:104AE000462010F00DFE13228B21662010F008FEE8
:104AF0002C228B21862010F003FE4FF47A710C9843
:104B000090FBF1F0C0B2029000204FF6FF730090CE
:104B10004321A620029A10F0B7FD64210C9890FB67
:104B2000F1F00A2190FBF1F201FB1200C0B20290F9
:104B300000204FF6FF7300904321B620029A10F038
:104B4000A3FD0A210C9890FBF1F090FBF1F201FB20
:104B50001200C0B2029000204FF6FF730090432174
:104B6000C620029A10F090FD0A210C9890FBF1F2F9
:104B700001FB1200C0B2029000204FF6FF730090BC
:104B80004321D620029A10F07FFD4FF47A710B98E2
:104B900090FBF1F0C0B2029000204FF6FF7300903E
:104BA0008B21A620029A10F06FFD64210B9890FBD8
:104BB000F1F00A2190FBF1F201FB1200C0B2029069
:104BC00000204FF6FF7300908B21B620029A10F060
:104BD0005BFD0A210B9890FBF1F090FBF1F201FBD9
:104BE0001200C0B2029000204FF6FF7300908B219C
:104BF000C620029A10F048FD0A210B9890FBF1F2B2
:104C000001FB1200C0B2029000204FF6FF7300902B
:104C10008B21D620029A10F037FDB5E4FE03002068
:104C2000D4000020FE4800780C3800EB400101EB76
:104C3000C000FC4901EB800040790A90F8480078F8
:104C40000C3800EB400101EBC000F64901EB80009D
:104C500080790990F24800780C3800EB400101EBB4
:104C6000C001F04800EB8100408A0890EC480078D1
:104C70000C3800EB400101EBC000EA4901EB800079
:104C8000008A079027222321A02010F039FD12224C
:104C90002321C02010F034FD0A222321E02010F04F
:104CA0002FFD29224321062010F02AFD2A2243212C
:104CB000262010F025FD27224321462010F020FD5C
:104CC0002C224321662010F01BFD2922672106209B
:104CD00010F016FD2B226721262010F011FD27224F
:104CE0006721462010F00CFD2C226721662010F071
:104CF00007FD32228B21062010F002FD33228B218A
:104D0000262010F0FDFC34228B21462010F0F8FC08
:104D100035228B21662010F0F3FC36228B21862071
:104D200010F0EEFC2C228B21A62010F0E9FC37229B
:104D3000AF21062010F0E4FC3822AF21262010F02D
:104D4000DFFC3922AF21462010F0DAFC3A22AF21F5
:104D5000662010F0D5FC2C22AF21862010F0D0FC6C
:104D60000A210A9890FBF1F0C0B2029000204FF6A1
:104D7000FF73009043218620029A10F085FC0A21DF
:104D80000A9890FBF1F200E0FDE301FB1200C0B2D3
:104D9000029000204FF6FF73009043219620029A64
:104DA00010F072FC0A21099890FBF1F0C0B2029059
:104DB00000204FF6FF73009067218620029A10F0C2
:104DC00063FC0A21099890FBF1F201FB1200C0B2CA
:104DD000029000204FF6FF73009067219620029A00
:104DE00010F052FC8E4800780C3800EB400101EBCB
:104DF000C0008C4901EB8000007BA8B927228B21E1
:104E0000C72010F07DFC42228B21E72010F078FCB7
:104E10003F228B2140F2071010F072FC26228B21DA
:104E200040F2271010F06CFC7D4800780C3800EB45
:104E3000400101EBC0007B4901EB8000007B0128B1
:104E400015D127228B21C72010F05AFC42228B213A
:104E5000E72010F055FC40228B2140F2071010F0A3
:104E60004FFC26228B2140F2271010F049FC6C48A1
:104E700000780C3800EB400101EBC000694901EB00
:104E80008000007B022815D127228B21C72010F03B
:104E900037FC42228B21E72010F032FC41228B218B
:104EA00040F2071010F02CFC26228B2140F2271034
:104EB00010F026FC5A4800780C3800EB400101EB5A
:104EC000C000584901EB8000007B032815D1432224
:104ED0008B21C72010F014FC44228B21E72010F016
:104EE0000FFC27228B2140F2071010F009FC422210
:104EF0008B2140F2271010F003FC494800780C3851
:104F000000EB400101EBC000464901EB8000407B13
:104F100050B13D22AF21A72010F0F2FB3E22AF217D
:104F2000C72010F0EDFB09E03B22AF21A72010F0D5
:104F3000E7FB3C22AF21C72010F0E2FB3022D32157
:104F4000062010F0DDFB3122D32100E0C0E0262056
:104F500010F0D6FB1222D321462010F0D1FB1322F1
:104F6000D321662010F0CCFB2C22D321862010F018
:104F7000C7FB2E22F721062010F0C2FB2F22F721BB
:104F8000262010F0BDFB1222F721462010F0B8FBBE
:104F90001322F721662010F0B3FB2C22F721862084
:104FA00010F0AEFB4FF47A71089890FBF1F0C0B2AC
:104FB000029000204FF6FF730090D321A620029AA2
:104FC00010F062FB6421089890FBF1F00A2190FB3D
:104FD000F1F201FB1200C0B2029000204FF6FF7305
:104FE0000090D321B620029A10F04EFB0A210898B7
:104FF00090FBF1F090FBF1F201FB1200C0B20290C5
:1050000000204FF6FF730090D321C620029A10F0C3
:105010003BFB0A21089890FBF1F201FB120003E030
:10502000FE030020D4000020C0B2029000204FF602
:10503000FF730090D321D620029A10F025FB4FF485
:105040007A71079890FBF1F0C0B2029000204FF601
:10505000FF730090F721A620029A10F015FB64213F
:10506000079890FBF1F00A2190FBF1F201FB12008E
:10507000C0B2029000204FF6FF730090F721B620D7
:10508000029A10F001FB0A21079890FBF1F090FBC7
:10509000F1F201FB1200C0B2029000204FF6FF7344
:1050A0000090F721C620029A10F0EEFA0A21079824
:1050B00090FBF1F201FB1200C0B2029000204FF60B
:1050C000FF730090F721D620029A10F0DDFAC9E3B1
:1050D00000200390049005900690FD4800780C385D
:1050E00000EB400101EBC000FA4901EB8000C07DFC
:1050F0008DF80C00F64800780C3800EB400101EB0D
:10510000C000F44901EB8000007E8DF80D00F048EE
:1051100000780C3800EB400101EBC000ED4901EBD9
:105120008000407E8DF80E00E94800780C3800EBD6
:10513000400101EBC000E74901EB8000C07E8DF823
:105140000F00E34800780C3800EB400101EBC00091
:10515000E04901EB8000017F8DF81010DC480078F9
:105160000C3800EB400101EBC000DA4901EB800094
:10517000417F8DF81110D64800780C3800EB4001C3
:1051800001EBC000D34901EB8000C07F8DF8120015
:10519000CF4800780C3800EB400101EBC000CD494E
:1051A00001EB800090F820108DF81310C8480078AB
:1051B0000C3800EB400101EBC000C64901EB800058
:1051C00090F821108DF81410C14800780C3800EBCD
:1051D000400101EBC000BF4901EB800090F82300C3
:1051E0008DF81500BA4800780C3800EB400101EB4F
:1051F000C000B84901EB800090F824108DF816101B
:10520000B34800780C3800EB400101EBC000B14915
:1052100001EB800090F825108DF81710AC4800784D
:105220000C3800EB400101EBC000AA4901EB800003
:1052300090F827008DF81800A54800780C3800EB8E
:10524000400101EBC000A34901EB800090F8281059
:105250008DF819109E4800780C3800EB400101EBE6
:10526000C0009C4901EB800090F829108DF81A10BD
:1052700028222321A02010F043FA12222321C0204B
:1052800010F03EFA0A222321E02010F039FA4E22D3
:105290004321002010F034FA122243216C2010F038
:1052A0002FFA28224321B42010F02AFA4522432164
:1052B000FC2010F025FA9DF80C000A2190FBF1F07B
:1052C000C0B2029000204FF6FF73009043214820A7
:1052D000029A10F0D9F99DF80C000A2190FBF1F226
:1052E00001FB1200C0B2029000204FF6FF73009045
:1052F00043215820029A10F0C7F99DF80D000A21A9
:1053000090FBF1F0C0B2029000204FF6FF730090C6
:1053100043219020029A10F0B7F99DF80D000A2160
:1053200090FBF1F201FB1200C0B2029000204FF698
:10533000FF7300904321A020029A10F0A5F99DF878
:105340000E000A2190FBF1F0C0B2029000204FF64F
:10535000FF7300904321D820029A10F095F99DF830
:105360000E000A2190FBF1F201FB1200C0B2029084
:1053700000204FF6FF7300904321E820029A10F0BE
:1053800083F9534800780C3800EB400101EBC00072
:10539000504901EB8000807E30B14622432140F22B
:1053A0003B1010F0ADF905E04722432140F23B10DD
:1053B00010F0A6F94F226721002010F0A1F9122267
:1053C00067216C2010F09CF928226721B42010F08E
:1053D00097F945226721FC2010F092F99DF80F0003
:1053E0000A2190FBF1F0C0B2029000204FF6FF734B
:1053F000009067214820029A10F046F99DF80F00AE
:105400000A2190FBF1F201FB1200C0B202900020D1
:105410004FF6FF73009067215820029A10F034F97C
:105420009DF810000A2190FBF1F0C0B2029000201C
:105430004FF6FF73009067219020029A10F024F934
:105440009DF810000A2190FBF1F201FB1200C0B29E
:10545000029000204FF6FF7300906721A020029A6F
:1054600010F012F99DF811000A2190FBF1F0C0B282
:10547000029000204FF6FF7300906721D820029A17
:1054800010F002F99DF811000A2190FBF1F201FBE6
:105490001200C0B2029000204FF6FF730090672107
:1054A000E820029A10F0F0F8094800780C3800EB78
:1054B000400101EBC000074901EB8000807F58B13B
:1054C0004622672140F23B1010F01AF90AE0000072
:1054D000FE030020D40000204722672140F23B1049
:1054E00010F00EF950228B21002010F009F9122241
:1054F0008B216C2010F004F928228B21B42010F0AD
:10550000FFF845228B21FC2010F0FAF89DF81200DC
:105510000A2190FBF1F0C0B2029000204FF6FF7319
:1055200000908B214820029A10F0AEF89DF81200EE
:105530000A2190FBF1F201FB1200C0B202900020A0
:105540004FF6FF7300908B215820029A10F09CF8C0
:105550009DF813000A2190FBF1F0C0B202900020E8
:105560004FF6FF7300908B219020029A10F08CF878
:105570009DF813000A2190FBF1F201FB1200C0B26A
:105580000290002000E06DE14FF6FF7300908B2148
:10559000A020029A10F078F89DF814000A2190FBE0
:1055A000F1F0C0B2029000204FF6FF7300908B2103
:1055B000D820029A10F068F89DF814000A2190FB98
:1055C000F1F201FB1200C0B2029000204FF6FF730F
:1055D00000908B21E820029A10F056F8FE480078DF
:1055E0000C3800EB400101EBC000FC4901EB8000EE
:1055F00090F8220030B146228B2140F23B1010F08F
:105600007FF805E047228B2140F23B1010F078F83C
:105610005122AF21002010F073F81222AF216C202C
:1056200010F06EF82822AF21B42010F069F845225E
:10563000AF21FC2010F064F89DF815000A2190FBC2
:10564000F1F0C0B2029000204FF6FF730090AF213E
:105650004820029A10F018F89DF815000A2190FBD6
:10566000F1F201FB1200C0B2029000204FF6FF736E
:105670000090AF215820029A10F006F89DF816000D
:105680000A2190FBF1F0C0B2029000204FF6FF73A8
:105690000090AF219020029A0FF0F6FF9DF81600BF
:1056A0000A2190FBF1F201FB1200C0B2029000202F
:1056B0004FF6FF730090AF21A020029A0FF0E4FF95
:1056C0009DF817000A2190FBF1F0C0B20290002073
:1056D0004FF6FF730090AF21D820029A0FF0D4FF4D
:1056E0009DF817000A2190FBF1F201FB1200C0B2F5
:1056F000029000204FF6FF730090AF21E820029A3D
:105700000FF0C2FFB44800780C3800EB400101EB09
:10571000C000B24901EB800090F8260030B146226B
:10572000AF2140F23B100FF0EBFF05E04722AF2125
:1057300040F23B100FF0E4FF5222D32100200FF083
:10574000DFFF1222D3216C200FF0DAFF2822D321B1
:10575000B4200FF0D5FF4522D321FC200FF0D0FF5D
:105760009DF818000A2190FBF1F0C0B202900020D1
:105770004FF6FF730090D3214820029A0FF084FF68
:105780009DF818000A2190FBF1F201FB1200C0B253
:10579000029000204FF6FF730090D3215820029A08
:1057A0000FF072FF9DF819000A2190FBF1F0C0B2D2
:1057B000029000204FF6FF730090D3219020029AB0
:1057C0000FF062FF9DF819000A2190FBF1F201FB36
:1057D0001200C0B2029000204FF6FF730090D32158
:1057E000A020029A0FF050FF9DF81A000A2190FBAA
:1057F000F1F0C0B2029000204FF6FF730090D32169
:10580000D820029A0FF040FF9DF81A000A2190FB61
:10581000F1F201FB1200C0B2029000204FF6FF73BC
:105820000090D321E820029A0FF02EFF6A480078FA
:105830000C3800EB400101EBC000684901EB80002F
:1058400090F82A0030B14622D32140F23B100FF0ED
:1058500057FF05E04722D32140F23B100FF050FFE5
:1058600000E000BF14E000205D4908705D49087049
:105870005D4908705D4908705D4908705D490870B0
:105880005D4908705D4908705D4908705D490870A0
:105890005D480078D0B95D480078B8B95C480078B8
:1058A000A0B95C48007888B95B48007870B95B485B
:1058B000007858B95A48007840B95A48007828B951
:1058C0005948007810B959480078D0B1424800785A
:1058D0000C3800EB400101EBC000404901EB8000B7
:1058E000407870B95C222321A0200FF009FF5A22D2
:1058F0002321C0200FF004FF5B222321E0200FF0C2
:10590000FFFE41480078D8B940480078C0B9404807
:105910000078A8B93F48007890B93F48007878B936
:105920003E48007860B93E48007848B93D48007864
:1059300030B93D48007818B93C48007800284AD072
:10594000254800780C3800EB400101EBC0002349EA
:1059500001EB8000407801283DD11F4800780C38C9
:1059600000EB400101EBC0001C4901EB80004079D5
:105970001090194800780C3800EB400101EBC00092
:10598000164901EB800080790F90134800780C389D
:1059900000EB400101EBC000104901EB80000089E1
:1059A0000E900D4800780C3800EB400101EBC00070
:1059B0000A4901EB800040890D9027222321A02075
:1059C0000FF09EFE0A222321C0200FF099FE26220E
:1059D0002321E0202CE0FDE3FE030020D400002082
:1059E000AA020020AB020020AC020020AD02002081
:1059F000AE020020AF020020B0020020B102002061
:105A0000B2020020B3020020B4020020B502002040
:105A1000B6020020B7020020B8020020B902002020
:105A2000BA020020BB020020BC020020BD02002000
:105A30000FF066FE2922432106200FF061FE2A2284
:105A4000432126200FF05CFE2722432146200FF041
:105A500057FE2C22432166200FF052FE2922672197
:105A600006200FF04DFE2B22672126200FF048FE66
:105A70002722672146200FF043FE2C226721662053
:105A80000FF03EFE32228B2106200FF039FE33222A
:105A90008B2126200FF034FE34228B2146200FF07C
:105AA0002FFE35228B2166200FF02AFE36228B2115
:105AB00086200FF025FE2C228B21A6200FF020FE41
:105AC0003722AF2106200FF01BFE3822AF212620FF
:105AD0000FF016FE3922AF2146200FF011FE3A22B8
