:020000040800F2
:10000000283200200101000869D4000805B6000864
:1000100065D400087DA000081F0E01080000000044
:1000200000000000000000000000000089E200085D
:1000300051A7000800000000FDD400089DE300085F
:100040001B0100081B0100081B01000811D9000852
:100050001B0100081B0100081B0100081B01000810
:100060001B0100081B0100081B0100081B01000800
:100070001B0100081B01000881A000081B010008EB
:100080001B0100081B0100081B0100081B010008E0
:100090001B0100081B0100081B0100081B010008D0
:1000A0001B01000865E400081B0100081B01000893
:1000B00021E9000841ED0008D9F400081B010008FF
:1000C0001B0100081B0100081B0100081B010008A0
:1000D0001B010008AD0A01081B010008110B0108F3
:1000E0001B0100081B0100081B010008DFF80CD0F1
:1000F00000F070FD00480047C92D0108283200209B
:100100000648804706480047FEE7FEE7FEE7FEE7B1
:10011000FEE7FEE7FEE7FEE7FEE7FEE7A1E30008F5
:10012000ED00000830B50B460146002020220124D6
:1001300009E021FA02F59D4205D303FA02F5491BB5
:1001400004FA02F52844151EA2F10102F1DC30BDCB
:1001500010B5431A934209D28318881803E010F8A7
:10016000011D03F8011D521EF9D210BD40EA010322
:100170009B0703D009E008C9121F08C0042AFAD25D
:1001800003E011F8013B00F8013B521EF9D210BD0B
:10019000D2B201E000F8012B491EFBD270470022C9
:1001A000F6E710B513460A4604461946FFF7F0FF76
:1001B000204610BD30B505462A460B4612F8010B05
:1001C00013F8014B08B1A042F8D01CB1002802D0AE
:1001D0006D1CF1E7284630BD10B5044604E00B78ED
:1001E00000F8013B03B1491C521EF8D2204610BD55
:1001F000421C10F8011B0029FBD1801A704710B572
:10020000002200E0521C835C8C5CA34201D1002BD5
:10021000F8D1D8B2E1B2401A10BDCBB203E00178F8
:10022000994203D0401C521EF9D20020704730B5CD
:1002300004460020034600E05B1C934203D2E05CCE
:10024000CD5C401BF8D030BD034611F8012B00F8FF
:10025000012B002AF9D11846704700F09FBBF0B47B
:1002600080EA0102D40F4200B2EB410F02D20246F3
:10027000084611464A0042D0C30DDDB2C1F3C75251
:10028000AD1A202D35DAC1F3160141F4000204B194
:100290005242C5F1200602FA06F12A411044B3EB9E
:1002A000D05F23D0C4B1012DA0EBC35009DCF0BC5A
:1002B0004FF0004202EAC352DBB200F5000000F04A
:1002C000BEBB400000F1807000EBC350A0F1807015
:1002D00040EAD170490009E0490841EAC071A0EB49
:1002E000C35000F50000400800EBC350F0BC00F024
:1002F0009DBB6142012202EB4101001BF6E7F0BC0D
:10030000704781F00041AAE780F00040A7E780EA4B
:10031000010210B502F00043400022D04A001FD075
:10032000010E01EB1261C0F35600C2F3560240F415
:10033000000042F40002A0FB022000047F391404F4
:1003400000D0401C50EA124001D44000491EC2B205
:100350000C0604EBD010401C4008802A02D003E0B9
:10036000002010BD20F00100002900DA0020184311
:1003700010BD30B480EA010202F0004530F00042C6
:1003800021F0004013D090B1C30DD40DC2F316017B
:10039000C0F31600E41A41F4000140F400027D3479
:1003A000914201D3641C00E04900002C02DA30BC09
:1003B000002070474FF400000023914201D3891AB6
:1003C000034340084FEA4101F7D151B1914202D1B4
:1003D0004FF0004105E002D24FF0010101E06FF063
:1003E000010103EBC450284430BC00F01FBB2DE9D1
:1003F000FE4F804681EA0300C00F0C46009021F0BA
:10040000004123F00045B8EB0200A94105D2404667
:10041000214690461C460B46024623F000401043FE
:1004200047D0270DC7F30A00C3F30A510290401AC0
:10043000019040286BDAC3F3130040F4801B00984E
:10044000924620B10023D2EB030A63EB0B0B019819
:100450005946C0F14002504600F031FA06460D46BA
:1004600050465946019A00F039FA10EB08006141F4
:10047000002487EA115284EAE7731A4340D0009AB5
:1004800062B3019A012A4FEA075215DC001B61EBA7
:1004900002014FF0004202EA0752CDE90042001C7F
:1004A00041F5801132462B4600F006FB03B0BDE853
:1004B000F08F40462146F9E7001B61EB0201001C6A
:1004C00041F5801300185B412018A2F5001747EB97
:1004D000030140EAD570B6196D4111E06D084FEA8D
:1004E000360645EAC0754FEA0752001B61EB020170
:1004F000001C41F5801149084FEA300000195141B4
:1005000032462B4603B0BDE8F04F00F0C6BA009863
:10051000012240000023D0EB020263EBE07300985D
:1005200021464FEAE074B8EB000061EB0401E9E713
:1005300083F000435BE781F0004158E72DE9FE4F6F
:1005400081EA030404F0004421F0004100944FF0DC
:10055000000B23F0004350EA01045ED052EA03048A
:100560005BD0C3F30A54C1F30A552C44A4F2F3340C
:100570000194A0FB0254C1F3130141F48011C3F3B1
:10058000130343F4801301FB024400FB034E840A6F
:10059000970A44EA815447EA8357A4FB0768029507
:1005A0008D0A05FB07854FEA932C04FB0C542705A5
:1005B000029D4FEA065847EA1637B5EB08056EEB81
:1005C000070C870E920E47EA811742EA8312A7FBB7
:1005D0000201B6EB0B0164EB00042B0D43EA0C3374
:1005E0005E1844EB1C50DA465146E7FB0201C5F3A6
:1005F00013044FEA0B3343EA14534FEA0432019CCD
:1006000043EA0603A4F10C040294009CCDE900B473
:1006100000F052FA03B0BDE8F08F00200146F9E780
:100620002DE9F04D81EA030404F0004B21F0004570
:1006300014464FF0000A23F0004150EA050220D092
:1006400054EA01021DD0C5F30A570246C5F313034D
:10065000C1F31300C1F30A5640F4801543F480132C
:10066000A7EB0608101BD64608F2FD3873EB050011
:1006700002D308F1010801E092185B41B8F1000FC4
:1006800003DA00200146BDE8F08D00204FF4801110
:10069000064684460EE0171B73EB050705D3121BB5
:1006A00063EB050306434CEA010C49084FEA3000AE
:1006B00092185B4150EA0107EDD152EA030012D0D3
:1006C00082EA040083EA0501084305D0101BAB4110
:1006D00006D20122002306E000224FF0004302E090
:1006E0006FF0010253101AEB06004CEB085110EBAF
:1006F0000A0041EB0B01BDE8F04D00F0CEB9C10F8F
:1007000080EAE0700844CA079623002100F097B9F8
:1007100096230022114600F092B900F0004220F02A
:100720000040C10DC0F3160040F400007F2901DA3B
:1007300000207047962903DCC1F19601C84001E012
:1007400096398840002AF4D04042704720F000409B
:10075000C10DC0F3160040F400007F2901DA00202B
:100760007047962903DCC1F19601C840704796395D
:100770008840704700F0004230F000400AD0C10DC0
:1007800001F56071C0F3160042EA0151C20840074A
:1007900011437047002001467047000030B5041E29
:1007A00071F1000404DB4FF00044404264EB0101AE
:1007B000141E73F1000405DB1C464FF00043524247
:1007C00063EB04038B4208BF824230BD30B5041E88
:1007D00071F1000404DB4FF00044404264EB01017E
:1007E000141E73F1000405DB1C464FF00043524217
:1007F00063EB0403994208BF904230BD01F000430F
:1008000030B421F0004150EA010206D00A0DA2F5F1
:100810006072C1F31301002A02DC30BC0020704773
:10082000440F44EAC104C100E01830BC00EBC250E0
:1008300000F0FCB8002801DBC0F10040002901DB1A
:10084000C1F1004181427047002801DBC0F1004046
:10085000002901DBC1F10041884270472DE9F05FBA
:100860000546002092469B4688460646814640241F
:100870001BE0284641464746224600F0BDF9534654
:100880005A46C01A914110D311461846224600F02C
:1008900016F82D1A67EB01084F4622460120002169
:1008A00000F00DF817EB00094E41201EA4F10104E1
:1008B000DFDC484631462A464346BDE8F09F202A01
:1008C00004DB203A00FA02F1002070479140C2F1A7
:1008D000200320FA03F3194390407047202A06DBD7
:1008E000CB17203A41FA02F043EAE07306E041FAFE
:1008F00002F3D040C2F120029140084319467047EC
:100900000FB4002300B589B00CA900910B996FF0CA
:100910000042CB601E4B06931E4B07930423CDE988
:1009200001321D4A089202466B46002000F016FA7A
:1009300009B05DF814FB70B586B006464FF0FF3085
:100940000091CDE90101002015460C460490324685
:10095000694604A8FFF7D4FF02460498211825B180
:1009600008B1084600E020462860049800280DD011
:10097000002A02DD0098884208D0081B0094CDE9C7
:1009800001043246694604A8FFF7BAFF06B070BDFD
:10099000950F0008B30F0008210C00082DE9F0475F
:1009A00091460E4680460446002514F8017B2FB17F
:1009B00000F032F90068C05DC007F6D12B2F02D0DD
:1009C0002D2F1ED0641E4A463146204600F002FB01
:1009D00026B13268A24201D1C6F800806A054FF004
:1009E000020418D50023D0EB030563EB01025D1B65
:1009F000934109DB0023D0EB030063EB0101BDE869
:100A0000F08745F48065DEE710F094FA046000207A
:100A10004FF00041F3E7021E71F10002EFDA10F02F
:100A200089FA04604FF0FF304108E8E70029A8BFC9
:100A30007047401C490008BF20F00100704710B407
:100A4000B0FA80FC00FA0CF050EA010404BF10BCBC
:100A5000704749B1CCF1200421FA04F411FA0CF1E9
:100A600018BF012121430843A3EB0C01CB1D4FEA22
:100A700000614FEA102042BF002010BC704700EB1D
:100A8000C35010440029A4BF10BC7047401C49004B
:100A900008BF20F0010010BC704710B5141E73F1A0
:100AA000000408DA401C41F1000192185B411A432E
:100AB00001D120F0010010BD2DE9F04D92469B467A
:100AC00011B1B1FA81F202E0B0FA80F22032904620
:100AD000FFF7F5FE04460F4640EA0A0041EA0B0123
:100AE00053465A46084313D0114653EA010019D021
:100AF000C8F14002504600F07FF805460E465046C9
:100B000059464246FFF7DBFE084305D0012004E0CA
:100B100020463946BDE8F08D0020054346EAE076E0
:100B20002C4337430A986305E40AA0EB080000222F
:100B3000FD0A44EA47540A3002D500200146E9E79D
:100B4000010510196941DDE9084500196941BDE851
:100B5000F04DA2E770B521F0004303430CD0C1F380
:100B60000A550024D5EB040564EB0403D617AD1A2F
:100B7000B34102DB0020014670BD201841EB025159
:100B800070BD0EB5C10F80EAE0700844CA070021AD
:100B900040F233438DE80E000A460B46FFF78CFF08
:100BA00003B000BDC1F30A52C1F3130140F2FF3399
:100BB00041F480119A4202DA00200146704740F267
:100BC00033439A42A2F2334202DC524200F014B89C
:100BD000FFF775BE064C074D06E0E06840F00103E4
:100BE00094E8070098471034AC42F6D3FFF782FA36
:100BF00028E4010848E40108202A04DB203A21FA0D
:100C000002F00021704721FA02F3D040C2F1200225
:100C1000914008431946704700487047C4E30108F3
:100C200010B50446FFF7F8FF0068005D00F0010012
:100C300010BD00002DE9FF4F087883B09946FF28CA
:100C400005D0491C2D2804D00024002008E00020F5
:100C50000BE00124F9E700EB800003EB4000491CA6
:100C60000B78FF2BF7D104B1404200230293147894
:100C700019461D462D2C01D02B2C04D1521C2D2C95
:100C800013D000240294AA461478FF2C0FD00A2512
:100C9000A3FB057801FB05814FF0000C03FB0C1151
:100CA000521CE3194AEB0101EEE70124EAE7814413
:100CB00053EA010002D019F5C87F06DA0398002133
:100CC000C0E9001107B0BDE8F08F0025AE4E2F46F9
:100CD000DFF8B882184600F0ECF9CDE90001B9F16F
:100CE000000002DAC9F1000400E004460023A74A2C
:100CF0001AEB030B42EB045A12E0E00707D02A4636
:100D0000334638464146FFF719FC074688462A46CF
:100D1000334610461946FFF711FC05460E4664108F
:100D2000002CEAD1DDE90001B9F1000F5A46534623
:100D300006DAFFF775FC3A464346FFF771FC05E01B
:100D4000FFF7FCFB3A464346FFF7F8FB029A0AB16D
:100D500081F00041039AC2E90001B3E72DE9FF4F9A
:100D60001F468DB0D7E901464FF0FF382E2045468B
:100D70004FF000090B90B9696D1C0E988847396ACD
:100D8000824688470028F6D1BAF1FF3F0AD024F402
:100D9000D064002E11DDBAF12B0F08D0BAF12D0F5F
:100DA0000BD102E0404611B08DE744F48064B9698C
:100DB0006D1C0E9888478246761E6946600501D5EF
:100DC0002D2000E02B208DF8000001F1010B0DF12A
:100DD000200809E0B9696D1C0E98884782460F9873
:100DE00044F40074761E0560002E02DDBAF1300F67
:100DF000F0D00B998A453ED144F0800406E00F996B
:100E0000681CA9F1010944F400740860B9696D1CFB
:100E1000761E0E98884782463028F0D02BE00B993A
:100E20008A4505D1200603D444F08004761E18E0DC
:100E3000504610F0C1F908B30DF11301761E44F4C9
:100E400000748B4508D2AAF130000BF8010B200684
:100E500007D5A9F1010003E0200602D409F1010041
:100E60008146A00502D50F99681C0860B9696D1C00
:100E70000E9888478246002ED1DC53E0002E51DDCB
:100E8000BAF1650F02D0BAF1450F4BD1A00549D593
:100E9000B9696D1C24F44074761E0E98884782460A
:100EA000002E0CDD2B2804D0BAF12D0F07D144F40D
:100EB0008074B9696D1C0E9888478246761EE005DD
:100EC00001D52D2100E02B2108F8011BCDF82C8045
:100ED00021E00DF12901761E44F4007488450CD2FE
:100EE000AAF1300010F0FF0088F8000002D10B9941
:100EF000884509D908F1010806E0E00501D5244834
:100F000001E042F20F708146B9696D1C0E98884766
:100F100082460F980560002E04DD504610F04CF913
:100F20000028D6D1F9690E988847FF208BF8000079
:100F300088F800000020069007904B466A4608A9F2
:100F400006A8FFF777FEA00502D46FF001002AE79C
:100F500014F0240F0AD0E00714D1DDE90612386836
:100F6000031D3B600068C0E900120BE0DDE90601EB
:100F7000FFF744FC0146E00704D13868021D3A60DF
:100F80000068016028460EE7000014400000F03FB2
:100F9000F1D8FFFF426842B1016811F8013B23B16B
:100FA000521EC0E90012184670470121C160881E18
:100FB000704742685AB1C368016843B983688B427D
:100FC00005D0491E521CC0E90012002070474FF0A6
:100FD000FF3070472DE9F74F4FF00009009C154690
:100FE000CA4614F8010B302801D0ADB115E014F851
:100FF000010B4FF00109782803D0582801D04DB1DA
:101000000BE00DB1102D08D14FF00009102514F898
:10101000010B02E0082500E00A2500273E46B846FD
:101020004FEAE57B16E0A5FB07230BFB073105FB29
:10103000080005FB0616030CD71846F100061FFA38
:1010400080F8381E4FF0010976F5803000D3CA468B
:1010500014F8010B294600F01EF80028E3DA019885
:1010600038B1B9F1000F01D0641E00E0009C019876
:101070000460BAF1000F08D00FF05CFF022101609C
:10108000C81E014603B0BDE8F08F310441EA1741A4
:1010900048EA0740F6E73A2800D2303820F020022C
:1010A000412A01D3A2F13700884201D34FF0FF302B
:1010B00070470EB540F2334202920022CDE9002281
:1010C0001346FFF7F9FC03B000BD70B58C1810F89B
:1010D000015B15F0070301D110F8013B2A1106D17D
:1010E00010F8012B03E010F8016B01F8016B5B1E97
:1010F000F9D12B0705D40023521E0DD401F8013B72
:10110000FAE710F8013BCB1A921C03E013F8015BDD
:1011100001F8015B521EF9D5A142D8D3002070BD61
:1011200021B1826842F00102826003E0826822F00D
:10113000010282607047000000B587B001214802BB
:101140000CF01AFA012104200CF016FA1C20ADF85C
:10115000040000208DF8070001A9184809F01CFBC5
:10116000002002908DF80C008DF80D004FF46020E7
:1011700004900020059001208DF8180002A9104865
:1011800000F042F801210E48FFF7CAFF4FF440403B
:101190000CF0B6F90A4800F0BBF800BF084800F0B0
:1011A00028F80028FAD1064800F0C2F800BF044829
:1011B00000F008F80028FAD107B000BD000801408F
:1011C00000240140014600208A6802F004020AB1AE
:1011D000012000E0002070470146C86C80B27047D3
:1011E0000246002013680B400BB1012000E00020F4
:1011F0007047014600208A6802F008020AB1012007
:1012000000E000207047000030B5024600200023B7
:1012100050680F4C20400D790C6844EA05242043A7
:10122000506090680B4C2040D1E902542C434D791A
:1012300044EA450420439060D06A20F470000C7C9E
:10124000641EE4B2234340EA0350D06230BD000084
:10125000FFFEF0FFFDF7F1FFF0B504460D4600205C
:101260000021092D11DDE068A5F10A0606EB46070D
:10127000072606FA07F18843A5F10A0606EB46069B
:1012800003FA06F10843E0600CE0206905EB45072E
:10129000072606FA07F1884305EB450603FA06F12F
:1012A00008432061072A0FDA606B561E06EB86079B
:1012B0001F2606FA07F18843561E06EB860605FA36
:1012C00006F10843606322E00D2A0FDA206BD61F77
:1012D00006EB86071F2606FA07F18843D61F06EBA2
:1012E000860605FA06F10843206310E0E06AA2F1E1
:1012F0000D0606EB86071F2606FA07F18843A2F1C2
:101300000D0606EB860605FA06F10843E062F0BD1D
:10131000816841F008018160704721B1826842F420
:10132000A002826003E0826822F4A002826070471B
:10133000816841F004018160704738B504460D466C
:10134000A4F10C000A2881F06281DFE810F00A00A5
:10135000FA00E901D802C703B604A505940683077D
:101360007208012306222421104614F077FA012383
:1013700007222421262014F071FA01231A222421A5
:10138000462014F06BFA01231B222421662014F05E
:1013900065FA06224821104614F026FA0722482151
:1013A000262014F021FA1C224821462014F01CFAB1
:1013B0001B224821662014F017FA06226C211046E1
:1013C00014F012FA07226C21262014F00DFA1D22C7
:1013D0006C21462014F008FA1B226C21662014F0C0
:1013E00003FA06229021104614F0FEF907229021FC
:1013F000262014F0F9F91E229021462014F0F4F969
:101400001B229021662014F0EFF90622B421104629
:1014100014F0EAF90722B421262014F0E5F91F227E
:10142000B421462014F0E0F91B22B421662014F008
:10143000DBF9062224214FF4AD7014F0D5F9072210
:1014400024214FF4BD7014F0CFF9202224214FF451
:10145000CD7014F0C9F91B2224214FF4DD7014F073
:10146000C3F9062248214FF4AD7014F0BDF90722EC
:1014700048214FF4BD7014F0B7F9212248214FF4F0
:10148000CD7014F0B1F91B2248214FF4DD7014F037
:10149000ABF906226C214FF4AD7014F0A5F90722C8
:1014A0006C214FF4BD7014F09FF922226C214FF48F
:1014B000CD7014F099F91B226C214FF4DD7014F0FB
:1014C00093F9062290214FF4AD7014F08DF90722A4
:1014D00090214FF4BD7014F087F9232290214FF42E
:1014E000CD7014F081F91B2290214FF4DD7014F0BF
:1014F0007BF90622B4214FF4AD7014F075F9072280
:10150000B4214FF4BD7014F06FF900204FF6FF7353
:101510000122B42100904FF4CD7014F029F900207D
:101520004FF6FF730246B42100904FF4D57014F0CB
:101530001FF91B22B4214FF4DD7014F055F901F0AE
:1015400067B806222421104614F04EF90722242100
:10155000262014F049F91A222421462014F044F9D7
:101560001B222421662014F03FF901230622482182
:10157000104614F073F9012307224821262014F0A5
:101580006DF901231C224821462014F067F901233C
:101590001B224821662014F061F906226C211046B6
:1015A00014F022F907226C21262014F01DF91D22C7
:1015B0006C21462014F018F91B226C21662014F0CF
:1015C00013F906229021104614F00EF907229021FB
:1015D000262014F009F91E229021462014F004F967
:1015E0001B229021662014F0FFF80622B421104639
:1015F00014F0FAF80722B421262014F0F5F81F227F
:10160000B421462014F0F0F81B22B421662014F017
:10161000EBF8062224214FF4AD7014F0E5F8072210
:1016200024214FF4BD7014F0DFF8202224214FF460
:10163000CD7014F0D9F81B2224214FF4DD7014F082
:10164000D3F8062248214FF4AD7014F0CDF80722EC
:1016500048214FF4BD7014F0C7F8212248214FF4FF
:10166000CD7014F0C1F81B2248214FF4DD7014F046
:10167000BBF806226C214FF4AD7014F0B5F80722C8
:101680006C214FF4BD7014F0AFF822226C214FF49E
:10169000CD7014F0A9F81B226C214FF4DD7014F00A
:1016A000A3F8062290214FF4AD7014F09DF80722A4
:1016B00090214FF4BD7014F097F8232290214FF43D
:1016C000CD7014F091F81B2290214FF4DD7014F0CE
:1016D0008BF80622B4214FF4AD7014F085F8072280
:1016E000B4214FF4BD7014F07FF800204FF6FF7363
:1016F0000122B42100904FF4CD7014F039F800208D
:101700004FF6FF730246B42100904FF4D57014F0E9
:101710002FF81B22B4214FF4DD7014F065F80EE7AA
:1017200006222421104614F05FF8072224212620E7
:1017300014F05AF81A222421462014F055F81B22DE
:101740002421662014F050F806224821104614F097
:101750004BF807224821262014F046F81C22482185
:10176000462014F041F81B224821662014F03CF872
:10177000012306226C21104614F070F80123072281
:101780006C21262014F06AF801231D226C214620CA
:1017900014F064F801231B226C21662014F05EF81B
:1017A00006229021104614F01FF8072290212620CF
:1017B00014F01AF81E229021462014F015F81B226E
:1017C0009021662014F010F80622B421104614F07F
:1017D0000BF80722B421262014F006F81F22B421AA
:1017E000462014F001F81B22B421662013F0FCFF00
:1017F000062224214FF4AD7013F0F6FF07222421B6
:101800004FF4BD7013F0F0FF202224214FF4CD706F
:1018100013F0EAFF1B2224214FF4DD7013F0E4FFE4
:10182000062248214FF4AD7013F0DEFF0722482155
:101830004FF4BD7013F0D8FF212248214FF4CD7032
:1018400013F0D2FF1B2248214FF4DD7013F0CCFFC0
:1018500006226C214FF4AD7013F0C6FF07226C21F5
:101860004FF4BD7013F0C0FF22226C214FF4CD70F5
:1018700013F0BAFF1B226C214FF4DD7013F0B4FF9C
:10188000062290214FF4AD7013F0AEFF0722902195
:101890004FF4BD7013F0A8FF232290214FF4CD70B8
:1018A00013F0A2FF1B2290214FF4DD7013F09CFF78
:1018B0000622B4214FF4AD7013F096FF0722B42135
:1018C0004FF4BD7013F090FF00204FF6FF7301221C
:1018D000B42100904FF4CD7013F04AFF00204FF672
:1018E000FF730246B42100904FF4D57013F040FF0F
:1018F0001B22B4214FF4DD7013F076FF1FE60622A1
:101900002421104613F070FF07222421262013F013
:101910006BFF1A222421462013F066FF1B2224218C
:10192000662013F061FF06224821104613F05CFF89
:1019300007224821262013F057FF1C224821462069
:1019400013F052FF1B224821662013F04DFF0622A0
:101950006C21104613F048FF07226C21262013F05B
:1019600043FF1D226C21462013F03EFF1B226C21F9
:10197000662013F039FF012306229021104613F050
:101980006DFF012307229021262013F067FF01231A
:101990001E229021462013F061FF01231B2290217B
:1019A000662013F05BFF0622B421104613F01CFFE3
:1019B0000722B421262013F017FF1F22B42146204E
:1019C00013F012FF1B22B421662013F00DFF062234
:1019D00024214FF4AD7013F007FF072224214FF4A8
:1019E000BD7013F001FF202224214FF4CD7013F0BD
:1019F000FBFE1B2224214FF4DD7013F0F5FE0622BE
:101A000048214FF4AD7013F0EFFE072248214FF448
:101A1000BD7013F0E9FE212248214FF4CD7013F080
:101A2000E3FE1B2248214FF4DD7013F0DDFE062299
:101A30006C214FF4AD7013F0D7FE07226C214FF4E8
:101A4000BD7013F0D1FE22226C214FF4CD7013F043
:101A5000CBFE1B226C214FF4DD7013F0C5FE062275
:101A600090214FF4AD7013F0BFFE072290214FF488
:101A7000BD7013F0B9FE232290214FF4CD7013F006
:101A8000B3FE1B2290214FF4DD7013F0ADFE062251
:101A9000B4214FF4AD7013F0A7FE0722B4214FF428
:101AA000BD7013F0A1FE00204FF6FF730122B42198
:101AB00000904FF4CD7013F05BFE00204FF6FF73E3
:101AC0000246B42100904FF4D57013F051FE1B2252
:101AD000B4214FF4DD7013F087FE30E50622242197
:101AE000104613F081FE07222421262013F07CFEED
:101AF0001A222421462013F077FE1B22242166207F
:101B000013F072FE06224821104613F06DFE0722E4
:101B10004821262013F068FE1C224821462013F09D
:101B200063FE1B224821662013F05EFE06226C2114
:101B3000104613F059FE07226C21262013F054FEA4
:101B40001D226C21462013F04FFE1B226C216620C3
:101B500013F04AFE06229021104613F045FE07229C
:101B60009021262013F040FE1E229021462013F0E3
:101B70003BFE1B229021662013F036FE0123062235
:101B8000B421104613F06AFE01230722B421262057
:101B900013F064FE01231F22B421462013F05EFEE1
:101BA00001231B22B421662013F058FE06222421B3
:101BB0004FF4AD7013F018FE072224214FF4BD70CE
:101BC00013F012FE202224214FF4CD7013F00CFEEE
:101BD0001B2224214FF4DD7013F006FE062248215B
:101BE0004FF4AD7013F000FE072248214FF4BD7092
:101BF00013F0FAFD212248214FF4CD7013F0F4FDCB
:101C00001B2248214FF4DD7013F0EEFD06226C21FB
:101C10004FF4AD7013F0E8FD07226C214FF4BD7056
:101C200013F0E2FD22226C214FF4CD7013F0DCFDA5
:101C30001B226C214FF4DD7013F0D6FD062290219B
:101C40004FF4AD7013F0D0FD072290214FF4BD701A
:101C500013F0CAFD232290214FF4CD7013F0C4FD80
:101C60001B2290214FF4DD7013F0BEFD0622B4213B
:101C70004FF4AD7013F0B8FD0722B4214FF4BD70DE
:101C800013F0B2FD00204FF6FF730122B421009043
:101C90004FF4CD7013F06CFD00204FF6FF73024639
:101CA000B42100904FF4D57013F062FD1B22B421D3
:101CB0004FF4DD7013F098FD41E406222421104614
:101CC00013F092FD07222421262013F08DFD1A2205
:101CD0002421462013F088FD1B222421662013F0C6
:101CE00083FD06224821104613F07EFD072248217D
:101CF000262013F079FD1C224821462013F074FDA4
:101D00001B224821662013F06FFD06226C2110462D
:101D100013F06AFD07226C21262013F065FD1D22B9
:101D20006C21462013F060FD1B226C21662013F00D
:101D30005BFD06229021104613F056FD07229021EC
:101D4000262013F051FD1E229021462013F04CFD59
:101D50001B229021662013F047FD0622B421104675
:101D600013F042FD0722B421262013F03DFD1F226F
:101D7000B421462013F038FD1B22B421662013F055
:101D800033FD0123062224214FF4AD7013F066FDCC
:101D90000123072224214FF4BD7013F05FFD0123BE
:101DA000202224214FF4CD7013F058FD01231B2273
:101DB00024214FF4DD7013F051FD062248214FF429
:101DC000AD7013F011FD072248214FF4BD7013F0E0
:101DD0000BFD212248214FF4CD7013F005FD1B228D
:101DE00048214FF4DD7013F0FFFC06226C214FF404
:101DF000AD7013F0F9FC07226C214FF4BD7013F0A5
:101E0000F3FC22226C214FF4CD7013F0EDFC1B2269
:101E10006C214FF4DD7013F0E7FC062290214FF4A3
:101E2000AD7013F0E1FC072290214FF4BD7013F068
:101E3000DBFC232290214FF4CD7013F0D5FC1B2244
:101E400090214FF4DD7013F0CFFC0622B4214FF443
:101E5000AD7013F0C9FC0722B4214FF4BD7013F02C
:101E6000C3FC00204FF6FF730122B42100904FF411
:101E7000CD7013F07DFC00204FF6FF730246B421B5
:101E800000904FF4D57013F073FC1B22B4214FF473
:101E9000DD7013F0A9FCBBE306222421104613F0E9
:101EA000A3FC07222421262013F09EFC1A222421C1
:101EB000462013F099FC1B222421662013F094FC89
:101EC00006224821104613F08FFC072248212620C5
:101ED00013F08AFC1C224821462013F085FC1B22AB
:101EE0004821662013F080FC06226C21104613F076
:101EF0007BFC07226C21262013F076FC1D226C212E
:101F0000462013F071FC1B226C21662013F06CFC40
:101F100006229021104613F067FC0722902126200C
:101F200013F062FC1E229021462013F05DFC1B2260
:101F30009021662013F058FC0622B421104613F0BD
:101F400053FC0722B421262013F04EFC1F22B4219B
:101F5000462013F049FC1B22B421662013F044FCF8
:101F6000062224214FF4AD7013F03EFC07222421F9
:101F70004FF4BD7013F038FC202224214FF4CD70B3
:101F800013F032FC1B2224214FF4DD7013F02CFCE3
:101F90000123062248214FF4AD7013F05FFC0123AA
:101FA000072248214FF4BD7013F058FC0123212271
:101FB00048214FF4CD7013F051FC01231B2248211E
:101FC0004FF4DD7013F04AFC06226C214FF4AD7023
:101FD00013F00AFC07226C214FF4BD7013F004FCCF
:101FE00022226C214FF4CD7013F0FEFB1B226C21DA
:101FF0004FF4DD7013F0F8FB062290214FF4AD7022
:1020000013F0F2FB072290214FF4BD7013F0ECFBAC
:10201000232290214FF4CD7013F0E6FB1B22902178
:102020004FF4DD7013F0E0FB0622B4214FF4AD70E5
:1020300013F0DAFB0722B4214FF4BD7013F0D4FB88
:1020400000204FF6FF730122B42100904FF4CD70B1
:1020500013F08EFB00204FF6FF730246B421009070
:102060004FF4D57013F084FB1B22B4214FF4DD70C4
:1020700013F0BAFBCCE206222421104613F0B4FB85
:1020800007222421262013F0AFFB1A222421462008
:1020900013F0AAFB1B222421662013F0A5FB0622C5
:1020A0004821104613F0A0FB07224821262013F0F8
:1020B0009BFB1C224821462013F096FB1B22482143
:1020C000662013F091FB06226C21104613F08CFB66
:1020D00007226C21262013F087FB1D226C2146204D
:1020E00013F082FB1B226C21662013F07DFB06227D
:1020F0009021104613F078FB07229021262013F040
:1021000073FB1E229021462013F06EFB1B229021B0
:10211000662013F069FB0622B421104613F064FB1D
:102120000722B421262013F05FFB1F22B421462092
:1021300013F05AFB1B22B421662013F055FB062234
:1021400024214FF4AD7013F04FFB072224214FF4EC
:10215000BD7013F049FB202224214FF4CD7013F001
:1021600043FB1B2224214FF4DD7013F03DFB0622BC
:1021700048214FF4AD7013F037FB072248214FF48C
:10218000BD7013F031FB212248214FF4CD7013F0C4
:102190002BFB1B2248214FF4DD7013F025FB01239C
:1021A00006226C214FF4AD7013F058FB0123072277
:1021B0006C214FF4BD7013F051FB012322226C21DE
:1021C0004FF4CD7013F04AFB01231B226C214FF416
:1021D000DD7013F043FB062290214FF4AD7013F035
:1021E00003FB072290214FF4BD7013F0FDFA232268
:1021F00090214FF4CD7013F0F7FA1B2290214FF489
:10220000DD7013F0F1FA0622B4214FF4AD7013F033
:10221000EBFA0722B4214FF4BD7013F0E5FA002069
:102220004FF6FF730122B42100904FF4CD7013F0EC
:102230009FFA00204FF6FF730246B42100904FF43E
:10224000D57013F095FA1B22B4214FF4DD7013F012
:10225000CBFADDE106222421104613F0C5FA07224D
:102260002421262013F0C0FA1A222421462013F03C
:10227000BBFA1B222421662013F0B6FA062248215D
:10228000104613F0B1FA07224821262013F0ACFAC9
:102290001C224821462013F0A7FA1B224821662061
:1022A00013F0A2FA06226C21104613F09DFA0722C1
:1022B0006C21262013F098FA1D226C21462013F081
:1022C00093FA1B226C21662013F08EFA06229021CD
:1022D000104613F089FA07229021262013F084FA81
:1022E0001E229021462013F07FFA1B2290216620A7
:1022F00013F07AFA0622B421104613F075FA072279
:10230000B421262013F070FA1F22B421462013F0C6
:102310006BFA1B22B421662013F066FA06222421F0
:102320004FF4AD7013F060FA072224214FF4BD7012
:1023300013F05AFA202224214FF4CD7013F054FAEE
:102340001B2224214FF4DD7013F04EFA062248219F
:102350004FF4AD7013F048FA072248214FF4BD70D6
:1023600013F042FA212248214FF4CD7013F03CFAC9
:102370001B2248214FF4DD7013F036FA06226C213F
:102380004FF4AD7013F030FA07226C214FF4BD709A
:1023900013F02AFA22226C214FF4CD7013F024FAA4
:1023A0001B226C214FF4DD7013F01EFA012306226C
:1023B00090214FF4AD7013F051FA012307229021C0
:1023C0004FF4BD7013F04AFA0123232290214FF4F9
:1023D000CD7013F043FA01231B2290214FF4DD70DE
:1023E00013F03CFA0622B4214FF4AD7013F0FCF95F
:1023F0000722B4214FF4BD7013F0F6F900204FF618
:10240000FF730122B42100904FF4CD7013F0B0F9A6
:1024100000204FF6FF730246B42100904FF4D570B0
:1024200013F0A6F91B22B4214FF4DD7013F0DCF990
:10243000EEE006222421104613F0D6F907222421CB
:10244000262013F0D1F91A222421462013F0CCF9CA
:102450001B222421662013F0C7F9062248211046CA
:1024600013F0C2F907224821262013F0BDF91C22DF
:102470004821462013F0B8F91B224821662013F0AA
:10248000B3F906226C21104613F0AEF907226C2135
:10249000262013F0A9F91D226C21462013F0A4F97F
:1024A0001B226C21662013F09FF906229021104612
:1024B00013F09AF907229021262013F095F91E2295
:1024C0009021462013F090F91B229021662013F0F2
:1024D0008BF90622B421104613F086F90722B421A5
:1024E000262013F081F91F22B421462013F07CF935
:1024F0001B22B421662013F077F9062224214FF421
:10250000AD7013F071F9072224214FF4BD7013F060
:102510006BF9202224214FF4CD7013F065F91B22B2
:1025200024214FF4DD7013F05FF9062248214FF4A7
:10253000AD7013F059F9072248214FF4BD7013F024
:1025400053F9212248214FF4CD7013F04DF91B228D
:1025500048214FF4DD7013F047F906226C214FF447
:10256000AD7013F041F907226C214FF4BD7013F0E8
:102570003BF922226C214FF4CD7013F035F91B2268
:102580006C214FF4DD7013F02FF9062290214FF4E7
:10259000AD7013F029F9072290214FF4BD7013F0AC
:1025A00023F9232290214FF4CD7013F01DF91B2243
:1025B00090214FF4DD7013F017F901230622B421A6
:1025C0004FF4AD7013F04AF901230722B4214FF400
:1025D000BD7013F043F94FF6FF7000230122B421C0
:1025E00000904FF4CD7013F0C3F84FF6FF70002346
:1025F0001A46B42100904FF4D57013F0B9F80123B6
:102600001B22B4214FF4DD7013F028F900E000BF65
:1026100000BF38BD03B5FFB04FF4DC72FE4911A80E
:10262000FDF796FDFD4800780C2801F05D87FB481A
:1026300000780D28F9D0F94800780E28F5D0F74831
:1026400000780F28F1D0F54800781028EDD0F34835
:1026500000781128E9D0F14800781228E5D0EF4839
:1026600000781328E1D0ED4800781428DDD0EB483D
:1026700000781528D9D0809802287DD0042803D06E
:10268000052841F02F87EFE3E548007898BBE5483F
:10269000007880BBE448007868BBE448007850BB11
:1026A000E348007838BBE348007820BBE248007874
:1026B00008BBE2480078F0B9E1480078D8B9E148B1
:1026C0000078C0B9E04800780C3800EB400101EB1D
:1026D000C000D14901EB80004078401CC1B2DA480B
:1026E00000780C3800EB400202EBC000CA4A02EB53
:1026F00080004170FEE3FFE7D34800780C3800EB20
:10270000400101EBC000C44901EB80004078012882
:102710007ED1CE480078012817D1CB4800780C38FC
:1027200000EB400101EBC000BB4901EB80004079A8
:10273000401CC1B2C44800780C3800EB400202EBE8
:10274000C000B54A02EB80004171C0480078022801
:1027500019D1BD4800780C3800EB400101EBC000F6
:10276000AD4901EB80008079401CC1B2B6480078C9
:102770000C3800EB400200E0FEE302EBC000A64A8A
:1027800002EB80008171B1480078032817D1AE4870
:1027900000780C3800EB400101EBC0009E4901EBD2
:1027A0008000007B401CC1B2A74800780C3800EBC9
:1027B000400202EBC000984A02EB80000173A3487C
:1027C0000078042819D1A04800780C3800EB4001AB
:1027D00001EBC000904901EB8000407B08B901216A
:1027E00000E00021984800780C3800EB400202EB32
:1027F000C000894A02EB80004173934800780C388E
:1028000000EB400101EBC000834901EB800000E0D8
:1028100078E0007B04280BD100218B4800780C382D
:1028200000EB400202EBC0007B4A02EB8000017328
:1028300086480078052817D1834800780C3800EBCB
:10284000400101EBC000744901EB80000089401C8D
:1028500081B27D4800780C3800EB400202EBC000EA
:102860006D4A02EB8000018178480078062817D174
:10287000754800780C3800EB400101EBC000664958
:1028800001EB80004089401C81B26F4800780C3811
:1028900000EB400202EBC0005F4A02EB8000418186
:1028A000694800780C3800EB400101EBC0005A4940
:1028B00001EB8000008932280BDB3221624800786E
:1028C0000C3800EB400202EBC000534A02EB8000E0
:1028D00001815D4800780C3800EB400101EBC0003D
:1028E0004D4901EB8000408932280BDB32215648EC
:1028F00000780C3800EB400202EBC000464A02EBC5
:1029000080004181504800780C3800EB400101EB19
:10291000C000414901EB8000407802286DD14C484D
:102920000078012817D1484800780C3800EB4001A6
:1029300001EBC000384901EB8000408A401C81B2A5
:10294000414800780C3800EB400202EBC000324AEC
:1029500002EB800041823E480078022817D13A48B5
:1029600000780C3800EB400101EBC0002A4901EB74
:102970008000008A401C81B2334800780C3800EB9C
:10298000400202EBC000244A02EB800001822E4884
:1029900000780C3800EB400101EBC0001E4901EB50
:1029A0008000408A42F2107188420BD100212648F3
:1029B00000780C3800EB400202EBC000164A02EB34
:1029C00080004182204800780C3800EB400101EB88
:1029D000C000114901EB8000008A42F21071884268
:1029E0000BD10021184800780C3800EB400202EBB4
:1029F000C000094A02EB80000182134800780C38BD
:102A000000EB400101EBC000034901EB800040787E
:102A100003287CD10F481FE0D4000020A102002031
:102A2000B4020020B5020020B6020020B702002048
:102A3000B8020020B9020020BA020020BB02002028
:102A4000BC020020BD02002002040020BE020020C3
:102A5000BF020020C00200200078012817D1FE48E4
:102A600000780C3800EB400101EBC000FB4901EBA2
:102A700080004079401CC1B2F74800780C3800EB68
:102A8000400202EBC000F54A02EB80004171F448BD
:102A90000078022817D1F04800780C3800EB40018C
:102AA00001EBC000ED4901EB80008079401CC1B210
:102AB000E94800780C3800EB400202EBC000E74A1E
:102AC00002EB80008171E6480078032817D1E248C4
:102AD00000780C3800EB400101EBC000DF4901EB4E
:102AE0008000007B401CC1B2DB4800780C3800EB52
:102AF000400202EBC000D94A02EB80000173D848C3
:102B0000007804281BD1D44800780C3800E09DE000
:102B100000EB400101EBC000D04901EB8000407B9D
:102B200008B9012100E00021CB4800780C3800EB07
:102B3000400202EBC000C94A02EB80004173C64864
:102B400000780C3800EB400101EBC000C34901EBF9
:102B50008000007B04280BD10021BF4800780C388E
:102B600000EB400202EBC000BC4A02EB80000173A4
:102B7000BB480078052817D1B74800780C3800EB1F
:102B8000400101EBC000B54901EB8000408A401CC8
:102B900081B2B14800780C3800EB400202EBC00073
:102BA000AE4A02EB80004182AD480078062817D17A
:102BB000A94800780C3800EB400101EBC000A749A0
:102BC00001EB8000008A401C81B2A34800780C38D9
:102BD00000EB400202EBC000A04A02EB8000018241
:102BE0009D4800780C3800EB400101EBC0009B4988
:102BF00001EB8000408A42F2107188420BD1002123
:102C0000954800780C3800EB400202EBC000934A74
:102C100002EB80004182904800780C3800EB4001C4
:102C200001EBC0008D4901EB8000008A42F2107177
:102C300088420BD10021884800780C3800EB400214
:102C400002EBC000854A02EB8000018282480078D6
:102C50000C3800EB400101EBC000804901EB800023
:102C6000407804287ED17F480078012817D17A481F
:102C700000780C3800EB400101EBC000774901EB14
:102C80008000C07D401CC1B2734800780C3800EB56
:102C9000400202EBC000714A02EB8000C17571482E
:102CA0000078022817D16C4800780C3800EB4001FE
:102CB00001EBC000694901EB8000007E401CC1B2FD
:102CC000654800780C3800EB400202EBC000634A14
:102CD00002EB8000017663480078032817D15E4834
:102CE00000780C3800EB400101EBC0005B4901EBC0
:102CF0008000407E401CC1B2574800780C3800EB81
:102D0000400202EBC000554A02EB80004176554874
:102D10000078042819D1504800780C3800EB4001A5
:102D200001EBC0004D4901EB8000807E08B9012114
:102D300000E00021484800780C3800EB400202EB2C
:102D4000C000464A02EB800081764648007805289C
:102D500019D1414800780C3800EB400101EBC0006C
:102D60003E4900E06DE301EB8000C07E401CC1B233
:102D7000394800780C3800EB400202EBC000374ABB
:102D800002EB8000C17637480078062817D1324818
:102D900000780C3800EB400101EBC0002F4901EB3B
:102DA0008000007F401CC1B22B4800780C3800EB3B
:102DB000400202EBC000294A02EB8000017729485B
:102DC0000078072817D1244800780C3800EB400120
:102DD00001EBC000214901EB8000407F401CC1B2E3
:102DE0001D4800780C3800EB400202EBC0001B4A83
:102DF00002EB800041771B480078082819D116485B
:102E000000780C3800EB400101EBC000134901EBE6
:102E10008000807F08B9012100E000210E48007881
:102E20000C3800EB400202EBC0000C4A02EB8000C1
:102E300081770C480078092821D1074800780C38A0
:102E400000EB400101EBC000044901EB8000C07FB2
:102E5000401CC1B2004808E002040020D400002059
:102E6000C0020020C10200201EE300780C3800EBF5
:102E7000400202EBC000FE4A02EB8000C177FD4831
:102E800000780A2819D1FC4800780C3800EB400182
:102E900001EBC000F64901EB800090F82000401CD7
:102EA000C1B2F54800780C3800EB400202EBC000DC
:102EB000EF4A02EB800080F82010EE4800780B28E3
:102EC0001BD1ED4800780C3800EB400101EBC0004D
:102ED000E74901EB800090F82100401CC1B2E648B0
:102EE00000780C3800EB400202EBC000E04A02EB35
:102EF000800000E0BEE280F82110DE4800780C2857
:102F00001BD1DD4800780C3800EB400101EBC0001C
:102F1000D74901EB800090F8220008B9012100E0B8
:102F20000021D54800780C3800EB400202EBC000CD
:102F3000CF4A02EB800080F82210CE4800780D289E
:102F400019D1CD4800780C3800EB400101EBC000EE
:102F5000C74901EB800090F82300401CC1B2C6486D
:102F600000780C3800EB400202EBC000C04A02EBD4
:102F7000800080F8231000E0A4E3BE4800780E280B
:102F800019D1BD4800780C3800EB400101EBC000BE
:102F9000B74901EB800090F82400401CC1B2B6484C
:102FA00000780C3800EB400202EBC000B04A02EBA4
:102FB000800080F82410AF4800780F2819D1AE485F
:102FC00000780C3800EB400101EBC000A84901EB90
:102FD000800090F82500401CC1B2A74800780C384A
:102FE00000EB400202EBC000A14A02EB800080F837
:102FF0002510A048007810281BD19F4800780C3875
:1030000000EB400101EBC000994901EB800090F812
:10301000260008B9012100E00021974800780C380B
:1030200000EB400202EBC000914A02EB800080F806
:10303000261090480078112819D18F4800780C3854
:1030400000EB400101EBC000894901EB800090F8E2
:103050002700401CC1B2884800780C3800EB4002C1
:1030600002EBC000824A02EB800080F82710814802
:103070000078122819D1804800780C3800EB400104
:1030800001EBC0007A4901EB800090F82800401C59
:10309000C1B2794800780C3800EB400202EBC00066
:1030A000734A02EB800080F82810724800781328D9
:1030B00019D1714800780C3800EB400101EBC000D9
:1030C0006B4901EB800090F82900401CC1B26A48AE
:1030D00000780C3800EB400202EBC000644A02EBBF
:1030E000800080F829106348007814281BD16248BA
:1030F00000780C3800EB400101EBC0005C4901EBAB
:10310000800090F82A0008B9012100E000215A4807
:1031100000780C3800EB400202EBC000544A02EB8E
:10312000800080F82A10544800780C3800EB4001E9
:1031300001EBC0004E4901EB8000C07D18280BD187
:1031400000214D4800780C3800EB400202EBC00033
:10315000474A02EB8000C175474800780C3800EB05
:10316000400101EBC000424901EB8000007E3D2898
:103170000BD10021404800780C3800EB400202EBF4
:10318000C0003B4A02EB800001763B4800780C38D7
:1031900000EB400101EBC000354901EB8000407EAF
:1031A0003D280BD10021344800780C3800EB400258
:1031B00002EBC0002E4A02EB800041762E480078D8
:1031C0000C3800EB400101EBC000294901EB800005
:1031D000C07E18280BD10021274800780C3800EB5E
:1031E000400202EBC000224A02EB8000C176224876
:1031F00000780C3800EB400101EBC0001C4901EBEA
:103200008000007F3D280BD100211B4800780C383E
:1032100000EB400202EBC000154A02EB8000017790
:10322000154800780C3800EB400101EBC000104954
:1032300001EB8000407F3D280BD100210E48007833
:103240000C3800EB400202EBC000094A02EB8000A0
:103250004177094800780C3800EB400101EBC000D1
:10326000034901EB8000C07F182812D1002105E03E
:10327000D4000020C102002002040020FE48007893
:103280000C3800EB400202EBC000FC4A02EB80006D
:10329000C177F94800780C3800EB400101EBC00021
:1032A000F64901EB800090F820003D280CD1002168
:1032B000F14800780C3800EB400202EBC000EF4A06
:1032C00002EB800080F82010EB4800780C3800EB0F
:1032D000400101EBC000E94901EB800090F82100BA
:1032E0003D280CD10021E44800780C3800EB400266
:1032F00002EBC000E14A02EB800080F82110DE48BA
:1033000000780C3800EB400101EBC000DB4901EB19
:10331000800090F8230018280CD10021D6480078AE
:103320000C3800EB400202EBC000D44A02EB8000F4
:1033300080F82310D04800780C3800EB400101EBF6
:10334000C000CE4901EB800090F824003D280CD14C
:103350000021C94800780C3800EB400202EBC000A5
:10336000C64A02EB800080F82410C34800780C386D
:1033700000EB400101EBC000C04901EB800090F878
:1033800025003D280CD10021BB4800780C3800EB0B
:10339000400202EBC000B94A02EB800080F8251021
:1033A000B54800780C3800EB400101EBC000B34990
:1033B00001EB800090F8270018280CD10021AE48BE
:1033C00000780C3800EB400202EBC000AB4A02EB85
:1033D000800080F82710A84800780C3800EB4001E6
:1033E00001EBC000A54901EB800090F828003D28C2
:1033F0000CD10021A04800780C3800EB400202EB11
:10340000C0009E4A02EB800080F828109A4800789D
:103410000C3800EB400101EBC000984901EB800043
:1034200090F829003D280CD10021934800780C38F1
:1034300000EB400202EBC000904A02EB800080F8F3
:1034400029108D4800780C3800EB400101EBC000DA
:103450008A4901EB8000407963280BDD63218648AF
:1034600000780C3800EB400202EBC000834A02EB0C
:1034700080004171804800780C3800EB400101EB7E
:10348000C0007E4901EB8000407805280BD1002167
:10349000794800780C3800EB400202EBC000774A14
:1034A00002EB80004170FDE3734800780C3820B9CE
:1034B00073480078401C724908706F4800780C38D7
:1034C000012804D16F480078401C6E4908706A4892
:1034D00000780C38022804D16B480078401C6A49F7
:1034E0000870654800780C38032804D167480078D4
:1034F000401C66490870604800780C38042804D1E4
:1035000063480078401C624908705B4800780C38BA
:10351000052804D15F480078401C5E490870564871
:1035200000780C38062804D15B480078401C5A49C2
:103530000870514800780C38072804D157480078A3
:10354000401C564908704C4800780C38082804D1B3
:1035500053480078401C52490870474800780C389E
:10356000092804D14F480078401C4E49087044484F
:103570000078022823DC4348007802281FDC4248F8
:10358000007802281BDC41480078022817DC4048FC
:103590000078022813DC3F48007802280FDC3E4800
:1035A000007802280BDC3D480078022807DC3C4804
:1035B0000078022803DC3B48007802287CDD2E4896
:1035C00000780C3800EB400101EBC0002B4901EB07
:1035D0008000407801280AD133480078401C3249E5
:1035E000087008460078072801D101200870224899
:1035F00000780C3800EB400101EBC0001F4901EBE3
:103600008000407802280AD128480078401C2749C9
:10361000087008460078032801D101200870164878
:1036200000780C3800EB400101EBC000134901EBBE
:103630008000407803280AD11D480078401C1C49AE
:10364000087008460078072801D1012008700A4850
:1036500000780C3800EB400101EBC000074901EB9A
:103660008000407804282CD112480078401C114971
:1036700008700846007820E002040020D4000020F2
:10368000B4020020B5020020B6020020B7020020DC
:10369000B8020020B9020020BA020020BB020020BC
:1036A000BC020020BD020020BE020020BF0200209C
:1036B000C0020020C102002003E0152801D1012032
:1036C0000870F0E6FE48007898BBFE48007880BBA2
:1036D000FD48007868BBFD48007850BBFC48007886
:1036E00038BBFC48007820BBFB48007808BBFB488F
:1036F0000078F0B9FA480078D8B9FA480078C0B92B
:10370000F94800780C3800EB400101EBC000F749A4
:1037100001EB80004078401EC1B2F34800780C38BD
:1037200000EB400202EBC000F04A02EB8000417067
:10373000E1E3FFE7EC4800780C3800EB400101EBD7
:10374000C000EA4901EB8000407801287ED1E848BA
:103750000078012817D1E44800780C3800EB4001CC
:1037600001EBC000E14901EB80004079401EC1B28D
:10377000DD4800780C3800EB400202EBC000DB4A69
:1037800002EB80004171DA480078022817D1D64850
:1037900000780C3800EB400101EBC000D34901EB8D
:1037A00080008079401EC1B2CF4800780C3800EB11
:1037B000400202EBC000CD4A02EB80008171CC4890
:1037C0000078032817D1C84800780C3800EB400176
:1037D00001EBC000C54901EB8000007B401CC1B279
:1037E000C14800780C3800EB400202EBC000BF4A31
:1037F00002EB80000173BE480078042819D1BA4852
:1038000000780C3800EB400101EBC000B74901EB38
:103810008000407B08B9012100E00021B248007817
:103820000C3800EB400202EBC000B04A02EB800013
:103830004173AD4800780C3800EB400101EBC0004B
:10384000AA4901EB8000007B042800E076E00BD160
:103850000021A54800780C3800EB400202EBC000C4
:10386000A24A02EB80000173A1480078052817D115
:103870009D4800780C3800EB400101EBC0009B49EB
:1038800001EB80000089401E81B2974800780C3817
:1038900000EB400202EBC000944A02EB8000018181
:1038A00093480078062817D18F4800780C3800EB31
:1038B000400101EBC0008D4901EB80004089401EB2
:1038C00081B2894800780C3800EB400202EBC0005E
:1038D000864A02EB80004181834800780C3800EB77
:1038E000400101EBC000814901EB80000089012803
:1038F0000BDC01217C4800780C3800EB400202EB25
:10390000C0007A4A02EB80000181774800780C38C9
:1039100000EB400101EBC000744901EB80004089DD
:1039200001280BDC0121704800780C3800EB4002C4
:1039300002EBC0006D4A02EB800041816A480078CA
:103940000C3800EB400101EBC000684901EB80003E
:10395000407802286FD167480078012817D1624863
:1039600000780C3800EB400101EBC0005F4901EB2F
:103970008000408A401E81B25B4800780C3800EB22
:10398000400202EBC000594A02EB800041825948D4
:103990000078022817D1544800780C3800EB400119
:1039A00001EBC000514901EB8000008A401E81B24A
:1039B0004D4800780C3800EB400202EBC0004B4A47
:1039C00002EB80000182484800780C3800EB40018F
:1039D00001EBC000454901EB8000408A4FF6FF71C2
:1039E00088420CD142F20F713F4800780C3800EB4E
:1039F000400202EBC0003D4A02EB800041823A489F
:103A000000780C3800EB400101EBC000374901EBB6
:103A10008000008A4FF6FF7188420CD142F20F718C
:103A2000314800780C3800EB400202EBC0002F4A0E
:103A300002EB800001822C4800780C3800EB40013A
:103A400001EBC000294901EB8000407803287CD1BC
:103A500029480078012817D1234800780C3800EB5A
:103A6000400101EBC000214901EB80004079401E7C
:103A7000C1B21D4800780C3800EB400202EBC000D8
:103A80001A4A02EB800041711B480078022836D1A7
:103A9000154800780C3800EB400101EBC0001349D9
:103AA00001EB80008079401EC1B20F4800780C38CD
:103AB00000EB400202EBC0000C4A02EB80001DE06C
:103AC000B4020020B5020020B6020020B702002098
:103AD000B8020020B9020020BA020020BB02002078
:103AE000BC020020BD02002002040020D4000020FF
:103AF000BE020020BF020020C00200208171FE48EB
:103B00000078032817D1FD4800780C3800EB4001FD
:103B100001EBC000FA4901EB8000007B401CC1B200
:103B2000F64800780C3800EB400202EBC000F44A83
:103B300002EB80000173F048007804281BD1EF48A5
:103B400000780C3800EB400100E09DE001EBC00084
:103B5000EB4901EB8000407B08B9012100E0002126
:103B6000E64800780C3800EB400202EBC000E44A63
:103B700002EB80004173E14800780C3800EB400113
:103B800001EBC000DE4901EB8000007B04280BD173
:103B90000021DA4800780C3800EB400202EBC0004C
:103BA000D74A02EB80000173D3480078052817D16B
:103BB000D24800780C3800EB400101EBC000D0493E
:103BC00001EB8000408A401E81B2CC4800780C385E
:103BD00000EB400202EBC000C94A02EB80004182C8
:103BE000C5480078062817D1C44800780C3800EB87
:103BF000400101EBC000C24901EB8000008A401E79
:103C000081B2BE4800780C3800EB400202EBC000E5
:103C1000BB4A02EB80000182B84800780C3800EB08
:103C2000400101EBC000B64901EB8000408A4FF62D
:103C3000FF7188420CD142F20F71B04800780C3805
:103C400000EB400202EBC000AD4A02EB8000418273
:103C5000AA4800780C3800EB400101EBC000A849ED
:103C600001EB8000008A4FF6FF7188420CD142F2CE
:103C70000F71A24800780C3800EB400202EBC00044
:103C80009F4A02EB800001829C4800780C3800EBD0
:103C9000400101EBC0009A4901EB80004078042804
:103CA0007DD100E0FDE397480078012817D19348C3
:103CB00000780C3800EB400101EBC000904901EBAB
:103CC0008000C07D401EC1B28C4800780C3800EBEB
:103CD000400202EBC0008A4A02EB8000C1758948AD
:103CE0000078022817D1854800780C3800EB400195
:103CF00001EBC000824901EB8000007E401EC1B292
:103D00007E4800780C3800EB400202EBC0007C4A91
:103D100002EB800001767B480078032817D17748B2
:103D200000780C3800EB400101EBC000744901EB56
:103D30008000407E401EC1B2704800780C3800EB15
:103D4000400202EBC0006E4A02EB800041766D48F3
:103D50000078042819D1694800780C3800EB40013C
:103D600001EBC000664901EB8000807E08B90121AB
:103D700000E00021614800780C3800EB400202EBC3
:103D8000C0005F4A02EB800081765E48007805281B
:103D900019D15A4800780C3800EB400100E06CE380
:103DA00001EBC000564901EB8000C07E401EC1B24D
:103DB000524800780C3800EB400202EBC000504A39
:103DC00002EB8000C1764F480078062817D14B4897
:103DD00000780C3800EB400101EBC000484901EBD2
:103DE0008000007F401EC1B2444800780C3800EBD0
:103DF000400202EBC000424A02EB800001774148DA
:103E00000078072817D13D4800780C3800EB4001B6
:103E100001EBC0003A4901EB8000407F401EC1B277
:103E2000364800780C3800EB400202EBC000344A00
:103E300002EB8000417733480078082819D12F48D9
:103E400000780C3800EB400101EBC0002C4901EB7D
:103E50008000807F08B9012100E000212748007818
:103E60000C3800EB400202EBC000254A02EB800058
:103E7000817724480078092817D1204800780C3829
:103E800000EB400101EBC0001D4901EB8000C07F49
:103E9000401EC1B2194800780C3800EB400202EB1A
:103EA000C000174A02EB8000C177164800780A2844
:103EB00019D1124800780C3800EB400101EBC0002A
:103EC0000F4901EB800090F82000401EC1B20B4862
:103ED00000780C3800EB400202EBC000084A02EB0D
:103EE000800080F82010074800780B2823D1034871
:103EF00000780C3808E0DBE2C00200200204002059
:103F0000D4000020C102002000EB400101EBC00002
:103F1000FE4901EB800090F82100401EC1B2FC4830
:103F200000780C3800EB400202EBC000F74A02EBCD
:103F3000800080F82110F74800780C281BD1F44845
:103F400000780C3800EB400101EBC000EF4901EBB9
:103F5000800090F8220008B9012100E00021EC481F
:103F600000780C3800EB400202EBC000E74A02EB9D
:103F7000800080F82210E74800780D2819D1E44825
:103F800000780C3800EB400101EBC000DF4901EB89
:103F9000800090F82300401EC1B2DD4800780C3844
:103FA00000EB400202EBC000D84A02EB800080F830
:103FB0002310D84800780E2819D1D54800780C383D
:103FC00000EB400101EBC000D04901EB800090F80C
:103FD0002400401EC1B2CE4800780C3800EB4002ED
:103FE00002EBC000C94A02EB800080F82410C948E7
:103FF00000780F2819D1C64800780C3800EB400132
:1040000001EBC000C14901EB800090F82500401E83
:10401000C1B2BF4800780C3800EB400202EBC00090
:10402000BA4A02EB800080F82510BA4800781028C0
:104030001BD1B74800780C3800EB400101EBC00001
:10404000B24901EB800090F8260008B9012100E098
:104050000021AF4800780C3800EB400202EBC000B2
:10406000AA4A02EB800080F82610AA48007811289E
:1040700019D1A74800780C3800EB400101EBC000D3
:10408000A24901EB800090F82700401EC1B2A04871
:1040900000780C3800EB400202EBC0009B4A02EBB8
:1040A000800080F827109B480078122819D1984882
:1040B00000780C3800EB400101EBC000934901EBA4
:1040C000800090F82800401EC1B2914800780C385A
:1040D00000EB400202EBC0008C4A02EB800080F84B
:1040E00028108C480078132819D1894800780C389A
:1040F00000EB400101EBC000844901EB800090F827
:104100002900401EC1B2824800780C3800EB400202
:1041100002EBC0007D4A02EB800080F829107D4848
:10412000007814281BD17A4800780C3800EB400145
:1041300001EBC000754901EB800090F82A0008B936
:10414000012100E00021724800780C3800EB4002A9
:1041500002EBC0006D4A02EB800080F82A106C4828
:1041600000780C3800EB400101EBC000674901EB1F
:104170008000C07DFF280BD11721654800780C38DE
:1041800000EB400202EBC000604A02EB8000C17508
:104190005F4800780C3800EB400101EBC0005B4940
:1041A00001EB8000007EFF280BD13C2158480078AD
:1041B0000C3800EB400202EBC000544A02EB8000D6
:1041C0000176534800780C3800EB400101EBC00049
:1041D0004E4901EB8000407EFF280BD13C214C482A
:1041E00000780C3800EB400202EBC000474A02EBBB
:1041F00080004176464800780C3800EB400101EB26
:10420000C000424901EB8000C07EFF280BD117217E
:104210003F4800780C3800EB400202EBC0003B4AFC
:1042200002EB8000C1763A4800780C3800EB400180
:1042300001EBC000354901EB8000007FFF280BD166
:104240003C21334800780C3800EB400202EBC00000
:104250002E4A02EB800001772D4800780C3800EBE5
:10426000400101EBC000294901EB8000407FFF289D
:104270000BD13C21264800780C3800EB400202EBC1
:10428000C000224A02EB80004177214800780C38B8
:1042900000EB400101EBC0001C4901EB8000C07F36
:1042A000FF280BD117211A4800780C3800EB400288
:1042B00002EBC000154A02EB8000C1771448007879
:1042C0000C3800EB400101EBC000104901EB80000D
:1042D00090F82000FF280CD13C210D4800780C38C4
:1042E00000EB400202EBC000084A02EB800080F8BD
:1042F0002010074800780C3800EB400101EBC000AB
:10430000024901EB800090F8210005E0D400002074
:1043100002040020C1020020FF280CD13C21FE48ED
:1043200000780C3800EB400202EBC000FB4A02EBC5
:10433000800080F82110F84800780C3800EB40012C
:1043400001EBC000F54901EB800090F82300FF2845
:104350000CD11721F04800780C3800EB400202EB3A
:10436000C000EE4A02EB800080F82310EA48007893
:104370000C3800EB400101EBC000E84901EB800084
:1043800090F82400FF280CD13C21E34800780C3839
:1043900000EB400202EBC000E04A02EB800080F834
:1043A0002410DD4800780C3800EB400101EBC00020
:1043B000DA4901EB800090F82500FF280CD13C2160
:1043C000D54800780C3800EB400202EBC000D34A1D
:1043D00002EB800080F82510CF4800780C3800EB05
:1043E000400101EBC000CD4901EB800090F82700AF
:1043F000FF280CD11721C84800780C3800EB400288
:1044000002EBC000C54A02EB800080F82710C248CA
:1044100000780C3800EB400101EBC000BF4901EB14
:10442000800090F82800FF280CD13C21BA48007881
:104430000C3800EB400202EBC000B84A02EB8000EF
:1044400080F82810B44800780C3800EB400101EBEC
:10445000C000B24901EB800090F82900FF280CD180
:104460003C21AD4800780C3800EB400202EBC00064
:10447000AA4A02EB800080F82910A74800780C387F
:1044800000EB400101EBC000A44901EB8000807902
:1044900000280DDA0021A04800780C3800EB40021B
:1044A00000E020E002EBC0009C4A02EB800081713A
:1044B000994800780C3800EB400101EBC0009749A7
:1044C00001EB80004078FF280BD10421924800784E
:1044D0000C3800EB400202EBC000904A02EB800077
:1044E000417000E000BF03E08D4800788A49087001
:1044F0008C480078002841F0CC818B480078002857
:10450000F9D18A4800780028F5D189480078002838
:10451000F1D1884800780028EDD18748007800283C
:10452000E9D1864800780028E5D185480078002840
:10453000E1D1844800780028DDD183480078002844
:10454000D9D10120814908708149087081490870DA
:104550008149087081490870814908708149087053
:104560008149087081490870814908706A4800785B
:104570000C3800EB400101EBC000684901EB800002
:104580004078052881F08381DFE800F00313F6F519
:10459000F4005C222321A02011F026F95A222321C5
:1045A000C02011F021F95B222321E02011F01CF939
:1045B000FEE3594800780C3800EB400101EBC000E5
:1045C000564901EB800040791090534800780C3830
:1045D00000EB400101EBC000504901EB8000807905
:1045E0000F904D4800780C3800EB400101EBC00102
:1045F0004A4800EB810000890E90474800780C384B
:1046000000EB400101EBC001444800EB8100408910
:104610000D9027222321A02011F0E6F80A22232161
:10462000C02011F0E1F826222321E02011F0DCF86F
:1046300029224321062011F0D7F82A2243212620DF
:1046400011F0D2F827224321462011F0CDF82C2278
:104650004321662011F0C8F829226721062011F0B5
:10466000C3F82B226721262011F0BEF827226721EC
:10467000462011F0B9F82C226721662011F0B4F819
:1046800032228B21062011F0AFF833228B21262015
:1046900011F0AAF834228B21462011F0A5F835221A
:1046A0008B21662011F0A0F836228B21862011F094
:1046B0009BF82C228B21A62011F096F83722AF21EF
:1046C000062011F091F83822AF21262011F08CF845
:1046D0003922AF21462011F087F83A22AF21662017
:1046E00011F082F82C22AF21862011F07DF869228A
:1046F000D321062011F078F86A22D321262011F068
:1047000073F82922D321462011F06EF82A22D321F2
:10471000662011F069F830E002040020D400002087
:10472000A1020020B4020020B5020020B602002041
:10473000B7020020B8020020B9020020BA0200200F
:10474000BB020020BC020020BD020020AA02002003
:10475000AB020020AC020020AD020020AE0200201F
:10476000AF020020B0020020B1020020B2020020FF
:10477000B3020020FEE369E27AE15822D3218620C9
:1047800011F032F82C22D321A62011F02DF8692245
:10479000F721062011F028F86A22F721262011F0CF
:1047A00023F82922F721462011F01EF82B22F721A9
:1047B000662011F019F85822F721862011F014F81C
:1047C0002C22F721A62011F00FF80A21109890FB57
:1047D000F1F0C0B2029000204FF6FF730090432129
:1047E0008620029A10F0C4FF0A21109890FBF1F283
:1047F00001FB1200C0B2029000204FF6FF73009040
:1048000043219620029A10F0B3FF0A210F9890FBE3
:10481000F1F0C0B2029000204FF6FF7300906721C4
:104820008620029A10F0A4FF0A210F9890FBF1F263
:1048300001FB1200C0B2029000204FF6FF730090FF
:1048400067219620029A10F093FFFE4800780C38FA
:1048500000EB400101EBC000FB4901EB8000007B55
:10486000A8B927228B21C72010F0BEFF42228B213E
:10487000E72010F0B9FF3F228B2140F2071010F023
:10488000B3FF26228B2140F2271010F0ADFFED4838
:1048900000780C3800EB400101EBC000EA4901EB65
:1048A0008000007B012815D127228B21C72010F022
:1048B0009BFF42228B21E72010F096FF40228B21A4
:1048C00040F2071010F090FF26228B2140F22710B3
:1048D00010F08AFFDB4800780C3800EB400101EB58
:1048E000C001D94800EB8100007B022815D12722A6
:1048F0008B21C72010F078FF42228B21E72010F097
:1049000073FF41228B2140F2071010F06DFF262229
:104910008B2140F2271010F067FFCA4800780C384E
:1049200000EB400101EBC000C74901EB8000007BB8
:10493000032815D143228B21C72010F055FF4422B4
:104940008B21E72010F050FF27228B2140F2071027
:1049500010F04AFF42228B2140F2271010F044FF52
:10496000B84800780C3800EB400101EBC000B649B4
:1049700001EB8000407B50B13D22AF21A72010F019
:1049800033FF3E22AF21C72010F02EFF09E03B226B
:10499000AF21A72010F028FF3C22AF21C72010F044
:1049A00023FF64210E9890FBF1F0C0B2029000202A
:1049B0004FF6FF730090D321C820029A10F0D8FE62
:1049C0000A210E9890FBF1F090FBF1F201FB12002E
:1049D000C0B2029000204FF6FF730090D321D82080
:1049E000029A10F0C5FE0A210E9890FBF1F201FB2D
:1049F0001200C0B2029000204FF6FF730090D32146
:104A0000E820029A10F0B4FE64210D9890FBF1F0BA
:104A1000C0B2029000204FF6FF730090F721C8202B
:104A2000029A10F0A5FE0A210D9890FBF1F090FB80
:104A3000F1F201FB1200C0B2029000204FF6FF73AA
:104A40000090F721D820029A10F092FE0A210D98CA
:104A500090FBF1F201FB1200C0B2029000204FF671
:104A6000FF730090F721E820029A10F081FE9FE585
:104A7000744800780C3800EB400101EBC00072492B
:104A800001EB8000408A0C906E4800780C3800EBF7
:104A9000400101EBC0006C4901EB8000008A0B90E3
:104AA00012222321A02010F09FFE0A222321C020E1
:104AB00010F09AFE26222321E02010F095FE3022ED
:104AC0004321062010F090FE31224321262010F0D1
:104AD0008BFE12224321462010F086FE1322432132
:104AE000662010F081FE2C224321862010F07CFEEF
:104AF0002E228B21062010F077FE2F228B212620DC
:104B000010F072FE12228B21462010F06DFE13224F
:104B10008B21662010F068FE2C228B21862010F05D
:104B200063FE4FF47A710C9890FBF1F0C0B20290E2
:104B300000204FF6FF7300904321A620029A10F048
:104B400017FE64210C9890FBF1F00A2190FBF1F222
:104B500001FB1200C0B2029000204FF6FF730090DC
:104B60004321B620029A10F003FE0A210C9890FB14
:104B7000F1F090FBF1F201FB1200C0B202900020B4
:104B80004FF6FF7300904321C620029A10F0F0FD0B
:104B90000A210C9890FBF1F201FB1200C0B20290C6
:104BA00000204FF6FF7300904321D620029A10F0A8
:104BB000DFFD4FF47A710B9890FBF1F0C0B20290D8
:104BC00000204FF6FF7300908B21A620029A10F070
:104BD000CFFD64210B9890FBF1F00A2190FBF1F2DC
:104BE00001FB1200C0B2029000204FF6FF7300904C
:104BF0008B21B620029A10F0BBFD0A210B9890FB86
:104C0000F1F090FBF1F201FB1200C0B20290002023
:104C10004FF6FF7300908B21C620029A10F0A8FD7A
:104C20000A210B9890FBF1F201FB1200C0B2029036
:104C300000204FF6FF7300908B21D620029A10F0CF
:104C400097FDB5E402040020D4000020FE4800785F
:104C50000C3800EB400101EBC000FC4901EB800087
:104C600040790A90F84800780C3800EB400101EBDD
:104C7000C000F64901EB800080790990F248007885
:104C80000C3800EB400101EBC000F04901EB800063
:104C9000408A0890EC4800780C3800EB400101EBAA
:104CA000C000EA4901EB8000008A079027222321F7
:104CB000A02010F099FD12222321C02010F094FDB5
:104CC0000A222321E02010F08FFD29224321062013
:104CD00010F08AFD2A224321262010F085FD27228C
:104CE0004321462010F080FD2C224321662010F045
:104CF0007BFD29226721062010F076FD2B226721FB
:104D0000262010F071FD27226721462010F06CFD4F
:104D10002C226721662010F067FD32228B210620AD
:104D200010F062FD33228B21262010F05DFD34222D
:104D30008B21462010F058FD35228B21662010F083
:104D400053FD36228B21862010F04EFD2C228B2124
:104D5000A62010F049FD3722AF21062010F044FDB7
:104D60003822AF21262010F03FFD3922AF21462006
:104D700010F03AFD3A22AF21662010F035FD2C22CA
:104D8000AF21862010F030FD0A210A9890FBF1F047
:104D9000C0B2029000204FF6FF730090432186209E
:104DA000029A10F0E5FC0A210A9890FBF1F200E06B
:104DB000FEE301FB1200C0B2029000204FF6FF7329
:104DC000009043219620029A10F0D2FC0A21099803
:104DD00090FBF1F0C0B2029000204FF6FF730090FC
:104DE00067218620029A10F0C3FC0A21099890FBE3
:104DF000F1F201FB1200C0B2029000204FF6FF73E7
:104E0000009067219620029A10F0B2FC8E4800783C
:104E10000C3800EB400101EBC0008C4901EB800035
:104E2000007BA8B927228B21C72010F0DDFC42228D
:104E30008B21E72010F0D8FC3F228B2140F2071095
:104E400010F0D2FC26228B2140F2271010F0CCFC6F
:104E50007D4800780C3800EB400101EBC0007B4935
:104E600001EB8000007B012815D127228B21C72070
:104E700010F0BAFC42228B21E72010F0B5FC402252
:104E80008B2140F2071010F0AFFC26228B2140F25C
:104E9000271010F0A9FC6C4800780C3800EB40019A
:104EA00001EBC000694901EB8000007B022815D1AD
:104EB00027228B21C72010F097FC42228B21E7206C
:104EC00010F092FC41228B2140F2071010F08CFC74
:104ED00026228B2140F2271010F086FC5A480078D9
:104EE0000C3800EB400101EBC000584901EB800099
:104EF000007B032815D143228B21C72010F074FCBE
:104F000044228B21E72010F06FFC27228B2140F2F6
:104F1000071010F069FC42228B2140F2271010F09C
:104F200063FC494800780C3800EB400101EBC000FD
:104F3000464901EB8000407B50B13D22AF21A720C4
:104F400010F052FC3E22AF21C72010F04DFC09E0CA
:104F50003B22AF21A72010F047FC3C22AF21C72005
:104F600010F042FC3022D321062010F03DFC31220B
:104F7000D32100E0C2E0262010F036FC1222D3211B
:104F8000462010F031FC1322D321662010F02CFCB7
:104F90002C22D321862010F027FC2E22F721062078
:104FA00010F022FC2F22F721262010F01DFC1222E7
:104FB000F721462010F018FC1322F721662010F08C
:104FC00013FC2C22F721862010F00EFC4FF47A718E
:104FD000089890FBF1F0C0B2029000204FF6FF73EA
:104FE0000090D321A620029A10F0C2FB64210898F9
:104FF00090FBF1F00A2190FBF1F201FB1200C0B22C
:10500000029000204FF6FF730090D321B620029A41
:1050100010F0AEFB0A21089890FBF1F10A2091FBF9
:10502000F0F200FB1210C0B2029000204FF6FF73A6
:105030000090D321C620029A10F09AFB0A2108980A
:1050400090FBF1F204E0000002040020D4000020F4
:1050500001FB1200C0B2029000204FF6FF730090D7
:10506000D321D620029A10F083FB4FF47A7107986F
:1050700090FBF1F0C0B2029000204FF6FF73009059
:10508000F721A620029A10F073FB6421079890FB89
:10509000F1F00A2190FBF1F201FB1200C0B2029084
:1050A00000204FF6FF730090F721B620029A10F00F
:1050B0005FFB0A21079890FBF1F090FBF1F201FBF6
:1050C0001200C0B2029000204FF6FF730090F7214B
:1050D000C620029A10F04CFB0A21079890FBF1F2CF
:1050E00001FB1200C0B2029000204FF6FF73009047
:1050F000F721D620029A10F03BFBC9E30020039071
:10510000049005900690FD4800780C3800EB4001B3
:1051100001EBC000FA4901EB8000C07D8DF80C0066
:10512000F64800780C3800EB400101EBC000F44970
:1051300001EB8000007E8DF80D00F04800780C38FF
:1051400000EB400101EBC000ED4901EB8000407E27
:105150008DF80E00E94800780C3800EB400101EBB7
:10516000C000E74901EB8000C07E8DF80F00E348E6
:1051700000780C3800EB400101EBC000E04901EB86
:105180008000017F8DF81010DC4800780C3800EBAF
:10519000400101EBC000DA4901EB8000417F8DF84E
:1051A0001110D64800780C3800EB400101EBC0002C
:1051B000D34901EB8000C07F8DF81200CF48007802
:1051C0000C3800EB400101EBC000CD4901EB800041
:1051D00090F820108DF81310C84800780C3800EBB8
:1051E000400101EBC000C64901EB800090F821109E
:1051F0008DF81410C14800780C3800EB400101EB29
:10520000C000BF4901EB800090F823008DF8150025
:10521000BA4800780C3800EB400101EBC000B849F7
:1052200001EB800090F824108DF81610B348007838
:105230000C3800EB400101EBC000B14901EB8000EC
:1052400090F825108DF81710AC4800780C3800EB5A
:10525000400101EBC000AA4901EB800090F8270053
:105260008DF81800A54800780C3800EB400101EBE0
:10527000C000A34901EB800090F828108DF81910A8
:105280009E4800780C3800EB400101EBC0009C49BF
:1052900001EB800090F829108DF81A1028222321A4
:1052A000A02010F0A1FA12222321C02010F09CFAB5
:1052B0000A222321E02010F097FA4E2243210020F9
:1052C00010F092FA122243216C2010F08DFA28225D
:1052D0004321B42010F088FA45224321FC2010F02D
:1052E00083FA9DF80C000A2190FBF1F0C0B2029005
:1052F00000204FF6FF73009043214820029A10F0DF
:1053000037FA9DF80C000A2190FBF1F201FB120024
:10531000C0B2029000204FF6FF7300904321582046
:10532000029A10F025FA9DF80D000A2190FBF1F089
:10533000C0B2029000204FF6FF73009043219020EE
:10534000029A10F015FA9DF80D000A2190FBF1F277
:1053500001FB1200C0B2029000204FF6FF730090D4
:105360004321A020029A10F003FA9DF80E000A21B2
:1053700090FBF1F0C0B2029000204FF6FF73009056
:105380004321D820029A10F0F3F99DF80E000A216B
:1053900090FBF1F201FB1200C0B2029000204FF628
:1053A000FF7300904321E820029A10F0E1F953487E
:1053B00000780C3800EB400101EBC000504901EBD4
:1053C0008000807E30B14622432140F23B1010F035
:1053D0000BFA05E04722432140F23B1010F004FA9B
:1053E0004F226721002010F0FFF9122267216C2064
:1053F00010F0FAF928226721B42010F0F5F94522BF
:105400006721FC2010F0F0F99DF80F000A2190FBB5
:10541000F1F0C0B2029000204FF6FF7300906721B8
:105420004820029A10F0A4F99DF80F000A2190FB81
:10543000F1F201FB1200C0B2029000204FF6FF73A0
:10544000009067215820029A10F092F99DF8100000
:105450000A2190FBF1F0C0B2029000204FF6FF73DA
:10546000009067219020029A10F082F99DF81000B8
:105470000A2190FBF1F201FB1200C0B20290002061
:105480004FF6FF7300906721A020029A10F070F988
:105490009DF811000A2190FBF1F0C0B202900020AB
:1054A0004FF6FF7300906721D820029A10F060F940
:1054B0009DF811000A2190FBF1F201FB1200C0B22D
:1054C000029000204FF6FF7300906721E820029AB7
:1054D00010F04EF9094800780C3800EB400101EB60
:1054E000C000074901EB8000807F58B14622672148
:1054F00040F23B1010F078F90AE0000002040020AE
:10550000D40000204722672140F23B1010F06CF9D4
:1055100050228B21002010F067F912228B216C2081
:1055200010F062F928228B21B42010F05DF9452299
:105530008B21FC2010F058F99DF812000A2190FBF5
:10554000F1F0C0B2029000204FF6FF7300908B2163
:105550004820029A10F00CF99DF812000A2190FBE5
:10556000F1F201FB1200C0B2029000204FF6FF736F
:1055700000908B215820029A10F0FAF89DF8130041
:105580000A2190FBF1F0C0B2029000204FF6FF73A9
:1055900000908B219020029A10F0EAF89DF81300F9
:1055A0000A2190FBF1F201FB1200C0B2029000E070
:1055B0006EE100204FF6FF7300908B21A020029A2D
:1055C00010F0D6F89DF814000A2190FBF1F0C0B25B
:1055D000029000204FF6FF7300908B21D820029A92
:1055E00010F0C6F89DF814000A2190FBF1F201FBBF
:1055F0001200C0B2029000204FF6FF7300908B2182
:10560000E820029A10F0B4F8FE4800780C3800EB5D
:10561000400101EBC000FC4901EB800090F8220042
:1056200030B146228B2140F23B1010F0DDF805E04E
:1056300047228B2140F23B1010F0D6F85122AF21C7
:10564000002010F0D1F81222AF216C2010F0CCF81D
:105650002822AF21B42010F0C7F84522AF21FC204A
:1056600010F0C2F89DF815000A2190FBF1F0C0B2CD
:10567000029000204FF6FF730090AF214820029A5D
:1056800010F076F89DF815000A2190FBF1F201FB6D
:105690001200C0B2029000204FF6FF730090AF21BD
:1056A0005820029A10F064F89DF816000A2190FB29
:1056B000F1F0C0B2029000204FF6FF730090AF21CE
:1056C0009020029A10F054F89DF816000A2190FBE1
:1056D000F1F201FB1200C0B2029000204FF6FF73FE
:1056E0000090AF21A020029A10F042F89DF8170018
:1056F0000A2190FBF1F0C0B2029000204FF6FF7338
:105700000090AF21D820029A10F032F89DF81700CF
:105710000A2190FBF1F201FB1200C0B202900020BE
:105720004FF6FF730090AF21E820029A10F020F8A6
:10573000B44800780C3800EB400101EBC000B249DE
:1057400001EB800090F8260030B14622AF2140F2F4
:105750003B1010F049F805E04722AF2140F23B1022
:1057600010F042F85222D321002010F03DF812220E
:10577000D3216C2010F038F82822D321B42010F067
:1057800033F84522D321FC2010F02EF89DF81800A4
:105790000A2190FBF1F0C0B2029000204FF6FF7397
:1057A0000090D3214820029A0FF0E2FF9DF81800E4
:1057B0000A2190FBF1F201FB1200C0B2029000201E
:1057C0004FF6FF730090D3215820029A0FF0D0FFBC
:1057D0009DF819000A2190FBF1F0C0B20290002060
:1057E0004FF6FF730090D3219020029A0FF0C0FF74
:1057F0009DF819000A2190FBF1F201FB1200C0B2E2
:10580000029000204FF6FF730090D321A020029A4F
:105810000FF0AEFF9DF81A000A2190FBF1F0C0B224
:10582000029000204FF6FF730090D321D820029AF7
:105830000FF09EFF9DF81A000A2190FBF1F201FB88
:105840001200C0B2029000204FF6FF730090D321E7
:10585000E820029A0FF08CFF6A4800780C3800EBC1
:10586000400101EBC000684901EB800090F82A007C
:1058700030B14622D32140F23B100FF0B5FF05E0D6
:105880004722D32140F23B100FF0AEFF00E000BFF3
:1058900014E000205D4908705D4908705D4908709A
:1058A0005D4908705D4908705D4908705D49087080
:1058B0005D4908705D4908705D4908705D48007871
:1058C000D0B95D480078B8B95C480078A0B95C48A8
:1058D000007888B95B48007870B95B48007858B99F
:1058E0005A48007840B95A48007828B95948007891
:1058F00010B959480078D0B1424800780C3800EB14
:10590000400101EBC000404901EB8000407870B9D4
:105910005C222321A0200FF067FF5A222321C02000
:105920000FF062FF5B222321E0200FF05DFF414872
:105930000078D8B940480078C0B940480078A8B984
:105940003F48007890B93F48007878B93E480078E1
:1059500060B93E48007848B93D48007830B93D48C4
:10596000007818B93C48007800284AD025480078CB
:105970000C3800EB400101EBC000234901EB800033
:10598000407801283DD11F4800780C3800EB4001D9
:1059900001EBC0001C4901EB8000407910901948D0
:1059A00000780C3800EB400101EBC000164901EB18
:1059B000800080790F90134800780C3800EB40018C
:1059C00001EBC000104901EB800000890E900D48EA
:1059D00000780C3800EB400101EBC0000A4901EBF4
:1059E000800040890D9027222321A0200FF0FCFE8B
:1059F0000A222321C0200FF0F7FE26222321E020D7
:105A00002CE0FDE302040020D4000020AA020020C4
:105A1000AB020020AC020020AD020020AE0200204C
:105A2000AF020020B0020020B1020020B20200202C
:105A3000B3020020B4020020B5020020B60200200C
:105A4000B7020020B8020020B9020020BA020020EC
:105A5000BB020020BC020020BD0200200FF0C4FEEB
:105A60002922432106200FF0BFFE2A2243212620AF
:105A70000FF0BAFE2722432146200FF0B5FE2C225C
:105A8000432166200FF0B0FE2922672106200FF087
:105A9000ABFE2B22672126200FF0A6FE27226721CE
:105AA00046200FF0A1FE2C22672166200FF09CFEFD
:105AB00032228B2106200FF097FE33228B212620E5
:105AC0000FF092FE34228B2146200FF08DFE3522FE
:105AD0008B2166200FF088FE36228B2186200FF066
