:020000040800F2
:10000000C848002001010008D9FA0008E5C000082E
:10001000D5FA000895AA0008A735010800000000DD
:10002000000000000000000000000000890A010834
:1000300069B10008000000006DFB00089D0B01087D
:100040001B0100081B0100081B01000865FF0008D8
:100050001B0100081B0100081B0100081B01000810
:100060001B0100081B0100081B0100081B01000800
:100070001B0100081B01000899AA00081B010008C9
:100080001B0100081B0100081B0100081B010008E0
:100090001B0100081B0100081B0100081B010008D0
:1000A0001B010008650C01081B0100081B0100086A
:1000B000391101081D1501086D1C01081B010008FC
:1000C0001B0100081B0100081B0100081B010008A0
:1000D0001B010008353201081B0100089932010894
:1000E0001B0100081B0100081B010008DFF80CD0F1
:1000F00000F074FE0048004751550108C848002030
:100100000648804706480047FEE7FEE7FEE7FEE7B1
:10011000FEE7FEE7FEE7FEE7FEE7FEE7A10B0108CC
:10012000ED00000830B50B460146002020220124D6
:1001300009E021FA02F59D4205D303FA02F5491BB5
:1001400004FA02F52844151EA2F10102F1DC30BDCB
:1001500010B5431A934209D28318881803E010F8A7
:10016000011D03F8011D521EF9D210BD40EA010322
:100170009B0703D009E008C9121F08C0042AFAD25D
:1001800003E011F8013B00F8013B521EF9D210BD0B
:10019000D2B201E000F8012B491EFBD270470022C9
:1001A000F6E710B513460A4604461946FFF7F0FF76
:1001B000204610BD30B505462A460B4612F8010B05
:1001C00013F8014B08B1A042F8D01CB1002802D0AE
:1001D0006D1CF1E7284630BD10B5044604E00B78ED
:1001E00000F8013B03B1491C521EF8D2204610BD55
:1001F000421C10F8011B0029FBD1801A704710B572
:10020000002200E0521C835C8C5CA34201D1002BD5
:10021000F8D1D8B2E1B2401A10BDCBB203E00178F8
:10022000994203D0401C521EF9D20020704730B5CD
:1002300004460020034600E05B1C934203D2E05CCE
:10024000CD5C401BF8D030BD034611F8012B00F8FF
:10025000012B002AF9D11846704700000FB400B5F1
:100260008DB010A909900B9000914FF0FF300A90CB
:1002700000200C9005480690054807906A4609A89A
:100280000F9900F013FC0DB05DF814FBC90A0008CB
:10029000E70A00082DE9FF5F1D464FF0FF3BD5E957
:1002A000014691465F464FF00008A9697F1C0198FE
:1002B0008847296A824688470028F6D1BAF1FF3F6D
:1002C0000CD024F4C064002E19DD600614D5BAF1F8
:1002D0002B0F09D0BAF12D0F0ED103E0584604B010
:1002E000BDE8F09F44F48064A9697F1C01988847A9
:1002F000761E8246002E02DDBAF1300F03D0B9F12E
:10030000000F26D032E0A969761E44F400747F1CE9
:10031000019888478246002E05DDBAF1780F06D095
:10032000BAF1580F03D0B9F1000F10D01EE0B9F1A7
:10033000000F02D0B9F1100F18D1A969761E24F46C
:1003400000747F1C019888478246102002E0082034
:1003500000E00A20814609E008FB0908A969761E29
:1003600044F400747F1C019888478246002E05DD06
:100370004946504600F086FB0028EDDAE96901980D
:100380008847A00502D46FF00100A8E7E00725D157
:10039000600613D5600502D5C8F1000000E04046B4
:1003A00029680A1D2A600968220501D5087015E030
:1003B000220701D5088011E008600FE02868011DC0
:1003C00029600068210502D580F8008006E0210739
:1003D00002D5A0F8008001E0C0F8008038467EE732
:1003E00000F0E0BBF0B480EA0102D40F4200B2EBAF
:1003F000410F02D20246084611464A0042D0C30DC0
:10040000DDB2C1F3C752AD1A202D35DAC1F31601A2
:1004100041F4000204B15242C5F1200602FA06F18D
:100420002A411044B3EBD05F23D0C4B1012DA0EB1F
:10043000C35009DCF0BC4FF0004202EAC352DBB209
:1004400000F5000000F0FFBB400000F1807000EB01
:10045000C350A0F1807040EAD170490009E049081A
:1004600041EAC071A0EBC35000F50000400800EB6A
:10047000C350F0BC00F0DEBB6142012202EB41013F
:10048000001BF6E7F0BC704781F00041AAE780F05E
:100490000040A7E780EA010210B502F000434000E7
:1004A00022D04A001FD0010E01EB1261C0F35600AA
:1004B000C2F3560240F4000042F40002A0FB022006
:1004C00000047F39140400D0401C50EA124001D4CB
:1004D0004000491EC2B20C0604EBD010401C40087C
:1004E000802A02D003E0002010BD20F00100002986
:1004F00000DA0020184310BD30B480EA010202F097
:10050000004530F0004221F0004013D090B1C30DFF
:10051000D40DC2F31601C0F31600E41A41F4000131
:1005200040F400027D34914201D3641C00E0490094
:10053000002C02DA30BC002070474FF4000000238A
:10054000914201D3891A034340084FEA4101F7D190
:1005500051B1914202D14FF0004105E002D24FF07B
:10056000010101E06FF0010103EBC450284430BCED
:1005700000F060BB2DE9FE4F804681EA0300C00F0A
:100580000C46009021F0004123F00045B8EB02003A
:10059000A94105D24046214690461C460B460246DC
:1005A00023F00040104347D0270DC7F30A00C3F3E0
:1005B0000A510290401A019040286BDAC3F31300ED
:1005C00040F4801B0098924620B10023D2EB030A2E
:1005D00063EB0B0B01985946C0F14002504600F006
:1005E00030FA06460D4650465946019A00F038FA50
:1005F00010EB08006141002487EA115284EAE77396
:100600001A4340D0009A62B3019A012A4FEA075276
:1006100015DC001B61EB02014FF0004202EA0752B9
:10062000CDE90042001C41F5801132462B4600F016
:1006300047FB03B0BDE8F08F40462146F9E7001BB9
:1006400061EB0201001C41F5801300185B4120188A
:10065000A2F5001747EB030140EAD570B6196D41CA
:1006600011E06D084FEA360645EAC0754FEA0752B9
:10067000001B61EB0201001C41F5801149084FEAA3
:1006800030000019514132462B4603B0BDE8F04F0F
:1006900000F007BB0098012240000023D0EB0202CB
:1006A00063EBE073009821464FEAE074B8EB00007A
:1006B00061EB0401E9E783F000435BE781F000416F
:1006C00058E72DE9FE4F81EA030404F0004421F0CD
:1006D000004100944FF0000B23F0004350EA010466
:1006E0005ED052EA03045BD0C3F30A54C1F30A5547
:1006F0002C44A4F2F3340194A0FB0254C1F313017F
:1007000041F48011C3F3130343F4801301FB02444B
:1007100000FB034E840A970A44EA815447EA835750
:10072000A4FB076802958D0A05FB07854FEA932C09
:1007300004FB0C542705029D4FEA065847EA16377A
:10074000B5EB08056EEB070C870E920E47EA811792
:1007500042EA8312A7FB0201B6EB0B0164EB000433
:100760002B0D43EA0C335E1844EB1C50DA4651461D
:10077000E7FB0201C5F313044FEA0B3343EA1453BA
:100780004FEA0432019C43EA0603A4F10C040294EC
:10079000009CCDE900B400F093FA03B0BDE8F08FFF
:1007A00000200146F9E72DE9F04D81EA030404F049
:1007B000004B21F0004514464FF0000A23F00041A1
:1007C00050EA050220D054EA01021DD0C5F30A57B1
:1007D0000246C5F31303C1F31300C1F30A5640F4F4
:1007E000801543F48013A7EB0608101BD64608F2C9
:1007F000FD3873EB050002D308F1010801E09218FF
:100800005B41B8F1000F03DA00200146BDE8F08D2E
:1008100000204FF48011064684460EE0171B73EB50
:10082000050705D3121B63EB050306434CEA010CD5
:1008300049084FEA300092185B4150EA0107EDD1B8
:1008400052EA030012D082EA040083EA0501084359
:1008500005D0101BAB4106D20122002306E0002286
:100860004FF0004302E06FF0010253101AEB060054
:100870004CEB085110EB0A0041EB0B01BDE8F04DC9
:1008800000F00FBAC10F80EAE0700844CA0796234F
:10089000002100F0D8B996230022114600F0D3B908
:1008A00000F0004220F00040C10DC0F3160040F4FB
:1008B00000007F2901DA00207047962903DCC1F18E
:1008C0009601C84001E096398840002AF4D04042A1
:1008D000704720F00040C10DC0F3160040F4000046
:1008E0007F2901DA00207047962903DCC1F19601C7
:1008F000C840704796398840704700F0004230F099
:1009000000400AD0C10D01F56071C0F3160042EA43
:100910000151C2084007114370470020014670474B
:1009200030B5041E71F1000404DB4FF00044404276
:1009300064EB0101141E73F1000405DB1C464FF04B
:100940000043524263EB04038B4208BF824230BD36
:1009500030B5041E71F1000404DB4FF00044404246
:1009600064EB0101141E73F1000405DB1C464FF01B
:100970000043524263EB0403994208BF904230BDEA
:1009800001F0004330B421F0004150EA010206D0EA
:100990000A0DA2F56072C1F31301002A02DC30BC1B
:1009A00000207047440F44EAC104C100E01830BC85
:1009B00000EBC25000F03EB9002801DBC0F100405E
:1009C000002901DBC1F1004181427047002801DBB1
:1009D000C0F10040002901DBC1F1004188427047AD
:1009E0002DE9F05F0546002092469B468846064664
:1009F000814640241BE0284641464746224600F0F7
:100A0000FFF953465A46C01A914110D31146184671
:100A1000224600F016F82D1A67EB01084F462246D1
:100A20000120002100F00DF817EB00094E41201EB7
:100A3000A4F10104DFDC484631462A464346BDE8BE
:100A4000F09F202A04DB203A00FA02F100207047D0
:100A50009140C2F1200320FA03F3194390407047FC
:100A6000202A06DBCB17203A41FA02F043EAE07372
:100A700006E041FA02F3D040C2F12002914008435F
:100A8000194670473A2800D2303820F02002412A17
:100A900001D3A2F13700884201D34FF0FF307047F5
:100AA000026811441378016018467047D160044908
:100AB00051610449116200211161114600F0BEB973
:100AC000A10A0008290E0008426842B1016811F825
:100AD000013B23B1521EC0E90012184670470121A4
:100AE000C160881E704742685AB1C368016843B943
:100AF00083688B4205D0491E521CC0E900120020B9
:100B000070474FF0FF3070470FB4002300B589B035
:100B10000CA900910B996FF00042CB601E4B06931D
:100B20001E4B07930423CDE901321D4A0892024669
:100B30006B46002000F0ACFB09B05DF814FB70B50B
:100B400086B006464FF0FF300091CDE9010100204C
:100B500015460C4604903246694604A8FFF7D4FFB8
:100B600002460498211825B108B1084600E0204645
:100B70002860049800280DD0002A02DD00988842E1
:100B800008D0081B0094CDE901043246694604A848
:100B9000FFF7BAFF06B070BDC90A0008E70A0008EF
:100BA000290E00082DE9F04791460E46804604467E
:100BB000002514F8017B2FB100F032F90068C05D08
:100BC000C007F6D12B2F02D02D2F1ED0641E4A460F
:100BD0003146204600F078FC26B13268A24201D1AD
:100BE000C6F800806A054FF0020418D50023D0EB48
:100BF000030563EB01025D1B934109DB0023D0EB8E
:100C0000030063EB0101BDE8F08745F48065DEE792
:100C100012F054FD046000204FF00041F3E7021E83
:100C200071F10002EFDA12F049FD04604FF0FF307D
:100C30004108E8E70029A8BF7047401C490008BFE9
:100C400020F00100704710B4B0FA80FC00FA0CF0FC
:100C500050EA010404BF10BC704749B1CCF1200434
:100C600021FA04F411FA0CF118BF012121430843C1
:100C7000A3EB0C01CB1D4FEA00614FEA102042BFED
:100C8000002010BC704700EBC35010440029A4BFE3
:100C900010BC7047401C490008BF20F0010010BC88
:100CA000704710B5141E73F1000408DA401C41F1BE
:100CB000000192185B411A4301D120F0010010BDE0
:100CC0002DE9F04D92469B4611B1B1FA81F202E056
:100CD000B0FA80F220329046FFF7B3FE04460F468A
:100CE00040EA0A0041EA0B0153465A46084313D032
:100CF000114653EA010019D0C8F14002504600F0F5
:100D00007FF805460E46504659464246FFF799FE83
:100D1000084305D0012004E020463946BDE8F08DA7
:100D20000020054346EAE0762C4337430A986305E2
:100D3000E40AA0EB08000022FD0A44EA47540A3006
:100D400002D500200146E9E7010510196941DDE9F6
:100D5000084500196941BDE8F04DA2E770B521F0E2
:100D6000004303430CD0C1F30A550024D5EB04051E
:100D700064EB0403D617AD1AB34102DB0020014631
:100D800070BD201841EB025170BD0EB5C10F80EA55
:100D9000E0700844CA07002140F233438DE80E009A
:100DA0000A460B46FFF78CFF03B000BDC1F30A52A1
:100DB000C1F3130140F2FF3341F480119A4202DA89
:100DC00000200146704740F233439A42A2F2334278
:100DD00002DC524200F014B8FFF733BE064C074D58
:100DE00006E0E06840F0010394E8070098471034FB
:100DF000AC42F6D3FFF77EF9DCED0108FCED01080B
:100E0000202A04DB203A21FA02F00021704721FA5F
:100E100002F3D040C2F120029140084319467047C6
:100E2000004870476CED010810B50446FFF7F8FF65
:100E30000068005D00F0010010BD00002DE9F34FD7
:100E40008BB04FF0000801F10C000C464FF0010B85
:100E500046460DF1080A0190626901210198904708
:100E6000051E2DD0252D2CD0216A8847C0B162697E
:100E7000012101989047216A88470028F7D1411E37
:100E800062690198904700E0761CA1690B98884739
:100E9000216A88470028F7D1E1690B988847DBE78A
:100EA000A1690B9888470746A84201D1761CD3E771
:100EB000E1690B9888477F1C02D1B8F1000F6FD011
:100EC00046E1002762693D463946019890472A2845
:100ED00004D162690121019890470125DFF88492CD
:100EE0006269012101989047A0F130010A290AD2D4
:100EF0004F45E5DC07EB870100EB4107303FDFD4CE
:100F000045F01005ECE7E90601D46FF000476C28C6
:100F10000AD04C2814D0682815D06A280DD074281F
:100F20001CD07A281AD01DE06269012101989047EF
:100F30006C2802D045F0040514E045F002050DE0F0
:100F400045F020050AE06269012101989047682870
:100F500002D045F0080505E045F40065626901210D
:100F600001989047C4E9015765283DD019DC5828FD
:100F70007AD00CDC452837D004DC252826D041283F
:100F800031D131E046282FD047282CD12CE05B28E6
:100F900077D0612828D063287CD0642823D15AE0F8
:100FA000D0E06F2848D008DC66281DD067281BD009
:100FB000692821D06E2816D127E0702845D07328E3
:100FC00068D0752847D078280DD14DE0A1690B98DD
:100FD0008847054625283FF469AFE1690B988847A3
:100FE0006D1C3FF46AAFB3E023466A466FF0010020
:100FF0000B9900F04DF99EE045F040006060A807B5
:1010000023464FF0000236D43EE0E8077FF447AFB6
:101010002068011D21600068290501D506701BE7C5
:10102000290701D5068017E7A90703D5F117C0E9FD
:10103000006111E706600FE745F040006060A80717
:1010400023464FF0080216D41EE040F60E0125EAB2
:101050000100606016E045F040006060A80723468C
:101060004FF00A0207D40FE045F040006060A80787
:1010700008D5234610226FF001000B99AFF30080D2
:1010800059E007E0234610226FF001000B99FFF7AB
:1010900001F950E04FF000094F464B46632802D05B
:1010A0005B2806D040E0E80601D40120A0600127BB
:1010B0003AE062690121019890475E2805D14FF01E
:1010C00001096269494601989047216939B90021AF
:1010D0000A46534643F82120491C0829FADBB0B3DD
:1010E000216969B9C11700EBD16253110AEB830181
:1010F00022F01F02821A01200B68904003430B600C
:1011000062690121019890475D28E8D1B9F1000F8B
:1011100009D00020514651F82020D24341F8202028
:10112000401C0828F7DB02AB224600976FF0010055
:101130000B99AFF3008000280CDA401C08D1BBF1FA
:10114000000F05D04FF0FF300DB0BDE8F08FFFE786
:101150004046F9E7E90701D108F1010806444FF0DC
:10116000000B79E6CCCCCC0C2DE9FF4F087883B08E
:101170009946FF2805D0491C2D2804D000240020C2
:1011800008E000200BE00124F9E700EB800003EB0E
:101190004000491C0B78FF2BF7D104B140420023DB
:1011A0000293147819461D462D2C01D02B2C04D106
:1011B000521C2D2C13D000240294AA461478FF2C24
:1011C0000FD00A25A3FB057801FB05814FF0000C29
:1011D00003FB0C11521CE3194AEB0101EEE7012459
:1011E000EAE7814453EA010002D019F5C87F06DA24
:1011F00003980021C0E9001107B0BDE8F08F002579
:10120000AE4E2F46DFF8B882184600F0BEF9CDE9A1
:101210000001B9F1000002DAC9F1000400E004465F
:101220000023A74A1AEB030B42EB045A12E0E00733
:1012300007D02A46334638464146FFF742FA07466A
:1012400088462A46334610461946FFF73AFA0546BD
:101250000E466410002CEAD1DDE90001B9F1000F5F
:101260005A46534606DAFFF79EFA3A464346FFF7D8
:101270009AFA05E0FFF725FA3A464346FFF721FAC6
:10128000029A0AB181F00041039AC2E90001B3E772
:101290002DE9FF4F1F468DB0D7E901464FF0FF38CB
:1012A0002E2045464FF000090B90B9696D1C0E9831
:1012B0008847396A824688470028F6D1BAF1FF3F4D
:1012C0000AD024F4D064002E11DDBAF12B0F08D01F
:1012D000BAF12D0F0BD102E0404611B08DE744F476
:1012E0008064B9696D1C0E9888478246761E6946EF
:1012F000600501D52D2000E02B208DF8000001F1C4
:10130000010B0DF1200809E0B9696D1C0E988847A2
:1013100082460F9844F40074761E0560002E02DDAC
:10132000BAF1300FF0D00B998A453ED144F08004D9
:1013300006E00F99681CA9F1010944F400740860E3
:10134000B9696D1C761E0E98884782463028F0D009
:101350002BE00B998A4505D1200603D444F0800484
:10136000761E18E0504612F0EBFA08B30DF11301A7
:10137000761E44F400748B4508D2AAF130000BF8B5
:10138000010B200607D5A9F1010003E0200602D4D5
:1013900009F101008146A00502D50F99681C08607B
:1013A000B9696D1C0E9888478246002ED1DC53E047
:1013B000002E51DDBAF1650F02D0BAF1450F4BD1C5
:1013C000A00549D5B9696D1C24F44074761E0E98A9
:1013D00088478246002E0CDD2B2804D0BAF12D0F51
:1013E00007D144F48074B9696D1C0E988847824611
:1013F000761EE00501D52D2100E02B2108F8011B08
:10140000CDF82C8021E00DF12901761E44F4007402
:1014100088450CD2AAF1300010F0FF0088F80000D7
:1014200002D10B99884509D908F1010806E0E005C9
:1014300001D5244801E042F20F708146B9696D1C64
:101440000E98884782460F980560002E04DD5046AE
:1014500012F076FA0028D6D1F9690E988847FF2055
:101460008BF8000088F800000020069007904B469B
:101470006A4608A906A8FFF777FEA00502D46FF018
:1014800001002AE714F0240F0AD0E00714D1DDE9A7
:1014900006123868031D3B600068C0E900120BE0CB
:1014A000DDE90601FFF76CFA0146E00704D1386870
:1014B000021D3A600068016028460EE700001440F3
:1014C0000000F03FF1D8FFFF2DE9F74F4FF0000982
:1014D000009C1546CA4614F8010B302801D0ADB166
:1014E00015E014F8010B4FF00109782803D05828B3
:1014F00001D04DB10BE00DB1102D08D14FF0000916
:10150000102514F8010B02E0082500E00A25002749
:101510003E46B8464FEAE57B16E0A5FB07230BFBEA
:10152000073105FB080005FB0616030CD71846F12A
:1015300000061FFA80F8381E4FF0010976F580305A
:1015400000D3CA4614F8010B2946FFF79BFA00287E
:10155000E3DA019838B1B9F1000F01D0641E00E060
:10156000009C01980460BAF1000F08D012F0A6F8B0
:1015700002210160C81E014603B0BDE8F08F3104AE
:1015800041EA174148EA0740F6E70EB540F2334218
:1015900002920022CDE900221346FFF791FB03B02F
:1015A00000BD70B58D1810F8014B14F0030201D185
:1015B00010F8012B231106D110F8013B03E010F8BD
:1015C000016B01F8016B521EF9D1ABB110F8012B80
:1015D00004F00C048A1A0C2C03D0A2EB84129B1C7E
:1015E00008E010F8014BA2EB0422F8E712F8014BD7
:1015F00001F8014B5B1EF9D5A942D4D3002070BD80
:1016000021B1826842F00102826003E0826822F028
:10161000010282607047000000B587B001214802D6
:101620000EF0E2FA012104200EF0DEFA1C20ADF8E3
:10163000040000208DF8070001A9184809F0B8FD42
:10164000002002908DF80C008DF80D004FF4602002
:1016500004900020059001208DF8180002A9104880
:1016600000F042F801210E48FFF7CAFF4FF4404056
:101670000EF07EFA0A4800F0BBF800BF084800F000
:1016800028F80028FAD1064800F0C2F800BF044844
:1016900000F008F80028FAD107B000BD00080140AA
:1016A00000240140014600208A6802F004020AB1C9
:1016B000012000E0002070470146C86C80B27047EE
:1016C0000246002013680B400BB1012000E000200F
:1016D0007047014600208A6802F008020AB1012022
:1016E00000E000207047000030B5024600200023D3
:1016F00050680F4C20400D790C6844EA05242043C3
:10170000506090680B4C2040D1E902542C434D7935
:1017100044EA450420439060D06A20F470000C7CB9
:10172000641EE4B2234340EA0350D06230BD00009F
:10173000FFFEF0FFFDF7F1FFF0B504460D46002077
:101740000021092D11DDE068A5F10A0606EB460728
:10175000072606FA07F18843A5F10A0606EB4606B6
:1017600003FA06F10843E0600CE0206905EB450749
:10177000072606FA07F1884305EB450603FA06F14A
:1017800008432061072A0FDA606B561E06EB8607B6
:101790001F2606FA07F18843561E06EB860605FA51
:1017A00006F10843606322E00D2A0FDA206BD61F92
:1017B00006EB86071F2606FA07F18843D61F06EBBD
:1017C000860605FA06F10843206310E0E06AA2F1FC
:1017D0000D0606EB86071F2606FA07F18843A2F1DD
:1017E0000D0606EB860605FA06F10843E062F0BD39
:1017F000816841F008018160704721B1826842F43C
:10180000A002826003E0826822F4A0028260704736
:10181000816841F004018160704738B504460D4687
:10182000A4F10C000A2881F06281DFE810F00A00C0
:10183000FA00E901D802C703B604A5059406830798
:101840007208012306222421104617F0CBF9012348
:1018500007222421262017F0C5F901231A2224216A
:10186000462017F0BFF901231B222421662017F020
:10187000B9F906224821104617F07AF907224821C3
:10188000262017F075F91C224821462017F070F920
:101890001B224821662017F06BF906226C211046A6
:1018A00017F066F907226C21262017F061F91D2236
:1018B0006C21462017F05CF91B226C21662017F082
:1018C00057F906229021104617F052F9072290216D
:1018D000262017F04DF91E229021462017F048F9D6
:1018E0001B229021662017F043F90622B4211046EE
:1018F00017F03EF90722B421262017F039F91F22EC
:10190000B421462017F034F91B22B421662017F0C9
:101910002FF9062224214FF4AD7017F029F9072280
:1019200024214FF4BD7017F023F9202224214FF415
:10193000CD7017F01DF91B2224214FF4DD7017F034
:1019400017F9062248214FF4AD7017F011F907225C
:1019500048214FF4BD7017F00BF9212248214FF4B4
:10196000CD7017F005F91B2248214FF4DD7017F0F8
:10197000FFF806226C214FF4AD7017F0F9F807223A
:101980006C214FF4BD7017F0F3F822226C214FF454
:10199000CD7017F0EDF81B226C214FF4DD7017F0BD
:1019A000E7F8062290214FF4AD7017F0E1F8072216
:1019B00090214FF4BD7017F0DBF8232290214FF4F3
:1019C000CD7017F0D5F81B2290214FF4DD7017F081
:1019D000CFF80622B4214FF4AD7017F0C9F80722F2
:1019E000B4214FF4BD7017F0C3F800204FF6FF7319
:1019F0000122B42100904FF4CD7017F07DF8002043
:101A00004FF6FF730246B42100904FF4D57017F0E3
:101A100073F81B22B4214FF4DD7017F0A9F801F020
:101A200067B806222421104617F0A2F807222421C5
:101A3000262017F09DF81A222421462017F098F846
:101A40001B222421662017F093F801230622482147
:101A5000104617F0C7F8012307224821262017F067
:101A6000C1F801231C224821462017F0BBF80123AE
:101A70001B224821662017F0B5F806226C2110467B
:101A800017F076F807226C21262017F071F81D2236
:101A90006C21462017F06CF81B226C21662017F091
:101AA00067F806229021104617F062F8072290216D
:101AB000262017F05DF81E229021462017F058F8D6
:101AC0001B229021662017F053F80622B4211046FD
:101AD00017F04EF80722B421262017F049F81F22EC
:101AE000B421462017F044F81B22B421662017F0D9
:101AF0003FF8062224214FF4AD7017F039F8072281
:101B000024214FF4BD7017F033F8202224214FF424
:101B1000CD7017F02DF81B2224214FF4DD7017F043
:101B200027F8062248214FF4AD7017F021F807225C
:101B300048214FF4BD7017F01BF8212248214FF4C3
:101B4000CD7017F015F81B2248214FF4DD7017F007
:101B50000FF806226C214FF4AD7017F009F8072238
:101B60006C214FF4BD7017F003F822226C214FF462
:101B7000CD7016F0FDFF1B226C214FF4DD7016F0C6
:101B8000F7FF062290214FF4AD7016F0F1FF072207
:101B900090214FF4BD7016F0EBFF232290214FF4FB
:101BA000CD7016F0E5FF1B2290214FF4DD7016F08A
:101BB000DFFF0622B4214FF4AD7016F0D9FF0722E3
:101BC000B4214FF4BD7016F0D3FF00204FF6FF7321
:101BD0000122B42100904FF4CD7016F08DFF00204B
:101BE0004FF6FF730246B42100904FF4D57016F003
:101BF00083FF1B22B4214FF4DD7016F0B9FF0EE70E
:101C000006222421104616F0B3FF072224212620A5
:101C100016F0AEFF1A222421462016F0A9FF1B223F
:101C20002421662016F0A4FF06224821104616F053
:101C30009FFF07224821262016F09AFF1C224821E8
:101C4000462016F095FF1B224821662016F090FFD3
:101C5000012306226C21104616F0C4FF012307223F
:101C60006C21262016F0BEFF01231D226C21462088
:101C700016F0B8FF01231B226C21662016F0B2FF7C
:101C800006229021104616F073FF0722902126208D
:101C900016F06EFF1E229021462016F069FF1B22CF
:101CA0009021662016F064FF0622B421104616F03B
:101CB0005FFF0722B421262016F05AFF1F22B4210D
:101CC000462016F055FF1B22B421662016F050FF67
:101CD000062224214FF4AD7016F04AFF072224217A
:101CE0004FF4BD7016F044FF202224214FF4CD7034
:101CF00016F03EFF1B2224214FF4DD7016F038FF52
:101D0000062248214FF4AD7016F032FF0722482119
:101D10004FF4BD7016F02CFF212248214FF4CD70F6
:101D200016F026FF1B2248214FF4DD7016F020FF2D
:101D300006226C214FF4AD7016F01AFF07226C21B9
:101D40004FF4BD7016F014FF22226C214FF4CD70B9
:101D500016F00EFF1B226C214FF4DD7016F008FF09
:101D6000062290214FF4AD7016F002FF0722902159
:101D70004FF4BD7016F0FCFE232290214FF4CD707D
:101D800016F0F6FE1B2290214FF4DD7016F0F0FEE7
:101D90000622B4214FF4AD7016F0EAFE0722B421FA
:101DA0004FF4BD7016F0E4FE00204FF6FF730122E1
:101DB000B42100904FF4CD7016F09EFE00204FF637
:101DC000FF730246B42100904FF4D57016F094FED4
:101DD0001B22B4214FF4DD7016F0CAFE1FE6062266
:101DE0002421104616F0C4FE07222421262016F0D6
:101DF000BFFE1A222421462016F0BAFE1B222421FF
:101E0000662016F0B5FE06224821104616F0B0FEF8
:101E100007224821262016F0ABFE1C22482146202E
:101E200016F0A6FE1B224821662016F0A1FE06220F
:101E30006C21104616F09CFE07226C21262016F01D
:101E400097FE1D226C21462016F092FE1B226C216B
:101E5000662016F08DFE012306229021104616F012
:101E6000C1FE012307229021262016F0BBFE01238C
:101E70001E229021462016F0B5FE01231B22902140
:101E8000662016F0AFFE0622B421104616F070FE52
:101E90000722B421262016F06BFE1F22B421462013
:101EA00016F066FE1B22B421662016F061FE0622A3
:101EB00024214FF4AD7016F05BFE072224214FF46D
:101EC000BD7016F055FE202224214FF4CD7016F07F
:101ED0004FFE1B2224214FF4DD7016F049FE06222E
:101EE00048214FF4AD7016F043FE072248214FF40D
:101EF000BD7016F03DFE212248214FF4CD7016F042
:101F000037FE1B2248214FF4DD7016F031FE062209
:101F10006C214FF4AD7016F02BFE07226C214FF4AC
:101F2000BD7016F025FE22226C214FF4CD7016F004
:101F30001FFE1B226C214FF4DD7016F019FE0622E5
:101F400090214FF4AD7016F013FE072290214FF44C
:101F5000BD7016F00DFE232290214FF4CD7016F0C7
:101F600007FE1B2290214FF4DD7016F001FE0622C1
:101F7000B4214FF4AD7016F0FBFD0722B4214FF4ED
:101F8000BD7016F0F5FD00204FF6FF730122B4215D
:101F900000904FF4CD7016F0AFFD00204FF6FF73A8
:101FA0000246B42100904FF4D57016F0A5FD1B2217
:101FB000B4214FF4DD7016F0DBFD30E5062224215C
:101FC000104616F0D5FD07222421262016F0D0FD5C
:101FD0001A222421462016F0CBFD1B222421662044
:101FE00016F0C6FD06224821104616F0C1FD072254
:101FF0004821262016F0BCFD1C224821462016F060
:10200000B7FD1B224821662016F0B2FD06226C2186
:10201000104616F0ADFD07226C21262016F0A8FD13
:102020001D226C21462016F0A3FD1B226C21662088
:1020300016F09EFD06229021104616F099FD07220B
:102040009021262016F094FD1E229021462016F0A5
:102050008FFD1B229021662016F08AFD01230622A7
:10206000B421104616F0BEFD01230722B42126201C
:1020700016F0B8FD01231F22B421462016F0B2FD50
:1020800001231B22B421662016F0ACFD0622242178
:102090004FF4AD7016F06CFD072224214FF4BD7093
:1020A00016F066FD202224214FF4CD7016F060FD5D
:1020B0001B2224214FF4DD7016F05AFD0622482120
:1020C0004FF4AD7016F054FD072248214FF4BD7057
:1020D00016F04EFD212248214FF4CD7016F048FD38
:1020E0001B2248214FF4DD7016F042FD06226C21C0
:1020F0004FF4AD7016F03CFD07226C214FF4BD701B
:1021000016F036FD22226C214FF4CD7016F030FD12
:102110001B226C214FF4DD7016F02AFD062290215F
:102120004FF4AD7016F024FD072290214FF4BD70DE
:1021300016F01EFD232290214FF4CD7016F018FDED
:102140001B2290214FF4DD7016F012FD0622B421FF
:102150004FF4AD7016F00CFD0722B4214FF4BD70A2
:1021600016F006FD00204FF6FF730122B421009007
:102170004FF4CD7016F0C0FC00204FF6FF730246FE
:10218000B42100904FF4D57016F0B6FC1B22B42198
:102190004FF4DD7016F0ECFC41E4062224211046D9
:1021A00016F0E6FC07222421262016F0E1FC1A2274
:1021B0002421462016F0DCFC1B222421662016F088
:1021C000D7FC06224821104616F0D2FC07224821EF
:1021D000262016F0CDFC1C224821462016F0C8FC13
:1021E0001B224821662016F0C3FC06226C211046F3
:1021F00016F0BEFC07226C21262016F0B9FC1D2229
:102200006C21462016F0B4FC1B226C21662016F0CF
:10221000AFFC06229021104616F0AAFC072290215E
:10222000262016F0A5FC1E229021462016F0A0FCC8
:102230001B229021662016F09BFC0622B42110463A
:1022400016F096FC0722B421262016F091FC1F22DE
:10225000B421462016F08CFC1B22B421662016F017
:1022600087FC0123062224214FF4AD7016F0BAFC3E
:102270000123072224214FF4BD7016F0B3FC012383
:10228000202224214FF4CD7016F0ACFC01231B2238
:1022900024214FF4DD7016F0A5FC062248214FF4EE
:1022A000AD7016F065FC072248214FF4BD7016F0A2
:1022B0005FFC212248214FF4CD7016F059FC1B22FF
:1022C00048214FF4DD7016F053FC06226C214FF4C8
:1022D000AD7016F04DFC07226C214FF4BD7016F066
:1022E00047FC22226C214FF4CD7016F041FC1B22DA
:1022F0006C214FF4DD7016F03BFC062290214FF468
:10230000AD7016F035FC072290214FF4BD7016F029
:102310002FFC232290214FF4CD7016F029FC1B22B4
:1023200090214FF4DD7016F023FC0622B4214FF407
:10233000AD7016F01DFC0722B4214FF4BD7016F0ED
:1023400017FC00204FF6FF730122B42100904FF4D8
:10235000CD7016F0D1FB00204FF6FF730246B4217A
:1023600000904FF4D57016F0C7FB1B22B4214FF438
:10237000DD7016F0FDFBBBE306222421104616F0AB
:10238000F7FB07222421262016F0F2FB1A22242133
:10239000462016F0EDFB1B222421662016F0E8FBF8
:1023A00006224821104616F0E3FB0722482126208A
:1023B00016F0DEFB1C224821462016F0D9FB1B221A
:1023C0004821662016F0D4FB06226C21104616F038
:1023D000CFFB07226C21262016F0CAFB1D226C21A0
:1023E000462016F0C5FB1B226C21662016F0C0FBB0
:1023F00006229021104616F0BBFB072290212620D2
:1024000016F0B6FB1E229021462016F0B1FB1B22CF
:102410009021662016F0ACFB0622B421104616F07F
:10242000A7FB0722B421262016F0A2FB1F22B4210D
:10243000462016F09DFB1B22B421662016F098FB67
:10244000062224214FF4AD7016F092FB07222421BE
:102450004FF4BD7016F08CFB202224214FF4CD7078
:1024600016F086FB1B2224214FF4DD7016F080FB52
:102470000123062248214FF4AD7016F0B3FB01236F
:10248000072248214FF4BD7016F0ACFB0123212236
:1024900048214FF4CD7016F0A5FB01231B224821E3
:1024A0004FF4DD7016F09EFB06226C214FF4AD70E8
:1024B00016F05EFB07226C214FF4BD7016F058FB3E
:1024C00022226C214FF4CD7016F052FB1B226C219E
:1024D0004FF4DD7016F04CFB062290214FF4AD70E6
:1024E00016F046FB072290214FF4BD7016F040FB1A
:1024F000232290214FF4CD7016F03AFB1B2290213D
:102500004FF4DD7016F034FB0622B4214FF4AD70A9
:1025100016F02EFB0722B4214FF4BD7016F028FBF5
:1025200000204FF6FF730122B42100904FF4CD70CC
:1025300016F0E2FA00204FF6FF730246B421009035
:102540004FF4D57016F0D8FA1B22B4214FF4DD7089
:1025500016F00EFBCCE206222421104616F008FBF2
:1025600007222421262016F003FB1A2224214620CC
:1025700016F0FEFA1B222421662016F0F9FA062234
:102580004821104616F0F4FA07224821262016F0BA
:10259000EFFA1C224821462016F0EAFA1B224821B5
:1025A000662016F0E5FA06226C21104616F0E0FAD5
:1025B00007226C21262016F0DBFA1D226C21462012
:1025C00016F0D6FA1B226C21662016F0D1FA0622EC
:1025D0009021104616F0CCFA07229021262016F002
:1025E000C7FA1E229021462016F0C2FA1B22902123
:1025F000662016F0BDFA0622B421104616F0B8FA8D
:102600000722B421262016F0B3FA1F22B421462057
:1026100016F0AEFA1B22B421662016F0A9FA0622A3
:1026200024214FF4AD7016F0A3FA072224214FF4B1
:10263000BD7016F09DFA202224214FF4CD7016F0C3
:1026400097FA1B2224214FF4DD7016F091FA06222E
:1026500048214FF4AD7016F08BFA072248214FF451
:10266000BD7016F085FA212248214FF4CD7016F086
:102670007FFA1B2248214FF4DD7016F079FA01230E
:1026800006226C214FF4AD7016F0ACFA012307223C
:102690006C214FF4BD7016F0A5FA012322226C21A3
:1026A0004FF4CD7016F09EFA01231B226C214FF4DB
:1026B000DD7016F097FA062290214FF4AD7016F0F7
:1026C00057FA072290214FF4BD7016F051FA2322D9
:1026D00090214FF4CD7016F04BFA1B2290214FF44D
:1026E000DD7016F045FA0622B4214FF4AD7016F0F5
:1026F0003FFA0722B4214FF4BD7016F039FA0020DA
:102700004FF6FF730122B42100904FF4CD7016F004
:10271000F3F900204FF6FF730246B42100904FF406
:10272000D57016F0E9F91B22B4214FF4DD7016F0D4
:102730001FFADDE106222421104616F019FA0722BD
:102740002421262016F014FA1A222421462016F0FD
:102750000FFA1B222421662016F00AFA06224821CD
:10276000104616F005FA07224821262016F000FA36
:102770001C224821462016F0FBF91B224821662026
:1027800016F0F6F906226C21104616F0F1F9072230
:102790006C21262016F0ECF91D226C21462016F043
:1027A000E7F91B226C21662016F0E2F9062290213F
:1027B000104616F0DDF907229021262016F0D8F9F0
:1027C0001E229021462016F0D3F91B22902166206C
:1027D00016F0CEF90622B421104616F0C9F90722E8
:1027E000B421262016F0C4F91F22B421462016F089
:1027F000BFF91B22B421662016F0BAF90622242163
:102800004FF4AD7016F0B4F9072224214FF4BD70D7
:1028100016F0AEF9202224214FF4CD7016F0A8F95D
:102820001B2224214FF4DD7016F0A2F90622482164
:102830004FF4AD7016F09CF9072248214FF4BD709B
:1028400016F096F9212248214FF4CD7016F090F938
:102850001B2248214FF4DD7016F08AF906226C2104
:102860004FF4AD7016F084F907226C214FF4BD705F
:1028700016F07EF922226C214FF4CD7016F078F913
:102880001B226C214FF4DD7016F072F90123062231
:1028900090214FF4AD7016F0A5F901230722902185
:1028A0004FF4BD7016F09EF90123232290214FF4BE
:1028B000CD7016F097F901231B2290214FF4DD70A3
:1028C00016F090F90622B4214FF4AD7016F050F9CD
:1028D0000722B4214FF4BD7016F04AF900204FF6DC
:1028E000FF730122B42100904FF4CD7016F004F96B
:1028F00000204FF6FF730246B42100904FF4D570CC
:1029000016F0FAF81B22B4214FF4DD7016F030F9FE
:10291000EEE006222421104616F02AF9072224218F
:10292000262016F025F91A222421462016F020F937
:102930001B222421662016F01BF90622482110468E
:1029400016F016F907224821262016F011F91C224C
:102950004821462016F00CF91B224821662016F06B
:1029600007F906226C21104616F002F907226C21A5
:10297000262016F0FDF81D226C21462016F0F8F8EE
:102980001B226C21662016F0F3F8062290211046D7
:1029900016F0EEF807229021262016F0E9F81E2204
:1029A0009021462016F0E4F81B229021662016F0B4
:1029B000DFF80622B421104616F0DAF80722B42117
:1029C000262016F0D5F81F22B421462016F0D0F8A4
:1029D0001B22B421662016F0CBF8062224214FF4E6
:1029E000AD7016F0C5F8072224214FF4BD7016F023
:1029F000BFF8202224214FF4CD7016F0B9F81B2225
:102A000024214FF4DD7016F0B3F8062248214FF46C
:102A1000AD7016F0ADF8072248214FF4BD7016F0E6
:102A2000A7F8212248214FF4CD7016F0A1F81B22FF
:102A300048214FF4DD7016F09BF806226C214FF40C
:102A4000AD7016F095F807226C214FF4BD7016F0AA
:102A50008FF822226C214FF4CD7016F089F81B22DA
:102A60006C214FF4DD7016F083F8062290214FF4AC
:102A7000AD7016F07DF8072290214FF4BD7016F06E
:102A800077F8232290214FF4CD7016F071F81B22B5
:102A900090214FF4DD7016F06BF801230622B4216B
:102AA0004FF4AD7016F09EF801230722B4214FF4C5
:102AB000BD7016F097F84FF6FF7000230122B42185
:102AC00000904FF4CD7016F017F84FF6FF7000230A
:102AD0001A46B42100904FF4D57016F00DF801237A
:102AE0001B22B4214FF4DD7016F07CF800E000BF2B
:102AF00000BF38BD03B5ADF5097D4FF4F072FE4956
:102B000011A8FDF725FBFD4800780C2801F03D8752
:102B1000FA4800780D28F9D0F84800780E28F5D04A
:102B2000F64800780F28F1D0F44800781028EDD04E
:102B3000F24800781128E9D0F04800781228E5D052
:102B4000EE4800781328E1D0EC4800781428DDD056
:102B5000EA4800781528D9D08A9802287ED004281F
:102B600003D0052841F00F87EEE3E548007878BBF5
:102B7000E448007860BBE448007848BBE34800784C
:102B800030BBE348007818BBE248007800BBE2485D
:102B90000078E8B9E1480078D0B9E1480078B8B9E0
:102BA000E0480078A0B9E04800780C3800EB40001D
:102BB000D14901EB00104078401CC1B2DA480078DE
:102BC0000C3800EB4000CC4A02EB00104170FCE3F3
:102BD000FFE7D54800780C3800EB4000C64901EB10
:102BE0000010407801287DD1D0480078012812D10A
:102BF000CD4800780C3800EB400001EB0010407924
:102C0000401CC1B2C84800780C3800EB4000BA4AFA
:102C100002EB00104171C5480078022813D1C24868
:102C200000780C3800EB4000B34901EB00108079CC
:102C3000401CC1B2BC4800780C3800EB4000AE4AE2
:102C400002EB00108171B9480078032815D1B6480D
:102C500000780C3800EB4000A74900E0FEE301EBF0
:102C60000010007B401CC1B2AF4800780C3800EB6C
:102C70004000A14A02EB00100173AC480078042820
:102C800015D1A94800780C3800EB40009A4901EBB7
:102C90000010407B08B9012100E00021A248007823
:102CA0000C3800EB4000944A02EB001041739E4840
:102CB00000780C3800EB40008F4901EB0010007BDE
:102CC000042809D10021984800780C3800EB400016
:102CD000894A02EB0010017394480078052815D149
:102CE000914800E054E000780C3800EB4000824945
:102CF00001EB00100089401C81B28B4800780C3831
:102D000000EB40007C4A02EB00100181874800780C
:102D1000062813D1844800780C3800EB400076492F
:102D200001EB00104089401C81B27F4800780C38CC
:102D300000EB4000704A02EB001041817A480078B5
:102D40000C3800EB40006C4901EB00100089322880
:102D500009DB3221744800780C3800EB4000664AE9
:102D600002EB00100181704800780C3800EB400045
:102D7000614901EB00104089322809DB32216A48A1
:102D800000780C3800EB40005B4A02EB00104181F8
:102D9000654800780C3800EB4000574901EB001003
:102DA000407802285CD162480078012812D15E4840
:102DB00000780C3800EB400001EB0010408A401C0A
:102DC00081B2594800780C3800EB40004A4A02EBC7
:102DD0000010418256480078022813D152480078EA
:102DE0000C3800EB4000444901EB0010008A401C05
:102DF00081B24D4800780C3800EB40003E4A02EBAF
:102E000000100182484800780C3800EB40003A4935
:102E100001EB0010408A42F21071884209D1002172
:102E2000414800780C3800EB4000334A02EB0010B8
:102E300041823D4800780C3800EB40002E4901EB00
:102E40000010008A42F21071884209D100213648F0
:102E500000780C3800EB4000274A02EB001001829A
:102E6000314800780C3800EB4000234901EB00109A
:102E70004078032877D12F480078012812D12A48BA
:102E800000780C3800EB400001EB00104079401C4A
:102E9000C1B2254800780C3800EB4000164A02EB1E
:102EA0000010417123480078022813D11E48007891
:102EB0000C3800EB4000104901EB00108079401CF9
:102EC000C1B2194800780C3800EB40000A4A02EB06
:102ED0000010817117480078032834D11248007817
:102EE0000C3800EB4000044901EB0010007B401C53
:102EF000C1B20D4800781FE0D8100020E512002074
:102F0000F7120020F8120020F9120020FA12002017
:102F1000FB120020FC120020FD120020FE120020F7
:102F2000FF12002000130020421400200113002093
:102F300002130020031300200C3800EB4000FE4A6F
:102F400002EB00100173FD480078042816D1FC48FC
:102F500000780C3800EB4000F74901EB0010407B93
:102F600010B9012101E07CE00021F54800780C381F
:102F700000EB4000F04A02EB00104173F04800788B
:102F80000C3800EB4000EC4901EB0010007B0428FA
:102F900009D10021EA4800780C3800EB4000E64AED
:102FA00002EB00100173E5480078052813D1E448CE
:102FB00000780C3800EB4000DF4901EB0010408A3C
:102FC000401C81B2DE4800780C3800EB4000DA4A41
:102FD00002EB00104182D9480078062813D1D84866
:102FE00000780C3800EB4000D34901EB0010008A58
:102FF000401C81B2D24800780C3800EB4000CE4A29
:1030000002EB00100182CE4800780C3800EB400043
:10301000C94901EB0010408A42F21071884209D17F
:103020000021C74800780C3800EB4000C24A02EB90
:1030300000104182C24800780C3800EB4000BE49C5
:1030400001EB0010008A42F21071884209D1002180
:10305000BB4800780C3800EB4000B74A02EB001088
:103060000182B74800780C3800EB4000B24901EB10
:103070000010407804286ED1B2480078012812D19F
:10308000AF4800780C3800EB400001EB0010C07D29
:10309000401CC1B2AA4800780C3800EB4000A64A98
:1030A00002EB0010C175A7480078022813D1A4488C
:1030B00000780C3800EB40009F4901EB0010007EC7
:1030C000401CC1B29E4800780C3800EB40009A4A80
:1030D00002EB001001769B480078032813D1984832
:1030E00000780C3800EB4000934901EB0010407E63
:1030F000401CC1B2924800780C3800EB40008E4A68
:1031000002EB001041768F480078042813D18C48D8
:1031100000780C3800EB4000874901EB0010807EFE
:10312000401CC1B2864800780C3800EB4000824A4F
:1031300002EB0010817683480078052816D180487C
:1031400000780C3800EB40007B4901EB0010C07E9A
:1031500010B9012101E0E2E30021794800780C3840
:1031600000EB4000744A02EB0010C176754800780D
:10317000062813D1724800780C3800EB40006E49E5
:1031800001EB0010007F401CC1B26D4800780C3884
:1031900000EB4000684A02EB0010017769480078B4
:1031A000072813D1664800780C3800EB40006249CC
:1031B00001EB0010407F401CC1B2614800780C3820
:1031C00000EB40005C4A02EB001041775D4800785C
:1031D000082813D15A4800780C3800EB40005649B3
:1031E00001EB0010807F401CC1B2554800780C38BC
:1031F00000EB4000504A02EB001081775148007804
:10320000092813D14E4800780C3800EB40004A4999
:1032100001EB0010C07F401CC1B2494800780C3857
:1032200000EB4000444A02EB0010C17745480078AB
:103230000A2817D1424800780C3800EB40003E497C
:1032400001EB001090F8200008B9012100E00021F6
:103250003B4800780C3800EB4000374A02EB001086
:1032600080F82010374800780B2815D134480078B2
:103270000C3800EB4000304901EB001090F82100C1
:10328000401CC1B22E4800780C3800EB40002A4A9E
:1032900002EB001080F821102A4800780C2815D184
:1032A000274800780C3800EB4000234901EB001060
:1032B00090F82200401CC1B2214800780C3800EB85
:1032C00040001D4A02EB001080F822101D480078D3
:1032D0000D2815D11A4800780C3800EB400016492B
:1032E00001EB001090F82300401CC1B21448007894
:1032F0000C3800EB4000104A02EB001080F823105D
:10330000104800780E2815D10D4800780C3800EBD5
:103310004000094901EB001090F82400401CC1B2A4
:10332000074800780C3800EB4000034A02EB00101D
:1033300080F82410034808E0D81000200313002070
:10334000421400200413002014E300780F2817D142
:10335000FE4800780C3800EB4000FD4901EB0010FE
:1033600090F8250008B9012100E00021F748007815
:103370000C3800EB4000F64A02EB001080F82510F4
:10338000F4480078102815D1F04800780C3800EB8C
:103390004000EF4901EB001090F82600401CC1B23C
:1033A000EA4800780C3800EB4000E94A02EB0010D4
:1033B00080F82610E7480078112817D1E3480078F4
:1033C0000C3800EB4000E24900E0BDE201EB0010E8
:1033D00090F82700401CC1B2DC4800780C3800EBA4
:1033E0004000DB4A02EB001080F82710D948007833
:1033F000122815D1D54800780C3800EB4000D4498C
:1034000001EB001090F82800401CC1B2CF480078B2
:103410000C3800EB4000CE4A02EB001080F8281078
:10342000CC480078132815D1C84800780C3800EB38
:103430004000C74901EB001090F82900401CC1B2C0
:10344000C24800780C3800EB4000C14A02EB001083
:1034500080F82910BF480078142800E08EE317D1C7
:10346000BA4800780C3800EB4000B94901EB001075
:1034700090F82A0008B9012100E00021B348007843
:103480000C3800EB4000B24A02EB001080F82A1022
:10349000B0480078152815D1AC4800780C3800EBFE
:1034A0004000AB4901EB001090F82B00401CC1B26A
:1034B000A64800780C3800EB4000A54A02EB00104B
:1034C00080F82B10A3480078162815D19F48007863
:1034D0000C3800EB40009E4901EB001090F82C00E6
:1034E000401CC1B2994800780C3800EB4000984A63
:1034F00002EB001080F82C1096480078172815D1A0
:10350000924800780C3800EB4000914901EB001024
:1035100090F82D00401CC1B28C4800780C3800EBAC
:1035200040008B4A02EB001080F82D10894800788B
:10353000182815D1854800780C3800EB40008449E4
:1035400001EB001090F82E00401CC1B27F480078BB
:103550000C3800EB40007E4A02EB001080F82E1081
:103560007C480078192817D1784800780C3800EB8F
:103570004000774901EB001090F82F0008B90121B5
:1035800000E00021714800780C3800EB4000704AE0
:1035900002EB001080F82F106C4800780C3800EB1C
:1035A00040006B4901EB0010C07D182809D10021B3
:1035B000664800780C3800EB4000654A02EB0010CA
:1035C000C175624800780C3800EB4000604901EB9F
:1035D0000010007E3D2809D100215C4800780C389D
:1035E00000EB40005A4A02EB001001765748007881
:1035F0000C3800EB4000564901EB0010007F182802
:1036000009D10021514800780C3800EB4000504AA5
:1036100002EB001001774D4800780C3800EB4000B9
:103620004B4901EB0010407F3D2809D1002147485C
:1036300000780C3800EB4000454A02EB001041775F
:10364000424800780C3800EB4000414901EB001083
:1036500090F8210018280AD100213C4800780C3845
:1036600000EB40003A4A02EB001080F82110374886
:1036700000780C3800EB4000354901EB001090F861
:1036800022003D280AD10021304800780C3800EB98
:1036900040002F4A02EB001080F822102B480078DF
:1036A0000C3800EB40002A4901EB001090F826008E
:1036B00018280AD10021254800780C3800EB40007A
:1036C000234A02EB001080F82610204800780C38BE
:1036D00000EB40001E4901EB001090F827003D2848
:1036E0000AD10021194800780C3800EB4000184A34
:1036F00002EB001080F82710144800780C3800EB1B
:103700004000134901EB001090F82B0018280AD153
:1037100000210E4800780C3800EB40000C4A02EB08
:10372000001080F82B10094800780C3800EB40009E
:10373000074901EB001090F82C003D2811D1002121
:10374000024800780C3800EB400005E042140020ED
:10375000D810002004130020F84A02EB001080F873
:103760002C10F74800780C3800EB4000F34901EBCF
:103770000010407E182809D10021F14800780C384B
:1037800000EB4000ED4A02EB00104176EC48007877
:103790000C3800EB4000E94901EB0010807E3D2829
:1037A00009D10021E64800780C3800EB4000E34ADC
:1037B00002EB00108176E24800780C3800EB400004
:1037C000DE4901EB0010807F182809D10021DC4878
:1037D00000780C3800EB4000D84A02EB00108177EB
:1037E000D74800780C3800EB4000D44901EB0010BA
:1037F000C07F3D2809D10021D14800780C3800EB6A
:103800004000CE4A02EB0010C177CD4800780C385A
:1038100000EB4000C94901EB001090F82300182884
:103820000AD10021C64800780C3800EB4000C34A9A
:1038300002EB001080F82310C14800780C3800EB30
:103840004000BE4901EB001090F824003D280AD149
:103850000021BB4800780C3800EB4000B74A02EB6F
:10386000001080F82410B64800780C3800EB4000B7
:10387000B24901EB001090F8280018280AD1002165
:10388000AF4800780C3800EB4000AC4A02EB001067
:1038900080F82810AA4800780C3800EB4000A749AF
:1038A00001EB001090F829003D280AD10021A4481E
:1038B00000780C3800EB4000A04A02EB001080F8C2
:1038C00029109F4800780C3800EB40009B4901EB21
:1038D000001090F82D0018280AD10021984800788F
:1038E0000C3800EB4000954A02EB001080F82D10D8
:1038F000934800780C3800EB4000904901EB001031
:1039000090F82E003D280AD100218D4800780C380F
:1039100000EB4000894A02EB001080F82E10884826
:1039200000780C3800EB4000844901EB001040792E
:10393000632809DD6321824800780C3800EB4000E1
:103940007E4A02EB001041717D4800780C3800EB94
:1039500040007A4901EB00104078052809D1002188
:10396000774800780C3800EB4000744A02EB0010F6
:103970004170FAE3724800780C3820B97148007839
:10398000401C704908706E4800780C38012804D13A
:103990006D480078401C6C490870694800780C3804
:1039A000022804D169480078401C684908706448BE
:1039B00000780C38032804D165480078401C64491D
:1039C00008705F4800780C38042804D161480078FA
:1039D000401C604908705A4800780C38052804D10A
:1039E0005D480078401C5C490870554800780C38E8
:1039F000062804D159480078401C5849087050489E
:103A000000780C38072804D155480078401C5449E8
:103A100008704B4800780C38082804D151480078C9
:103A2000401C50490870464800780C38092804D1D9
:103A30004D480078401C4C490870424800780228E4
:103A400023DC4148007802281FDC40480078022827
:103A50001BDC3F480078022817DC3E48007802282B
:103A600013DC3D48007802280FDC3C48007802282F
:103A70000BDC3B480078022807DC3A480078022833
:103A800003DC39480078022857DD2D4800780C38CF
:103A900000EB4000294901EB0010407801280AD1D1
:103AA00032480078401C31490870084600780728E1
:103AB00001D101200870224800780C3800EB40004A
:103AC0001E4901EB0010407802280AD128480078EE
:103AD000401C2749087008460078032801D10120BE
:103AE0000870174800780C3800EB4000134901EBD0
:103AF0000010407803280AD11E480078401C1D4958
:103B0000087008460078072801D1012008700C4889
:103B100000780C3800EB4000084901EB00104078B9
:103B200004280AD114480078401C1349087008463C
:103B300000781A2801D1012008701AE7D810002057
:103B400042140020F7120020F8120020F912002081
:103B5000FA120020FB120020FC120020FD120020AF
:103B6000FE120020FF12002000130020011300208D
:103B7000021300200313002004130020FE480078E5
:103B800078BBFE48007860BBFD48007848BBFD4824
:103B9000007830BBFC48007818BBFC48007800BBBC
:103BA000FB480078E8B9FB480078D0B9FA480078BB
:103BB000B8B9FA480078A0B9F94800780C3800EB99
:103BC0004000F84901EB00104078401EC1B2F448B3
:103BD00000780C3800EB4000F24A02EB0010417014
:103BE000EEE3FFE7EE4800780C3800EB4000ED49CB
:103BF00001EB0010407801287DD1EB4800780128C6
:103C000012D1E74800780C3800EB400001EB0010BF
:103C10004079401EC1B2E24800780C3800EB400009
:103C2000E04A02EB00104171DF480078022813D10E
:103C3000DB4800780C3800EB4000DA4901EB00105B
:103C40008079401EC1B2D64800780C3800EB4000A5
:103C5000D44A02EB00108171D3480078032813D1B5
:103C6000CF4800780C3800EB4000CE4901EB001043
:103C7000007B401CC1B2CA4800780C3800EB400001
:103C8000C84A02EB00100173C7480078042815D118
:103C9000C34800780C3800EB4000C24901EB00102B
:103CA000407B08B9012100E00021BD4800780C38B4
:103CB00000EB4000BB4A02EB00104173B8480078AB
:103CC0000C3800EB4000B74901EB0010007B0428E2
:103CD00009D10021B24800780C3800EB4000B14A0D
:103CE00002EB00100173B0480078052815D1AC48EC
:103CF00000780C3800E052E000EB4000A94901EBED
:103D000000100089401E81B2A54800780C3800EBF5
:103D10004000A44A02EB00100181A3480078062865
:103D200013D19F4800780C3800EB40009D4901EB0F
:103D300000104089401E81B2994800780C3800EB91
:103D40004000984A02EB00104181954800780C38F9
:103D500000EB4000934901EB00100089012809DCC9
:103D600001218F4800780C3800EB40008D4A02EBAF
:103D7000001001818A4800780C3800EB4000894926
:103D800001EB00104089012809DC012184480078FA
:103D90000C3800EB4000834A02EB00104181804860
:103DA00000780C3800EB40007E4901EB00104078B1
:103DB00002285ED17D480078012812D17848007829
:103DC0000C3800EB400001EB0010408A401E81B22D
:103DD000734800780C3800EB4000724A02EB001088
:103DE000418272480078022813D16D4800780C385F
:103DF00000EB40006B4901EB0010008A401E81B2CD
:103E0000674800780C3800EB4000664A02EB00106F
:103E10000182634800780C3800EB4000614901EBF7
:103E20000010408A4FF6FF7188420AD142F20F71AA
:103E30005B4800780C3800EB40005A4A02EB001057
:103E40004182574800780C3800EB4000554901EB9F
:103E50000010008A4FF6FF7188420AD142F20F71BA
:103E60004F4800780C3800EB40004E4A02EB00103F
:103E700001824B4800780C3800EB4000494901EBC7
:103E800000104078032875D149480078012812D1E4
:103E9000434800780C3800EB400001EB00104079FB
:103EA000401EC1B23E4800780C3800EB40003D4A4D
:103EB00002EB001041713E480078022813D13848C7
:103EC00000780C3800EB4000364901EB0010807997
:103ED000401EC1B2324800780C3800EB4000314A35
:103EE00002EB0010817132480078032813D12C486E
:103EF00000780C3800EB40002A4901EB0010007BF1
:103F0000401CC1B2264800780C3800EB4000254A1E
:103F100002EB0010017326480078042815D12048D0
:103F200000780C3800EB40001E4901EB0010407B8C
:103F300008B9012100E00021194800780C3800EB95
:103F40004000184A02EB00104173154800780C3805
:103F500000EB4000134901EB0010007B04282AD13C
:103F600000210F4800780C3800EB40000D4A02EBAE
:103F700000101FE07FE00000F7120020F812002080
:103F8000F9120020FA120020FB120020FC1200207F
:103F9000FD120020FE120020FF120020001300205E
:103FA00042140020D810002001130020021300202A
:103FB000031300200173FE480078052813D1FD4843
:103FC00000780C3800EB4000FB4901EB0010408A00
:103FD000401E81B2F74800780C3800EB4000F64AEA
:103FE00002EB00104182F2480078062813D1F14814
:103FF00000780C3800EB4000EF4901EB0010008A1C
:10400000401E81B2EB4800780C3800EB4000EA4AD1
:1040100002EB00100182E74800780C3800EB40000A
:10402000E54901EB0010408A4FF6FF7188420AD142
:1040300042F20F71DF4800780C3800EB4000DE4A96
:1040400002EB00104182DB4800780C3800EB4000A6
:10405000D94901EB0010008A4FF6FF7188420AD15E
:1040600042F20F71D34800780C3800EB4000D24A7E
:1040700002EB00100182CF4800780C3800EB4000C2
:10408000CD4901EB0010407804286FD1CB4800786F
:10409000012812D1C74800780C3800EB400001EB32
:1040A0000010C07D401EC1B2C24800780C3800EB41
:1040B0004000C14A02EB0010C175C04800780228D8
:1040C00013D1BC4800780C3800EB4000BA4901EB32
:1040D0000010007E401EC1B2B64800780C3800EBDC
:1040E0004000B54A02EB00100176B448007803287E
:1040F00013D1B04800780C3800EB4000AE4901EB1A
:104100000010407E401EC1B2AA4800780C3800EB77
:104110004000A94A02EB00104176A8480078042824
:1041200013D1A44800780C3800EB4000A24901EB01
:104130000010807E401EC1B29E4800780C3800EB13
:1041400040009D4A02EB001081769C4800780528CB
:1041500017D1984800780C3800EB4000964901EBE5
:104160000010C07E18B9012102E0FDE3DEE300216A
:10417000904800780C3800EB40008F4A02EB0010AA
:10418000C1768E480078062813D18A4800780C380A
:1041900000EB4000884901EB0010007F401EC1B2D7
:1041A000844800780C3800EB4000834A02EB001092
:1041B000017782480078072813D17E4800780C38B0
:1041C00000EB40007C4901EB0010407F401EC1B273
:1041D000784800780C3800EB4000774A02EB00107A
:1041E000417776480078082813D1724800780C3857
:1041F00000EB4000704901EB0010807F401EC1B20F
:104200006C4800780C3800EB40006B4A02EB001061
:1042100081776A480078092813D1664800780C38FD
:1042200000EB4000644901EB0010C07F401EC1B2AA
:10423000604800780C3800EB40005F4A02EB001049
:10424000C1775E4800780A2817D15A4800780C38A0
:1042500000EB4000584901EB001090F8200008B92D
:10426000012100E00021534800780C3800EB4000A9
:10427000514A02EB001080F82010504800780B28BB
:1042800015D14C4800780C3800EB40004A4901EB4E
:10429000001090F82100401EC1B2464800780C384A
:1042A00000EB4000444A02EB001080F82110434824
:1042B00000780C2815D13F4800780C3800EB4000FE
:1042C0003D4901EB001090F82200401EC1B2394870
:1042D00000780C3800EB4000374A02EB001080F801
:1042E0002210364800780D2815D1324800780C3855
:1042F00000EB4000304901EB001090F82300401E15
:10430000C1B22C4800780C3800EB40002A4A02EB7E
:10431000001080F82310294800780E2815D1254870
:1043200000780C3800EB4000234901EB001090F8B6
:104330002400401EC1B21F4800780C3800EB40003A
:104340001D4A02EB001080F824101C4800780F284A
:1043500017D1184800780C3800EB4000164901EBE3
:10436000001090F8250008B9012100E00021114853
:1043700000780C3800EB40000F4A02EB001080F888
:1043800025100E48007810281FD10A4800780C38F4
:1043900000EB4000084901EB001090F82600401E99
:1043A000C1B2044800780C3800EB4000024A08E033
:1043B0000313002042140020D81000200413002012
:1043C000C9E202EB001080F82610FE4800781128A0
:1043D00015D1FD4800780C3800EB4000FB4901EB9B
:1043E000001090F82700401EC1B2F74800780C3842
:1043F00000EB4000F54A02EB001080F82710F1486E
:104400000078122815D1F04800780C3800EB4000F5
:10441000EE4901EB001090F82800401EC1B2EA48B6
:1044200000780C3800EB4000E84A02EB001080F8FE
:104430002810E4480078132815D1E34800780C3898
:1044400000EB4000E14901EB001090F82900401E0C
:10445000C1B2DD4800780C3800EB4000DB4A02EBCB
:10446000001080F82910D7480078142817D1D648B2
:1044700000780C3800EB4000D44901EB001090F8B4
:104480002A0008B9012100E00021CF4800780C384B
:1044900000EB4000CD4A02EB001080F82A10C9481A
:1044A0000078152815D1C84800780C3800EB40007A
:1044B000C64901EB001090F82B00401EC1B2C24863
:1044C00000780C3800EB4000C04A02EB001080F886
:1044D0002B10BC480078162815D1BB4800780C3842
:1044E00000EB4000B94901EB001090F82C00401E91
:1044F000C1B2B54800780C3800EB4000B34A02EB7B
:10450000001080F82C10AF480078172815D1AE485D
:1045100000780C3800EB4000AC4901EB001090F83B
:104520002D00401EC1B2A84800780C3800EB4000B6
:10453000A64A02EB001080F82D10A2480078182837
:1045400015D1A14800780C3800EB40009F4901EBE1
:10455000001090F82E00401EC1B29B4800780C3825
:1045600000EB4000994A02EB001080F82E109548AD
:104570000078192817D1944800780C3800EB4000D7
:10458000924901EB001090F82F0008B9012100E0DA
:1045900000218D4800780C3800EB40008B4A02EB7C
:1045A000001080F82F10884800780C3800EB40008D
:1045B000864901EB0010C07DFF2809D117218248F0
:1045C00000780C3800EB4000804A02EB0010C17507
:1045D0007D4800780C3800EB40007C4901EB00106E
:1045E000007EFF2809D13C21774800780C3800EB89
:1045F0004000764A02EB00100176734800780C38D0
:1046000000EB4000714901EB0010007FFF2809D149
:1046100017216D4800780C3800EB40006B4A02EB24
:1046200000100177684800780C3800EB40006749BB
:1046300001EB0010407FFF2809D13C21624800783F
:104640000C3800EB4000614A02EB001041775E48F5
:1046500000780C3800EB40005C4901EB001090F84A
:104660002100FF280AD11721574800780C3800EBA9
:104670004000564A02EB001080F8211052480078A2
:104680000C3800EB4000514901EB001090F822007B
:10469000FF280AD13C214C4800780C3800EB400040
:1046A0004A4A02EB001080F82210474800780C3884
:1046B00000EB4000454901EB001090F82600FF2870
:1046C0000AD11721404800780C3800EB40003F4ADF
:1046D00002EB001080F826103B4800780C3800EB05
:1046E00040003A4901EB001090F82700FF280AD15A
:1046F0003C21354800780C3800EB4000334A02EB8F
:10470000001080F82710304800780C3800EB40008B
:104710002E4901EB001090F82B00FF280AD1172139
:10472000294800780C3800EB4000284A02EB0010C2
:1047300080F82B10244800780C3800EB4000234907
:1047400001EB001090F82C00FF280AD13C211E48F4
:1047500000780C3800EB40001C4A02EB001080F897
:104760002C10194800780C3800EB4000174901EB79
:104770000010407EFF2809D11721134800780C381B
:1047800000EB4000114A02EB001041760E48007821
:104790000C3800EB40000D4901EB0010807EFF2833
:1047A00009D13C21084800780C3800EB4000074A4A
:1047B00002EB00108176044800780C3800EB4000D2
:1047C000024905E00413002042140020D810002004
:1047D00001EB0010807FFF2809D11721FE480078E7
:1047E0000C3800EB4000FD4A02EB00108177FA48DC
:1047F00000780C3800EB4000F84901EB0010C07F56
:10480000FF2809D13C21F44800780C3800EB400027
:10481000F24A02EB0010C177EF4800780C3800EB49
:104820004000EE4901EB001090F82300FF280AD168
:104830001721E94800780C3800EB4000E74A02EB0A
:10484000001080F82310E44800780C3800EB40009A
:10485000E24901EB001090F82400FF280AD13C2126
:10486000DD4800780C3800EB4000DC4A02EB001019
:1048700080F82410D84800780C3800EB4000D74965
:1048800001EB001090F82800FF280AD11721D24828
:1048900000780C3800EB4000D04A02EB001080F8A2
:1048A0002810CD4800780C3800EB4000CB4901EBD4
:1048B000001090F82900FF280AD13C21C648007852
:1048C0000C3800EB4000C54A02EB001080F82910BC
:1048D000C14800780C3800EB4000C04901EB0010E3
:1048E00090F82D00FF280AD11721BB4800780C381A
:1048F00000EB4000B94A02EB001080F82D10B648DA
:1049000000780C3800EB4000B44901EB001090F83F
:104910002E00FF280AD13C21AF4800780C3800EB6C
:104920004000AE4A02EB001080F82E10AA48007832
:104930000C3800EB4000A94901EB001080790028F9
:1049400009DA0021A44800780C3800EB4000A34AA3
:1049500002EB00108171A04800780C3800EB400099
:104960009E4901EB001000E00EE04078FF2809D1DD
:104970000421994800780C3800EB4000974A02EB7C
:104980000010417000E000BF03E0954800789249B4
:10499000087094480078002841F0D5829248007849
:1049A0000028F9D1914800780028F5D19048007886
:1049B0000028F1D18F4800780028EDD18E4800788A
:1049C0000028E9D18D4800780028E5D18C4800788E
:1049D0000028E1D18B4800780028DDD18A48007892
:1049E0000028D9D10120894908708949087089496E
:1049F000087089490870894908708949087089498F
:104A00000870894908708949087089490870724896
:104A100000780C3800EB4000704901EB0010407842
:104A2000052881F08E82DFE800F00314D5D4D3008E
:104A30005C222321A02014F09BF85A222321C020BD
:104A400014F096F85B222321E02014F091F801F095
:104A500079BA614800780C3800EB40005F4901EBFF
:104A60000010407910905C4800780C3800EB400052
:104A700001EB001080790F90574800780C3800EB5C
:104A8000400001EB001000890E90534800780C386C
:104A900000EB400001EB001040890D9027222321FC
:104AA000A02014F065F80A222321C02014F060F839
:104AB00026222321E02014F05BF82922432106203E
:104AC00014F056F82A224321262014F051F8272208
:104AD0004321462014F04CF82C224321662014F088
:104AE00047F829226721062014F042F82B2267217B
:104AF000262014F03DF827226721462014F038F8CC
:104B00002C226721662014F033F832228B210620F4
:104B100014F02EF833228B21262014F029F83422A9
:104B20008B21462014F024F835228B21662014F0C6
:104B30001FF836228B21862014F01AF82C228B21A4
:104B4000A62014F015F83722AF21062014F010F833
:104B50003822AF21262014F00BF83922AF2146204D
:104B600014F006F83A22AF21662014F001F82C2246
:104B7000AF21862013F0FCFF6922D321062013F019
:104B8000F7FF6A22D321262013F0F2FF2922D32136
:104B9000462013F0EDFF2A22D321662013F0E8FF10
:104BA0005822D321862013F0E3FF2C22D321A62004
:104BB00013F0DEFF6922F721062013F0D9FF6A22E5
:104BC000F721262013F0D4FF2922F721462031E0D7
:104BD000FEE373E288E1000042140020D8100020B8
:104BE000E5120020F7120020F8120020F912002030
:104BF000FA120020FB120020FC120020FD120020FF
:104C0000FE120020FF12002000130020ED120020F1
:104C1000EE120020EF120020F0120020F11200200E
:104C2000F2120020F3120020F4120020F5120020EE
:104C3000F612002013F09CFF2B22F721662013F0C0
:104C400097FF5822F721862013F092FF2C22F7219C
:104C5000A62013F08DFF0A21109890FBF1F0C0B24E
:104C6000019000204FF6FF73009043218620019AA7
:104C700013F042FF0A21109890FBF1F201FB1200A1
:104C8000C0B2019000204FF6FF73009043219620A0
:104C9000019A13F031FF0A210F9890FBF1F0C0B296
:104CA000019000204FF6FF73009067218620019A43
:104CB00013F022FF0A210F9890FBF1F201FB120082
:104CC000C0B2019000204FF6FF730090672196203C
:104CD000019A13F011FFF74800780C3800EB400000
:104CE000F54901EB0010007BA8B927228B21C720D2
:104CF00013F03EFF42228B21E72013F039FF3F22C1
:104D00008B2140F2071013F033FF26228B2140F253
:104D1000271013F02DFFE74800780C3800EB400017
:104D2000E54901EB0010007B012815D127228B21DA
:104D3000C72013F01DFF42228B21E72013F018FF3C
:104D400040228B2140F2071013F012FF26228B2104
:104D500040F2271013F00CFFD64800780C3800EB17
:104D60004000D54901EB0010007B022815D1272215
:104D70008B21C72013F0FCFE42228B21E72013F089
:104D8000F7FE41228B2140F2071013F0F1FE26229C
:104D90008B2140F2271013F0EBFEC64800780C3848
:104DA00000EB4000C44901EB0010007B032815D143
:104DB00043228B21C72013F0DBFE44228B21E72006
:104DC00013F0D6FE27228B2140F2071013F0D0FEFD
:104DD00042228B2140F2271013F0CAFEB54800781A
:104DE0000C3800EB4000B44901EB0010407B50B19F
:104DF0003D22AF21A72013F0BBFE3E22AF21C720EA
:104E000013F0B6FE09E03B22AF21A72013F0B0FE5D
:104E10003C22AF21C72013F0ABFE64210E9890FB1B
:104E2000F1F0C0B2019000204FF6FF730090D32143
:104E3000C820019A13F060FE0A210E9890FBF1F051
:104E400090FBF1F201FB1200C0B2019000204FF67E
:104E5000FF730090D321D820019A13F04DFE0A2150
:104E60000E9890FBF1F201FB1200C0B201900020FD
:104E70004FF6FF730090D321E820019A13F03CFE17
:104E800064210D9890FBF1F0C0B2019000204FF624
:104E9000FF730090F721C820019A13F02DFE0A211C
:104EA0000D9890FBF1F090FBF1F201FB1200C0B203
:104EB000019000204FF6FF730090F721D820019A4F
:104EC00013F01AFE0A210D9890FBF1F201FB12007B
:104ED000C0B2019000204FF6FF730090F721E82048
:104EE000019A13F009FEB2E5724800780C3800EB25
:104EF0004000714901EB0010408A0C906D48007829
:104F00000C3800EB400001EB0010008A0B901222DD
:104F10002321A02013F02CFE0A222321C02013F00D
:104F200027FE26222321E02013F022FE30224321F7
:104F3000062013F01DFE31224321262013F018FE17
:104F400012224321462013F013FE13224321662030
:104F500013F00EFE2C224321862013F009FE2E2290
:104F60008B21062013F004FE2F228B21262013F024
:104F7000FFFD12228B21462013F0FAFD13228B2114
:104F8000662013F0F5FD2C228B21862013F0F0FD16
:104F90004FF47A710C9890FBF1F0C0B201900020B0
:104FA0004FF6FF7300904321A620019A13F0A4FD51
:104FB00064210C9890FBF1F00A2190FBF1F201FBC7
:104FC0001200C0B2019000204FF6FF730090432101
:104FD000B620019A13F090FD0A210C9890FBF1F095
:104FE00090FBF1F201FB1200C0B2019000204FF6DD
:104FF000FF7300904321C620019A13F07DFD0A2122
:105000000C9890FBF1F201FB1200C0B2019000205D
:105010004FF6FF7300904321D620019A13F06CFDE8
:105020004FF47A710B9890FBF1F0C0B20190002020
:105030004FF6FF7300908B21A620019A13F05CFDC0
:1050400064210B9890FBF1F00A2190FBF1F201FB37
:105050001200C0B2019000204FF6FF7300908B2128
:10506000B620019A13F048FD0A210B9890FBF1F04D
:1050700090FBF1F201FB1200C0B2019000204FF64C
:10508000FF7300908B21C620019A13F035FD0A2290
:105090000B9890FBF2F102FB1100C0B201900020CE
:1050A0004FF6FF7300908B21D620019A13F024FD58
:1050B000CDE4000042140020D8100020FE48007803
:1050C0000C3800EB4000FD4901EB001040790A90DC
:1050D000F94800780C3800EB400001EB00108079B3
:1050E0000990F54800780C3800EB4001F34800EBDC
:1050F0000110408A0890F04800780C3800EB40011D
:10510000EE4800EB0110008A079027222321A020FF
:1051100013F02EFD12222321C02013F029FD0A22B4
:105120002321E02013F024FD29224321062013F03F
:105130001FFD2A224321262013F01AFD2722432196
:10514000462013F015FD2C224321662013F010FD9C
:1051500029226721062013F00BFD2B226721262030
:1051600013F006FD27226721462013F001FD2C22B3
:105170006721662013F0FCFC32228B21062013F0FD
:10518000F7FC33228B21262013F0F2FC34228B21F2
:10519000462013F0EDFC35228B21662013F0E8FC4D
:1051A00036228B21862013F0E3FC2C228B21A620B3
:1051B00013F0DEFC3722AF21062013F0D9FC382291
:1051C000AF21262013F0D4FC3922AF21462013F062
:1051D000CFFC3A22AF21662013F0CAFC2C22AF216B
:1051E000862013F0C5FC0A210A9890FBF1F0C0B2AA
:1051F000019000204FF6FF73009043218620019A12
:1052000013F07AFC0A210A9890FBF1F201FB1200DC
:10521000C0B2019000204FF6FF730090432196200A
:10522000019A13F069FC0A21099890FBF1F0C0B2D1
:10523000019000204FF6FF73009067218620019AAD
:1052400013F05AFC0A21099890FBF1F201FB1200BD
:10525000C0B2019000204FF6FF73009067219620A6
:10526000019A13F049FC944800780C3800EB400197
:10527000924800EB0110007BA8B927228B21C720A0
:1052800013F076FC42228B21E72013F071FC3F22C1
:105290008B2140F2071013F06BFC26228B2140F289
:1052A000271013F065FC844800780C3800EB4001AF
:1052B000824800EB0110007B012815D127228B21A9
:1052C000C72013F055FC42228B21E72013F050FC3D
:1052D00040228B2140F2071013F04AFC26228B213A
:1052E00040F2271013F044FC734800780C3800EBB0
:1052F0004001724800EB0110007B022815D12722E3
:105300008B21C72013F034FC42228B21E72013F0BD
:105310002FFC41228B2140F2071013F029FC26229A
:105320008B2140F2271013F023FC634800780C38DF
:1053300000EB4000614901EB0010007B032815D110
:1053400043228B21C72013F013FC44228B21E7203A
:1053500013F00EFC27228B2140F2071013F008FCFB
:1053600042228B2140F2271013F002FC52480078B1
:105370000C3800EB4000514901EB0010407B50B16C
:105380003D22AF21A72013F0F3FB3E22AF21C7201F
:1053900013F0EEFB09E03B22AF21A72013F0E8FB5E
:1053A0003C22AF21C72013F0E3FB3022D32106209B
:1053B00013F0DEFB3122D321262013F0D9FB122279
:1053C000D321462013F0D4FB1322D321662000E022
:1053D000B5E013F0CDFB2C22D321862013F0C8FBBF
:1053E0002E22F721062013F0C3FB2F22F7212620BF
:1053F00013F0BEFB1222F721462013F0B9FB132253
:10540000F721662013F0B4FB2C22F721862013F03D
:10541000AFFB4FF47A71089890FBF1F0C0B20190A5
:1054200000204FF6FF730090D321A620019A13F0BD
:1054300063FB6421089890FBF1F00A2190FBF1F2E4
:1054400001FB1200C0B2019000204FF6FF730090E4
:10545000D321B620019A13F04FFB0A21089890FB44
:10546000F1F090FBF1F201FB1200C0B201900020BC
:105470004FF6FF730090D321C620019A13F03CFB36
:105480000A21089890FBF1F201FB1200C0B20190D2
:1054900000204FF6FF730090D321D620019A13F01D
:1054A0002BFB4FF47A71079890FBF1F0C0B201909A
:1054B00000204FF6FF7303E042140020D8100020B4
:1054C0000090F721A620019A13F016FB642107989B
:1054D00090FBF1F10A2291FBF2F002FB1010C0B236
:1054E000019000204FF6FF730090F721B620019A3B
:1054F00013F002FB0A21079890FBF1F090FBF1F208
:1055000001FB1200C0B2019000204FF6FF73009023
:10551000F721C620019A13F0EFFA0A21079890FBB1
:10552000F1F201FB1200C0B2019000204FF6FF73B0
:105530000090F721D620019A13F0DEFAFDE3142142
:1055400002A8FAF72CFEF94800780C3800EB40006E
:10555000F74901EB0010C07D8DF80800F348007892
:105560000C3800EB400001EB0010007E8DF80900C4
:10557000EE4800780C3800EB400001EB0010407E54
:105580008DF80A00E94800780C3800EB400001EB88
:105590000010807E8DF80B00E44800780C3800EB9A
:1055A000400001EB0010007F8DF80C00DF48007810
:1055B0000C3800EB400001EB0010417F8DF80D101E
:1055C000DA4800780C3800EB4000D94901EB0010B4
:1055D000817F8DF80E10D54800780C3800EB400024
:1055E000D34901EB0010C17F8DF80F10CF48007830
:1055F0000C3800EB4000CE4901EB001090F8210080
:105600008DF81000C94800780C3800EB400001EB21
:10561000001090F822108DF81110C44800780C3852
:1056200000EB4000C24901EB001090F823108DF808
:105630001210BE4800780C3800EB4000BC4901EB6A
:10564000001090F824108DF81310B84800780C382A
:1056500000EB4000B64901EB001090F826008DF8F1
:105660001400B24800780C3800EB400001EB001049
:1056700090F827108DF81510AC4800780C3800EB26
:105680004000AB4901EB001090F828108DF816107F
:10569000A64800780C3800EB4000A54901EB00104B
:1056A00090F829108DF81710A04800780C3800EBFE
:1056B00040009F4901EB001090F82B008DF8180076
:1056C0009A4800780C3800EB400001EB001090F88D
:1056D0002C108DF81910954800780C3800EB40001C
:1056E000934901EB001090F82D108DF81A108F4897
:1056F00000780C3800EB40008D4901EB001090F869
:105700002E108DF81B1028222321A02013F030FA30
:1057100012222321C02013F02BFA0A222321E02099
:1057200013F026FA00204FF4FC637322432100900B
:10573000502013F091FA00204FF4FC6374224321AF
:105740000090702013F088FA00204FF4FC631222BE
:1057500043210090902013F07FFA00204FF4FC6367
:10576000132243210090B02013F076FA00204FF46A
:1057700078437522432100904FF4887013F06CFA3F
:1057800000204FF478437622432100904FF4987024
:1057900013F062FA00204FF4784312224321009064
:1057A0004FF4A87013F058FA00204FF478431322F6
:1057B000432100904FF4B87013F04EFA4E2263214B
:1057C000002013F0D5F912226321602013F0D0F9E4
:1057D00028226321A02013F0CBF9122263211001AB
:1057E00013F0C6F9282263214FF4B07013F0C0F90A
:1057F0009DF808000A2190FBF1F0C0B20190002052
:105800004FF6FF73009063214020019A13F074F962
:105810009DF808000A2190FBF1F201FB1200C0B2D2
:10582000019000204FF6FF73009063215020019AF1
:1058300013F062F99DF809000A2190FBF1F0C0B263
:10584000019000204FF6FF73009063218020019AA1
:1058500013F052F99DF809000A2190FBF1F201FBC7
:105860001200C0B2019000204FF6FF730090632138
:105870009020019A13F040F99DF80A000A2190FB4C
:10588000F1F0C0B2019000204FF6FF730090632149
:105890004FF48070019A13F02FF99DF80A000A2145
:1058A00090FBF1F201FB1200C0B2019000204FF614
:1058B000FF73009063214FF48870019A13F01CF974
:1058C0009DF80B000A2190FBF1F0C0B2019000207E
:1058D0004FF6FF73009063214FF4A070019A13F00C
:1058E0000BF99DF80B000A2190FBF1F201FB12006D
:1058F000C0B2019000204FF6FF73009063214FF477
:10590000A870019A13F0F8F8084800780C3800EBFA
:105910004000074901EB0010C07E58B146226321C8
:105920004FF4D07013F024F90AE000004214002074
:10593000D8100020472263214FF4D07013F018F9DB
:105940004F228321002013F013F9122283216020BB
:1059500013F00EF928228321A02013F009F9122256
:105960008321100113F004F9282283214FF4B07031
:1059700013F0FEF89DF80C000A2190FBF1F0C0B284
:10598000019000204FF6FF73009083214020019A80
:1059900013F0B2F89DF80C000A2190FBF1F201FB24
:1059A0001200C0B2019000204FF6FF7300908321D7
:1059B0005020019A13F0A0F89DF80D000A2190FBE9
:1059C000F1F0C0B2019000204FF6FF7300908321E8
:1059D0008020019A13F090F89DF80D000A2190FBA9
:1059E000F1F201FB1200C0B2019000204FF6FF73EC
:1059F000009083219020019A13F07EF89DF80E000C
:105A00000A2190FBF1F0C0B2019000204FF6FF7325
:105A1000009083214FF48070019A13F06DF89DF887
:105A20000E000A2190FBF1F201FB1200C0B20190BE
:105A300000204FF6FF73009083214FF48870019A85
:105A400013F05AF89DF80F000A2190FBF1F0C0B254
:105A5000019000204FF6FF73009083214FF4A07057
:105A6000019A13F049F89DF80F000A2190FBF1F21A
:105A700001FB1200C0B2019000204FF6FF730090AE
:105A800083214FF4A870019A13F036F8FE4800788D
:105A90000C3800EB4000FD4901EB001090F82000AD
:105AA00030B1462283214FF4D07013F061F805E045
:105AB000472283214FF4D07013F05AF85022A321CB
:105AC000002013F055F81222A321602013F050F8A3
:105AD0002822A321A02013F04BF81222A3211001A9
