:020000040800F2
:10000000E04800200101000899FD000815C2000821
:1000100095FD0008C5AB0008673801080000000026
:10002000000000000000000000000000490D010871
:1000300099B20008000000002DFE00085D0E0108C6
:100040001B0100081B0100081B0100082502010814
:100050001B0100081B0100081B0100081B01000810
:100060001B0100081B0100081B0100081B01000800
:100070001B0100081B010008C9AB00081B01000898
:100080001B0100081B0100081B0100081B010008E0
:100090001B0100081B0100081B0100081B010008D0
:1000A0001B010008250F01081B0100081B010008A7
:1000B000F9130108DD1701082D1F01081B010008B5
:1000C0001B0100081B0100081B0100081B010008A0
:1000D0001B010008F53401081B010008593501080F
:1000E0001B0100081B0100081B010008DFF80CD0F1
:1000F00000F09EFE0048004711580108E04800202B
:100100000648804706480047FEE7FEE7FEE7FEE7B1
:10011000FEE7FEE7FEE7FEE7FEE7FEE7610E010809
:10012000ED00000830B50B460146002020220124D6
:1001300009E021FA02F59D4205D303FA02F5491BB5
:1001400004FA02F52844151EA2F10102F1DC30BDCB
:1001500010B5431A934209D28318881803E010F8A7
:10016000011D03F8011D521EF9D210BD40EA010322
:100170009B0703D009E008C9121F08C0042AFAD25D
:1001800003E011F8013B00F8013B521EF9D210BD0B
:10019000D2B201E000F8012B491EFBD270470022C9
:1001A000F6E710B513460A4604461946FFF7F0FF76
:1001B000204610BD30B505462A460B4612F8010B05
:1001C00013F8014B08B1A042F8D01CB1002802D0AE
:1001D0006D1CF1E7284630BD10B5044604E00B78ED
:1001E00000F8013B03B1491C521EF8D2204610BD55
:1001F000421C10F8011B0029FBD1801A704710B572
:10020000002200E0521C835C8C5CA34201D1002BD5
:10021000F8D1D8B2E1B2401A10BDCBB203E00178F8
:10022000994203D0401C521EF9D20020704730B5CD
:1002300004460020034600E05B1C934203D2E05CCE
:10024000CD5C401BF8D030BD034611F8012B00F8FF
:10025000012B002AF9D11846704700000FB400B5F1
:100260008DB010A909900B9000914FF0FF300A90CB
:1002700000200C9005480690054807906A4609A89A
:100280000F9900F03DFC0DB05DF814FB1D0B00084C
:100290003B0B00082DE9FF5F1D464FF0FF3BD5E902
:1002A000014691465F464FF00008A9697F1C0198FE
:1002B0008847296A824688470028F6D1BAF1FF3F6D
:1002C0000CD024F4C064002E19DD600614D5BAF1F8
:1002D0002B0F09D0BAF12D0F0ED103E0584604B010
:1002E000BDE8F09F44F48064A9697F1C01988847A9
:1002F000761E8246002E02DDBAF1300F03D0B9F12E
:10030000000F26D032E0A969761E44F400747F1CE9
:10031000019888478246002E05DDBAF1780F06D095
:10032000BAF1580F03D0B9F1000F10D01EE0B9F1A7
:10033000000F02D0B9F1100F18D1A969761E24F46C
:1003400000747F1C019888478246102002E0082034
:1003500000E00A20814609E008FB0908A969761E29
:1003600044F400747F1C019888478246002E05DD06
:100370004946504600F0B0FB0028EDDAE9690198E3
:100380008847A00502D46FF00100A8E7E00725D157
:10039000600613D5600502D5C8F1000000E04046B4
:1003A00029680A1D2A600968220501D5087015E030
:1003B000220701D5088011E008600FE02868011DC0
:1003C00029600068210502D580F8008006E0210739
:1003D00002D5A0F8008001E0C0F8008038467EE732
:1003E00000F00ABCF0B480EA0102D40F4200B2EB84
:1003F000410F02D20246084611464A0042D0C30DC0
:10040000DDB2C1F3C752AD1A202D35DAC1F31601A2
:1004100041F4000204B15242C5F1200602FA06F18D
:100420002A411044B3EBD05F23D0C4B1012DA0EB1F
:10043000C35009DCF0BC4FF0004202EAC352DBB209
:1004400000F5000000F029BC400000F1807000EBD6
:10045000C350A0F1807040EAD170490009E049081A
:1004600041EAC071A0EBC35000F50000400800EB6A
:10047000C350F0BC00F008BC6142012202EB410114
:10048000001BF6E7F0BC704781F00041AAE780F05E
:100490000040A7E780EA010210B502F000434000E7
:1004A00022D04A001FD0010E01EB1261C0F35600AA
:1004B000C2F3560240F4000042F40002A0FB022006
:1004C00000047F39140400D0401C50EA124001D4CB
:1004D0004000491EC2B20C0604EBD010401C40087C
:1004E000802A02D003E0002010BD20F00100002986
:1004F00000DA0020184310BD30B480EA010202F097
:10050000004530F0004221F0004013D090B1C30DFF
:10051000D40DC2F31601C0F31600E41A41F4000131
:1005200040F400027D34914201D3641C00E0490094
:10053000002C02DA30BC002070474FF4000000238A
:10054000914201D3891A034340084FEA4101F7D190
:1005500051B1914202D14FF0004105E002D24FF07B
:10056000010101E06FF0010103EBC450284430BCED
:1005700000F08ABB2DE9FE4F804681EA0300C00FE0
:100580000C46009021F0004123F00045B8EB02003A
:10059000A94105D24046214690461C460B460246DC
:1005A00023F00040104347D0270DC7F30A00C3F3E0
:1005B0000A510290401A019040286BDAC3F31300ED
:1005C00040F4801B0098924620B10023D2EB030A2E
:1005D00063EB0B0B01985946C0F14002504600F006
:1005E0004AFA06460D4650465946019A00F062FA0C
:1005F00010EB08006141002487EA115284EAE77396
:100600001A4340D0009A62B3019A012A4FEA075276
:1006100015DC001B61EB02014FF0004202EA0752B9
:10062000CDE90042001C41F5801132462B4600F016
:1006300071FB03B0BDE8F08F40462146F9E7001B8F
:1006400061EB0201001C41F5801300185B4120188A
:10065000A2F5001747EB030140EAD570B6196D41CA
:1006600011E06D084FEA360645EAC0754FEA0752B9
:10067000001B61EB0201001C41F5801149084FEAA3
:1006800030000019514132462B4603B0BDE8F04F0F
:1006900000F031BB0098012240000023D0EB0202A1
:1006A00063EBE073009821464FEAE074B8EB00007A
:1006B00061EB0401E9E783F000435BE781F000416F
:1006C00058E72DE9FE4F81EA030404F0004421F0CD
:1006D000004100944FF0000B23F0004350EA010466
:1006E0005ED052EA03045BD0C3F30A54C1F30A5547
:1006F0002C44A4F2F3340194A0FB0254C1F313017F
:1007000041F48011C3F3130343F4801301FB02444B
:1007100000FB034E840A970A44EA815447EA835750
:10072000A4FB076802958D0A05FB07854FEA932C09
:1007300004FB0C542705029D4FEA065847EA16377A
:10074000B5EB08056EEB070C870E920E47EA811792
:1007500042EA8312A7FB0201B6EB0B0164EB000433
:100760002B0D43EA0C335E1844EB1C50DA4651461D
:10077000E7FB0201C5F313044FEA0B3343EA1453BA
:100780004FEA0432019C43EA0603A4F10C040294EC
:10079000009CCDE900B400F0BDFA03B0BDE8F08FD5
:1007A00000200146F9E72DE9F04D81EA030404F049
:1007B000004B21F0004514464FF0000A23F00041A1
:1007C00050EA050220D054EA01021DD0C5F30A57B1
:1007D0000246C5F31303C1F31300C1F30A5640F4F4
:1007E000801543F48013A7EB0608101BD64608F2C9
:1007F000FD3873EB050002D308F1010801E09218FF
:100800005B41B8F1000F03DA00200146BDE8F08D2E
:1008100000204FF48011064684460EE0171B73EB50
:10082000050705D3121B63EB050306434CEA010CD5
:1008300049084FEA300092185B4150EA0107EDD1B8
:1008400052EA030012D082EA040083EA0501084359
:1008500005D0101BAB4106D20122002306E0002286
:100860004FF0004302E06FF0010253101AEB060054
:100870004CEB085110EB0A0041EB0B01BDE8F04DC9
:1008800000F039BAC10F80EAE0700844CA07962325
:10089000002100F002BA96230022114600F0FDB9B3
:1008A00000F0004220F00040C10DC0F3160040F4FB
:1008B00000007F2901DA00207047962903DCC1F18E
:1008C0009601C84001E096398840002AF4D04042A1
:1008D000704720F00040C10DC0F3160040F4000046
:1008E0007F2901DA00207047962903DCC1F19601C7
:1008F000C8407047963988407047C1F30A5210B516
:10090000C1F3130140F2FF3341F480119A4201DA3E
:10091000002010BD40F233439A42A2F2334203DC7E
:10092000524200F0B7F810BD904010BD00F00042F8
:1009300030F000400AD0C10D01F56071C0F316001F
:1009400042EA0151C20840071143704700200146A6
:100950007047000030B5041E71F1000404DB4FF055
:100960000044404264EB0101141E73F1000405DBF6
:100970001C464FF00043524263EB04038B4208BF16
:10098000824230BD30B5041E71F1000404DB4FF02B
:100990000044404264EB0101141E73F1000405DBC6
:1009A0001C464FF00043524263EB0403994208BFD8
:1009B000904230BD01F0004330B421F0004150EAD4
:1009C000010206D00A0DA2F56072C1F31301002ADC
:1009D00002DC30BC00207047440F44EAC104C1006F
:1009E000E01830BC00EBC25000F04EB9002801DB2B
:1009F000C0F10040002901DBC1F100418142704794
:100A0000002801DBC0F10040002901DBC1F10041F9
:100A1000884270472DE9F05F0546002092469B46CC
:100A200088460646814640241BE028464146474604
:100A3000224600F02FF853465A46C01A914110D36F
:100A400011461846224600F016F82D1A67EB0108E9
:100A50004F4622460120002100F00DF817EB000957
:100A60004E41201EA4F10104DFDC484631462A46EF
:100A70004346BDE8F09F202A04DB203A00FA02F149
:100A8000002070479140C2F1200320FA03F319437C
:100A900090407047202A04DB203A21FA02F000211E
:100AA000704721FA02F3D040C2F12002914008437E
:100AB00019467047202A06DBCB17203A41FA02F08C
:100AC00043EAE07306E041FA02F3D040C2F12002AB
:100AD00091400843194670473A2800D2303820F038
:100AE0002002412A01D3A2F13700884201D34FF0FE
:100AF000FF30704702681144137801601846704750
:100B0000D16004495161044911620021116111460B
:100B100000F0AEB9F50A00085D0E0008426842B167
:100B2000016811F8013B23B1521EC0E900121846BA
:100B300070470121C160881E704742685AB1C3687E
:100B4000016843B983688B4205D0491E521CC0E935
:100B50000012002070474FF0FF3070470FB40023A1
:100B600000B589B00CA900910B996FF00042CB60E1
:100B70001E4B06931E4B07930423CDE901321D4AF9
:100B8000089202466B46002000F09CFB09B05DF81D
:100B900014FB70B586B006464FF0FF300091CDE9EA
:100BA0000101002015460C4604903246694604A80F
:100BB000FFF7D4FF02460498211825B108B1084672
:100BC00000E020462860049800280DD0002A02DDAD
:100BD0000098884208D0081B0094CDE901043246F1
:100BE000694604A8FFF7BAFF06B070BD1D0B0008E8
:100BF0003B0B00085D0E00082DE9F04791460E46BC
:100C000080460446002514F8017B2FB100F022F93C
:100C10000068C05DC007F6D12B2F02D02D2F1ED04B
:100C2000641E4A463146204600F068FC26B1326810
:100C3000A24201D1C6F800806A054FF0020418D51F
:100C40000023D0EB030563EB01025D1B934109DB3D
:100C50000023D0EB030063EB0101BDE8F08745F40E
:100C60008065DEE712F08AFE046000204FF000414C
:100C7000F3E7021E71F10002EFDA12F07FFE04606A
:100C80004FF0FF304108E8E70029A8BF7047401C3B
:100C9000490008BF20F00100704710B4B0FA80FC92
:100CA00000FA0CF050EA010404BF10BC704749B1CF
:100CB000CCF1200421FA04F411FA0CF118BF01213F
:100CC00021430843A3EB0C01CB1D4FEA00614FEA1F
:100CD000102042BF002010BC704700EBC3501044EE
:100CE0000029A4BF10BC7047401C490008BF20F079
:100CF000010010BC704710B5141E73F1000408DA2F
:100D0000401C41F1000192185B411A4301D120F0CF
:100D1000010010BD2DE9F04D92469B4611B1B1FA8C
:100D200081F202E0B0FA80F220329046FFF7A3FE93
:100D300004460F4640EA0A0041EA0B0153465A4670
:100D4000084313D0114653EA010019D0C8F14002FC
:100D50005046FFF79FFE05460E465046594642460E
:100D6000FFF789FE084305D0012004E020463946FC
:100D7000BDE8F08D0020054346EAE0762C4337437A
:100D80000A986305E40AA0EB08000022FD0A44EA81
:100D900047540A3002D500200146E9E70105101941
:100DA0006941DDE9084500196941BDE8F04DA2E758
:100DB00070B521F0004303430CD0C1F30A55002461
:100DC000D5EB040564EB0403D617AD1AB34102DB7F
:100DD0000020014670BD201841EB025170BD0EB5D8
:100DE000C10F80EAE0700844CA07002140F2334393
:100DF0008DE80E000A460B46FFF78CFF03B000BDDE
:100E0000C1F30A52C1F3130140F2FF3341F48011E0
:100E10009A4202DA00200146704740F233439A4278
:100E2000A2F2334202DC5242FFF734BEFFF723BE88
:100E3000064C074D06E0E06840F0010394E8070027
:100E400098471034AC42F6D3FFF754F99CF00108F0
:100E5000BCF00108004870472CF0010810B50446AA
:100E6000FFF7F8FF0068005D00F0010010BD000012
:100E70002DE9F34F8BB04FF0000801F10C000C4648
:100E80004FF0010B46460DF1080A019062690121FD
:100E900001989047051E2DD0252D2CD0216A88471A
:100EA000C0B16269012101989047216A88470028F2
:100EB000F7D1411E62690198904700E0761CA16954
:100EC0000B988847216A88470028F7D1E1690B9879
:100ED0008847DBE7A1690B9888470746A84201D1FC
:100EE000761CD3E7E1690B9888477F1C02D1B8F1E3
:100EF000000F6FD046E1002762693D4639460198F0
:100F000090472A2804D16269012101989047012560
:100F1000DFF884926269012101989047A0F13001C5
:100F20000A290AD24F45E5DC07EB870100EB4107B0
:100F3000303FDFD445F01005ECE7E90601D46FF04F
:100F400000476C280AD04C2814D0682815D06A288D
:100F50000DD074281CD07A281AD01DE062690121B6
:100F6000019890476C2802D045F0040514E045F044
:100F700002050DE045F020050AE0626901210198B3
:100F80009047682802D045F0080505E045F4006563
:100F90006269012101989047C4E9015765283DD055
:100FA00019DC58287AD00CDC452837D004DC2528F9
:100FB00026D0412831D131E046282FD047282CD1E6
:100FC0002CE05B2877D0612828D063287CD0642867
:100FD00023D15AE0D0E06F2848D008DC66281DD025
:100FE00067281BD0692821D06E2816D127E07028E9
:100FF00045D0732868D0752847D078280DD14DE0AA
:10100000A1690B988847054625283FF469AFE16937
:101010000B9888476D1C3FF46AAFB3E023466A46DD
:101020006FF001000B9900F04DF99EE045F0400093
:101030006060A80723464FF0000236D43EE0E80780
:101040007FF447AF2068011D21600068290501D5A4
:1010500006701BE7290701D5068017E7A90703D506
:10106000F117C0E9006111E706600FE745F04000A5
:101070006060A80723464FF0080216D41EE040F631
:101080000E0125EA0100606016E045F04000606056
:10109000A80723464FF00A0207D40FE045F04000AE
:1010A0006060A80708D5234610226FF001000B9955
:1010B000AFF3008059E007E0234610226FF00100F3
:1010C0000B99FFF7E7F850E04FF000094F464B4609
:1010D000632802D05B2806D040E0E80601D4012056
:1010E000A06001273AE062690121019890475E28DB
:1010F00005D14FF00109626949460198904721697D
:1011000039B900210A46534643F82120491C0829D1
:10111000FADBB0B3216969B9C11700EBD162531191
:101120000AEB830122F01F02821A01200B68904013
:1011300003430B6062690121019890475D28E8D163
:10114000B9F1000F09D00020514651F82020D243B8
:1011500041F82020401C0828F7DB02AB224600970C
:101160006FF001000B99AFF3008000280CDA401CEF
:1011700008D1BBF1000F05D04FF0FF300DB0BDE836
:10118000F08FFFE74046F9E7E90701D108F10108D0
:1011900006444FF0000B79E6CCCCCC0C2DE9FF4F88
:1011A000087883B09946FF2805D0491C2D2804D023
:1011B0000024002008E000200BE00124F9E700EB08
:1011C000800003EB4000491C0B78FF2BF7D104B1E2
:1011D000404200230293147819461D462D2C01D05D
:1011E0002B2C04D1521C2D2C13D000240294AA467F
:1011F0001478FF2C0FD00A25A3FB057801FB05818D
:101200004FF0000C03FB0C11521CE3194AEB0101D7
:10121000EEE70124EAE7814453EA010002D019F520
:10122000C87F06DA03980021C0E9001107B0BDE8C5
:10123000F08F0025AE4E2F46DFF8B882184600F03A
:10124000BEF9CDE90001B9F1000002DAC9F10004EC
:1012500000E004460023A74A1AEB030B42EB045AB2
:1012600012E0E00707D02A46334638464146FFF7EA
:1012700028FA074688462A46334610461946FFF79D
:1012800020FA05460E466410002CEAD1DDE9000183
:10129000B9F1000F5A46534606DAFFF784FA3A4688
:1012A0004346FFF780FA05E0FFF70BFA3A4643465C
:1012B000FFF707FA029A0AB181F00041039AC2E9E6
:1012C0000001B3E72DE9FF4F1F468DB0D7E9014676
:1012D0004FF0FF382E2045464FF000090B90B969BA
:1012E0006D1C0E988847396A824688470028F6D1D7
:1012F000BAF1FF3F0AD024F4D064002E11DDBAF118
:101300002B0F08D0BAF12D0F0BD102E0404611B0DF
:101310008DE744F48064B9696D1C0E988847824655
:10132000761E6946600501D52D2000E02B208DF842
:10133000000001F1010B0DF1200809E0B9696D1CF5
:101340000E98884782460F9844F40074761E056014
:10135000002E02DDBAF1300FF0D00B998A453ED154
:1013600044F0800406E00F99681CA9F1010944F4D7
:1013700000740860B9696D1C761E0E988847824615
:101380003028F0D02BE00B998A4505D1200603D4F4
:1013900044F08004761E18E0504612F031FC08B389
:1013A0000DF11301761E44F400748B4508D2AAF1A6
:1013B00030000BF8010B200607D5A9F1010003E06E
:1013C000200602D409F101008146A00502D50F993B
:1013D000681C0860B9696D1C0E9888478246002E0B
:1013E000D1DC53E0002E51DDBAF1650F02D0BAF125
:1013F000450F4BD1A00549D5B9696D1C24F4407443
:10140000761E0E9888478246002E0CDD2B2804D0CD
:10141000BAF12D0F07D144F48074B9696D1C0E9890
:1014200088478246761EE00501D52D2100E02B215C
:1014300008F8011BCDF82C8021E00DF12901761E62
:1014400044F4007488450CD2AAF1300010F0FF007B
:1014500088F8000002D10B99884509D908F10108E4
:1014600006E0E00501D5244801E042F20F70814614
:10147000B9696D1C0E98884782460F980560002E4A
:1014800004DD504612F0BCFB0028D6D1F9690E9855
:101490008847FF208BF8000088F8000000200690A5
:1014A00007904B466A4608A906A8FFF777FEA005F5
:1014B00002D46FF001002AE714F0240F0AD0E007ED
:1014C00014D1DDE906123868031D3B600068C0E9ED
:1014D00000120BE0DDE90601FFF76CFA0146E007B8
:1014E00004D13868021D3A600068016028460EE7A2
:1014F000000014400000F03FF1D8FFFF2DE9F74F46
:101500004FF00009009C1546CA4614F8010B30281C
:1015100001D0ADB115E014F8010B4FF001097828A6
:1015200003D0582801D04DB10BE00DB1102D08D1DA
:101530004FF00009102514F8010B02E0082500E027
:101540000A2500273E46B8464FEAE57B16E0A5FB94
:1015500007230BFB073105FB080005FB0616030CF0
:10156000D71846F100061FFA80F8381E4FF001091F
:1015700076F5803000D3CA4614F8010B2946FFF7F0
:10158000ABFA0028E3DA019838B1B9F1000F01D0C5
:10159000641E00E0009C01980460BAF1000F08D0BE
:1015A00012F0ECF902210160C81E014603B0BDE84B
:1015B000F08F310441EA174148EA0740F6E70EB5DB
:1015C00040F2334202920022CDE900221346FFF797
:1015D000A1FB03B000BD70B58D1810F8014B14F0DD
:1015E000030201D110F8012B231106D110F8013BA1
:1015F00003E010F8016B01F8016B521EF9D1ABB199
:1016000010F8012B04F00C048A1A0C2C03D0A2EB66
:1016100084129B1C08E010F8014BA2EB0422F8E7AF
:1016200012F8014B01F8014B5B1EF9D5A942D4D346
:10163000002070BD21B1826842F00102826003E0A7
:10164000826822F0010282607047000000B587B016
:10165000012148020EF028FC012104200EF024FC98
:101660001C20ADF8040000208DF8070001A91848DF
:1016700009F036FE002002908DF80C008DF80D0068
:101680004FF4602004900020059001208DF8180090
:1016900002A9104800F042F801210E48FFF7CAFFE6
:1016A0004FF440400EF0C4FB0A4800F0BBF800BF06
:1016B000084800F028F80028FAD1064800F0C2F8DF
:1016C00000BF044800F008F80028FAD107B000BDB8
:1016D0000008014000240140014600208A6802F011
:1016E00004020AB1012000E0002070470146C86CE6
:1016F00080B270470246002013680B400BB10120F6
:1017000000E000207047014600208A6802F00802CD
:101710000AB1012000E000207047000030B5024609
:101720000020002350680F4C20400D790C6844EADB
:1017300005242043506090680B4C2040D1E90254AE
:101740002C434D7944EA450420439060D06A20F44C
:1017500070000C7C641EE4B2234340EA0350D06264
:1017600030BD0000FFFEF0FFFDF7F1FFF0B50446CD
:101770000D4600200021092D11DDE068A5F10A06C3
:1017800006EB4607072606FA07F18843A5F10A0685
:1017900006EB460603FA06F10843E0600CE0206918
:1017A00005EB4507072606FA07F1884305EB4506D2
:1017B00003FA06F108432061072A0FDA606B561E10
:1017C00006EB86071F2606FA07F18843561E06EB2E
:1017D000860605FA06F10843606322E00D2A0FDA57
:1017E000206BD61F06EB86071F2606FA07F18843F3
:1017F000D61F06EB860605FA06F10843206310E0C3
:10180000E06AA2F10D0606EB86071F2606FA07F12D
:101810008843A2F10D0606EB860605FA06F1084399
:10182000E062F0BD816841F008018160704721B13C
:10183000826842F4A002826003E0826822F4A0027F
:1018400082607047816841F004018160704738B55B
:1018500004460D46A4F10C000A2881F06281DFE8FD
:1018600010F00A00FA00E901D802C703B604A50582
:10187000940683077208012306222421104617F0DC
:1018800011FB012307222421262017F00BFB012343
:101890001A222421462017F005FB01231B222421B4
:1018A000662017F0FFFA06224821104617F0C0FA0A
:1018B00007224821262017F0BBFA1C224821462087
:1018C00017F0B6FA1B224821662017F0B1FA06225B
:1018D0006C21104617F0ACFA07226C21262017F075
:1018E000A7FA1D226C21462017F0A2FA1B226C21B8
:1018F000662017F09DFA06229021104617F098FAFC
:1019000007229021262017F093FA1E2290214620CC
:1019100017F08EFA1B229021662017F089FA062212
:10192000B421104617F084FA0722B421262017F0BC
:101930007FFA1F22B421462017F07AFA1B22B42125
:10194000662017F075FA062224214FF4AD7017F0C7
:101950006FFA072224214FF4BD7017F069FA202294
:1019600024214FF4CD7017F063FA1B2224214FF489
:10197000DD7017F05DFA062248214FF4AD7017F0C4
:1019800057FA072248214FF4BD7017F051FA21226F
:1019900048214FF4CD7017F04BFA1B2248214FF429
:1019A000DD7017F045FA06226C214FF4AD7017F088
:1019B0003FFA07226C214FF4BD7017F039FA22224A
:1019C0006C214FF4CD7017F033FA1B226C214FF4C9
:1019D000DD7017F02DFA062290214FF4AD7017F04C
:1019E00027FA072290214FF4BD7017F021FA232225
:1019F00090214FF4CD7017F01BFA1B2290214FF469
:101A0000DD7017F015FA0622B4214FF4AD7017F00F
:101A10000FFA0722B4214FF4BD7017F009FA002025
:101A20004FF6FF730122B42100904FF4CD7017F0F0
:101A3000C3F900204FF6FF730246B42100904FF423
:101A4000D57017F0B9F91B22B4214FF4DD7017F0EF
:101A5000EFF901F067B806222421104617F0E8F9E3
:101A600007222421262017F0E3F91A2224214620F8
:101A700017F0DEF91B222421662017F0D9F9012383
:101A800006224821104617F00DFA012307224821AB
:101A9000262017F007FA01231C224821462017F0C0
:101AA00001FA01231B224821662017F0FBF90622C8
:101AB0006C21104617F0BCF907226C21262017F084
:101AC000B7F91D226C21462017F0B2F91B226C21B8
:101AD000662017F0ADF906229021104617F0A8F9FC
:101AE00007229021262017F0A3F91E2290214620DC
:101AF00017F09EF91B229021662017F099F9062213
:101B0000B421104617F094F90722B421262017F0CB
:101B10008FF91F22B421462017F08AF91B22B42125
:101B2000662017F085F9062224214FF4AD7017F0D6
:101B30007FF9072224214FF4BD7017F079F9202294
:101B400024214FF4CD7017F073F91B2224214FF498
:101B5000DD7017F06DF9062248214FF4AD7017F0D3
:101B600067F9072248214FF4BD7017F061F921226F
:101B700048214FF4CD7017F05BF91B2248214FF438
:101B8000DD7017F055F906226C214FF4AD7017F097
:101B90004FF907226C214FF4BD7017F049F922224A
:101BA0006C214FF4CD7017F043F91B226C214FF4D8
:101BB000DD7017F03DF9062290214FF4AD7017F05B
:101BC00037F9072290214FF4BD7017F031F9232225
:101BD00090214FF4CD7017F02BF91B2290214FF478
:101BE000DD7017F025F90622B4214FF4AD7017F01F
:101BF0001FF90722B4214FF4BD7017F019F9002026
:101C00004FF6FF730122B42100904FF4CD7017F00E
:101C1000D3F800204FF6FF730246B42100904FF432
:101C2000D57017F0C9F81B22B4214FF4DD7017F0FE
:101C3000FFF80EE706222421104617F0F9F80722D4
:101C40002421262017F0F4F81A222421462017F028
:101C5000EFF81B222421662017F0EAF8062248211B
:101C6000104617F0E5F807224821262017F0E0F883
:101C70001C224821462017F0DBF81B224821662051
:101C800017F0D6F8012306226C21104617F00AF946
:101C9000012307226C21262017F004F901231D22BD
:101CA0006C21462017F0FEF801231B226C216620D0
:101CB00017F0F8F806229021104617F0B9F807221D
:101CC0009021262017F0B4F81E229021462017F00C
:101CD000AFF81B229021662017F0AAF80622B42143
:101CE000104617F0A5F80722B421262017F0A0F817
:101CF0001F22B421462017F09BF81B22B421662036
:101D000017F096F8062224214FF4AD7017F090F8E2
:101D1000072224214FF4BD7017F08AF820222421D5
:101D20004FF4CD7017F084F81B2224214FF4DD709E
:101D300017F07EF8062248214FF4AD7017F078F8BE
:101D4000072248214FF4BD7017F072F82122482174
:101D50004FF4CD7017F06CF81B2248214FF4DD7062
:101D600017F066F806226C214FF4AD7017F060F89A
:101D700007226C214FF4BD7017F05AF822226C2113
:101D80004FF4CD7017F054F81B226C214FF4DD7026
:101D900017F04EF8062290214FF4AD7017F048F876
:101DA000072290214FF4BD7017F042F823229021B2
:101DB0004FF4CD7017F03CF81B2290214FF4DD70EA
:101DC00017F036F80622B4214FF4AD7017F030F852
:101DD0000722B4214FF4BD7017F02AF800204FF607
:101DE000FF730122B42100904FF4CD7016F0E4FF90
:101DF00000204FF6FF730246B42100904FF4D570D7
:101E000016F0DAFF1B22B4214FF4DD7017F010F842
:101E10001FE606222421104617F00AF80722242183
:101E2000262017F005F81A222421462017F000F882
:101E30001B222421662016F0FBFF062248211046B3
:101E400016F0F6FF07224821262016F0F1FF1C228B
:101E50004821462016F0ECFF1B224821662016F090
:101E6000E7FF06226C21104616F0E2FF07226C21E4
:101E7000262016F0DDFF1D226C21462016F0D8FF2B
:101E80001B226C21662016F0D3FF0123062290212D
:101E9000104617F007F8012307229021262017F09B
:101EA00001F801231E229021462016F0FBFF01239A
:101EB0001B229021662016F0F5FF0622B421104661
:101EC00016F0B6FF0722B421262016F0B1FF1F221C
:101ED000B421462016F0ACFF1B22B421662016F078
:101EE000A7FF062224214FF4AD7016F0A1FF0722B0
:101EF00024214FF4BD7016F09BFF202224214FF4C3
:101F0000CD7016F095FF1B2224214FF4DD7016F0E2
:101F10008FFF062248214FF4AD7016F089FF07228B
:101F200048214FF4BD7016F083FF212248214FF461
:101F3000CD7016F07DFF1B2248214FF4DD7016F0A6
:101F400077FF06226C214FF4AD7016F071FF072267
:101F50006C214FF4BD7016F06BFF22226C214FF400
:101F6000CD7016F065FF1B226C214FF4DD7016F06A
:101F70005FFF062290214FF4AD7016F059FF072243
:101F800090214FF4BD7016F053FF232290214FF49F
:101F9000CD7016F04DFF1B2290214FF4DD7016F02E
:101FA00047FF0622B4214FF4AD7016F041FF07221F
:101FB000B4214FF4BD7016F03BFF00204FF6FF73C5
:101FC0000122B42100904FF4CD7016F0F5FE0020F0
:101FD0004FF6FF730246B42100904FF4D57016F00F
:101FE000EBFE1B22B4214FF4DD7016F021FF30E52B
:101FF00006222421104616F01BFF0722242126204A
:1020000016F016FF1A222421462016F011FF1B227B
:102010002421662016F00CFF06224821104616F0F7
:1020200007FF07224821262016F002FF1C22482124
:10203000462016F0FDFE1B224821662016F0F8FE11
:1020400006226C21104616F0F3FE07226C21262092
:1020500016F0EEFE1D226C21462016F0E9FE1B2232
:102060006C21662016F0E4FE06229021104616F040
:10207000DFFE07229021262016F0DAFE1E22902194
:10208000462016F0D5FE1B229021662016F0D0FEC9
:1020900001230622B421104616F004FF0123072273
:1020A000B421262016F0FEFE01231F22B421462073
:1020B00016F0F8FE01231B22B421662016F0F2FE72
:1020C000062224214FF4AD7016F0B2FE072224211F
:1020D0004FF4BD7016F0ACFE202224214FF4CD70D9
:1020E00016F0A6FE1B2224214FF4DD7016F0A0FE90
:1020F000062248214FF4AD7016F09AFE07224821BF
:102100004FF4BD7016F094FE212248214FF4CD709B
:1021100016F08EFE1B2248214FF4DD7016F088FE6B
:1021200006226C214FF4AD7016F082FE07226C215E
:102130004FF4BD7016F07CFE22226C214FF4CD705E
:1021400016F076FE1B226C214FF4DD7016F070FE47
:10215000062290214FF4AD7016F06AFE07229021FE
:102160004FF4BD7016F064FE232290214FF4CD7021
:1021700016F05EFE1B2290214FF4DD7016F058FE23
:102180000622B4214FF4AD7016F052FE0722B4219E
:102190004FF4BD7016F04CFE00204FF6FF73012285
:1021A000B42100904FF4CD7016F006FE00204FF6DB
:1021B000FF730246B42100904FF4D57016F0FCFD79
:1021C0001B22B4214FF4DD7016F032FE41E40622EA
:1021D0002421104616F02CFE07222421262016F07A
:1021E00027FE1A222421462016F022FE1B2224213B
:1021F000662016F01DFE06224821104616F018FE35
:1022000007224821262016F013FE1C2248214620D2
:1022100016F00EFE1B224821662016F009FE06224B
:102220006C21104616F004FE07226C21262016F0C1
:10223000FFFD1D226C21462016F0FAFD1B226C21A9
:10224000662016F0F5FD06229021104616F0F0FDEE
:1022500007229021262016F0EBFD1E229021462019
:1022600016F0E6FD1B229021662016F0E1FD062205
:10227000B421104616F0DCFD0722B421262016F00A
:10228000D7FD1F22B421462016F0D2FD1B22B42117
:10229000662016F0CDFD0123062224214FF4AD70F7
:1022A00016F000FE0123072224214FF4BD7016F022
:1022B000F9FD0123202224214FF4CD7016F0F2FD08
:1022C00001231B2224214FF4DD7016F0EBFD0622C2
:1022D00048214FF4AD7016F0ABFD072248214FF4B2
:1022E000BD7016F0A5FD212248214FF4CD7016F0E7
:1022F0009FFD1B2248214FF4DD7016F099FD062248
:102300006C214FF4AD7016F093FD07226C214FF451
:10231000BD7016F08DFD22226C214FF4CD7016F0A9
:1023200087FD1B226C214FF4DD7016F081FD062223
:1023300090214FF4AD7016F07BFD072290214FF4F1
:10234000BD7016F075FD232290214FF4CD7016F06C
:102350006FFD1B2290214FF4DD7016F069FD0622FF
:10236000B4214FF4AD7016F063FD0722B4214FF491
:10237000BD7016F05DFD00204FF6FF730122B42101
:1023800000904FF4CD7016F017FD00204FF6FF734C
:102390000246B42100904FF4D57016F00DFD1B22BB
:1023A000B4214FF4DD7016F043FDBBE30622242177
:1023B000104616F03DFD07222421262016F038FD98
:1023C0001A222421462016F033FD1B2224216620E8
:1023D00016F02EFD06224821104616F029FD072290
:1023E0004821262016F024FD1C224821462016F004
:1023F0001FFD1B224821662016F01AFD06226C21C3
:10240000104616F015FD07226C21262016F010FD4F
:102410001D226C21462016F00BFD1B226C2166202C
:1024200016F006FD06229021104616F001FD072247
:102430009021262016F0FCFC1E229021462016F04A
:10244000F7FC1B229021662016F0F2FC0622B42134
:10245000104616F0EDFC0722B421262016F0E8FC09
:102460001F22B421462016F0E3FC1B22B421662073
:1024700016F0DEFC062224214FF4AD7016F0D8FCD5
:10248000072224214FF4BD7016F0D2FC2022242113
:102490004FF4CD7016F0CCFC1B2224214FF4DD70DC
:1024A00016F0C6FC0123062248214FF4AD7016F049
:1024B000F9FC0123072248214FF4BD7016F0F2FC0D
:1024C0000123212248214FF4CD7016F0EBFC0123AB
:1024D0001B2248214FF4DD7016F0E4FC06226C212B
:1024E0004FF4AD7016F0A4FC07226C214FF4BD70C0
:1024F00016F09EFC22226C214FF4CD7016F098FC51
:102500001B226C214FF4DD7016F092FC0622902104
:102510004FF4AD7016F08CFC072290214FF4BD7083
:1025200016F086FC232290214FF4CD7016F080FC2B
:102530001B2290214FF4DD7016F07AFC0622B421A4
:102540004FF4AD7016F074FC0722B4214FF4BD7047
:1025500016F06EFC00204FF6FF730122B4210090AC
:102560004FF4CD7016F028FC00204FF6FF730246A2
:10257000B42100904FF4D57016F01EFC1B22B4213C
:102580004FF4DD7016F054FCCCE2062224211046F4
:1025900016F04EFC07222421262016F049FC1A22B0
:1025A0002421462016F044FC1B222421662016F02C
:1025B0003FFC06224821104616F03AFC072248212B
:1025C000262016F035FC1C224821462016F030FC4F
:1025D0001B224821662016F02BFC06226C21104697
:1025E00016F026FC07226C21262016F021FC1D2265
:1025F0006C21462016F01CFC1B226C21662016F074
:1026000017FC06229021104616F012FC072290219A
:10261000262016F00DFC1E229021462016F008FC04
:102620001B229021662016F003FC0622B4211046DE
:1026300016F0FEFB0722B421262016F0F9FB1F221C
:10264000B421462016F0F4FB1B22B421662016F0BC
:10265000EFFB062224214FF4AD7016F0E9FB0722B0
:1026600024214FF4BD7016F0E3FB202224214FF407
:10267000CD7016F0DDFB1B2224214FF4DD7016F027
:10268000D7FB062248214FF4AD7016F0D1FB07228C
:1026900048214FF4BD7016F0CBFB212248214FF4A6
:1026A000CD7016F0C5FB1B2248214FF4DD7016F0EB
:1026B000BFFB012306226C214FF4AD7016F0F2FB34
:1026C000012307226C214FF4BD7016F0EBFB0123B0
:1026D00022226C214FF4CD7016F0E4FB01231B2263
:1026E0006C214FF4DD7016F0DDFB062290214FF4D3
:1026F000AD7016F09DFB072290214FF4BD7016F0CF
:1027000097FB232290214FF4CD7016F091FB1B22F2
:1027100090214FF4DD7016F08BFB0622B4214FF4AC
:10272000AD7016F085FB0722B4214FF4BD7016F092
:102730007FFB00204FF6FF730122B42100904FF47D
:10274000CD7016F039FB00204FF6FF730246B4211E
:1027500000904FF4D57016F02FFB1B22B4214FF4DC
:10276000DD7016F065FBDDE106222421104616F02F
:102770005FFB07222421262016F05AFB1A2224216F
:10278000462016F055FB1B222421662016F050FB34
:1027900006224821104616F04BFB0722482126202E
:1027A00016F046FB1C224821462016F041FB1B2256
:1027B0004821662016F03CFB06226C21104616F0DC
:1027C00037FB07226C21262016F032FB1D226C21DC
:1027D000462016F02DFB1B226C21662016F028FBEC
:1027E00006229021104616F023FB07229021262076
:1027F00016F01EFB1E229021462016F019FB1B220C
:102800009021662016F014FB0622B421104616F023
:102810000FFB0722B421262016F00AFB1F22B42149
:10282000462016F005FB1B22B421662016F000FBA3
:10283000062224214FF4AD7016F0FAFA0722242163
:102840004FF4BD7016F0F4FA202224214FF4CD701D
:1028500016F0EEFA1B2224214FF4DD7016F0E8FA90
:10286000062248214FF4AD7016F0E2FA0722482103
:102870004FF4BD7016F0DCFA212248214FF4CD70E0
:1028800016F0D6FA1B2248214FF4DD7016F0D0FA6C
:1028900006226C214FF4AD7016F0CAFA07226C21A3
:1028A0004FF4BD7016F0C4FA22226C214FF4CD70A3
:1028B00016F0BEFA1B226C214FF4DD7016F0B8FA48
:1028C0000123062290214FF4AD7016F0EBFA01239C
:1028D000072290214FF4BD7016F0E4FA0123232261
:1028E00090214FF4CD7016F0DDFA01231B229021C8
:1028F0004FF4DD7016F0D6FA0622B4214FF4AD7015
:1029000016F096FA0722B4214FF4BD7016F090FA33
:1029100000204FF6FF730122B42100904FF4CD70D8
:1029200016F04AFA00204FF6FF730246B4210090D9
:102930004FF4D57016F040FA1B22B4214FF4DD702D
:1029400016F076FAEEE006222421104616F070FA10
:1029500007222421262016F06BFA1A222421462071
:1029600016F066FA1B222421662016F061FA062270
:102970004821104616F05CFA07224821262016F05E
:1029800057FA1C224821462016F052FA1B224821F1
:10299000662016F04DFA06226C21104616F048FA11
:1029A00007226C21262016F043FA1D226C214620B6
:1029B00016F03EFA1B226C21662016F039FA062228
:1029C0009021104616F034FA07229021262016F0A6
:1029D0002FFA1E229021462016F02AFA1B2290215F
:1029E000662016F025FA0622B421104616F020FAC9
:1029F0000722B421262016F01BFA1F22B4214620FC
:102A000016F016FA1B22B421662016F011FA0622DF
:102A100024214FF4AD7016F00BFA072224214FF455
:102A2000BD7016F005FA202224214FF4CD7016F067
:102A3000FFF91B2224214FF4DD7016F0F9F906226C
:102A400048214FF4AD7016F0F3F9072248214FF4F6
:102A5000BD7016F0EDF9212248214FF4CD7016F02B
:102A6000E7F91B2248214FF4DD7016F0E1F9062248
:102A70006C214FF4AD7016F0DBF907226C214FF496
:102A8000BD7016F0D5F922226C214FF4CD7016F0EE
:102A9000CFF91B226C214FF4DD7016F0C9F9062224
:102AA00090214FF4AD7016F0C3F9072290214FF436
:102AB000BD7016F0BDF9232290214FF4CD7016F0B1
:102AC000B7F91B2290214FF4DD7016F0B1F9012304
:102AD0000622B4214FF4AD7016F0E4F90123072269
:102AE000B4214FF4BD7016F0DDF94FF6FF700023EE
:102AF0000122B42100904FF4CD7016F05DF94FF62D
:102B0000FF7000231A46B42100904FF4D57016F0E0
:102B100053F901231B22B4214FF4DD7016F0C2F9E2
:102B200000E000BF00BF38BD03B5ADF5097D4FF42F
:102B3000F072FE4911A8FDF70BFBFD4800780C2848
:102B400001F0B487FA4800780D28F9D0F8480078E9
:102B50000E28F5D0F64800780F28F1D0F448007818
:102B60001028EDD0F24800781128E9D0F04800781C
:102B70001228E5D0EE4800781328E1D0EC48007820
:102B80001428DDD0EA4800781528D9D08A98022880
:102B90007ED0042803D0052841F08687E5E3E54888
:102BA000007878BBE448007860BBE448007848BB14
:102BB000E348007830BBE348007818BBE24800786F
:102BC00000BBE2480078E8B9E1480078D0B9E148B4
:102BD0000078B8B9E0480078A0B9E04800780C382F
:102BE00000EB4000D14901EB00104078401CC1B21D
:102BF000DA4800780C3800EB4000CC4A02EB0010B9
:102C0000417014E3FFE7D54800780C3800EB400032
:102C1000C64901EB0010407801287DD1D0480078EA
:102C2000012812D1CD4800780C3800EB400001EBB0
:102C300000104079401CC1B2C84800780C3800EB45
:102C40004000BA4A02EB00104171C54800780228E2
:102C500029D1C24800780C3800EB4000B34901EBA1
:102C600000108079401CBD4909780C3901EB410105
:102C7000AE4A02EB01114979884214DAB74800786C
:102C80000C3800EB4000114601EB0010807900E0A9
:102C9000FEE3401CC1B2B14800780C3800EB4000A4
:102CA00002EB00108171AE480078032813D1AB48C5
:102CB00000780C3800EB40009C4901EB0010007BD1
:102CC000401CC1B2A54800780C3800EB4000974A80
:102CD00002EB00100173A2480078042815D19F4828
:102CE00000780C3800EB4000904901EB0010407B6D
:102CF00008B9012100E00021984800780C3800EB69
:102D000040008A4A02EB00104173944800780C3866
:102D100000EB4000854900E07CE001EB0010007B07
:102D2000042809D100218D4800780C3800EB4000C0
:102D30007E4A02EB0010017389480078052813D100
:102D4000864800780C3800EB4000784901EB001011
:102D50000089401C81B2814800780C3800EB4000AB
:102D6000724A02EB001001817D480078062827D1C5
:102D70007A4800780C3800EB40006C4901EB0010F9
:102D80004089401C754909780C3901EB4101674ABB
:102D900002EB01110989884212DA704800780C3878
:102DA00000EB4000114601EB00104089401C81B24D
:102DB0006A4800780C3800EB400002EB00104181BB
:102DC000664800780C3800EB4000584901EB0010D1
:102DD0000089322809DB3221604800780C3800EB8A
:102DE0004000524A02EB001001815C4800780C3828
:102DF00000EB40004D4901EB001040795A2809DDF5
:102E00005A21564800780C3800EB4000474A02EB44
:102E100000104171514800780C3800EB40004349E4
:102E200001EB0010407802285CD14E480078012860
:102E300012D14A4800780C3800EB400001EB00103A
:102E4000408A401C81B2454800780C3800EB4000B5
:102E5000364A02EB0010418242480078022813D122
:102E60003E4800780C3800EB4000304901EB001080
:102E7000008A401C81B2394800780C3800EB4000D1
:102E80002A4A02EB00100182344800780C3800EB2B
:102E90004000264901EB0010408A42F2107188423E
:102EA00009D100212D4800780C3800EB40001F4A62
:102EB00002EB00104182294800780C3800EB4000FA
:102EC0001A4901EB0010008A42F21071884209D1C0
:102ED0000021224800780C3800EB4000134A02EB36
:102EE000001001821D4800780C3800EB40000F49AB
:102EF00001EB0010407803287ED11B4800780128A0
:102F000012D1164800780C3800EB400001EB00109D
:102F10004079401CC1B2114800780C3800EB4000E9
:102F2000024A02EB001041710F481FE0D810002048
:102F3000F91200200B1300200C1300200D130020A9
:102F40000E1300200F130020101300201113002077
:102F50001213002013130020141300205614002015
:102F600015130020161300201713002000780228E4
:102F700027D1FE4800780C3800EB4000FC4901EBFB
:102F800000108079401CF94909780C3901EB4101A6
:102F9000F74A02EB01114979884212DAF3480078C6
:102FA0000C3800EB4000114601EB00108079401C0A
:102FB000C1B2EE4800780C3800EB400002EB001084
:102FC0008171EC480078032813D1E84800780C3868
:102FD00000EB4000E64901EB0010007B401CC1B251
:102FE000E24800780C3800EB4000E14A02EB0010A8
:102FF0000173E048007800E09FE0042815D1DB4829
:1030000000780C3800EB4000D94901EB0010407B00
:1030100008B9012100E00021D44800780C3800EB09
:103020004000D34A02EB00104173D04800780C38BE
:1030300000EB4000CE4901EB0010007B042809D1D1
:103040000021CA4800780C3800EB4000C84A02EB67
:1030500000100173C7480078052813D1C3480078D1
:103060000C3800EB4000C24901EB0010408A401CC4
:1030700081B2BE4800780C3800EB4000BC4A02EB3D
:1030800000104182BB480078062813D1B748007869
:103090000C3800EB4000B64901EB0010008A401CE0
:1030A00081B2B24800780C3800EB4000B04A02EB25
:1030B00000100182AD4800780C3800EB4000AC49AC
:1030C00001EB0010408A42F21071884209D10021C0
:1030D000A64800780C3800EB4000A54A02EB00102F
:1030E0004182A24800780C3800EB4000A04901EB77
:1030F0000010008A42F21071884209D100219B48D9
:1031000000780C3800EB4000994A02EB0010018275
:10311000964800780C3800EB4000954901EB001010
:1031200040795A2809DD5A21904800780C3800EB84
:1031300040008F4A02EB001041718C4800780C3837
:1031400000EB40008A4901EB0010407804286ED162
:1031500089480078012812D1844800780C3800EBA7
:10316000400001EB0010C07D401CC1B27F480078D8
:103170000C3800EB40007E4A02EB0010C1757E481F
:103180000078022813D1794800780C3800EB400011
:10319000774901EB0010007E401CC1B273480078F3
:1031A0000C3800EB4000724A02EB001001767248C6
:1031B0000078032813D16D4800780C3800EB4000EC
:1031C0006B4901EB0010407E401CC1B2674800789B
:1031D0000C3800EB4000664A02EB0010417666486E
:1031E0000078042813D1614800780C3800EB4000C7
:1031F0005F4901EB0010807E401CC1B25B48007843
:103200000C3800EB40005A4A02EB001081765A4815
:103210000078052816D1554800780C3800EB40009E
:10322000534901EB0010C07E10B9012101E0E1E338
:1032300000214E4800780C3800EB40004C4A02EB6D
:103240000010C1764C480078062813D14748007812
:103250000C3800EB4000464901EB0010007F401C99
:10326000C1B2424800780C3800EB4000404A02EB03
:103270000010017740480078072813D13B480078B8
:103280000C3800EB40003A4901EB0010407F401C35
:10329000C1B2364800780C3800EB4000344A02EBEB
:1032A0000010417734480078082813D12F4800785F
:1032B0000C3800EB40002E4901EB0010807F401CD1
:1032C000C1B22A4800780C3800EB4000284A02EBD3
:1032D0000010817728480078092813D12348007806
:1032E0000C3800EB4000224901EB0010C07F401C6D
:1032F000C1B21E4800780C3800EB40001C4A02EBBB
:103300000010C1771C4800780A2817D117480078A8
:103310000C3800EB4000164901EB001090F820003B
:1033200008B9012100E00021104800780C3800EBBA
:1033300040000F4A02EB001080F820100E48007881
:103340000B281FD1094800780C3800EB40000849D1
:1033500001EB001090F82100401CC1B20348007836
:103360000C3800EB4000024A08E059E356140020F4
:10337000D8100020171300201813002002EB0010B3
:1033800080F82110FE4800780C2815D1FD480078FF
:103390000C3800EB4000FC4901EB001090F82200D3
:1033A000401CC1B2F74800780C3800EB4000F64AE8
:1033B00002EB001080F82210F14800780D2815D19A
:1033C000F04800780C3800EB4000EF4901EB0010AA
:1033D00090F82300401CC1B2EA4800780C3800EB9A
:1033E0004000E94A02EB001080F82310E44800781E
:1033F0000E2815D1E34800780C3800EB4000E24974
:1034000001EB001090F82400401CC1B2DD480078A8
:103410000C3800EB4000DC4A02EB001080F824106E
:10342000D74800780F2817D1D64800780C3800EB21
:103430004000D54901EB001090F8250008B90121A2
:1034400000E00021CF4800780C3800EB4000CE4A65
:1034500002EB001080F82510C9480078102815D11B
:10346000C84800780C3800EB4000C74901EB001059
:1034700090F82600401CC1B2C24800780C3800EB1E
:103480004000C14A02EB001080F82610BC4800E062
:10349000C7E30078112815D1BA4800780C3800EB42
:1034A0004000B94901EB001090F82700401CC1B260
:1034B000B44800780C3800EB4000B34A02EB00102F
:1034C00080F82710AE480078122815D1AD48007852
:1034D0000C3800EB4000AC4901EB001090F82800DC
:1034E000401CC1B2A74800780C3800EB4000A64A47
:1034F00002EB001080F82810A1480078132815D19D
:10350000A04800780C3800EB40009F4901EB001008
:1035100090F82900401CC1B29A4800780C3800EBA2
:103520004000994A02EB001080F829109448007876
:10353000142817D1934800780C3800EB40009249CA
:1035400001EB001090F82A0008B9012100E00021E9
:103550008C4800780C3800EB40008B4A02EB0010DE
:1035600080F82A1086480078152815D185480078FB
:103570000C3800EB4000844901EB001090F82B0060
:10358000401CC1B27F4800780C3800EB40007E4AF6
:1035900002EB001080F82B1079480078162815D11E
:1035A000784800780C3800EB4000774901EB0010B8
:1035B00090F82C00401CC1B2724800780C3800EB27
:1035C0004000714A02EB001080F82C106C48007823
:1035D000172815D16B4800780C3800EB40006A4979
:1035E00001EB001090F82D00401CC1B26548007836
:1035F0000C3800EB4000644A02EB001080F82D10FC
:103600005F480078182815D15E4800780C3800EB28
:1036100040005D4901EB001090F82E00401CC1B243
:10362000584800780C3800EB4000574A02EB001075
:1036300080F82E1052480078192817D15148007888
:103640000C3800EB4000504901EB001090F82F00BF
:1036500008B9012100E000214A4800780C3800EB4D
:103660004000494A02EB001080F82F1045480078CE
:103670000C3800EB4000444901EB0010C07D1828D5
:1036800009D100213F4800780C3800EB40003E4A49
:1036900002EB0010C1753B4800780C3800EB40008D
:1036A000394901EB0010007E3D2809D10021354841
:1036B00000780C3800EB4000334A02EB0010017632
:1036C000304800780C3800EB40002F4901EB001027
:1036D000007F182809D100212A4800780C3800EB17
:1036E0004000294A02EB00100177264800780C3888
:1036F00000EB4000244901EB0010407F3D2809D138
:103700000021204800780C3800EB40001E4A02EBF4
:10371000001041771B4800780C3800EB40001A4934
:1037200001EB001090F8210018280AD1002115485B
:1037300000780C3800EB4000134A02EB001080F8D0
:103740002110104800780C3800EB40000E4901EBC6
:10375000001090F822003D280AD100210948007885
:103760000C3800EB4000084A02EB001080F82210F1
:10377000044800780C3800EB4000034906E00000E4
:103780001813002056140020D810002001EB001060
:1037900090F8260018280AD10021FE4800780C383D
:1037A00000EB4000FC4A02EB001080F82610F948BC
:1037B00000780C3800EB4000F74901EB001090F85E
:1037C00027003D280AD10021F24800780C3800EB90
:1037D0004000F14A02EB001080F82710ED48007815
:1037E0000C3800EB4000EC4901EB001090F82B0086
:1037F00018280AD10021E74800780C3800EB400077
:10380000E54A02EB001080F82B10E24800780C38F3
:1038100000EB4000E04901EB001090F82C003D283F
:103820000AD10021DB4800780C3800EB4000DA4A6E
:1038300002EB001080F82C10D64800780C3800EB12
:103840004000D54901EB0010407E182809D1002125
:10385000D04800780C3800EB4000CF4A02EB001053
:103860004176CC4800780C3800EB4000CA4901EBA7
:103870000010807E3D2809D10021C64800780C3810
:1038800000EB4000C44A02EB00108176C14800788A
:103890000C3800EB4000C04901EB0010807F182875
:1038A00009D10021BB4800780C3800EB4000BA4A2F
:1038B00002EB00108177B74800780C3800EB40002D
:1038C000B54901EB0010C07F3D2809D10021B14866
:1038D00000780C3800EB4000AF4A02EB0010C177D3
:1038E000AC4800780C3800EB4000AB4901EB00100D
:1038F00090F8230018280AD10021A64800780C3837
:1039000000EB4000A44A02EB001080F82310A1480D
:1039100000780C3800EB40009F4901EB001090F854
:1039200024003D280AD100219A4800780C3800EB89
:103930004000994A02EB001080F824109548007866
:103940000C3800EB4000944901EB001090F828007F
:1039500018280AD100218F4800780C3800EB40006D
:103960008D4A02EB001080F828108A4800780C3845
:1039700000EB4000884901EB001090F829003D2839
:103980000AD10021834800780C3800EB4000824ABD
:1039900002EB001080F829107E4800780C3800EB0C
:1039A00040007D4901EB001090F82D0018280AD145
:1039B0000021784800780C3800EB4000764A02EB92
:1039C000001080F82D10734800780C3800EB400090
:1039D000714901EB001090F82E003D280AD100211A
:1039E0006C4800780C3800EB40006B4A02EB00108A
:1039F00080F82E10674800780C3800EB40006649CC
:103A000001EB00104078052809D1002161480078B9
:103A10000C3800EB4000604A02EB00104170FDE3FF
:103A20005C4800780C3820B95C480078401C5B4941
:103A30000870584800780C38012804D1584800789C
:103A4000401C57490870534800780C38022804D1AC
:103A500054480078401C534908704E4800780C3890
:103A6000032804D150480078401C4F490870494849
:103A700000780C38042804D14C480078401C4B498D
:103A80000870444800780C38052804D1484800786C
:103A9000401C474908703F4800780C38062804D17C
:103AA00044480078401C434908703A4800780C3874
:103AB000072804D140480078401C3F490870354829
:103AC00000780C38082804D13C480078401C3B4959
:103AD0000870304800780C38092804D1384800783C
:103AE000401C374908702D480078022823DC2C48F8
:103AF000007802281FDC2B48007802281BDC2A48AB
:103B00000078022817DC29480078022813DC2848AE
:103B1000007802280FDC2748007802280BDC2648B2
:103B20000078022807DC25480078022803DC2448B6
:103B30000078022874DD174800780C3800EB40004C
:103B4000154901EB0010407801280AD11D48007882
:103B5000401C1C49087008460078072801D1012044
:103B600008700C4800780C3800EB40000A4901EB63
:103B70000010407802280AD113480078401C1249EE
:103B8000087008460078032801D101200870014818
:103B900000781BE056140020D81000200B130020E2
:103BA0000C1300200D1300200E1300200F13002013
:103BB00010130020111300201213002013130020F3
:103BC0001413002015130020161300200C3800EBEE
:103BD0004000FE4901EB0010407803280AD1FC4860
:103BE0000078401CFA49087008460078072801D17F
:103BF00001200870F74800780C3800EB4000F349CA
:103C000001EB0010407804280AD1F3480078401CEA
:103C1000F1490870084600781A2801D1012008707F
:103C2000FDE6EE48007878BBED48007860BBED48D3
:103C3000007848BBEC48007830BBEC48007818BBF3
:103C4000EB48007800BBEB480078E8B9EA48007818
:103C5000D0B9EA480078B8B9E9480078A0B9DD4899
:103C600000780C3800EB4000D84901EB0010407898
:103C7000401EC1B2D74800780C3800EB4000D34A50
:103C800002EB0010417018E3FFE7D24800780C38CF
:103C900000EB4000CD4901EB0010407801287DD1B8
:103CA000D8480078012826D1CA4800780C3800EBA3
:103CB000400001EB00104079401EC64909780C39DC
:103CC00001EB4101C14A02EB01118979884212DD01
:103CD000C04800780C3800EB4000114601EB0010A2
:103CE0004079401EC1B2BB4800780C3800EB400060
:103CF00002EB00104171C3480078022813D1B54887
:103D000000780C3800EB4000B04901EB00108079DE
:103D1000401EC1B2AF4800780C3800EB4000AB4AFF
:103D200002EB00108171B7480078032813D1A9482D
:103D300000780C3800EB4000A44901EB0010007B38
:103D4000401CC1B2A34800780C3800EB40009F4AE9
:103D500002EB00100173AB480078042815D19D4890
:103D600000780C3800EB4000984901EB0010407BD4
:103D700008B9012100E00021964800780C3800EBDA
:103D80004000924A02EB00104173924800780C38D0
:103D900000EB40008D4901EB001000E07AE0007B71
:103DA000042809D100218B4800780C3800EB400032
:103DB000864A02EB0010017392480078052827D14B
:103DC000844800780C3800EB4000804901EB00107B
:103DD0000089401E7F4909780C3901EB41017B4A7B
:103DE00002EB01114989884212DD7A4800780C38CB
:103DF00000EB4000114601EB00100089401E81B22B
:103E0000744800780C3800EB400002EB0010018190
:103E10007C480078062813D16E4800780C3800EBF7
:103E200040006A4901EB00104089401E81B2694898
:103E300000780C3800EB4000644A02EB001041812E
:103E4000644800780C3800EB4000604901EB00103A
:103E50004089012809DC01215E4800780C3800EB1C
:103E600040005A4A02EB001041815A4800780C3851
:103E700000EB4000554901EB00108079FF2809D183
:103E80000021544800780C3800EB40004F4A02EB08
:103E9000001081714F4800780C3800EB40004B490E
:103EA00001EB0010407802285ED1574800780128C5
:103EB00012D1484800780C3800EB400001EB0010AC
:103EC000408A401E81B2434800780C3800EB400025
:103ED0003E4A02EB001041824B480078022813D181
:103EE0003C4800780C3800EB4000384901EB0010EA
:103EF000008A401E81B2374800780C3800EB400041
:103F0000324A02EB00100182324800780C3800EB94
:103F100040002E4901EB0010408A4FF6FF718842A5
:103F20000AD142F20F712B4800780C3800EB4000A8
:103F3000264A02EB00104182264800780C3800EB3C
:103F40004000224901EB0010008A4FF6FF718842C1
:103F50000AD142F20F711F4800780C3800EB400084
:103F60001A4A02EB001001821A4800780C3800EB64
:103F70004000164901EB0010407803287ED1144818
:103F80000078012847D1134800780C3800EB400036
:103F900001EB00104079401E0E4909780C3901EB05
:103FA00041010A4A02EB01118979884233DD09484F
:103FB00000780C3800EB4000114601EB001040790E
:103FC000401EC1B2034800780C381FE0D810002012
:103FD0001713002056140020181300200B13002084
:103FE0000C1300200D1300200E1300200F130020CF
:103FF00010130020111300201213002013130020AF
:1040000014130020151300201613002000EB4000AD
:1040100002EB00104171FE480078022813D1FD48E0
:1040200000780C3800EB4000FB4901EB0010807970
:10403000401EC1B2F74800780C3800EB4000F64A49
:1040400002EB00108171F2480078032813D1F14887
:1040500000780C3800EB4000EF4901EB0010007BCA
:10406000401CC1B2EB4800780C3800EB4000EA4A33
:1040700002EB00100173E648007800E0A1E004289C
:1040800015D1E44800780C3800EB4000E24901EB20
:104090000010407B08B9012100E00021DD480078D4
:1040A0000C3800EB4000DC4A02EB00104173D948A9
:1040B00000780C3800EB4000D74901EB0010007B82
:1040C000042809D10021D34800780C3800EB4000C7
:1040D000D14A02EB00100173CD480078052813D1B6
:1040E000CC4800780C3800EB4000CB4901EB0010C5
:1040F000408A401E81B2C74800780C3800EB40006F
:10410000C54A02EB00104182C1480078062813D14D
:10411000C04800780C3800EB4000BF4901EB0010AC
:10412000008A401E81B2BB4800780C3800EB40008A
:10413000B94A02EB00100182B64800780C3800EB57
:104140004000B54901EB0010408A4FF6FF718842EC
:104150000AD142F20F71AF4800780C3800EB4000F2
:10416000AD4A02EB00104182AA4800780C3800EBFF
:104170004000A94901EB0010008A4FF6FF71884208
:104180000AD142F20F71A34800780C3800EB4000CE
:10419000A14A02EB001001829E4800780C3800EB27
:1041A00040009D4901EB00108079FF2809D10021D2
:1041B000984800780C3800EB4000974A02EB00105A
:1041C0008171944800780C3800EB4000924901EB73
:1041D00000104078042870D190480078012812D14E
:1041E0008C4800780C3800EB400001EB0010C07DDB
:1041F000401EC1B2874800780C3800EB4000864A68
:1042000002EB0010C17585480078022815D181485D
:1042100000780C3800EB40007F4900E0FDE301EB43
:104220000010007E401EC1B27A4800780C3800EBC6
:104230004000794A02EB00100176784800780328A4
:1042400013D1744800780C3800EB4000724901EB40
:104250000010407E401EC1B26E4800780C3800EB62
:1042600040006D4A02EB001041766C48007804284B
:1042700013D1684800780C3800EB4000664901EB28
:104280000010807E401EC1B2624800780C3800EBFE
:104290004000614A02EB00108176604800780528F2
:1042A00016D15C4800780C3800EB40005A4901EB0D
:1042B0000010C07E10B9012101E0DFE30021554864
:1042C00000780C3800EB4000534A02EB0010C17636
:1042D00052480078062813D14E4800780C3800EB7D
:1042E00040004D4901EB0010007F401EC1B249481B
:1042F00000780C3800EB4000474A02EB00100177D1
:1043000046480078072813D1424800780C3800EB63
:104310004000414901EB0010407F401EC1B23D48C2
:1043200000780C3800EB40003B4A02EB001041776C
:104330003A480078082813D1364800780C3800EB4A
:104340004000354901EB0010807F401EC1B231486A
:1043500000780C3800EB40002F4A02EB0010817708
:104360002E480078092813D12A4800780C3800EB31
:104370004000294901EB0010C07F401EC1B2254812
:1043800000780C3800EB4000234A02EB0010C177A4
:10439000224800780A2817D11E4800780C3800EB14
:1043A00040001D4901EB001090F8200008B90121E0
:1043B00000E00021174800780C3800EB4000164A56
:1043C00002EB001080F82010144800780B2815D15B
:1043D000104800780C3800EB40000F4901EB00104A
:1043E00090F82100401EC1B20A4800780C3800EB5A
:1043F0004000094A02EB001080F8211007480078BD
:104400000C281ED1034800780C3800EB400007E070
:104410001713002056140020D81000201813002075
:10442000FE4901EB001090F82200401EC1B2FC488A
:1044300000780C3800EB4000F84A02EB001080F8DE
:104440002210F84800780D2815D1F54800780C386E
:1044500000EB4000F14901EB001090F82300401EF2
:10446000C1B2EF4800780C3800EB4000EB4A02EB99
:10447000001080F82310EB4800780E2815D1E8488A
:1044800000780C3800EB4000E44901EB001090F894
:104490002400401EC1B2E24800780C3800EB400016
:1044A000DE4A02EB001080F82410DE4800780F2866
:1044B00017D1DB4800780C3800EB4000D74901EBFE
:1044C000001090F8250008B9012100E00021D4482F
:1044D00000780C3800EB4000D04A02EB001080F866
:1044E0002510D0480078102815D1CD4800780C3818
:1044F00000EB4000C94901EB001090F82600401E77
:10450000C1B2C74800780C3800EB4000C34A02EB48
:10451000001080F82610C3480078112815D1C04833
:1045200000780C3800EB4000BC4901EB001090F81B
:104530002700401EC1B2BA4800780C3800EB40009A
:10454000B64A02EB001080F82710B648007812280F
:1045500015D1B34800780C3800EB4000AF4901EBAF
:10456000001090F82800401EC1B2AD4800780C3809
:1045700000EB4000A94A02EB001080F82810A9487F
:104580000078132815D1A64800780C3800EB4000BD
:10459000A24901EB001090F82900401EC1B2A048CA
:1045A00000780C3800EB40009C4A02EB001080F8C9
:1045B00029109C480078142817D1994800780C38A5
:1045C00000EB4000954901EB001090F82A0008B973
:1045D000012100E00021924800780C3800EB4000F7
:1045E0008E4A02EB001080F82A108E4800781528B9
:1045F00015D18B4800780C3800EB4000874901EB5F
:10460000001090F82B00401EC1B2854800780C388D
:1046100000EB4000814A02EB001080F82B1081482B
:104620000078162815D17E4800780C3800EB400041
:104630007A4901EB001090F82C00401EC1B2784876
:1046400000780C3800EB4000744A02EB001080F850
:104650002C1074480078172815D1714800780C3850
:1046600000EB40006D4901EB001090F82D00401E5A
:10467000C1B26B4800780C3800EB4000674A02EB8F
:10468000001080F82D1067480078182815D164486C
:1046900000780C3800EB4000604901EB001090F806
:1046A0002E00401EC1B25E4800780C3800EB40007E
:1046B0005A4A02EB001080F82E105A480078192848
:1046C00017D1574800780C3800EB4000534901EBF4
:1046D000001090F82F0008B9012100E00021504897
:1046E00000780C3800EB40004C4A02EB001080F8D8
:1046F0002F104B4800780C3800EB4000474901EB85
:104700000010C07DFF2809D11721454800780C38DA
:1047100000EB4000414A02EB0010C17540480078B0
:104720000C3800EB40003D4901EB0010007EFF28F3
:1047300009D13C213A4800780C3800EB4000374A58
:1047400002EB00100176364800780C3800EB400090
:10475000324901EB0010007FFF2809D117213048B2
:1047600000780C3800EB40002C4A02EB0010017777
:104770002B4800780C3800EB4000284901EB001072
:10478000407FFF2809D13C21254800780C3800EBF8
:104790004000224A02EB00104177214800780C3893
:1047A00000EB40001D4901EB001090F82100FF28AC
:1047B0000AD117211A4800780C3800EB4000174A3C
:1047C00002EB001080F82110154800780C3800EB3F
:1047D0004000124901EB001090F82200FF280AD196
:1047E0003C210F4800780C3800EB40000B4A02EBEC
:1047F000001080F822100A4800780C3800EB4000C6
:10480000064901EB001090F82600FF2811D117216E
:10481000034800780C3800EB400005E0D810002079
:104820005614002018130020FE4A02EB001080F8F6
:104830002610FD4800780C3800EB4000F94901EBE8
:10484000001090F82700FF280AD13C21F648007894
:104850000C3800EB4000F34A02EB001080F8271000
:10486000F14800780C3800EB4000EE4901EB0010F5
:1048700090F82B00FF280AD11721EB4800780C385C
:1048800000EB4000E74A02EB001080F82B10E648EE
:1048900000780C3800EB4000E24901EB001090F882
:1048A0002C00FF280AD13C21DF4800780C3800EBAF
:1048B0004000DC4A02EB001080F82C10DA48007847
:1048C0000C3800EB4000D74901EB0010407EFF2878
:1048D00009D11721D44800780C3800EB4000D14AA8
:1048E00002EB00104176D04800780C3800EB400015
:1048F000CC4901EB0010807EFF2809D13C21CA4839
:1049000000780C3800EB4000C64A02EB00108176BC
:10491000C54800780C3800EB4000C24901EB00109C
:10492000807FFF2809D11721BF4800780C3800EBA1
:104930004000BC4A02EB00108177BB4800780C387D
:1049400000EB4000B74901EB0010C07FFF2809D100
:104950003C21B54800780C3800EB4000B14A02EB2E
:104960000010C177B04800780C3800EB4000AD492A
:1049700001EB001090F82300FF280AD11721AA4864
:1049800000780C3800EB4000A64A02EB001080F8DB
:104990002310A54800780C3800EB4000A14901EB3A
:1049A000001090F82400FF280AD13C219E4800788E
:1049B0000C3800EB40009B4A02EB001080F82410FA
:1049C000994800780C3800EB4000964901EB001044
:1049D00090F82800FF280AD11721934800780C3856
:1049E00000EB40008F4A02EB001080F828108E4840
:1049F00000780C3800EB40008A4901EB001090F879
:104A00002900FF280CD13C21874800780C3800EBA6
:104A10004000844A02EB001000E046E080F82910D4
:104A2000814800780C3800EB40007E4901EB001013
:104A300090F82D00FF280AD117217B4800780C3808
:104A400000EB4000774A02EB001080F82D1076480A
:104A500000780C3800EB4000724901EB001090F830
:104A60002E00FF280AD13C216F4800780C3800EB5B
:104A700040006C4A02EB001080F82E106A48007863
:104A80000C3800EB4000674901EB00104078FF282C
:104A900009D10421644800780C3800EB4000614AD9
:104AA00002EB0010417000E000BF03E05F480078B7
:104AB0005D4908705E480078002841F0D6825D4864
:104AC00000780028F9D15C4800780028F5D15B48CF
:104AD00000780028F1D15A4800780028EDD15948D3
:104AE00000780028E9D1584800780028E5D15748D7
:104AF00000780028E1D1564800780028DDD15548DB
:104B000000780028D9D10120534908705349087012
:104B10005349087053490870534908705349087045
:104B20005349087053490870534908705349087035
:104B30003D4800780C3800EB40003A4901EB00108A
:104B40004078052881F08F82DFE800F00314FEFD35
:104B5000FC005C222321A02014F06AF95A222321B0
:104B6000C02014F065F95B222321E02014F060F9E5
:104B700001F07ABA2C4800780C3800EB4000294943
:104B800001EB001040791090274800780C3800EBBA
:104B90004001244800EB011080790F9022480078F2
:104BA0000C3800EB40001F4901EB001000890E900B
:104BB0001D4800780C3800EB400001EB00104089E4
:104BC0000D9027222321A02014F032F90A2223215C
:104BD000C02014F02DF926222321E02014F028F91A
:104BE00029224321062014F023F92A2243212620DA
:104BF00014F01EF927224321462014F019F92C2223
:104C00004321662014F014F929226721062014F0AC
:104C10000FF92B226721262014F00AF92722672199
:104C200046202DE0D810002056140020F912002054
:104C30000B1300200C1300200D1300200E13002076
:104C40000F13002010130020111300201213002056
:104C5000131300201413002001130020021300205E
:104C60000313002004130020051300200613002066
:104C70000713002008130020091300200A13002046
:104C800014F0D6F82C226721662014F0D1F83222D5
:104C90008B21062014F0CCF833228B21262014F02F
:104CA000C7F834228B21462014F0C2F835228B211C
:104CB000662014F0BDF836228B21862014F0B8F857
:104CC0002C228B21A62014F0B3F83722AF21062026
:104CD00014F0AEF83822AF21262014F0A9F83922BA
:104CE000AF21462014F0A4F83A22AF21662014F038
:104CF0009FF82C22AF21862014F09AF86922D32144
:104D0000062014F095F86A22D321262014F090F89A
:104D10002922D321462014F08BF82A22D3216620A1
:104D200014F086F85822D321862014F081F82C2222
:104D3000D321A62014F07CF86922F721062014F074
:104D400077F802E0FEE34DE261E16A22F7212620D6
:104D500014F06EF82922F721462014F069F82B226E
:104D6000F721662014F064F85822F721862014F009
:104D70005FF82C22F721A62014F05AF80A21109887
:104D800090FBF1F0C0B2019000204FF6FF7300904D
:104D900043218620019A14F00FF80A21109890FB05
:104DA000F1F201FB1200C0B2019000204FF6FF7338
:104DB000009043219620019A13F0FEFF0A210F98DC
:104DC00090FBF1F0C0B2019000204FF6FF7300900D
:104DD00067218620019A13F0EFFF0A210F9890FBBC
:104DE000F1F201FB1200C0B2019000204FF6FF73F8
:104DF000009067219620019A13F0DEFFF7480078B3
:104E00000C3800EB4000F64901EB0010007BA8B91C
:104E100027228B21C72014F00BF842228B21E72098
:104E200014F006F83F228B2140F2071014F000F82E
:104E300026228B2140F2271013F0FAFFE748007872
:104E40000C3800EB4000E64901EB0010007B012824
:104E500015D127228B21C72013F0EAFF42228B2194
:104E6000E72013F0E5FF40228B2140F2071013F0FA
:104E7000DFFF26228B2140F2271013F0D9FFD748FD
:104E800000780C3800EB4001D54800EB0110007BA6
:104E9000022815D127228B21C72013F0C9FF4222F7
:104EA0008B21E72013F0C4FF41228B2140F2071031
:104EB00013F0BEFF26228B2140F2271013F0B8FF1B
:104EC000C64800780C3800EB4000C54901EB0010E3
:104ED000007B032815D143228B21C72013F0A8FFA4
:104EE00044228B21E72013F0A3FF27228B2140F2DD
:104EF000071013F09DFF42228B2140F2271013F080
:104F000097FFB64800780C3800EB4000B44901EB3D
:104F10000010407B50B13D22AF21A72013F088FF45
:104F20003E22AF21C72013F083FF09E03B22AF21CF
:104F3000A72013F07DFF3C22AF21C72013F078FF9C
:104F400064210E9890FBF1F0C0B2019000204FF662
:104F5000FF730090D321C820019A13F02DFF0A217E
:104F60000E9890FBF1F090FBF1F201FB1200C0B241
:104F7000019000204FF6FF730090D321D820019AB2
:104F800013F01AFF0A210E9890FBF1F201FB1200B8
:104F9000C0B2019000204FF6FF730090D321E820AB
:104FA000019A13F009FF64210D9890FBF1F0C0B253
:104FB000019000204FF6FF730090F721C820019A5E
:104FC00013F0FAFE0A210D9890FBF1F090FBF1F23C
:104FD00001FB1200C0B2019000204FF6FF73009059
:104FE000F721D820019A13F0E7FE0A210D9890FBD3
:104FF000F1F201FB1200C0B2019000204FF6FF73E6
:105000000090F721E820019A13F0D6FEB0E573482E
:1050100000780C3800EB4000714901EB0010408A29
:105020000C906E4800780C3800EB40016C4800EBA7
:105030000110008A0B9012222321A02013F0F8FE09
:105040000A222321C02013F0F3FE26222321E02090
:1050500013F0EEFE30224321062013F0E9FE312248
:105060004321262013F0E4FE12224321462013F0B0
:10507000DFFE13224321662013F0DAFE2C224321A7
:10508000862013F0D5FE2E228B21062013F0D0FEB1
:105090002F228B21262013F0CBFE12228B214620BB
:1050A00013F0C6FE13228B21662013F0C1FE2C22C2
:1050B0008B21862013F0BCFE4FF47A710C9890FB84
:1050C000F1F0C0B2019000204FF6FF730090432131
:1050D000A620019A13F070FE64210C9890FBF1F069
:1050E0000A2190FBF1F201FB1200C0B201900020F6
:1050F0004FF6FF7300904321B620019A13F05CFE37
:105100000A210C9890FBF1F090FBF1F201FB1200E8
:10511000C0B2019000204FF6FF7300904321C620DB
:10512000019A13F049FE0A210C9890FBF1F201FB61
:105130001200C0B2019000204FF6FF73009043218F
:10514000D620019A13F038FE4FF47A710B9890FB39
:10515000F1F0C0B2019000204FF6FF7300908B2158
:10516000A620019A13F028FE64210B9890FBF1F021
:105170000A2190FBF1F201FB1200C0B20190002065
:105180004FF6FF7300908B21B620019A13F014FEA6
:105190000A210B9890FBF1F090FBF1F201FB120059
:1051A000C0B2019000204FF6FF7300908B21C62003
:1051B000019A13F001FE0A210B9890FBF1F201FB1A
:1051C0001200C0B2019000204FF6FF7300908B21B7
:1051D000D620019A13F0F0FDCAE400005614002016
:1051E000D8100020FE4800780C3800EB4000FD4944
:1051F00001EB001040790A90F94800780C3800EB78
:10520000400001EB001080790990F54800780C38D7
:1052100000EB400001EB0010408A0890F048007855
:105220000C3800EB400001EB0010008A07902722A9
:105230002321A02013F0FCFD12222321C02013F013
:10524000F7FD0A222321E02013F0F2FD2922432159
:10525000062013F0EDFD2A224321262013F0E8FD5D
:1052600027224321462013F0E3FD2C224321662010
:1052700013F0DEFD29226721062013F0D9FD2B2231
:105280006721262013F0D4FD27226721462013F042
:10529000CFFD2C226721662013F0CAFD32228B211C
:1052A000062013F0C5FD33228B21262013F0C0FD0C
:1052B00034228B21462013F0BBFD35228B21662042
:1052C00013F0B6FD36228B21862013F0B1FD2C227F
:1052D0008B21A62013F0ACFD3722AF21062013F05E
:1052E000A7FD3822AF21262013F0A2FD3922AF21DD
:1052F000462013F09DFD3A22AF21662013F098FD61
:105300002C22AF21862013F093FD0A210A9890FBEE
:10531000F1F0C0B2019000204FF6FF7300904321DE
:105320008620019A13F048FD0A210A9890FBF1F2B9
:1053300001FB1200C0B2019000204FF6FF730090F5
:1053400043219620019A13F037FD0A21099890FB1A
:10535000F1F0C0B2019000204FF6FF73009067217A
:105360008620019A13F028FD0A21099890FBF1F29A
:1053700001FB1200C0B2019000204FF6FF730090B5
:1053800067219620019A13F017FD954800780C3894
:1053900000EB4000934901EB0010007BA8B92722E5
:1053A0008B21C72013F044FD42228B21E72013F00C
:1053B0003FFD3F228B2140F2071013F039FD2622DA
:1053C0008B2140F2271013F033FD854800780C380C
:1053D00000EB4000834901EB0010007B012815D150
:1053E00027228B21C72013F023FD42228B21E720A7
:1053F00013F01EFD40228B2140F2071013F018FD20
:1054000026228B2140F2271013F012FD74480078F9
:105410000C3800EB4001734800EB0110007B0228C0
:1054200015D127228B21C72013F002FD42228B21A8
:10543000E72013F0FDFC41228B2140F2071013F00E
:10544000F7FC26228B2140F2271013F0F1FC644870
:1054500000780C3800EB4000624901EB0010007B43
:10546000032815D143228B21C72013F0E1FC4422ED
:105470008B21E72013F0DCFC27228B2140F2071060
:1054800013F0D6FC42228B2140F2271013F0D0FCFF
:10549000534800780C3800EB4001524800EB0110F3
:1054A000407B50B13D22AF21A72013F0C1FC3E222A
:1054B000AF21C72013F0BCFC09E03B22AF21A7209D
:1054C00013F0B6FC3C22AF21C72013F0B1FC302210
:1054D000D321062013F0ACFC3122D321262013F077
:1054E000A7FC1222D321462013F0A2FC1322D321C1
:1054F000662013F09DFC2C22D321862013F098FC0B
:105500002E22F721062013F093FC2F22F7212620CC
:1055100013F08EFC1222F721462013F089FC13228F
:10552000F721662013F084FC2C22F721862013F04B
:105530007FFC4FF47A71089890FBF1F0C0B20190B3
:10554000002000E08DE04FF6FF730090D321A620ED
:10555000019A13F031FC6421089890FBF1F00A21C4
:1055600090FBF1F201FB1200C0B2019000204FF657
:10557000FF730090D321B620019A13F01DFC0A217D
:10558000089890FBF1F090FBF1F201FB1200C0B221
:10559000019000204FF6FF730090D321C620019A9E
:1055A00013F00AFC0A21089890FBF1F201FB1200AB
:1055B000C0B2019000204FF6FF730090D321D62097
:1055C000019A13F0F9FB4FF47A71079890FBF1F010
:1055D000C0B2019000204FF6FF730090F72103E066
:1055E00056140020D8100020A620019A13F0E4FBE6
:1055F0006421079890FBF1F20A2092FBF0F100FB86
:105600001120C0B2019000204FF6FF730090F721E7
:10561000B620019A13F0D0FB0A21079890FBF1F015
:1056200090FBF1F201FB1200C0B2019000204FF696
:10563000FF730090F721C620019A13F0BDFB0A21E9
:10564000079890FBF1F201FB1200C0B2019000201C
:105650004FF6FF730090F721D620019A13F0ACFBB0
:10566000FDE3142102A8FAF79AFDF94800780C38F6
:1056700000EB4000F74901EB0010C07D8DF80800F9
:10568000F34800780C3800EB400001EB0010007E7E
:105690008DF80900EE4800780C3800EB400001EB73
:1056A0000010407E8DF80A00E94800780C3800EBC5
:1056B000400001EB0010807E8DF80B00E44800787C
:1056C0000C3800EB400001EB0010007F8DF80C005F
:1056D000DF4800780C3800EB400001EB0010417F00
:1056E0008DF80D10DA4800780C3800EB4000D949ED
:1056F00001EB0010817F8DF80E10D54800780C3832
:1057000000EB4000D34901EB0010C17F8DF80F1072
:10571000CF4800780C3800EB4000CE4901EB001078
:1057200090F821008DF81000C94800780C3800EB83
:10573000400001EB001090F822108DF81110C448C1
:1057400000780C3800EB4000C24901EB001090F8E3
:1057500023108DF81210BE4800780C3800EB400082
:10576000BC4901EB001090F824108DF81310B848D4
:1057700000780C3800EB4000B64901EB001090F8BF
:1057800026008DF81400B24800780C3800EB400079
:1057900001EB001090F827108DF81510AC48007838
:1057A0000C3800EB4000AB4901EB001090F82810DA
:1057B0008DF81610A64800780C3800EB4000A5497B
:1057C00001EB001090F829108DF81710A048007810
:1057D0000C3800EB40009F4901EB001090F82B00C3
:1057E0008DF818009A4800780C3800EB400001EB67
:1057F000001090F82C108DF81910954800780C388E
:1058000000EB4000934901EB001090F82D108DF84B
:105810001A108F4800780C3800EB40008D4901EBDE
:10582000001090F82E108DF81B1028222321A020A4
:1058300013F0FEFA12222321C02013F0F9FA0A22F3
:105840002321E02013F0F4FA00204FF4FC637322CC
:1058500043210090502013F05FFB00204FF4FC63C5
:10586000742243210090702013F056FB00204FF467
:10587000FC63122243210090902013F04DFB002086
:105880004FF4FC63132243210090B02013F044FB3B
:1058900000204FF478437522432100904FF4887024
:1058A00013F03AFB00204FF4784376224321009016
:1058B0004FF4987013F030FB00204FF4784312221D
:1058C000432100904FF4A87013F026FB00204FF402
:1058D00078431322432100904FF4B87013F01CFB5F
:1058E0004E226321002013F0A3FA122263216020CC
:1058F00013F09EFA28226321A02013F099FA1222B5
:105900006321100113F094FA282263214FF4B07040
:1059100013F08EFA9DF808000A2190FBF1F0C0B256
:10592000019000204FF6FF73009063214020019A00
:1059300013F042FA9DF808000A2190FBF1F201FBF6
:105940001200C0B2019000204FF6FF730090632157
:105950005020019A13F030FA9DF809000A2190FBBB
:10596000F1F0C0B2019000204FF6FF730090632168
:105970008020019A13F020FA9DF809000A2190FB7B
:10598000F1F201FB1200C0B2019000204FF6FF734C
:10599000009063219020019A13F00EFA9DF80A00FE
:1059A0000A2190FBF1F0C0B2019000204FF6FF7386
:1059B000009063214FF48070019A13F0FDF99DF877
:1059C0000A000A2190FBF1F201FB1200C0B2019023
:1059D00000204FF6FF73009063214FF48870019A06
:1059E00013F0EAF99DF80B000A2190FBF1F0C0B228
:1059F000019000204FF6FF73009063214FF4A070D8
:105A0000019A13F0D9F99DF80B000A2190FBF1F2ED
:105A100001FB1200C0B2019000204FF6FF7300900E
:105A200063214FF4A870019A13F0C6F90848007872
:105A30000C3800EB4000074901EB0010C07E58B164
:105A4000462263214FF4D07013F0F2F90AE000000F
:105A500056140020D8100020472263214FF4D07044
:105A600013F0E6F94F228321002013F0E1F912220E
:105A70008321602013F0DCF928228321A02013F079
:105A8000D7F912228321100113F0D2F928228321A1
:105A90004FF4B07013F0CCF99DF80C000A2190FB84
:105AA000F1F0C0B2019000204FF6FF730090832107
:105AB0004020019A13F080F99DF80C000A2190FB18
:105AC000F1F201FB1200C0B2019000204FF6FF730B
:105AD000009083215020019A13F06EF99DF80D007B
