:020000040800F2
:10000000482A00200101000861D9000805BB00084A
:100010005DD900087DA50008EF130108000000006D
:1000200000000000000000000000000011E90008CE
:1000300051AC000800000000F5D9000825EA0008CE
:100040001B0100081B0100081B010008EDDD000872
:100050001B0100081B0100081B0100081B01000810
:100060001B0100081B0100081B0100081B01000800
:100070001B0100081B01000881A500081B010008E6
:100080001B0100081B0100081B0100081B010008E0
:100090001B0100081B0100081B0100081B010008D0
:1000A0001B010008EDEA00081B0100081B01000805
:1000B000A9EF000889F30008B5FA00081B01000841
:1000C0001B0100081B0100081B0100081B010008A0
:1000D0001B0100087D1001081B010008E110010848
:1000E0001B0100081B0100081B010008DFF80CD0F1
:1000F00000F070FD0048004799330108482A0020AD
:100100000648804706480047FEE7FEE7FEE7FEE7B1
:10011000FEE7FEE7FEE7FEE7FEE7FEE729EA000866
:10012000ED00000830B50B460146002020220124D6
:1001300009E021FA02F59D4205D303FA02F5491BB5
:1001400004FA02F52844151EA2F10102F1DC30BDCB
:1001500010B5431A934209D28318881803E010F8A7
:10016000011D03F8011D521EF9D210BD40EA010322
:100170009B0703D009E008C9121F08C0042AFAD25D
:1001800003E011F8013B00F8013B521EF9D210BD0B
:10019000D2B201E000F8012B491EFBD270470022C9
:1001A000F6E710B513460A4604461946FFF7F0FF76
:1001B000204610BD30B505462A460B4612F8010B05
:1001C00013F8014B08B1A042F8D01CB1002802D0AE
:1001D0006D1CF1E7284630BD10B5044604E00B78ED
:1001E00000F8013B03B1491C521EF8D2204610BD55
:1001F000421C10F8011B0029FBD1801A704710B572
:10020000002200E0521C835C8C5CA34201D1002BD5
:10021000F8D1D8B2E1B2401A10BDCBB203E00178F8
:10022000994203D0401C521EF9D20020704730B5CD
:1002300004460020034600E05B1C934203D2E05CCE
:10024000CD5C401BF8D030BD034611F8012B00F8FF
:10025000012B002AF9D11846704700F09FBBF0B47B
:1002600080EA0102D40F4200B2EB410F02D20246F3
:10027000084611464A0042D0C30DDDB2C1F3C75251
:10028000AD1A202D35DAC1F3160141F4000204B194
:100290005242C5F1200602FA06F12A411044B3EB9E
:1002A000D05F23D0C4B1012DA0EBC35009DCF0BC5A
:1002B0004FF0004202EAC352DBB200F5000000F04A
:1002C000BEBB400000F1807000EBC350A0F1807015
:1002D00040EAD170490009E0490841EAC071A0EB49
:1002E000C35000F50000400800EBC350F0BC00F024
:1002F0009DBB6142012202EB4101001BF6E7F0BC0D
:10030000704781F00041AAE780F00040A7E780EA4B
:10031000010210B502F00043400022D04A001FD075
:10032000010E01EB1261C0F35600C2F3560240F415
:10033000000042F40002A0FB022000047F391404F4
:1003400000D0401C50EA124001D44000491EC2B205
:100350000C0604EBD010401C4008802A02D003E0B9
:10036000002010BD20F00100002900DA0020184311
:1003700010BD30B480EA010202F0004530F00042C6
:1003800021F0004013D090B1C30DD40DC2F316017B
:10039000C0F31600E41A41F4000140F400027D3479
:1003A000914201D3641C00E04900002C02DA30BC09
:1003B000002070474FF400000023914201D3891AB6
:1003C000034340084FEA4101F7D151B1914202D1B4
:1003D0004FF0004105E002D24FF0010101E06FF063
:1003E000010103EBC450284430BC00F01FBB2DE9D1
:1003F000FE4F804681EA0300C00F0C46009021F0BA
:10040000004123F00045B8EB0200A94105D2404667
:10041000214690461C460B46024623F000401043FE
:1004200047D0270DC7F30A00C3F30A510290401AC0
:10043000019040286BDAC3F3130040F4801B00984E
:10044000924620B10023D2EB030A63EB0B0B019819
:100450005946C0F14002504600F031FA06460D46BA
:1004600050465946019A00F039FA10EB08006141F4
:10047000002487EA115284EAE7731A4340D0009AB5
:1004800062B3019A012A4FEA075215DC001B61EBA7
:1004900002014FF0004202EA0752CDE90042001C7F
:1004A00041F5801132462B4600F006FB03B0BDE853
:1004B000F08F40462146F9E7001B61EB0201001C6A
:1004C00041F5801300185B412018A2F5001747EB97
:1004D000030140EAD570B6196D4111E06D084FEA8D
:1004E000360645EAC0754FEA0752001B61EB020170
:1004F000001C41F5801149084FEA300000195141B4
:1005000032462B4603B0BDE8F04F00F0C6BA009863
:10051000012240000023D0EB020263EBE07300985D
:1005200021464FEAE074B8EB000061EB0401E9E713
:1005300083F000435BE781F0004158E72DE9FE4F6F
:1005400081EA030404F0004421F0004100944FF0DC
:10055000000B23F0004350EA01045ED052EA03048A
:100560005BD0C3F30A54C1F30A552C44A4F2F3340C
:100570000194A0FB0254C1F3130141F48011C3F3B1
:10058000130343F4801301FB024400FB034E840A6F
:10059000970A44EA815447EA8357A4FB0768029507
:1005A0008D0A05FB07854FEA932C04FB0C542705A5
:1005B000029D4FEA065847EA1637B5EB08056EEB81
:1005C000070C870E920E47EA811742EA8312A7FBB7
:1005D0000201B6EB0B0164EB00042B0D43EA0C3374
:1005E0005E1844EB1C50DA465146E7FB0201C5F3A6
:1005F00013044FEA0B3343EA14534FEA0432019CCD
:1006000043EA0603A4F10C040294009CCDE900B473
:1006100000F052FA03B0BDE8F08F00200146F9E780
:100620002DE9F04D81EA030404F0004B21F0004570
:1006300014464FF0000A23F0004150EA050220D092
:1006400054EA01021DD0C5F30A570246C5F313034D
:10065000C1F31300C1F30A5640F4801543F480132C
:10066000A7EB0608101BD64608F2FD3873EB050011
:1006700002D308F1010801E092185B41B8F1000FC4
:1006800003DA00200146BDE8F08D00204FF4801110
:10069000064684460EE0171B73EB050705D3121BB5
:1006A00063EB050306434CEA010C49084FEA3000AE
:1006B00092185B4150EA0107EDD152EA030012D0D3
:1006C00082EA040083EA0501084305D0101BAB4110
:1006D00006D20122002306E000224FF0004302E090
:1006E0006FF0010253101AEB06004CEB085110EBAF
:1006F0000A0041EB0B01BDE8F04D00F0CEB9C10F8F
:1007000080EAE0700844CA079623002100F097B9F8
:1007100096230022114600F092B900F0004220F02A
:100720000040C10DC0F3160040F400007F2901DA3B
:1007300000207047962903DCC1F19601C84001E012
:1007400096398840002AF4D04042704720F000409B
:10075000C10DC0F3160040F400007F2901DA00202B
:100760007047962903DCC1F19601C840704796395D
:100770008840704700F0004230F000400AD0C10DC0
:1007800001F56071C0F3160042EA0151C20840074A
:1007900011437047002001467047000030B5041E29
:1007A00071F1000404DB4FF00044404264EB0101AE
:1007B000141E73F1000405DB1C464FF00043524247
:1007C00063EB04038B4208BF824230BD30B5041E88
:1007D00071F1000404DB4FF00044404264EB01017E
:1007E000141E73F1000405DB1C464FF00043524217
:1007F00063EB0403994208BF904230BD01F000430F
:1008000030B421F0004150EA010206D00A0DA2F5F1
:100810006072C1F31301002A02DC30BC0020704773
:10082000440F44EAC104C100E01830BC00EBC250E0
:1008300000F0FCB8002801DBC0F10040002901DB1A
:10084000C1F1004181427047002801DBC0F1004046
:10085000002901DBC1F10041884270472DE9F05FBA
:100860000546002092469B4688460646814640241F
:100870001BE0284641464746224600F0BDF9534654
:100880005A46C01A914110D311461846224600F02C
:1008900016F82D1A67EB01084F4622460120002169
:1008A00000F00DF817EB00094E41201EA4F10104E1
:1008B000DFDC484631462A464346BDE8F09F202A01
:1008C00004DB203A00FA02F1002070479140C2F1A7
:1008D000200320FA03F3194390407047202A06DBD7
:1008E000CB17203A41FA02F043EAE07306E041FAFE
:1008F00002F3D040C2F120029140084319467047EC
:100900000FB4002300B589B00CA900910B996FF0CA
:100910000042CB601E4B06931E4B07930423CDE988
:1009200001321D4A089202466B46002000F016FA7A
:1009300009B05DF814FB70B586B006464FF0FF3085
:100940000091CDE90101002015460C460490324685
:10095000694604A8FFF7D4FF02460498211825B180
:1009600008B1084600E020462860049800280DD011
:10097000002A02DD0098884208D0081B0094CDE9C7
:1009800001043246694604A8FFF7BAFF06B070BDFD
:10099000950F0008B30F0008210C00082DE9F0475F
:1009A00091460E4680460446002514F8017B2FB17F
:1009B00000F032F90068C05DC007F6D12B2F02D0DD
:1009C0002D2F1ED0641E4A463146204600F002FB01
:1009D00026B13268A24201D1C6F800806A054FF004
:1009E000020418D50023D0EB030563EB01025D1B65
:1009F000934109DB0023D0EB030063EB0101BDE869
:100A0000F08745F48065DEE710F07CFD046000208F
:100A10004FF00041F3E7021E71F10002EFDA10F02F
:100A200071FD04604FF0FF304108E8E70029A8BFDE
:100A30007047401C490008BF20F00100704710B407
:100A4000B0FA80FC00FA0CF050EA010404BF10BCBC
:100A5000704749B1CCF1200421FA04F411FA0CF1E9
:100A600018BF012121430843A3EB0C01CB1D4FEA22
:100A700000614FEA102042BF002010BC704700EB1D
:100A8000C35010440029A4BF10BC7047401C49004B
:100A900008BF20F0010010BC704710B5141E73F1A0
:100AA000000408DA401C41F1000192185B411A432E
:100AB00001D120F0010010BD2DE9F04D92469B467A
:100AC00011B1B1FA81F202E0B0FA80F22032904620
:100AD000FFF7F5FE04460F4640EA0A0041EA0B0123
:100AE00053465A46084313D0114653EA010019D021
:100AF000C8F14002504600F07FF805460E465046C9
:100B000059464246FFF7DBFE084305D0012004E0CA
:100B100020463946BDE8F08D0020054346EAE076E0
:100B20002C4337430A986305E40AA0EB080000222F
:100B3000FD0A44EA47540A3002D500200146E9E79D
:100B4000010510196941DDE9084500196941BDE851
:100B5000F04DA2E770B521F0004303430CD0C1F380
:100B60000A550024D5EB040564EB0403D617AD1A2F
:100B7000B34102DB0020014670BD201841EB025159
:100B800070BD0EB5C10F80EAE0700844CA070021AD
:100B900040F233438DE80E000A460B46FFF78CFF08
:100BA00003B000BDC1F30A52C1F3130140F2FF3399
:100BB00041F480119A4202DA00200146704740F267
:100BC00033439A42A2F2334202DC524200F014B89C
:100BD000FFF775BE064C074D06E0E06840F00103E4
:100BE00094E8070098471034AC42F6D3FFF782FA36
:100BF000ACF00108CCF00108202A04DB203A21FAED
:100C000002F00021704721FA02F3D040C2F1200225
:100C10009140084319467047004870473CF001086E
:100C200010B50446FFF7F8FF0068005D00F0010012
:100C300010BD00002DE9FF4F087883B09946FF28CA
:100C400005D0491C2D2804D00024002008E00020F5
:100C50000BE00124F9E700EB800003EB4000491CA6
:100C60000B78FF2BF7D104B1404200230293147894
:100C700019461D462D2C01D02B2C04D1521C2D2C95
:100C800013D000240294AA461478FF2C0FD00A2512
:100C9000A3FB057801FB05814FF0000C03FB0C1151
:100CA000521CE3194AEB0101EEE70124EAE7814413
:100CB00053EA010002D019F5C87F06DA0398002133
:100CC000C0E9001107B0BDE8F08F0025AE4E2F46F9
:100CD000DFF8B882184600F0ECF9CDE90001B9F16F
:100CE000000002DAC9F1000400E004460023A74A2C
:100CF0001AEB030B42EB045A12E0E00707D02A4636
:100D0000334638464146FFF719FC074688462A46CF
:100D1000334610461946FFF711FC05460E4664108F
:100D2000002CEAD1DDE90001B9F1000F5A46534623
:100D300006DAFFF775FC3A464346FFF771FC05E01B
:100D4000FFF7FCFB3A464346FFF7F8FB029A0AB16D
:100D500081F00041039AC2E90001B3E72DE9FF4F9A
:100D60001F468DB0D7E901464FF0FF382E2045468B
:100D70004FF000090B90B9696D1C0E988847396ACD
:100D8000824688470028F6D1BAF1FF3F0AD024F402
:100D9000D064002E11DDBAF12B0F08D0BAF12D0F5F
:100DA0000BD102E0404611B08DE744F48064B9698C
:100DB0006D1C0E9888478246761E6946600501D5EF
:100DC0002D2000E02B208DF8000001F1010B0DF12A
:100DD000200809E0B9696D1C0E98884782460F9873
:100DE00044F40074761E0560002E02DDBAF1300F67
:100DF000F0D00B998A453ED144F0800406E00F996B
:100E0000681CA9F1010944F400740860B9696D1CFB
:100E1000761E0E98884782463028F0D02BE00B993A
:100E20008A4505D1200603D444F08004761E18E0DC
:100E3000504610F0A9FC08B30DF11301761E44F4DE
:100E400000748B4508D2AAF130000BF8010B200684
:100E500007D5A9F1010003E0200602D409F1010041
:100E60008146A00502D50F99681C0860B9696D1C00
:100E70000E9888478246002ED1DC53E0002E51DDCB
:100E8000BAF1650F02D0BAF1450F4BD1A00549D593
:100E9000B9696D1C24F44074761E0E98884782460A
:100EA000002E0CDD2B2804D0BAF12D0F07D144F40D
:100EB0008074B9696D1C0E9888478246761EE005DD
:100EC00001D52D2100E02B2108F8011BCDF82C8045
:100ED00021E00DF12901761E44F4007488450CD2FE
:100EE000AAF1300010F0FF0088F8000002D10B9941
:100EF000884509D908F1010806E0E00501D5244834
:100F000001E042F20F708146B9696D1C0E98884766
:100F100082460F980560002E04DD504610F034FC28
:100F20000028D6D1F9690E988847FF208BF8000079
:100F300088F800000020069007904B466A4608A9F2
:100F400006A8FFF777FEA00502D46FF001002AE79C
:100F500014F0240F0AD0E00714D1DDE90612386836
:100F6000031D3B600068C0E900120BE0DDE90601EB
:100F7000FFF744FC0146E00704D13868021D3A60DF
:100F80000068016028460EE7000014400000F03FB2
:100F9000F1D8FFFF426842B1016811F8013B23B16B
:100FA000521EC0E90012184670470121C160881E18
:100FB000704742685AB1C368016843B983688B427D
:100FC00005D0491E521CC0E90012002070474FF0A6
:100FD000FF3070472DE9F74F4FF00009009C154690
:100FE000CA4614F8010B302801D0ADB115E014F851
:100FF000010B4FF00109782803D0582801D04DB1DA
:101000000BE00DB1102D08D14FF00009102514F898
:10101000010B02E0082500E00A2500273E46B846FD
:101020004FEAE57B16E0A5FB07230BFB073105FB29
:10103000080005FB0616030CD71846F100061FFA38
:1010400080F8381E4FF0010976F5803000D3CA468B
:1010500014F8010B294600F01EF80028E3DA019885
:1010600038B1B9F1000F01D0641E00E0009C019876
:101070000460BAF1000F08D010F044FA02210160B8
:10108000C81E014603B0BDE8F08F310441EA1741A4
:1010900048EA0740F6E73A2800D2303820F020022C
:1010A000412A01D3A2F13700884201D34FF0FF302B
:1010B00070470EB540F2334202920022CDE9002281
:1010C0001346FFF7F9FC03B000BD70B58C1810F89B
:1010D000015B15F0070301D110F8013B2A1106D17D
:1010E00010F8012B03E010F8016B01F8016B5B1E97
:1010F000F9D12B0705D40023521E0DD401F8013B72
:10110000FAE710F8013BCB1A921C03E013F8015BDD
:1011100001F8015B521EF9D5A142D8D3002070BD61
:1011200021B1826842F00102826003E0826822F00D
:10113000010282607047000000B587B001214802BB
:101140000CF096FC012104200CF092FC1C20ADF860
:10115000040000208DF8070001A9184809F09CFD43
:10116000002002908DF80C008DF80D004FF46020E7
:1011700004900020059001208DF8180002A9104865
:1011800000F042F801210E48FFF7CAFF4FF440403B
:101190000CF032FC0A4800F0BBF800BF084800F031
:1011A00028F80028FAD1064800F0C2F800BF044829
:1011B00000F008F80028FAD107B000BD000801408F
:1011C00000240140014600208A6802F004020AB1AE
:1011D000012000E0002070470146C86C80B27047D3
:1011E0000246002013680B400BB1012000E00020F4
:1011F0007047014600208A6802F008020AB1012007
:1012000000E000207047000030B5024600200023B7
:1012100050680F4C20400D790C6844EA05242043A7
:10122000506090680B4C2040D1E902542C434D791A
:1012300044EA450420439060D06A20F470000C7C9E
:10124000641EE4B2234340EA0350D06230BD000084
:10125000FFFEF0FFFDF7F1FFF0B504460D4600205C
:101260000021092D11DDE068A5F10A0606EB46070D
:10127000072606FA07F18843A5F10A0606EB46069B
:1012800003FA06F10843E0600CE0206905EB45072E
:10129000072606FA07F1884305EB450603FA06F12F
:1012A00008432061072A0FDA606B561E06EB86079B
:1012B0001F2606FA07F18843561E06EB860605FA36
:1012C00006F10843606322E00D2A0FDA206BD61F77
:1012D00006EB86071F2606FA07F18843D61F06EBA2
:1012E000860605FA06F10843206310E0E06AA2F1E1
:1012F0000D0606EB86071F2606FA07F18843A2F1C2
:101300000D0606EB860605FA06F10843E062F0BD1D
:10131000816841F008018160704721B1826842F420
:10132000A002826003E0826822F4A002826070471B
:10133000816841F004018160704738B504460D466C
:10134000A4F10C000A2881F06281DFE810F00A00A5
:10135000FA00E901D802C703B604A505940683077D
:101360007208012306222421104614F0B1FF012344
:1013700007222421262014F0ABFF01231A22242166
:10138000462014F0A5FF01231B222421662014F01F
:101390009FFF06224821104614F060FF07224821D3
:1013A000262014F05BFF1C224821462014F056FF33
:1013B0001B224821662014F051FF06226C211046A2
:1013C00014F04CFF07226C21262014F047FF1D2249
:1013D0006C21462014F042FF1B226C21662014F081
:1013E0003DFF06229021104614F038FF072290217D
:1013F000262014F033FF1E229021462014F02EFFE9
:101400001B229021662014F029FF0622B4211046E9
:1014100014F024FF0722B421262014F01FFF1F22FE
:10142000B421462014F01AFF1B22B421662014F0C8
:1014300015FF062224214FF4AD7014F00FFF072290
:1014400024214FF4BD7014F009FF202224214FF411
:10145000CD7014F003FF1B2224214FF4DD7014F033
:10146000FDFE062248214FF4AD7014F0F7FE07226E
:1014700048214FF4BD7014F0F1FE212248214FF4B1
:10148000CD7014F0EBFE1B2248214FF4DD7014F0F8
:10149000E5FE06226C214FF4AD7014F0DFFE07224A
:1014A0006C214FF4BD7014F0D9FE22226C214FF450
:1014B000CD7014F0D3FE1B226C214FF4DD7014F0BC
:1014C000CDFE062290214FF4AD7014F0C7FE072226
:1014D00090214FF4BD7014F0C1FE232290214FF4EF
:1014E000CD7014F0BBFE1B2290214FF4DD7014F080
:1014F000B5FE0622B4214FF4AD7014F0AFFE072202
:10150000B4214FF4BD7014F0A9FE00204FF6FF7314
:101510000122B42100904FF4CD7014F063FE00203E
:101520004FF6FF730246B42100904FF4D57014F0CB
:1015300059FE1B22B4214FF4DD7014F08FFE01F030
:1015400067B806222421104614F088FE07222421C1
:10155000262014F083FE1A222421462014F07EFE59
:101560001B222421662014F079FE01230622482143
:10157000104614F0ADFE012307224821262014F066
:10158000A7FE01231C224821462014F0A1FE0123BE
:101590001B224821662014F09BFE06226C21104677
:1015A00014F05CFE07226C21262014F057FE1D2249
:1015B0006C21462014F052FE1B226C21662014F090
:1015C0004DFE06229021104614F048FE072290217D
:1015D000262014F043FE1E229021462014F03EFEE9
:1015E0001B229021662014F039FE0622B4211046F9
:1015F00014F034FE0722B421262014F02FFE1F22FF
:10160000B421462014F02AFE1B22B421662014F0D7
:1016100025FE062224214FF4AD7014F01FFE072290
:1016200024214FF4BD7014F019FE202224214FF420
:10163000CD7014F013FE1B2224214FF4DD7014F042
:101640000DFE062248214FF4AD7014F007FE07226C
:1016500048214FF4BD7014F001FE212248214FF4BF
:10166000CD7014F0FBFD1B2248214FF4DD7014F007
:10167000F5FD06226C214FF4AD7014F0EFFD07224A
:101680006C214FF4BD7014F0E9FD22226C214FF45F
:10169000CD7014F0E3FD1B226C214FF4DD7014F0CB
:1016A000DDFD062290214FF4AD7014F0D7FD072226
:1016B00090214FF4BD7014F0D1FD232290214FF4FE
:1016C000CD7014F0CBFD1B2290214FF4DD7014F08F
:1016D000C5FD0622B4214FF4AD7014F0BFFD072202
:1016E000B4214FF4BD7014F0B9FD00204FF6FF7324
:1016F0000122B42100904FF4CD7014F073FD00204E
:101700004FF6FF730246B42100904FF4D57014F0E9
:1017100069FD1B22B4214FF4DD7014F09FFD0EE72C
:1017200006222421104614F099FD072224212620A8
:1017300014F094FD1A222421462014F08FFD1B2260
:101740002421662014F08AFD06224821104614F058
:1017500085FD07224821262014F080FD1C22482107
:10176000462014F07BFD1B224821662014F076FDF4
:10177000012306226C21104614F0AAFD0123072242
:101780006C21262014F0A4FD01231D226C2146208B
:1017900014F09EFD01231B226C21662014F098FD9D
:1017A00006229021104614F059FD07229021262090
:1017B00014F054FD1E229021462014F04FFD1B22F0
:1017C0009021662014F04AFD0622B421104614F040
:1017D00045FD0722B421262014F040FD1F22B4212C
:1017E000462014F03BFD1B22B421662014F036FD88
:1017F000062224214FF4AD7014F030FD072224217D
:101800004FF4BD7014F02AFD202224214FF4CD7036
:1018100014F024FD1B2224214FF4DD7014F01EFD72
:10182000062248214FF4AD7014F018FD072248211C
:101830004FF4BD7014F012FD212248214FF4CD70F9
:1018400014F00CFD1B2248214FF4DD7014F006FD4E
:1018500006226C214FF4AD7014F000FD07226C21BC
:101860004FF4BD7014F0FAFC22226C214FF4CD70BD
:1018700014F0F4FC1B226C214FF4DD7014F0EEFC2C
:10188000062290214FF4AD7014F0E8FC072290215D
:101890004FF4BD7014F0E2FC232290214FF4CD7080
:1018A00014F0DCFC1B2290214FF4DD7014F0D6FC08
:1018B0000622B4214FF4AD7014F0D0FC0722B421FD
:1018C0004FF4BD7014F0CAFC00204FF6FF730122E4
:1018D000B42100904FF4CD7014F084FC00204FF63A
:1018E000FF730246B42100904FF4D57014F07AFCD7
:1018F0001B22B4214FF4DD7014F0B0FC1FE6062269
:101900002421104614F0AAFC07222421262014F0DA
:10191000A5FC1A222421462014F0A0FC1B2224211D
:10192000662014F09BFC06224821104614F096FC19
:1019300007224821262014F091FC1C224821462031
:1019400014F08CFC1B224821662014F087FC062230
:101950006C21104614F082FC07226C21262014F022
:101960007DFC1D226C21462014F078FC1B226C218A
:10197000662014F073FC012306229021104614F017
:10198000A7FC012307229021262014F0A1FC0123AB
:101990001E229021462014F09BFC01231B22902143
:1019A000662014F095FC0622B421104614F056FC73
:1019B0000722B421262014F051FC1F22B421462016
:1019C00014F04CFC1B22B421662014F047FC0622C4
:1019D00024214FF4AD7014F041FC072224214FF470
:1019E000BD7014F03BFC202224214FF4CD7014F084
:1019F00035FC1B2224214FF4DD7014F02FFC06224D
:101A000048214FF4AD7014F029FC072248214FF40F
:101A1000BD7014F023FC212248214FF4CD7014F046
:101A20001DFC1B2248214FF4DD7014F017FC062228
:101A30006C214FF4AD7014F011FC07226C214FF4AF
:101A4000BD7014F00BFC22226C214FF4CD7014F009
:101A500005FC1B226C214FF4DD7014F0FFFB062205
:101A600090214FF4AD7014F0F9FB072290214FF450
:101A7000BD7014F0F3FB232290214FF4CD7014F0CD
:101A8000EDFB1B2290214FF4DD7014F0E7FB0622E2
:101A9000B4214FF4AD7014F0E1FB0722B4214FF4F0
:101AA000BD7014F0DBFB00204FF6FF730122B42160
:101AB00000904FF4CD7014F095FB00204FF6FF73AB
:101AC0000246B42100904FF4D57014F08BFB1B221A
:101AD000B4214FF4DD7014F0C1FB30E5062224215F
:101AE000104614F0BBFB07222421262014F0B6FB7D
:101AF0001A222421462014F0B1FB1B222421662047
:101B000014F0ACFB06224821104614F0A7FB072274
:101B10004821262014F0A2FB1C224821462014F064
:101B20009DFB1B224821662014F098FB06226C21A5
:101B3000104614F093FB07226C21262014F08EFB34
:101B40001D226C21462014F089FB1B226C2166208B
:101B500014F084FB06229021104614F07FFB07222C
:101B60009021262014F07AFB1E229021462014F0AA
:101B700075FB1B229021662014F070FB01230622C6
:101B8000B421104614F0A4FB01230722B42126201F
:101B900014F09EFB01231F22B421462014F098FB71
:101BA00001231B22B421662014F092FB062224217B
:101BB0004FF4AD7014F052FB072224214FF4BD7096
:101BC00014F04CFB202224214FF4CD7014F046FB7E
:101BD0001B2224214FF4DD7014F040FB0622482123
:101BE0004FF4AD7014F03AFB072248214FF4BD705A
:101BF00014F034FB212248214FF4CD7014F02EFB59
:101C00001B2248214FF4DD7014F028FB06226C21C2
:101C10004FF4AD7014F022FB07226C214FF4BD701D
:101C200014F01CFB22226C214FF4CD7014F016FB33
:101C30001B226C214FF4DD7014F010FB0622902162
:101C40004FF4AD7014F00AFB072290214FF4BD70E1
:101C500014F004FB232290214FF4CD7014F0FEFA0F
:101C60001B2290214FF4DD7014F0F8FA0622B42103
:101C70004FF4AD7014F0F2FA0722B4214FF4BD70A6
:101C800014F0ECFA00204FF6FF730122B42100900B
:101C90004FF4CD7014F0A6FA00204FF6FF73024601
:101CA000B42100904FF4D57014F09CFA1B22B4219B
:101CB0004FF4DD7014F0D2FA41E4062224211046DC
:101CC00014F0CCFA07222421262014F0C7FA1A2295
:101CD0002421462014F0C2FA1B222421662014F08D
:101CE000BDFA06224821104614F0B8FA072248210E
:101CF000262014F0B3FA1C224821462014F0AEFA34
:101D00001B224821662014F0A9FA06226C211046F5
:101D100014F0A4FA07226C21262014F09FFA1D2249
:101D20006C21462014F09AFA1B226C21662014F0D4
:101D300095FA06229021104614F090FA072290217D
:101D4000262014F08BFA1E229021462014F086FAE9
:101D50001B229021662014F081FA0622B42110463D
:101D600014F07CFA0722B421262014F077FA1F22FF
:101D7000B421462014F072FA1B22B421662014F01C
:101D80006DFA0123062224214FF4AD7014F0A0FA5D
:101D90000123072224214FF4BD7014F099FA012386
:101DA000202224214FF4CD7014F092FA01231B223B
:101DB00024214FF4DD7014F08BFA062248214FF4F1
:101DC000AD7014F04BFA072248214FF4BD7014F0A7
:101DD00045FA212248214FF4CD7014F03FFA1B221E
:101DE00048214FF4DD7014F039FA06226C214FF4CB
:101DF000AD7014F033FA07226C214FF4BD7014F06B
:101E00002DFA22226C214FF4CD7014F027FA1B22F8
:101E10006C214FF4DD7014F021FA062290214FF46A
:101E2000AD7014F01BFA072290214FF4BD7014F02E
:101E300015FA232290214FF4CD7014F00FFA1B22D3
:101E400090214FF4DD7014F009FA0622B4214FF40A
:101E5000AD7014F003FA0722B4214FF4BD7014F0F2
:101E6000FDF900204FF6FF730122B42100904FF4DA
:101E7000CD7014F0B7F900204FF6FF730246B4217D
:101E800000904FF4D57014F0ADF91B22B4214FF43B
:101E9000DD7014F0E3F9BBE306222421104614F0B0
:101EA000DDF907222421262014F0D8F91A22242152
:101EB000462014F0D3F91B222421662014F0CEF919
:101EC00006224821104614F0C9F90722482126208D
:101ED00014F0C4F91C224821462014F0BFF91B223B
:101EE0004821662014F0BAF906226C21104614F03D
:101EF000B5F907226C21262014F0B0F91D226C21BF
:101F0000462014F0ABF91B226C21662014F0A6F9D0
:101F100006229021104614F0A1F9072290212620D4
:101F200014F09CF91E229021462014F097F91B22F0
:101F30009021662014F092F90622B421104614F084
:101F40008DF90722B421262014F088F91F22B4212C
:101F5000462014F083F91B22B421662014F07EF988
:101F6000062224214FF4AD7014F078F907222421C1
:101F70004FF4BD7014F072F9202224214FF4CD707B
:101F800014F06CF91B2224214FF4DD7014F066F973
:101F90000123062248214FF4AD7014F099F9012372
:101FA000072248214FF4BD7014F092F90123212239
:101FB00048214FF4CD7014F08BF901231B224821E6
:101FC0004FF4DD7014F084F906226C214FF4AD70EB
:101FD00014F044F907226C214FF4BD7014F03EF95F
:101FE00022226C214FF4CD7014F038F91B226C21A1
:101FF0004FF4DD7014F032F9062290214FF4AD70E9
:1020000014F02CF9072290214FF4BD7014F026F93A
:10201000232290214FF4CD7014F020F91B2290213F
:102020004FF4DD7014F01AF90622B4214FF4AD70AC
:1020300014F014F90722B4214FF4BD7014F00EF916
:1020400000204FF6FF730122B42100904FF4CD70B1
:1020500014F0C8F800204FF6FF730246B421009038
:102060004FF4D57014F0BEF81B22B4214FF4DD708C
:1020700014F0F4F8CCE206222421104614F0EEF815
:1020800007222421262014F0E9F81A2224214620D0
:1020900014F0E4F81B222421662014F0DFF8062255
:1020A0004821104614F0DAF807224821262014F0BF
:1020B000D5F81C224821462014F0D0F81B224821D4
:1020C000662014F0CBF806226C21104614F0C6F8F6
:1020D00007226C21262014F0C1F81D226C21462015
:1020E00014F0BCF81B226C21662014F0B7F806220D
:1020F0009021104614F0B2F807229021262014F007
:10210000ADF81E229021462014F0A8F81B22902141
:10211000662014F0A3F80622B421104614F09EF8AD
:102120000722B421262014F099F81F22B42146205A
:1021300014F094F81B22B421662014F08FF80622C4
:1021400024214FF4AD7014F089F8072224214FF4B4
:10215000BD7014F083F8202224214FF4CD7014F0C8
:102160007DF81B2224214FF4DD7014F077F806224D
:1021700048214FF4AD7014F071F8072248214FF454
:10218000BD7014F06BF8212248214FF4CD7014F08B
:1021900065F81B2248214FF4DD7014F05FF801232D
:1021A00006226C214FF4AD7014F092F8012307223F
:1021B0006C214FF4BD7014F08BF8012322226C21A6
:1021C0004FF4CD7014F084F801231B226C214FF4DE
:1021D000DD7014F07DF8062290214FF4AD7014F0FC
:1021E0003DF8072290214FF4BD7014F037F82322F8
:1021F00090214FF4CD7014F031F81B2290214FF450
:10220000DD7014F02BF80622B4214FF4AD7014F0F9
:1022100025F80722B4214FF4BD7014F01FF80020F8
:102220004FF6FF730122B42100904FF4CD7013F0EC
:10223000D9FF00204FF6FF730246B42100904FF4FF
:10224000D57013F0CFFF1B22B4214FF4DD7014F0D2
:1022500005F8DDE106222421104613F0FFFF0722D6
:102260002421262013F0FAFF1A222421462013F0FD
:10227000F5FF1B222421662013F0F0FF06224821DF
:10228000104613F0EBFF07224821262013F0E6FF4B
:102290001C224821462013F0E1FF1B224821662022
:1022A00013F0DCFF06226C21104613F0D7FF072243
:1022B0006C21262013F0D2FF1D226C21462013F042
:1022C000CDFF1B226C21662013F0C8FF062290214F
:1022D000104613F0C3FF07229021262013F0BEFF03
:1022E0001E229021462013F0B9FF1B229021662068
:1022F00013F0B4FF0622B421104613F0AFFF0722FB
:10230000B421262013F0AAFF1F22B421462013F087
:10231000A5FF1B22B421662013F0A0FF0622242172
:102320004FF4AD7013F09AFF072224214FF4BD70D3
:1023300013F094FF202224214FF4CD7013F08EFF70
:102340001B2224214FF4DD7013F088FF0622482160
:102350004FF4AD7013F082FF072248214FF4BD7097
:1023600013F07CFF212248214FF4CD7013F076FF4B
:102370001B2248214FF4DD7013F070FF06226C2100
:102380004FF4AD7013F06AFF07226C214FF4BD705B
:1023900013F064FF22226C214FF4CD7013F05EFF26
:1023A0001B226C214FF4DD7013F058FF012306222D
:1023B00090214FF4AD7013F08BFF01230722902181
:1023C0004FF4BD7013F084FF0123232290214FF4BA
:1023D000CD7013F07DFF01231B2290214FF4DD709F
:1023E00013F076FF0622B4214FF4AD7013F036FFE0
:1023F0000722B4214FF4BD7013F030FF00204FF6D8
:10240000FF730122B42100904FF4CD7013F0EAFE67
:1024100000204FF6FF730246B42100904FF4D570B0
:1024200013F0E0FE1B22B4214FF4DD7013F016FF11
:10243000EEE006222421104613F010FF072224218B
:10244000262013F00BFF1A222421462013F006FF4A
:102450001B222421662013F001FF0622482110468A
:1024600013F0FCFE07224821262013F0F7FE1C2261
:102470004821462013F0F2FE1B224821662013F06B
:10248000EDFE06226C21104613F0E8FE07226C21B7
:10249000262013F0E3FE1D226C21462013F0DEFE01
:1024A0001B226C21662013F0D9FE062290211046D3
:1024B00013F0D4FE07229021262013F0CFFE1E2217
:1024C0009021462013F0CAFE1B229021662013F0B3
:1024D000C5FE0622B421104613F0C0FE0722B42127
:1024E000262013F0BBFE1F22B421462013F0B6FEB7
:1024F0001B22B421662013F0B1FE062224214FF4E2
:10250000AD7013F0ABFE072224214FF4BD7013F021
:10251000A5FE202224214FF4CD7013F09FFE1B2234
:1025200024214FF4DD7013F099FE062248214FF468
:10253000AD7013F093FE072248214FF4BD7013F0E5
:102540008DFE212248214FF4CD7013F087FE1B220F
:1025500048214FF4DD7013F081FE06226C214FF408
:10256000AD7013F07BFE07226C214FF4BD7013F0A9
:1025700075FE22226C214FF4CD7013F06FFE1B22EA
:102580006C214FF4DD7013F069FE062290214FF4A8
:10259000AD7013F063FE072290214FF4BD7013F06D
:1025A0005DFE232290214FF4CD7013F057FE1B22C5
:1025B00090214FF4DD7013F051FE01230622B42167
:1025C0004FF4AD7013F084FE01230722B4214FF4C1
:1025D000BD7013F07DFE4FF6FF7000230122B42181
:1025E00000904FF4CD7013F0FDFD4FF6FF70002307
:1025F0001A46B42100904FF4D57013F0F3FD012377
:102600001B22B4214FF4DD7013F062FE00E000BF26
:1026100000BF38BD03B5ADF5097D4FF4F072FE493A
:1026200011A8FDF795FDFD4800780C2801F03D87C5
:10263000FA4800780D28F9D0F84800780E28F5D02F
:10264000F64800780F28F1D0F44800781028EDD033
:10265000F24800781128E9D0F04800781228E5D037
:10266000EE4800781328E1D0EC4800781428DDD03B
:10267000EA4800781528D9D08A9802287ED0042804
:1026800003D0052841F00F87EEE3E548007878BBDA
:10269000E448007860BBE448007848BBE348007831
:1026A00030BBE348007818BBE248007800BBE24842
:1026B0000078E8B9E1480078D0B9E1480078B8B9C5
:1026C000E0480078A0B9E04800780C3800EB400002
:1026D000D14901EB00104078401CC1B2DA480078C3
:1026E0000C3800EB4000CC4A02EB00104170FCE3D8
:1026F000FFE7D54800780C3800EB4000C64901EBF5
:102700000010407801287DD1D0480078012812D1EE
:10271000CD4800780C3800EB400001EB0010407908
:10272000401CC1B2C84800780C3800EB4000BA4ADF
:1027300002EB00104171C5480078022813D1C2484D
:1027400000780C3800EB4000B34901EB00108079B1
:10275000401CC1B2BC4800780C3800EB4000AE4AC7
:1027600002EB00108171B9480078032815D1B648F2
:1027700000780C3800EB4000A74900E0FEE301EBD5
:102780000010007B401CC1B2AF4800780C3800EB51
:102790004000A14A02EB00100173AC480078042805
:1027A00015D1A94800780C3800EB40009A4901EB9C
:1027B0000010407B08B9012100E00021A248007808
:1027C0000C3800EB4000944A02EB001041739E4825
:1027D00000780C3800EB40008F4901EB0010007BC3
:1027E000042809D10021984800780C3800EB4000FB
:1027F000894A02EB0010017394480078052815D12E
:10280000914800E054E000780C3800EB4000824929
:1028100001EB00100089401C81B28B4800780C3815
:1028200000EB40007C4A02EB0010018187480078F1
:10283000062813D1844800780C3800EB4000764914
:1028400001EB00104089401C81B27F4800780C38B1
:1028500000EB4000704A02EB001041817A4800789A
:102860000C3800EB40006C4901EB00100089322865
:1028700009DB3221744800780C3800EB4000664ACE
:1028800002EB00100181704800780C3800EB40002A
:10289000614901EB00104089322809DB32216A4886
:1028A00000780C3800EB40005B4A02EB00104181DD
:1028B000654800780C3800EB4000574901EB0010E8
:1028C000407802285CD162480078012812D15E4825
:1028D00000780C3800EB400001EB0010408A401CEF
:1028E00081B2594800780C3800EB40004A4A02EBAC
:1028F0000010418256480078022813D152480078CF
:102900000C3800EB4000444901EB0010008A401CE9
:1029100081B24D4800780C3800EB40003E4A02EB93
:1029200000100182484800780C3800EB40003A491A
:1029300001EB0010408A42F21071884209D1002157
:10294000414800780C3800EB4000334A02EB00109D
:1029500041823D4800780C3800EB40002E4901EBE5
:102960000010008A42F21071884209D100213648D5
:1029700000780C3800EB4000274A02EB001001827F
:10298000314800780C3800EB4000234901EB00107F
:102990004078032877D12F480078012812D12A489F
:1029A00000780C3800EB400001EB00104079401C2F
:1029B000C1B2254800780C3800EB4000164A02EB03
:1029C0000010417123480078022813D11E48007876
:1029D0000C3800EB4000104901EB00108079401CDE
:1029E000C1B2194800780C3800EB40000A4A02EBEB
:1029F0000010817117480078032834D112480078FC
:102A00000C3800EB4000044901EB0010007B401C37
:102A1000C1B20D4800781FE0D4000020C902002098
:102A2000DC020020DD020020DE020020DF020020A8
:102A3000E0020020E1020020E2020020E302002088
:102A4000E4020020E502002026040020E602002027
:102A5000E7020020E80200200C3800EB4000FE4AAC
:102A600002EB00100173FD480078042816D1FC48E1
:102A700000780C3800EB4000F74901EB0010407B78
:102A800010B9012101E07CE00021F54800780C3804
:102A900000EB4000F04A02EB00104173F048007870
:102AA0000C3800EB4000EC4901EB0010007B0428DF
:102AB00009D10021EA4800780C3800EB4000E64AD2
:102AC00002EB00100173E5480078052813D1E448B3
:102AD00000780C3800EB4000DF4901EB0010408A21
:102AE000401C81B2DE4800780C3800EB4000DA4A26
:102AF00002EB00104182D9480078062813D1D8484B
:102B000000780C3800EB4000D34901EB0010008A3C
:102B1000401C81B2D24800780C3800EB4000CE4A0D
:102B200002EB00100182CE4800780C3800EB400028
:102B3000C94901EB0010408A42F21071884209D164
:102B40000021C74800780C3800EB4000C24A02EB75
:102B500000104182C24800780C3800EB4000BE49AA
:102B600001EB0010008A42F21071884209D1002165
:102B7000BB4800780C3800EB4000B74A02EB00106D
:102B80000182B74800780C3800EB4000B24901EBF5
:102B90000010407804286ED1B2480078012812D184
:102BA000AF4800780C3800EB400001EB0010C07D0E
:102BB000401CC1B2AA4800780C3800EB4000A64A7D
:102BC00002EB0010C175A7480078022813D1A44871
:102BD00000780C3800EB40009F4901EB0010007EAC
:102BE000401CC1B29E4800780C3800EB40009A4A65
:102BF00002EB001001769B480078032813D1984817
:102C000000780C3800EB4000934901EB0010407E47
:102C1000401CC1B2924800780C3800EB40008E4A4C
:102C200002EB001041768F480078042813D18C48BD
:102C300000780C3800EB4000874901EB0010807EE3
:102C4000401CC1B2864800780C3800EB4000824A34
:102C500002EB0010817683480078052816D1804861
:102C600000780C3800EB40007B4901EB0010C07E7F
:102C700010B9012101E0E2E30021794800780C3825
:102C800000EB4000744A02EB0010C17675480078F2
:102C9000062813D1724800780C3800EB40006E49CA
:102CA00001EB0010007F401CC1B26D4800780C3869
:102CB00000EB4000684A02EB001001776948007899
:102CC000072813D1664800780C3800EB40006249B1
:102CD00001EB0010407F401CC1B2614800780C3805
:102CE00000EB40005C4A02EB001041775D48007841
:102CF000082813D15A4800780C3800EB4000564998
:102D000001EB0010807F401CC1B2554800780C38A0
:102D100000EB4000504A02EB0010817751480078E8
:102D2000092813D14E4800780C3800EB40004A497E
:102D300001EB0010C07F401CC1B2494800780C383C
:102D400000EB4000444A02EB0010C1774548007890
:102D50000A2817D1424800780C3800EB40003E4961
:102D600001EB001090F8200008B9012100E00021DB
:102D70003B4800780C3800EB4000374A02EB00106B
:102D800080F82010374800780B2815D13448007897
:102D90000C3800EB4000304901EB001090F82100A6
:102DA000401CC1B22E4800780C3800EB40002A4A83
:102DB00002EB001080F821102A4800780C2815D169
:102DC000274800780C3800EB4000234901EB001045
:102DD00090F82200401CC1B2214800780C3800EB6A
:102DE00040001D4A02EB001080F822101D480078B8
:102DF0000D2815D11A4800780C3800EB4000164910
:102E000001EB001090F82300401CC1B21448007878
:102E10000C3800EB4000104A02EB001080F8231041
:102E2000104800780E2815D10D4800780C3800EBBA
:102E30004000094901EB001090F82400401CC1B289
:102E4000074800780C3800EB4000034A02EB001002
:102E500080F82410034808E0D4000020E802002095
:102E600026040020E902002014E300780F2817D17F
:102E7000FE4800780C3800EB4000FD4901EB0010E3
:102E800090F8250008B9012100E00021F7480078FA
:102E90000C3800EB4000F64A02EB001080F82510D9
:102EA000F4480078102815D1F04800780C3800EB71
:102EB0004000EF4901EB001090F82600401CC1B221
:102EC000EA4800780C3800EB4000E94A02EB0010B9
:102ED00080F82610E7480078112817D1E3480078D9
:102EE0000C3800EB4000E24900E0BDE201EB0010CD
:102EF00090F82700401CC1B2DC4800780C3800EB89
:102F00004000DB4A02EB001080F82710D948007817
:102F1000122815D1D54800780C3800EB4000D44970
:102F200001EB001090F82800401CC1B2CF48007897
:102F30000C3800EB4000CE4A02EB001080F828105D
:102F4000CC480078132815D1C84800780C3800EB1D
:102F50004000C74901EB001090F82900401CC1B2A5
:102F6000C24800780C3800EB4000C14A02EB001068
:102F700080F82910BF480078142800E08EE317D1AC
:102F8000BA4800780C3800EB4000B94901EB00105A
:102F900090F82A0008B9012100E00021B348007828
:102FA0000C3800EB4000B24A02EB001080F82A1007
:102FB000B0480078152815D1AC4800780C3800EBE3
:102FC0004000AB4901EB001090F82B00401CC1B24F
:102FD000A64800780C3800EB4000A54A02EB001030
:102FE00080F82B10A3480078162815D19F48007848
:102FF0000C3800EB40009E4901EB001090F82C00CB
:10300000401CC1B2994800780C3800EB4000984A47
:1030100002EB001080F82C1096480078172815D184
:10302000924800780C3800EB4000914901EB001009
:1030300090F82D00401CC1B28C4800780C3800EB91
:1030400040008B4A02EB001080F82D108948007870
:10305000182815D1854800780C3800EB40008449C9
:1030600001EB001090F82E00401CC1B27F480078A0
:103070000C3800EB40007E4A02EB001080F82E1066
:103080007C480078192817D1784800780C3800EB74
:103090004000774901EB001090F82F0008B901219A
:1030A00000E00021714800780C3800EB4000704AC5
:1030B00002EB001080F82F106C4800780C3800EB01
:1030C00040006B4901EB0010C07D182809D1002198
:1030D000664800780C3800EB4000654A02EB0010AF
:1030E000C175624800780C3800EB4000604901EB84
:1030F0000010007E3D2809D100215C4800780C3882
:1031000000EB40005A4A02EB001001765748007865
:103110000C3800EB4000564901EB0010007F1828E6
:1031200009D10021514800780C3800EB4000504A8A
:1031300002EB001001774D4800780C3800EB40009E
:103140004B4901EB0010407F3D2809D10021474841
:1031500000780C3800EB4000454A02EB0010417744
:10316000424800780C3800EB4000414901EB001068
:1031700090F8210018280AD100213C4800780C382A
:1031800000EB40003A4A02EB001080F8211037486B
:1031900000780C3800EB4000354901EB001090F846
:1031A00022003D280AD10021304800780C3800EB7D
:1031B00040002F4A02EB001080F822102B480078C4
:1031C0000C3800EB40002A4901EB001090F8260073
:1031D00018280AD10021254800780C3800EB40005F
:1031E000234A02EB001080F82610204800780C38A3
:1031F00000EB40001E4901EB001090F827003D282D
:103200000AD10021194800780C3800EB4000184A18
:1032100002EB001080F82710144800780C3800EBFF
:103220004000134901EB001090F82B0018280AD138
:1032300000210E4800780C3800EB40000C4A02EBED
:10324000001080F82B10094800780C3800EB400083
:10325000074901EB001090F82C003D2811D1002106
:10326000024800780C3800EB400005E026040020FE
:10327000D4000020E9020020F84A02EB001080F898
:103280002C10F74800780C3800EB4000F34901EBB4
:103290000010407E182809D10021F14800780C3830
:1032A00000EB4000ED4A02EB00104176EC4800785C
:1032B0000C3800EB4000E94901EB0010807E3D280E
:1032C00009D10021E64800780C3800EB4000E34AC1
:1032D00002EB00108176E24800780C3800EB4000E9
:1032E000DE4901EB0010807F182809D10021DC485D
:1032F00000780C3800EB4000D84A02EB00108177D0
:10330000D74800780C3800EB4000D44901EB00109E
:10331000C07F3D2809D10021D14800780C3800EB4E
:103320004000CE4A02EB0010C177CD4800780C383F
:1033300000EB4000C94901EB001090F82300182869
:103340000AD10021C64800780C3800EB4000C34A7F
:1033500002EB001080F82310C14800780C3800EB15
:103360004000BE4901EB001090F824003D280AD12E
:103370000021BB4800780C3800EB4000B74A02EB54
:10338000001080F82410B64800780C3800EB40009C
:10339000B24901EB001090F8280018280AD100214A
:1033A000AF4800780C3800EB4000AC4A02EB00104C
:1033B00080F82810AA4800780C3800EB4000A74994
:1033C00001EB001090F829003D280AD10021A44803
:1033D00000780C3800EB4000A04A02EB001080F8A7
:1033E00029109F4800780C3800EB40009B4901EB06
:1033F000001090F82D0018280AD100219848007874
:103400000C3800EB4000954A02EB001080F82D10BC
:10341000934800780C3800EB4000904901EB001015
:1034200090F82E003D280AD100218D4800780C38F4
:1034300000EB4000894A02EB001080F82E1088480B
:1034400000780C3800EB4000844901EB0010407913
:10345000632809DD6321824800780C3800EB4000C6
:103460007E4A02EB001041717D4800780C3800EB79
:1034700040007A4901EB00104078052809D100216D
:10348000774800780C3800EB4000744A02EB0010DB
:103490004170FAE3724800780C3820B9714800781E
:1034A000401C704908706E4800780C38012804D11F
:1034B0006D480078401C6C490870694800780C38E9
:1034C000022804D169480078401C684908706448A3
:1034D00000780C38032804D165480078401C644902
:1034E00008705F4800780C38042804D161480078DF
:1034F000401C604908705A4800780C38052804D1EF
:103500005D480078401C5C490870554800780C38CC
:10351000062804D159480078401C58490870504882
:1035200000780C38072804D155480078401C5449CD
:1035300008704B4800780C38082804D151480078AE
:10354000401C50490870464800780C38092804D1BE
:103550004D480078401C4C490870424800780228C9
:1035600023DC4148007802281FDC4048007802280C
:103570001BDC3F480078022817DC3E480078022810
:1035800013DC3D48007802280FDC3C480078022814
:103590000BDC3B480078022807DC3A480078022818
:1035A00003DC39480078022857DD2D4800780C38B4
:1035B00000EB4000294901EB0010407801280AD1B6
:1035C00032480078401C31490870084600780728C6
:1035D00001D101200870224800780C3800EB40002F
:1035E0001E4901EB0010407802280AD128480078D3
:1035F000401C2749087008460078032801D10120A3
:103600000870174800780C3800EB4000134901EBB4
:103610000010407803280AD11E480078401C1D493C
:10362000087008460078072801D1012008700C486E
:1036300000780C3800EB4000084901EB001040789E
:1036400004280AD114480078401C13490870084621
:1036500000781A2801D1012008701AE7D400002050
:1036600026040020DC020020DD020020DE02002013
:10367000DF020020E0020020E1020020E202002040
:10368000E3020020E4020020E5020020E602002020
:10369000E7020020E8020020E9020020FE4800784E
:1036A00078BBFE48007860BBFD48007848BBFD4809
:1036B000007830BBFC48007818BBFC48007800BBA1
:1036C000FB480078E8B9FB480078D0B9FA480078A0
:1036D000B8B9FA480078A0B9F94800780C3800EB7E
:1036E0004000F84901EB00104078401EC1B2F44898
:1036F00000780C3800EB4000F24A02EB00104170F9
:10370000EEE3FFE7EE4800780C3800EB4000ED49AF
:1037100001EB0010407801287DD1EB4800780128AA
:1037200012D1E74800780C3800EB400001EB0010A4
:103730004079401EC1B2E24800780C3800EB4000EE
:10374000E04A02EB00104171DF480078022813D1F3
:10375000DB4800780C3800EB4000DA4901EB001040
:103760008079401EC1B2D64800780C3800EB40008A
:10377000D44A02EB00108171D3480078032813D19A
:10378000CF4800780C3800EB4000CE4901EB001028
:10379000007B401CC1B2CA4800780C3800EB4000E6
:1037A000C84A02EB00100173C7480078042815D1FD
:1037B000C34800780C3800EB4000C24901EB001010
:1037C000407B08B9012100E00021BD4800780C3899
:1037D00000EB4000BB4A02EB00104173B848007890
:1037E0000C3800EB4000B74901EB0010007B0428C7
:1037F00009D10021B24800780C3800EB4000B14AF2
:1038000002EB00100173B0480078052815D1AC48D0
:1038100000780C3800E052E000EB4000A94901EBD1
:1038200000100089401E81B2A54800780C3800EBDA
:103830004000A44A02EB00100181A348007806284A
:1038400013D19F4800780C3800EB40009D4901EBF4
:1038500000104089401E81B2994800780C3800EB76
:103860004000984A02EB00104181954800780C38DE
:1038700000EB4000934901EB00100089012809DCAE
:1038800001218F4800780C3800EB40008D4A02EB94
:10389000001001818A4800780C3800EB400089490B
:1038A00001EB00104089012809DC012184480078DF
:1038B0000C3800EB4000834A02EB00104181804845
:1038C00000780C3800EB40007E4901EB0010407896
:1038D00002285ED17D480078012812D1784800780E
:1038E0000C3800EB400001EB0010408A401E81B212
:1038F000734800780C3800EB4000724A02EB00106D
:10390000418272480078022813D16D4800780C3843
:1039100000EB40006B4901EB0010008A401E81B2B1
:10392000674800780C3800EB4000664A02EB001054
:103930000182634800780C3800EB4000614901EBDC
:103940000010408A4FF6FF7188420AD142F20F718F
:103950005B4800780C3800EB40005A4A02EB00103C
:103960004182574800780C3800EB4000554901EB84
:103970000010008A4FF6FF7188420AD142F20F719F
:103980004F4800780C3800EB40004E4A02EB001024
:1039900001824B4800780C3800EB4000494901EBAC
:1039A00000104078032875D149480078012812D1C9
:1039B000434800780C3800EB400001EB00104079E0
:1039C000401EC1B23E4800780C3800EB40003D4A32
:1039D00002EB001041713E480078022813D13848AC
:1039E00000780C3800EB4000364901EB001080797C
:1039F000401EC1B2324800780C3800EB4000314A1A
:103A000002EB0010817132480078032813D12C4852
:103A100000780C3800EB40002A4901EB0010007BD5
:103A2000401CC1B2264800780C3800EB4000254A03
:103A300002EB0010017326480078042815D12048B5
:103A400000780C3800EB40001E4901EB0010407B71
:103A500008B9012100E00021194800780C3800EB7A
:103A60004000184A02EB00104173154800780C38EA
:103A700000EB4000134901EB0010007B04282AD121
:103A800000210F4800780C3800EB40000D4A02EB93
:103A900000101FE07FE00000DC020020DD020020BB
:103AA000DE020020DF020020E0020020E102002010
:103AB000E2020020E3020020E4020020E5020020F0
:103AC00026040020D4000020E6020020E7020020A7
:103AD000E80200200173FE480078052813D1FD4854
:103AE00000780C3800EB4000FB4901EB0010408AE5
:103AF000401E81B2F74800780C3800EB4000F64ACF
:103B000002EB00104182F2480078062813D1F148F8
:103B100000780C3800EB4000EF4901EB0010008A00
:103B2000401E81B2EB4800780C3800EB4000EA4AB6
:103B300002EB00100182E74800780C3800EB4000EF
:103B4000E54901EB0010408A4FF6FF7188420AD127
:103B500042F20F71DF4800780C3800EB4000DE4A7B
:103B600002EB00104182DB4800780C3800EB40008B
:103B7000D94901EB0010008A4FF6FF7188420AD143
:103B800042F20F71D34800780C3800EB4000D24A63
:103B900002EB00100182CF4800780C3800EB4000A7
:103BA000CD4901EB0010407804286FD1CB48007854
:103BB000012812D1C74800780C3800EB400001EB17
:103BC0000010C07D401EC1B2C24800780C3800EB26
:103BD0004000C14A02EB0010C175C04800780228BD
:103BE00013D1BC4800780C3800EB4000BA4901EB17
:103BF0000010007E401EC1B2B64800780C3800EBC1
:103C00004000B54A02EB00100176B4480078032862
:103C100013D1B04800780C3800EB4000AE4901EBFE
:103C20000010407E401EC1B2AA4800780C3800EB5C
:103C30004000A94A02EB00104176A8480078042809
:103C400013D1A44800780C3800EB4000A24901EBE6
:103C50000010807E401EC1B29E4800780C3800EBF8
:103C600040009D4A02EB001081769C4800780528B0
:103C700017D1984800780C3800EB4000964901EBCA
:103C80000010C07E18B9012102E0FDE3DEE300214F
:103C9000904800780C3800EB40008F4A02EB00108F
:103CA000C1768E480078062813D18A4800780C38EF
:103CB00000EB4000884901EB0010007F401EC1B2BC
:103CC000844800780C3800EB4000834A02EB001077
:103CD000017782480078072813D17E4800780C3895
:103CE00000EB40007C4901EB0010407F401EC1B258
:103CF000784800780C3800EB4000774A02EB00105F
:103D0000417776480078082813D1724800780C383B
:103D100000EB4000704901EB0010807F401EC1B2F3
:103D20006C4800780C3800EB40006B4A02EB001046
:103D300081776A480078092813D1664800780C38E2
:103D400000EB4000644901EB0010C07F401EC1B28F
:103D5000604800780C3800EB40005F4A02EB00102E
:103D6000C1775E4800780A2817D15A4800780C3885
:103D700000EB4000584901EB001090F8200008B912
:103D8000012100E00021534800780C3800EB40008E
:103D9000514A02EB001080F82010504800780B28A0
:103DA00015D14C4800780C3800EB40004A4901EB33
:103DB000001090F82100401EC1B2464800780C382F
:103DC00000EB4000444A02EB001080F82110434809
:103DD00000780C2815D13F4800780C3800EB4000E3
:103DE0003D4901EB001090F82200401EC1B2394855
:103DF00000780C3800EB4000374A02EB001080F8E6
:103E00002210364800780D2815D1324800780C3839
:103E100000EB4000304901EB001090F82300401EF9
:103E2000C1B22C4800780C3800EB40002A4A02EB63
:103E3000001080F82310294800780E2815D1254855
:103E400000780C3800EB4000234901EB001090F89B
:103E50002400401EC1B21F4800780C3800EB40001F
:103E60001D4A02EB001080F824101C4800780F282F
:103E700017D1184800780C3800EB4000164901EBC8
:103E8000001090F8250008B9012100E00021114838
:103E900000780C3800EB40000F4A02EB001080F86D
:103EA00025100E48007810281FD10A4800780C38D9
:103EB00000EB4000084901EB001090F82600401E7E
:103EC000C1B2044800780C3800EB4000024A08E018
:103ED000E802002026040020D4000020E90200208F
:103EE000C9E202EB001080F82610FE480078112885
:103EF00015D1FD4800780C3800EB4000FB4901EB80
:103F0000001090F82700401EC1B2F74800780C3826
:103F100000EB4000F54A02EB001080F82710F14852
:103F20000078122815D1F04800780C3800EB4000DA
:103F3000EE4901EB001090F82800401EC1B2EA489B
:103F400000780C3800EB4000E84A02EB001080F8E3
:103F50002810E4480078132815D1E34800780C387D
:103F600000EB4000E14901EB001090F82900401EF1
:103F7000C1B2DD4800780C3800EB4000DB4A02EBB0
:103F8000001080F82910D7480078142817D1D64897
:103F900000780C3800EB4000D44901EB001090F899
:103FA0002A0008B9012100E00021CF4800780C3830
:103FB00000EB4000CD4A02EB001080F82A10C948FF
:103FC0000078152815D1C84800780C3800EB40005F
:103FD000C64901EB001090F82B00401EC1B2C24848
:103FE00000780C3800EB4000C04A02EB001080F86B
:103FF0002B10BC480078162815D1BB4800780C3827
:1040000000EB4000B94901EB001090F82C00401E75
:10401000C1B2B54800780C3800EB4000B34A02EB5F
:10402000001080F82C10AF480078172815D1AE4842
:1040300000780C3800EB4000AC4901EB001090F820
:104040002D00401EC1B2A84800780C3800EB40009B
:10405000A64A02EB001080F82D10A248007818281C
:1040600015D1A14800780C3800EB40009F4901EBC6
:10407000001090F82E00401EC1B29B4800780C380A
:1040800000EB4000994A02EB001080F82E10954892
:104090000078192817D1944800780C3800EB4000BC
:1040A000924901EB001090F82F0008B9012100E0BF
:1040B00000218D4800780C3800EB40008B4A02EB61
:1040C000001080F82F10884800780C3800EB400072
:1040D000864901EB0010C07DFF2809D117218248D5
:1040E00000780C3800EB4000804A02EB0010C175EC
:1040F0007D4800780C3800EB40007C4901EB001053
:10410000007EFF2809D13C21774800780C3800EB6D
:104110004000764A02EB00100176734800780C38B4
:1041200000EB4000714901EB0010007FFF2809D12E
:1041300017216D4800780C3800EB40006B4A02EB09
:1041400000100177684800780C3800EB40006749A0
:1041500001EB0010407FFF2809D13C216248007824
:104160000C3800EB4000614A02EB001041775E48DA
:1041700000780C3800EB40005C4901EB001090F82F
:104180002100FF280AD11721574800780C3800EB8E
:104190004000564A02EB001080F821105248007887
:1041A0000C3800EB4000514901EB001090F8220060
:1041B000FF280AD13C214C4800780C3800EB400025
:1041C0004A4A02EB001080F82210474800780C3869
:1041D00000EB4000454901EB001090F82600FF2855
:1041E0000AD11721404800780C3800EB40003F4AC4
:1041F00002EB001080F826103B4800780C3800EBEA
:1042000040003A4901EB001090F82700FF280AD13E
:104210003C21354800780C3800EB4000334A02EB73
:10422000001080F82710304800780C3800EB400070
:104230002E4901EB001090F82B00FF280AD117211E
:10424000294800780C3800EB4000284A02EB0010A7
:1042500080F82B10244800780C3800EB40002349EC
:1042600001EB001090F82C00FF280AD13C211E48D9
:1042700000780C3800EB40001C4A02EB001080F87C
:104280002C10194800780C3800EB4000174901EB5E
:104290000010407EFF2809D11721134800780C3800
:1042A00000EB4000114A02EB001041760E48007806
:1042B0000C3800EB40000D4901EB0010807EFF2818
:1042C00009D13C21084800780C3800EB4000074A2F
:1042D00002EB00108176044800780C3800EB4000B7
:1042E000024905E0E902002026040020D400002055
:1042F00001EB0010807FFF2809D11721FE480078CC
:104300000C3800EB4000FD4A02EB00108177FA48C0
:1043100000780C3800EB4000F84901EB0010C07F3A
:10432000FF2809D13C21F44800780C3800EB40000C
:10433000F24A02EB0010C177EF4800780C3800EB2E
:104340004000EE4901EB001090F82300FF280AD14D
:104350001721E94800780C3800EB4000E74A02EBEF
:10436000001080F82310E44800780C3800EB40007F
:10437000E24901EB001090F82400FF280AD13C210B
:10438000DD4800780C3800EB4000DC4A02EB0010FE
:1043900080F82410D84800780C3800EB4000D7494A
:1043A00001EB001090F82800FF280AD11721D2480D
:1043B00000780C3800EB4000D04A02EB001080F887
:1043C0002810CD4800780C3800EB4000CB4901EBB9
:1043D000001090F82900FF280AD13C21C648007837
:1043E0000C3800EB4000C54A02EB001080F82910A1
:1043F000C14800780C3800EB4000C04901EB0010C8
:1044000090F82D00FF280AD11721BB4800780C38FE
:1044100000EB4000B94A02EB001080F82D10B648BE
:1044200000780C3800EB4000B44901EB001090F824
:104430002E00FF280AD13C21AF4800780C3800EB51
:104440004000AE4A02EB001080F82E10AA48007817
:104450000C3800EB4000A94901EB001080790028DE
:1044600009DA0021A44800780C3800EB4000A34A88
:1044700002EB00108171A04800780C3800EB40007E
:104480009E4901EB001000E00EE04078FF2809D1C2
:104490000421994800780C3800EB4000974A02EB61
:1044A0000010417000E000BF03E095480078924999
:1044B000087094480078002841F0D582924800782E
:1044C0000028F9D1914800780028F5D1904800786B
:1044D0000028F1D18F4800780028EDD18E4800786F
:1044E0000028E9D18D4800780028E5D18C48007873
:1044F0000028E1D18B4800780028DDD18A48007877
:104500000028D9D101208949087089490870894952
:104510000870894908708949087089490870894973
:10452000087089490870894908708949087072487B
:1045300000780C3800EB4000704901EB0010407827
:10454000052881F08E82DFE800F00314D5D4D30073
:104550005C222321A02011F081FE5A222321C020B9
:1045600011F07CFE5B222321E02011F077FE01F0A8
:1045700079BA614800780C3800EB40005F4901EBE4
:104580000010407910905C4800780C3800EB400136
:104590005A4800EB011080790F90574800780C388A
:1045A00000EB4000554901EB001000890E90524885
:1045B00000780C3800EB400001EB001040890D90B2
:1045C00027222321A02011F049FE0A222321C02006
:1045D00011F044FE26222321E02011F03FFE292283
:1045E0004321062011F03AFE2A224321262011F011
:1045F00035FE27224321462011F030FE2C22432194
:10460000662011F02BFE29226721062011F026FEDC
:104610002B226721262011F021FE27226721462028
:1046200011F01CFE2C226721662011F017FE3222A9
:104630008B21062011F012FE33228B21262011F04F
:104640000DFE34228B21462011F008FE35228B21ED
:10465000662011F003FE36228B21862011F0FEFD2C
:104660002C228B21A62011F0F9FD3722AF21062044
:1046700011F0F4FD3822AF21262011F0EFFD392290
:10468000AF21462011F0EAFD3A22AF21662011F059
:10469000E5FD2C22AF21862011F0E0FD6922D32117
:1046A000062011F0DBFD6A22D321262011F0D6FD71
:1046B0002922D321462011F0D1FD2A22D3216620C0
:1046C00011F0CCFD5822D321862011F0C7FD2C22F9
:1046D000D321A62011F0C2FD6922F721062011F096
:1046E000BDFD6A22F721262011F0B8FD292231E014
:1046F000FEE375E28AE1000026040020D4000020D9
:10470000C9020020DC020020DD020020DE020020C1
:10471000DF020020E0020020E1020020E20200208F
:10472000E3020020E4020020E5020020D202002083
:10473000D3020020D4020020D5020020D60200209F
:10474000D7020020D8020020D9020020DA0200207F
:10475000DB020020F721462011F080FD2B22F721FB
:10476000662011F07BFD5822F721862011F076FD9E
:104770002C22F721A62011F071FD0A21109890FB40
:10478000F1F0C0B2019000204FF6FF73009043217A
:104790008620019A11F026FD0A21109890FBF1F273
:1047A00001FB1200C0B2019000204FF6FF73009091
:1047B00043219620019A11F015FD0A210F9890FBD4
:1047C000F1F0C0B2019000204FF6FF730090672116
:1047D0008620019A11F006FD0A210F9890FBF1F254
:1047E00001FB1200C0B2019000204FF6FF73009051
:1047F00067219620019A11F0F5FCF74800780C38F3
:1048000000EB4000F54901EB0010007BA8B927221E
:104810008B21C72011F022FD42228B21E72011F0CD
:104820001DFD3F228B2140F2071011F017FD2622BB
:104830008B2140F2271011F011FDE74800780C3869
:1048400000EB4000E54901EB0010007B012815D189
:1048500027228B21C72011F001FD42228B21E72066
:1048600011F0FCFC40228B2140F2071011F0F6FC05
:1048700026228B2140F2271011F0F0FCD648007858
:104880000C3800EB4001D54800EB0110007B0228FA
:1048900015D127228B21C72011F0E0FC42228B2169
:1048A000E72011F0DBFC41228B2140F2071011F0D0
:1048B000D5FC26228B2140F2271011F0CFFCC648F0
:1048C00000780C3800EB4000C44901EB0010007B7D
:1048D000032815D143228B21C72011F0BFFC4422AD
:1048E0008B21E72011F0BAFC27228B2140F2071020
:1048F00011F0B4FC42228B2140F2271011F0AEFCE3
:10490000B54800780C3800EB4000B44901EB0010CA
:10491000407B50B13D22AF21A72011F09FFC3E22E9
:10492000AF21C72011F09AFC09E03B22AF21A7205C
:1049300011F094FC3C22AF21C72011F08FFC6421C0
:104940000E9890FBF1F0C0B2019000204FF6FF737B
:104950000090D321C820019A11F044FC0A210E983E
:1049600090FBF1F090FBF1F201FB1200C0B201905C
:1049700000204FF6FF730090D321D820019A11F048
:1049800031FC0A210E9890FBF1F201FB1200C0B23B
:10499000019000204FF6FF730090D321E820019A88
:1049A00011F020FC64210D9890FBF1F0C0B2019051
:1049B00000204FF6FF730090F721C820019A11F0F4
:1049C00011FC0A210D9890FBF1F090FBF1F201FB34
:1049D0001200C0B2019000204FF6FF730090F72143
:1049E000D820019A11F0FEFB0A210D9890FBF1F2FC
:1049F00001FB1200C0B2019000204FF6FF7300903F
:104A0000F721E820019A11F0EDFBB0E5724800783B
:104A10000C3800EB4000714901EB0010408A0C900B
:104A20006D4800780C3800EB400001EB0010008A64
:104A30000B9012222321A02011F010FC0A22232126
:104A4000C02011F00BFC26222321E02011F006FCEF
:104A500030224321062011F001FC3122432126207F
:104A600011F0FCFB12224321462011F0F7FB132228
:104A70004321662011F0F2FB2C224321862011F005
:104A8000EDFB2E228B21062011F0E8FB2F228B213B
:104A9000262011F0E3FB12228B21462011F0DEFBD1
:104AA00013228B21662011F0D9FB2C228B2186202A
:104AB00011F0D4FB4FF47A710C9890FBF1F0C0B276
:104AC000019000204FF6FF7300904321A620019A29
:104AD00011F088FB64210C9890FBF1F00A2190FB07
:104AE000F1F201FB1200C0B2019000204FF6FF73FB
:104AF00000904321B620019A11F074FB0A210C9812
:104B000090FBF1F090FBF1F201FB1200C0B20190BA
:104B100000204FF6FF7300904321C620019A11F048
:104B200061FB0A210C9890FBF1F201FB1200C0B26C
:104B3000019000204FF6FF7300904321D620019A88
:104B400011F050FB4FF47A710B9890FBF1F0C0B26A
:104B5000019000204FF6FF7300908B21A620019A50
:104B600011F040FB64210B9890FBF1F00A2190FBBF
:104B7000F1F201FB1200C0B2019000204FF6FF736A
:104B800000908B21B620019A11F02CFB0A210B9882
:104B900090FBF1F090FBF1F201FB1200C0B201902A
:104BA00000204FF6FF7300908B21C620019A11F070
:104BB00019FB0A210B9890FBF1F201FB1200C0B225
:104BC000019000204FF6FF7300908B21D620019AB0
:104BD00011F008FBCBE4000026040020D4000020E4
:104BE000FE4800780C3800EB4000FD4901EB001056
:104BF00040790A90F94800780C3800EB400001EB4E
:104C0000001080790990F54800780C3800EB4000DE
:104C100001EB0010408A0890F04800780C3800EB57
:104C2000400001EB0010008A079027222321A020DA
:104C300011F014FB12222321C02011F00FFB0A22D5
:104C40002321E02011F00AFB29224321062011F044
:104C500005FB2A224321262011F000FB27224321B5
:104C6000462011F0FBFA2C224321662011F0F6FABF
:104C700029226721062011F0F1FA2B226721262034
:104C800011F0ECFA27226721462011F0E7FA2C22D6
:104C90006721662011F0E2FA32228B21062011F002
:104CA000DDFA33228B21262011F0D8FA34228B2111
:104CB000462011F0D3FA35228B21662011F0CEFA6E
:104CC00036228B21862011F0C9FA2C228B21A620B6
:104CD00011F0C4FA3722AF21062011F0BFFA3822B2
:104CE000AF21262011F0BAFA3922AF21462011F067
:104CF000B5FA3A22AF21662011F0B0FA2C22AF218A
:104D0000862011F0ABFA0A210A9890FBF1F0C0B2AC
:104D1000019000204FF6FF73009043218620019AF6
:104D200011F060FA0A210A9890FBF1F201FB1200DF
:104D3000C0B2019000204FF6FF73009043219620EF
:104D4000019A11F04FFA0A21099890FBF1F0C0B2D4
:104D5000019000204FF6FF73009067218620019A92
:104D600011F040FA0A21099890FBF1F201FB1200C0
:104D7000C0B2019000204FF6FF730090672196208B
:104D8000019A11F02FFA954800780C3800EB400199
:104D9000934800EB0110007BA8B927228B21C72084
:104DA00011F05CFA42228B21E72011F057FA3F22E2
:104DB0008B2140F2071011F051FA26228B2140F28C
:104DC000271011F04BFA854800780C3800EB4001B1
:104DD000834800EB0110007B012815D127228B218D
:104DE000C72011F03BFA42228B21E72011F036FA5E
:104DF00040228B2140F2071011F030FA26228B213D
:104E000040F2271011F02AFA744800780C3800EBB1
:104E10004001734800EB0110007B022815D12722C6
:104E20008B21C72011F01AFA42228B21E72011F0C2
:104E300015FA41228B2140F2071011F00FFA2622B9
:104E40008B2140F2271011F009FA644800780C38E1
:104E500000EB4000624901EB0010007B032815D1F4
:104E600043228B21C72011F0F9F944228B21E7203E
:104E700011F0F4F927228B2140F2071011F0EEF91E
:104E800042228B2140F2271011F0E8F953480078B4
:104E90000C3800EB4001524800EB0110407B50B150
:104EA0003D22AF21A72011F0D9F93E22AF21C72022
:104EB00011F0D4F909E03B22AF21A72011F0CEF97F
:104EC0003C22AF21C72011F0C9F93022D32106209E
:104ED00011F0C4F93122D321262011F0BFF912229A
:104EE000D321462011F0BAF91322D321662000E025
:104EF000B5E011F0B3F92C22D321862011F0AEF9E0
:104F00002E22F721062011F0A9F92F22F7212620C1
:104F100011F0A4F91222F721462011F09FF9132273
:104F2000F721662011F09AF92C22F721862011F042
:104F300095F94FF47A71089890FBF1F0C0B20190A6
:104F400000204FF6FF730090D321A620019A11F0A4
:104F500049F96421089890FBF1F00A2190FBF1F2E5
:104F600001FB1200C0B2019000204FF6FF730090C9
:104F7000D321B620019A11F035F90A21089890FB47
:104F8000F1F090FBF1F201FB1200C0B201900020A1
:104F90004FF6FF730090D321C620019A11F022F939
:104FA0000A21089890FBF1F201FB1200C0B20190B7
:104FB00000204FF6FF730090D321D620019A11F004
:104FC00011F94FF47A71079890FBF1F0C0B201909B
:104FD00000204FF6FF730090F72103E02604002025
:104FE000D4000020A620019A11F0FCF86421079853
:104FF00090FBF1F10A2291FBF2F002FB1010C0B21B
:10500000019000204FF6FF730090F721B620019A1F
:1050100011F0E8F80A21079890FBF1F090FBF1F20B
:1050200001FB1200C0B2019000204FF6FF73009008
:10503000F721C620019A11F0D5F80A21079890FBB4
:10504000F1F201FB1200C0B2019000204FF6FF7395
:105050000090F721D620019A11F0C4F8FDE3142145
:1050600002A8FBF79CF8F94800780C3800EB4000E8
:10507000F74901EB0010C07D8DF80800F348007877
:105080000C3800EB400001EB0010007E8DF80900A9
:10509000EE4800780C3800EB400001EB0010407E39
:1050A0008DF80A00E94800780C3800EB400001EB6D
:1050B0000010807E8DF80B00E44800780C3800EB7F
:1050C000400001EB0010007F8DF80C00DF480078F5
:1050D0000C3800EB400001EB0010417F8DF80D1003
:1050E000DA4800780C3800EB4000D94901EB001099
:1050F000817F8DF80E10D54800780C3800EB400009
:10510000D34901EB0010C17F8DF80F10CF48007814
:105110000C3800EB4000CE4901EB001090F8210064
:105120008DF81000C94800780C3800EB400001EB06
:10513000001090F822108DF81110C44800780C3837
:1051400000EB4000C24901EB001090F823108DF8ED
:105150001210BE4800780C3800EB4000BC4901EB4F
:10516000001090F824108DF81310B84800780C380F
:1051700000EB4000B64901EB001090F826008DF8D6
:105180001400B24800780C3800EB400001EB00102E
:1051900090F827108DF81510AC4800780C3800EB0B
:1051A0004000AB4901EB001090F828108DF8161064
:1051B000A64800780C3800EB4000A54901EB001030
:1051C00090F829108DF81710A04800780C3800EBE3
:1051D00040009F4901EB001090F82B008DF818005B
:1051E0009A4800780C3800EB400001EB001090F872
:1051F0002C108DF81910954800780C3800EB400001
:10520000934901EB001090F82D108DF81A108F487B
:1052100000780C3800EB40008D4901EB001090F84D
:105220002E108DF81B1028222321A02011F016F833
:1052300012222321C02011F011F80A222321E0209C
:1052400011F00CF800204FF4FC637322432100900E
:10525000502011F077F800204FF4FC6374224321B2
:105260000090702011F06EF800204FF4FC631222C1
:1052700043210090902011F065F800204FF4FC636A
:10528000132243210090B02011F05CF800204FF46D
:1052900078437522432100904FF4887011F052F842
:1052A00000204FF478437622432100904FF4987009
:1052B00011F048F800204FF4784312224321009067
:1052C0004FF4A87011F03EF800204FF478431322F9
:1052D000432100904FF4B87011F034F84E2263214E
:1052E000002010F0BBFF12226321602010F0B6FFF7
:1052F00028226321A02010F0B1FF122263211001A7
:1053000010F0ACFF282263214FF4B07010F0A6FF1C
:105310009DF808000A2190FBF1F0C0B20190002036
:105320004FF6FF73009063214020019A10F05AFF5E
:105330009DF808000A2190FBF1F201FB1200C0B2B7
:10534000019000204FF6FF73009063215020019AD6
:1053500010F048FF9DF809000A2190FBF1F0C0B25F
:10536000019000204FF6FF73009063218020019A86
:1053700010F038FF9DF809000A2190FBF1F201FBC3
:105380001200C0B2019000204FF6FF73009063211D
:105390009020019A10F026FF9DF80A000A2190FB48
:1053A000F1F0C0B2019000204FF6FF73009063212E
:1053B0004FF48070019A10F015FF9DF80A000A2141
:1053C00090FBF1F201FB1200C0B2019000204FF6F9
:1053D000FF73009063214FF48870019A10F002FF70
:1053E0009DF80B000A2190FBF1F0C0B20190002063
:1053F0004FF6FF73009063214FF4A070019A10F0F4
:10540000F1FE9DF80B000A2190FBF1F201FB120066
:10541000C0B2019000204FF6FF73009063214FF45B
:10542000A870019A10F0DEFE084800780C3800EBF6
:105430004000074901EB0010C07E58B146226321AD
:105440004FF4D07010F00AFF0AE00000260400209C
:10545000D4000020472263214FF4D07010F0FEFEEC
:105460004F228321002010F0F9FE122283216020B8
:1054700010F0F4FE28228321A02010F0EFFE12226B
:105480008321100110F0EAFE282283214FF4B0702E
:1054900010F0E4FE9DF80C000A2190FBF1F0C0B280
:1054A000019000204FF6FF73009083214020019A65
:1054B00010F098FE9DF80C000A2190FBF1F201FB20
:1054C0001200C0B2019000204FF6FF7300908321BC
:1054D0005020019A10F086FE9DF80D000A2190FBE5
:1054E000F1F0C0B2019000204FF6FF7300908321CD
:1054F0008020019A10F076FE9DF80D000A2190FBA5
:10550000F1F201FB1200C0B2019000204FF6FF73D0
:10551000009083219020019A10F064FE9DF80E0007
:105520000A2190FBF1F0C0B2019000204FF6FF730A
:10553000009083214FF48070019A10F053FE9DF883
:105540000E000A2190FBF1F201FB1200C0B20190A3
:1055500000204FF6FF73009083214FF48870019A6A
:1055600010F040FE9DF80F000A2190FBF1F0C0B250
:10557000019000204FF6FF73009083214FF4A0703C
:10558000019A10F02FFE9DF80F000A2190FBF1F216
:1055900001FB1200C0B2019000204FF6FF73009093
:1055A00083214FF4A870019A10F01CFEFE48007889
:1055B0000C3800EB4000FD4901EB001090F8200092
:1055C00030B1462283214FF4D07010F047FE05E041
:1055D000472283214FF4D07010F040FE5022A321C7
:1055E000002010F03BFE1222A321602010F036FEB6
:1055F0002822A321A02010F031FE1222A3211001A5
:1056000010F02CFE2822A3214FF4B07010F026FEDB
:105610009DF810000A2190FBF1F0C0B2019000202B
:105620004FF6FF730090A3214020019A10F0DAFD9D
:105630009DF810000A2190FBF1F201FB1200C0B2AC
:10564000019000204FF6FF730090A3215020019A93
:1056500010F0C8FD9DF811000A2190FBF1F0C0B2D6
:10566000019000204FF6FF730090A3218020019A43
:1056700010F0B8FD9DF811000A2190FBF1F201FB3A
:105680001200C0B2019000204FF6FF730090A321DA
:105690009020019A10F0A6FD9DF812000A2190FBBF
:1056A000F1F0C0B2019000204FF6FF730090A321EB
:1056B0004FF48070019A10F095FD9DF812000A21B8
:1056C00090FBF1F201FB1200C0B2019000204FF6F6
:1056D000FF730090A3214FF48870019A10F082FDAF
:1056E0009DF813000A2190FBF1F0C0B20190002058
:1056F0004FF6FF730090A3214FF4A070019A10F0B1
:1057000071FD9DF813000A2190FBF1F201FB1200DC
:10571000C0B2019000204FF6FF730090A3214FF418
:10572000A870019A10F05EFD9F4800780C3800EBDD
:1057300040009E4901EB001090F8250030B1462250
:10574000A3214FF4D07010F089FD05E04722A3217A
:105750004FF4D07010F082FD5122C321002010F0D0
:105760007DFD1222C321602010F078FD2822C32184
:10577000A02010F073FD1222C321100110F06EFD65
:105780002822C3214FF4B07010F068FD9DF814007A
:105790000A2190FBF1F0C0B2019000204FF6FF7398
:1057A0000090C3214020019A10F01CFD9DF81400C8
:1057B0000A2190FBF1F201FB1200C0B2019000201F
:1057C0004FF6FF730090C3215020019A10F00AFD9C
:1057D0009DF815000A2190FBF1F0C0B20190002065
:1057E0004FF6FF730090C3218020019A10F0FAFC5D
:1057F0009DF815000A2190FBF1F201FB1200C0B2E6
:10580000019000204FF6FF730090C3219020019A71
:1058100010F0E8FC9DF816000A2190FBF1F0C0B2F0
:10582000019000204FF6FF730090C3214FF4807069
:10583000019A10F0D7FC9DF816000A2190FBF1F2B6
:1058400001FB1200C0B2019000204FF6FF730090E0
:10585000C3214FF48870019A00E003E110F0C2FC0C
:105860009DF817000A2190FBF1F0C0B201900020D2
:105870004FF6FF730090C3214FF4A070019A10F00F
:10588000B1FC9DF817000A2190FBF1F201FB120018
:10589000C0B2019000204FF6FF730090C3214FF477
:1058A000A870019A10F09EFC3F4800780C3800EB7D
:1058B00040003E4901EB001090F82A0030B146222A
:1058C000C3214FF4D07010F0C9FC05E04722C3217A
:1058D0004FF4D07010F0C2FC5222E321002010F0EF
:1058E000BDFC1222E321602010F0B8FC2822E32145
:1058F000A02010F0B3FC1222E321100110F0AEFC46
:105900002822E3214FF4B07010F0A8FC9DF8180095
:105910000A2190FBF1F0C0B2019000204FF6FF7316
:105920000090E3214020019A10F05CFC9DF81800E3
:105930000A2190FBF1F201FB1200C0B2019000209D
:105940004FF6FF730090E3215020019A10F04AFCBB
:105950009DF819000A2190FBF1F0C0B201900020DF
:105960004FF6FF730090E3218020019A10F03AFC7B
:105970009DF819000A2190FBF1F201FB1200C0B260
:10598000019000204FF6FF730090E3219020019AD0
:1059900010F028FC9DF81A000A2190FBF1F0C0B22B
:1059A0000190002004E0000026040020D400002024
:1059B0004FF6FF730090E3214FF48070019A10F0CE
:1059C00011FC9DF81A000A2190FBF1F201FB120074
:1059D000C0B2019000204FF6FF730090E3214FF416
:1059E0008870019A10F0FEFB9DF81B000A2190FBC5
:1059F000F1F0C0B2019000204FF6FF730090E32158
:105A00004FF4A070019A10F0EDFB9DF81B000A21E5
:105A100090FBF1F201FB1200C0B2019000204FF6A2
:105A2000FF730090E3214FF4A870019A10F0DAFBA5
:105A3000FE4800780C3800EB4000FD4901EB0010F7
:105A400090F82F0030B14622E3214FF4D07010F0CF
:105A500005FC05E04722E3214FF4D07010F0FEFB77
:105A600000E000BF14E00020F2490870F24908701D
:105A7000F2490870F2490870F2490870F24908705A
:105A8000F2490870F2490870F2490870F24908704A
:105A9000F2480078D0B9F2480078B8B9F1480078F7
:105AA000A0B9F148007888B9F048007870B9F0489A
:105AB000007858B9EF48007840B9EF48007828B925
:105AC000EE48007810B9EE480078C0B1D7480078A9
:105AD0000C3800EB4000D64901EB0010407870B95B
