:020000040800F2
:10000000384900200101000881D5000839A3000803
:100010007DD50008998C00082B0D01080000000018
:10002000000000000000000000000000B5E500082E
:100030006D9300080000000015D60008C9E600080E
:100040001B0100081B0100081B0100080DDA000855
:100050001B0100081B0100081B0100081B01000810
:100060001B0100081B0100081B0100081B01000800
:100070001B0100081B0100089D8C00081B010008E3
:100080001B0100081B0100081B0100081B010008E0
:100090001B0100081B0100081B0100081B010008D0
:1000A0001B0100088DE700081B0100081B01000868
:1000B00075EC0008D1F3000839FD00081B010008A9
:1000C0001B0100081B0100081B0100081B010008A0
:1000D0001B010008990901081B0100081D0A0108FD
:1000E0001B0100081B0100081B010008DFF80CD0F1
:1000F00000F0AAFE00480047D12D01083849002031
:100100000648804706480047FEE7FEE7FEE7FEE7B1
:10011000FEE7FEE7FEE7FEE7FEE7FEE7CDE60008C6
:10012000ED00000830B50B460146002020220124D6
:1001300009E021FA02F59D4205D303FA02F5491BB5
:1001400004FA02F52844151EA2F10102F1DC30BDCB
:100150002DE9F05F0546002092469B4688460646FC
:10016000814640241BE0284641464746224600F08F
:10017000ACFC53465A46C01A914110D3114618465A
:10018000224600F093FC2D1A67EB01084F462246E9
:100190000120002100F08AFC17EB00094E41201ECF
:1001A000A4F10104DFDC484631462A464346BDE857
:1001B000F09F10B5431A934209D28318881803E0C0
:1001C00010F8011D03F8011D521EF9D210BD40EABE
:1001D00001039B0703D009E008C9121F08C0042AC5
:1001E000FAD203E011F8013B00F8013B521EF9D2AC
:1001F00010BDD2B201E000F8012B491EFBD27047BE
:100200000022F6E710B513460A4604461946FFF7E2
:10021000F0FF204610BD421E12F8013F002BFBD11B
:1002200011F8013B02F8013B002BF9D1704730B5C2
:1002300005462A460B4612F8010B13F8014B08B18C
:10024000A042F8D01CB1002802D06D1CF1E728466E
:1002500030BD10B5044604E00B7800F8013B03B153
:10026000491C521EF8D2204610BD421C10F8011B3A
:100270000029FBD1801A704710B5002200E0521C03
:10028000835C8C5CA34201D1002BF8D1D8B2E1B2DF
:10029000401A10BDCBB203E00178994203D0401C54
:1002A000521EF9D20020704730B5044600200346A4
:1002B00000E05B1C934203D2E05CCD5C401BF8D0B5
:1002C00030BD034611F8012B00F8012B002AF9D1AB
:1002D000184670470FB400B58DB010A909900B9067
:1002E00000914FF0FF300A9000200C9005480690D6
:1002F000054807906A4609A80F9900F01DFC0DB04B
:100300005DF814FB550B0008730B00082DE9FF5F27
:100310001D464FF0FF3BD5E9014691465F464FF041
:100320000008A9697F1C01988847296A8246884786
:100330000028F6D1BAF1FF3F0CD024F4C064002E9F
:1003400019DD600614D5BAF12B0F09D0BAF12D0FC3
:100350000ED103E0584604B0BDE8F09F44F4806439
:10036000A9697F1C01988847761E8246002E02DD0F
:10037000BAF1300F03D0B9F1000F26D032E0A969ED
:10038000761E44F400747F1C019888478246002E34
:1003900005DDBAF1780F06D0BAF1580F03D0B9F1E4
:1003A000000F10D01EE0B9F1000F02D0B9F1100F0C
:1003B00018D1A969761E24F400747F1C019888471F
:1003C0008246102002E0082000E00A20814609E071
:1003D00008FB0908A969761E44F400747F1C019883
:1003E00088478246002E05DD4946504600F08FFBC7
:1003F0000028EDDAE96901988847A00502D46FF07A
:100400000100A8E7E00725D1600613D5600502D5F5
:10041000C8F1000000E0404629680A1D2A6009680A
:10042000220501D5087015E0220701D5088011E0EA
:1004300008600FE02868011D29600068210502D5C9
:1004400080F8008006E0210702D5A0F8008001E0D6
:10045000C0F8008038467EE700F0EABBF0B480EADE
:100460000102D40F4200B2EB410F02D2024608460D
:1004700011464A0042D0C30DDDB2C1F3C752AD1AD6
:10048000202D35DAC1F3160141F4000204B15242C5
:10049000C5F1200602FA06F12A411044B3EBD05F01
:1004A00023D0C4B1012DA0EBC35009DCF0BC4FF048
:1004B000004202EAC352DBB200F5000000F009BCC2
:1004C000400000F1807000EBC350A0F1807040EA62
:1004D000D170490009E0490841EAC071A0EBC3505E
:1004E00000F50000400800EBC350F0BC00F0E8BB92
:1004F0006142012202EB4101001BF6E7F0BC7047AC
:1005000081F00041AAE780F00040A7E780EA0102FD
:1005100010B502F00043400022D04A001FD0010E67
:1005200001EB1261C0F35600C2F3560240F4000022
:1005300042F40002A0FB022000047F39140400D022
:10054000401C50EA124001D44000491EC2B20C06C1
:1005500004EBD010401C4008802A02D003E00020A9
:1005600010BD20F00100002900DA0020184310BD62
:1005700030B480EA010202F0004530F0004221F080
:10058000004013D090B1C30DD40DC2F31601C0F3D7
:100590001600E41A41F4000140F400027D34914257
:1005A00001D3641C00E04900002C02DA30BC0020BA
:1005B00070474FF400000023914201D3891A03438E
:1005C00040084FEA4101F7D151B1914202D14FF0B9
:1005D000004105E002D24FF0010101E06FF001019E
:1005E00003EBC450284430BC00F06ABB2DE9FE4F39
:1005F000804681EA0300C00F0C46009021F00041C4
:1006000023F00045B8EB0200A94105D2404621463F
:1006100090461C460B46024623F00040104347D04C
:10062000270DC7F30A00C3F30A510290401A019044
:1006300040286BDAC3F3130040F4801B0098924605
:1006400020B10023D2EB030A63EB0B0B0198594650
:10065000C0F14002504600F029FA06460D465046C9
:100660005946019A00F041FA10EB0800614100245C
:1006700087EA115284EAE7731A4340D0009A62B3C2
:10068000019A012A4FEA075215DC001B61EB0201B7
:100690004FF0004202EA0752CDE90042001C41F54A
:1006A000801132462B4600F051FB03B0BDE8F08FBD
:1006B00040462146F9E7001B61EB0201001C41F5B1
:1006C000801300185B412018A2F5001747EB0301C7
:1006D00040EAD570B6196D4111E06D084FEA360653
:1006E00045EAC0754FEA0752001B61EB0201001C8E
:1006F00041F5801149084FEA300000195141324656
:100700002B4603B0BDE8F04F00F011BB009801226A
:1007100040000023D0EB020263EBE0730098214617
:100720004FEAE074B8EB000061EB0401E9E783F005
:1007300000435BE781F0004158E72DE9FE4F81EA75
:10074000030404F0004421F0004100944FF0000B3A
:1007500023F0004350EA01045ED052EA03045BD068
:10076000C3F30A54C1F30A552C44A4F2F3340194A0
:10077000A0FB0254C1F3130141F48011C3F313032E
:1007800043F4801301FB024400FB034E840A970AE2
:1007900044EA815447EA8357A4FB076802958D0A0F
:1007A00005FB07854FEA932C04FB0C542705029D9B
:1007B0004FEA065847EA1637B5EB08056EEB070C0B
:1007C000870E920E47EA811742EA8312A7FB0201C5
:1007D000B6EB0B0164EB00042B0D43EA0C335E18FF
:1007E00044EB1C50DA465146E7FB0201C5F3130403
:1007F0004FEA0B3343EA14534FEA0432019C43EAB5
:100800000603A4F10C040294009CCDE900B400F0AE
:100810009DFA03B0BDE8F08F00200146F9E72DE90D
:10082000F04D81EA030404F0004B21F0004514462A
:100830004FF0000A23F0004150EA050220D054EAAC
:1008400001021DD0C5F30A570246C5F31303C1F3D5
:100850001300C1F30A5640F4801543F48013A7EB4C
:100860000608101BD64608F2FD3873EB050002D3CC
:1008700008F1010801E092185B41B8F1000F03DABA
:1008800000200146BDE8F08D00204FF4801106469F
:1008900084460EE0171B73EB050705D3121B63EBB1
:1008A000050306434CEA010C49084FEA3000921850
:1008B0005B4150EA0107EDD152EA030012D082EA0F
:1008C000040083EA0501084305D0101BAB4106D2A2
:1008D0000122002306E000224FF0004302E06FF007
:1008E000010253101AEB06004CEB085110EB0A0002
:1008F00041EB0B01BDE8F04D00F019BAC10F80EAE1
:10090000E0700844CA079623002100F0E2B996235C
:100910000022114600F0DDB90EB5C10F80EAE0708B
:100920000844CA07002140F233438DE80E000A460E
:100930000B4600F00BFA03B000BD00F0004220F0BF
:100940000040C10DC0F3160040F400007F2901DA19
:1009500000207047962903DCC1F19601C84001E0F0
:1009600096398840002AF4D04042704720F0004079
:10097000C10DC0F3160040F400007F2901DA002009
:100980007047962903DCC1F19601C840704796393B
:1009900088407047C1F30A5210B5C1F3130140F209
:1009A000FF3341F480119A4201DA002010BD40F279
:1009B00033439A42A2F2334203DC524200F085F8FC
:1009C00010BD904010BD00F0004230F000400AD051
:1009D000C10D01F56071C0F3160042EA0151C20871
:1009E00040071143704700200146704730B5041E90
:1009F00071F1000404DB4FF00044404264EB01015C
:100A0000141E73F1000405DB1C464FF000435242F4
:100A100063EB04038B4208BF824230BD30B5041E35
:100A200071F1000404DB4FF00044404264EB01012B
:100A3000141E73F1000405DB1C464FF000435242C4
:100A400063EB0403994208BF904230BD01F00043BC
:100A500030B421F0004150EA010206D00A0DA2F59F
:100A60006072C1F31301002A02DC30BC0020704721
:100A7000440F44EAC104C100E01830BC00EBC2508E
:100A800000F01EB9002801DBC0F10040002901DBA5
:100A9000C1F1004181427047002801DBC0F10040F4
:100AA000002901DBC1F1004188427047202A04DBA4
:100AB000203A00FA02F1002070479140C2F1200371
:100AC00020FA03F3194390407047202A04DB203AB0
:100AD00021FA02F00021704721FA02F3D040C2F15E
:100AE00020029140084319467047202A06DBCB17A5
:100AF000203A41FA02F043EAE07306E041FA02F3D9
:100B0000D040C2F1200291400843194670473A286C
:100B100000D2303820F02002412A01D3A2F1370060
:100B2000884201D34FF0FF30704700000268114443
:100B30001378016018467047D16004495161044937
:100B4000116200211161114600F09EB92D0B0008C1
:100B5000750E0008426842B1016811F8013B23B1EB
:100B6000521EC0E90012184670470121C160881E5C
:100B7000704742685AB1C368016843B983688B42C1
:100B800005D0491E521CC0E90012002070474FF0EA
:100B9000FF3070470FB4002300B589B00CA9009155
:100BA0000B996FF00042CB601E4B06931E4B0793D0
:100BB0000423CDE901321D4A089202466B4600200B
:100BC00000F08CFB09B05DF814FB70B586B00646EA
:100BD0004FF0FF300091CDE90101002015460C4691
:100BE00004903246694604A8FFF7D4FF02460498F1
:100BF000211825B108B1084600E020462860049875
:100C000000280DD0002A02DD0098884208D0081B79
:100C10000094CDE901043246694604A8FFF7BAFF03
:100C200006B070BD550B0008730B0008750E000868
:100C30002DE9F04791460E4680460446002514F8FB
:100C4000017B2FB100F012F90068C05DC007F6D13A
:100C50002B2F02D02D2F1ED0641E4A46314620462F
:100C600000F058FC26B13268A24201D1C6F80080DB
:100C70006A054FF0020418D50023D0EB030563EB9F
:100C800001025D1B934109DB0023D0EB030063EB02
:100C90000101BDE8F08745F48065DEE710F032F928
:100CA000046000204FF00041F3E7021E71F10002E2
:100CB000EFDA10F027F904604FF0FF304108E8E761
:100CC0000029A8BF7047401C490008BF20F0010060
:100CD000704710B4B0FA80FC00FA0CF050EA01043E
:100CE00004BF10BC704749B1CCF1200421FA04F4D0
:100CF00011FA0CF118BF012121430843A3EB0C01A9
:100D0000CB1D4FEA00614FEA102042BF002010BC0B
:100D1000704700EBC35010440029A4BF10BC7047BB
:100D2000401C490008BF20F0010010BC704710B5FE
:100D3000141E73F1000408DA401C41F100019218FE
:100D40005B411A4301D120F0010010BD2DE9F04DA7
:100D500092469B4611B1B1FA81F202E0B0FA80F2FC
:100D600020329046FFF7A2FE04460F4640EA0A00F2
:100D700041EA0B0153465A46084313D0114653EA41
:100D8000010019D0C8F140025046FFF79EFE05460B
:100D90000E46504659464246FFF788FE084305D0A6
:100DA000012004E020463946BDE8F08D00200543CF
:100DB00046EAE0762C4337430A986305E40AA0EB41
:100DC00008000022FD0A44EA47540A3002D50020F8
:100DD0000146E9E7010510196941DDE908450019F7
:100DE0006941BDE8F04DA2E770B521F0004303432F
:100DF0000CD0C1F30A550024D5EB040564EB0403C1
:100E0000D617AD1AB34102DB0020014670BD201891
:100E100041EB025170BDC1F30A52C1F3130140F21C
:100E2000FF3341F480119A4202DA002001467047F4
:100E300040F233439A42A2F2334202DC5242FFF7BD
:100E400044BEFFF733BE0000064C074D06E0E068E5
:100E500040F0010394E8070098471034AC42F6D301
:100E6000FFF748F948DD010868DD010800487047D0
:100E7000D4DC010810B50446FFF7F8FF0068005DF8
:100E800000F0010010BD00002DE9F34F8BB04FF0D2
:100E9000000801F10C000C464FF0010B46460DF125
:100EA000080A01906269012101989047051E2DD022
:100EB000252D2CD0216A8847C0B162690121019893
:100EC0009047216A88470028F7D1411E626901983E
:100ED000904700E0761CA1690B988847216A8847F3
:100EE0000028F7D1E1690B988847DBE7A1690B98E7
:100EF00088470746A84201D1761CD3E7E1690B98E1
:100F000088477F1C02D1B8F1000F6FD046E100275F
:100F100062693D463946019890472A2804D16269A2
:100F20000121019890470125DFF88492626901212F
:100F300001989047A0F130010A290AD24F45E5DC1B
:100F400007EB870100EB4107303FDFD445F0100588
:100F5000ECE7E90601D46FF000476C280AD04C2872
:100F600014D0682815D06A280DD074281CD07A288F
:100F70001AD01DE062690121019890476C2802D0C7
:100F800045F0040514E045F002050DE045F02005AC
:100F90000AE06269012101989047682802D045F073
:100FA000080505E045F40065626901210198904754
:100FB000C4E9015765283DD019DC58287AD00CDCEB
:100FC000452837D004DC252826D0412831D131E00E
:100FD00046282FD047282CD12CE05B2877D06128D9
:100FE00028D063287CD0642823D15AE0D0E06F2831
:100FF00048D008DC66281DD067281BD0692821D07E
:101000006E2816D127E0702845D0732868D075283F
:1010100047D078280DD14DE0A1690B988847054647
:1010200025283FF469AFE1690B9888476D1C3FF4B0
:101030006AAFB3E023466A466FF001000B9900F0F7
:101040004DF99EE045F040006060A80723464FF050
:10105000000236D43EE0E8077FF447AF2068011D68
:1010600021600068290501D506701BE7290701D515
:10107000068017E7A90703D5F117C0E9006111E75A
:1010800006600FE745F040006060A80723464FF078
:10109000080216D41EE040F60E0125EA0100606049
:1010A00016E045F040006060A80723464FF00A02B2
:1010B00007D40FE045F040006060A80708D523463C
:1010C00010226FF001000B99AFF3008059E007E0A8
:1010D000234610226FF001000B99FFF717F950E03B
:1010E0004FF000094F464B46632802D05B2806D0DC
:1010F00040E0E80601D40120A06001273AE06269DF
:101100000121019890475E2805D14FF001096269DD
:10111000494601989047216939B900210A4653464A
:1011200043F82120491C0829FADBB0B3216969B9C9
:10113000C11700EBD16253110AEB830122F01F02A9
:10114000821A01200B68904003430B606269012101
:10115000019890475D28E8D1B9F1000F09D000202F
:10116000514651F82020D24341F82020401C082845
:10117000F7DB02AB224600976FF001000B99AFF34B
:10118000008000280CDA401C08D1BBF1000F05D00C
:101190004FF0FF300DB0BDE8F08FFFE74046F9E7B4
:1011A000E90701D108F1010806444FF0000B79E688
:1011B000CCCCCC0C2DE9FF4F087883B09946FF28A2
:1011C00005D0491C2D2804D00024002008E0002070
:1011D0000BE00124F9E700EB800003EB4000491C21
:1011E0000B78FF2BF7D104B140420023029314780F
:1011F00019461D462D2C01D02B2C04D1521C2D2C10
:1012000013D000240294AA461478FF2C0FD00A258C
:10121000A3FB057801FB05814FF0000C03FB0C11CB
:10122000521CE3194AEB0101EEE70124EAE781448D
:1012300053EA010002D019F5C87F06DA03980021AD
:10124000C0E9001107B0BDE8F08F0025AE4E2F4673
:10125000DFF8B882184600F0BEF9CDE90001B9F117
:10126000000002DAC9F1000400E004460023A74AA6
:101270001AEB030B42EB045A12E0E00707D02A46B0
:10128000334638464146FFF758FA074688462A460D
:10129000334610461946FFF750FA05460E466410CD
:1012A000002CEAD1DDE90001B9F1000F5A4653469E
:1012B00006DAFFF7B4FA3A464346FFF7B0FA05E01C
:1012C000FFF73BFA3A464346FFF737FA029A0AB16C
:1012D00081F00041039AC2E90001B3E72DE9FF4F15
:1012E0001F468DB0D7E901464FF0FF382E20454606
:1012F0004FF000090B90B9696D1C0E988847396A48
:10130000824688470028F6D1BAF1FF3F0AD024F47C
:10131000D064002E11DDBAF12B0F08D0BAF12D0FD9
:101320000BD102E0404611B08DE744F48064B96906
:101330006D1C0E9888478246761E6946600501D569
:101340002D2000E02B208DF8000001F1010B0DF1A4
:10135000200809E0B9696D1C0E98884782460F98ED
:1013600044F40074761E0560002E02DDBAF1300FE1
:10137000F0D00B998A453ED144F0800406E00F99E5
:10138000681CA9F1010944F400740860B9696D1C76
:10139000761E0E98884782463028F0D02BE00B99B5
:1013A0008A4505D1200603D444F08004761E18E057
:1013B00050460FF0E9FE08B30DF11301761E44F418
:1013C00000748B4508D2AAF130000BF8010B2006FF
:1013D00007D5A9F1010003E0200602D409F10100BC
:1013E0008146A00502D50F99681C0860B9696D1C7B
:1013F0000E9888478246002ED1DC53E0002E51DD46
:10140000BAF1650F02D0BAF1450F4BD1A00549D50D
:10141000B9696D1C24F44074761E0E988847824684
:10142000002E0CDD2B2804D0BAF12D0F07D144F487
:101430008074B9696D1C0E9888478246761EE00557
:1014400001D52D2100E02B2108F8011BCDF82C80BF
:1014500021E00DF12901761E44F4007488450CD278
:10146000AAF1300010F0FF0088F8000002D10B99BB
:10147000884509D908F1010806E0E00501D52448AE
:1014800001E042F20F708146B9696D1C0E988847E1
:1014900082460F980560002E04DD50460FF074FE62
:1014A0000028D6D1F9690E988847FF208BF80000F4
:1014B00088F800000020069007904B466A4608A96D
:1014C00006A8FFF777FEA00502D46FF001002AE717
:1014D00014F0240F0AD0E00714D1DDE906123868B1
:1014E000031D3B600068C0E900120BE0DDE9060166
:1014F000FFF7ACFA0146E00704D13868021D3A60F4
:101500000068016028460EE7000014400000F03F2C
:10151000F1D8FFFF2DE9F74F4FF00009009C154669
:10152000CA4614F8010B302801D0ADB115E014F80B
:10153000010B4FF00109782803D0582801D04DB194
:101540000BE00DB1102D08D14FF00009102514F853
:10155000010B02E0082500E00A2500273E46B846B8
:101560004FEAE57B16E0A5FB07230BFB073105FBE4
:10157000080005FB0616030CD71846F100061FFAF3
:1015800080F8381E4FF0010976F5803000D3CA4646
:1015900014F8010B2946FFF7BAFA0028E3DA01989C
:1015A00038B1B9F1000F01D0641E00E0009C019831
:1015B0000460BAF1000F08D00FF0A4FC0221016012
:1015C000C81E014603B0BDE8F08F310441EA17415F
:1015D00048EA0740F6E70EB540F233420292002295
:1015E000CDE900221346FFF7B1FB03B000BD70B593
:1015F0008D1810F8014B14F0030201D110F8012BE3
:10160000231106D110F8013B03E010F8016B01F83B
:10161000016B521EF9D1ABB110F8012B04F00C0490
:101620008A1A0C2C03D0A2EB84129B1C08E010F841
:10163000014BA2EB0422F8E712F8014B01F8014B31
:101640005B1EF9D5A942D4D3002070BD21B18268B8
:1016500042F00102826003E0826822F001028260AF
:101660007047000000B587B0012148020CF010F867
:10167000012104200CF00CF81C20ADF8040000201F
:101680008DF8070001A9184807F024FF00200290F8
:101690008DF80C008DF80D004FF4602004900020B0
:1016A000059001208DF8180002A9104800F042F8BA
:1016B00001210E48FFF7CAFF4FF440400BF0ACFF8A
:1016C0000A4800F0BBF800BF084800F028F80028DE
:1016D000FAD1064800F0C2F800BF044800F008F84C
:1016E0000028FAD107B000BD0008014000240140E5
:1016F000014600208A6802F004020AB1012000E0DD
:10170000002070470146C86C80B270470246002036
:1017100013680B400BB1012000E000207047014628
:1017200000208A6802F008020AB1012000E00020CF
:101730007047000030B502460020002350680F4C6F
:1017400020400D790C6844EA0524204350609068DD
:101750000B4C2040D1E902542C434D7944EA450416
:1017600020439060D06A20F470000C7C641EE4B2C8
:10177000234340EA0350D06230BD0000FFFEF0FF7B
:10178000FDF7F1FFF0B504460D4600200021092DBC
:1017900011DDE068A5F10A0606EB4607072606FA02
:1017A00007F18843A5F10A0606EB460603FA06F19F
:1017B0000843E0600CE0206905EB4507072606FAC0
:1017C00007F1884305EB450603FA06F1084320615B
:1017D000072A0FDA606B561E06EB86071F2606FAED
:1017E00007F18843561E06EB860605FA06F1084304
:1017F000606322E00D2A0FDA206BD61F06EB860706
:101800001F2606FA07F18843D61F06EB860605FA5F
:1018100006F10843206310E0E06AA2F10D0606EB32
:1018200086071F2606FA07F18843A2F10D0606EB8C
:10183000860605FA06F10843E062F0BD816841F0D2
:1018400008018160704721B1826842F4A002826081
:1018500003E0826822F4A00282607047816841F050
:1018600004018160704770B504460D460C2C13D0FE
:10187000062233210B2015F07FFB072233212B207A
:1018800015F07AFB1A2233214B2015F075FB1B2231
:1018900033216B2015F070FB0D2C13D00622712123
:1018A0000B2015F069FB072271212B2015F064FB3A
:1018B0001C2271214B2015F05FFB1B2271216B2034
:1018C00015F05AFB0E2C13D00622AF210B2015F079
:1018D00053FB0722AF212B2015F04EFB1D22AF2119
:1018E0004B2015F049FB1B22AF216B2015F044FB68
:1018F0000F2C13D00622ED210B2015F03DFB072203
:10190000ED212B2015F038FB1E22ED214B2015F088
:1019100033FB1B22ED216B2015F02EFB102C17D072
:10192000062233214FF4AA7015F026FB072233213B
:101930004FF4BA7015F020FB1F2233214FF4CA7008
:1019400015F01AFB1B2233214FF4DA7015F014FB4B
:10195000112C17D0062271214FF4AA7015F00CFB40
:10196000072271214FF4BA7015F006FB2022712175
:101970004FF4CA7015F000FB1B2271214FF4DA708E
:1019800015F0FAFA122C17D00622AF214FF4AA70E4
:1019900015F0F2FA0722AF214FF4BA7015F0ECFA05
:1019A0002122AF214FF4CA7015F0E6FA1B22AF21B5
:1019B0004FF4DA7015F0E0FA132C17D00622ED215F
:1019C0004FF4AA7015F0D8FA0722ED214FF4BA703F
:1019D00015F0D2FA2222ED214FF4CA7015F0CCFA9C
:1019E0001B22ED214FF4DA7015F0C6FAA4F10C00B9
:1019F00008287DD2DFE800F0041D364F6887A4C1B7
:101A00000123062233210B2015F0F0FA01230722CF
:101A100033212B2015F0EAFA01231A2233214B201F
:101A200015F0E4FA01231B2233216B2015F0DEFAB6
:101A3000C1E00123062271210B2015F0D7FA012302
:101A4000072271212B2015F0D1FA01231C227121CC
:101A50004B2015F0CBFA01231B2271216B2015F0CE
:101A6000C5FAA8E001230622AF210B2015F0BEFA2B
:101A700001230722AF212B2015F0B8FA01231D22E4
:101A8000AF214B2015F0B2FA01231B22AF216B20AE
:101A900015F0ACFA8FE001230622ED210B2015F0A2
:101AA000A5FA01230722ED212B2015F09FFA01232F
:101AB0001E22ED214B2015F099FA01231B22ED2166
:101AC0006B2015F093FA76E00123062233214FF4C0
:101AD000AA7015F08BFA0123072233214FF4BA7054
:101AE00015F084FA01231F2233214FF4CA7000E05D
:101AF00060E015F07BFA01231B2233214FF4DA70EA
:101B000015F074FA57E00123062271214FF4AA70F0
:101B100015F06CFA0123072271214FF4BA7015F009
:101B200065FA0123202271214FF4CA7015F05EFA84
:101B300001231B2271214FF4DA7015F057FA3AE0B5
:101B400001230622AF214FF4AA7015F04FFA0123AA
:101B50000722AF214FF4BA7015F048FA0123212271
:101B6000AF214FF4CA7015F041FA01231B22AF21B7
:101B70004FF4DA7015F03AFA1DE001230622ED2148
:101B80004FF4AA7015F032FA01230722ED214FF429
:101B9000BA7015F02BFA01232222ED214FF4CA70FE
:101BA00015F024FA01231B22ED214FF4DA7015F011
:101BB0001DFA00E000BF00BF70BD000003B591B08A
:101BC000FE4800780C2802F04980FC4800780D2877
:101BD000F9D0FA4800780E28F5D0F84800780F2898
:101BE000F1D0F64800781028EDD0F448007811289C
:101BF000E9D0F24800781228E5D0F04800781328A0
:101C0000E1D0129802287CD0042803D0052842F0A5
:101C10002380F4E3EA48007898BBEA48007880BB68
:101C2000E948007868BBE948007850BBE84800788C
:101C300038BBE848007820BBE748007808BBE74895
:101C40000078F0B9E6480078D8B9E6480078C0B91D
:101C5000E54800780C38E549084410900078401CAD
:101C6000C1B210980170E04800780C38DF49085C78
:101C7000052805D10021DC4800780C38DB4A1154D6
:101C80006EE3FFE7D84800780C3800EBC00101EBA9
:101C90000010D74901EB40004078D8B9D24800780D
:101CA0000C3800EBC00101EB0010D14901EB400002
:101CB00090F8300008B9012100E00021CA480078FE
:101CC0000C3800EBC00202EB0010C94A02EB4000E6
:101CD00080F83010C44800780C3800EBC00101EBEC
:101CE0000010C34901EB4000407801287DD1C14874
:101CF0000078012812D1BC4800780C3800EBC001F4
:101D000000E0FDE301EB0010B94901EB4000401D8C
:101D100010900078401CC1B210980170B54800784E
:101D2000022829D1B04800780C3800EBC00101EB43
:101D30000010AF4901EB40008079401CAA490978A6
:101D40000C3901EBC10202EB0111A94A02EB41017E
:101D50004979884210DAA44800780C3800EBC001B9
:101D600001EB0010114601EB4000801D109000783F
:101D7000401CC1B2109801709E480078032810D111
:101D8000994800780C3800EBC00101EB001098492D
:101D900001EB40000C3010900078401CC1B210984C
:101DA000017094480078042819D18F4800780C38C5
:101DB00000EBC00101EB00108D4901EB4000407BBE
:101DC00008B9012100E00021874800780C3800EBB9
:101DD000C00202EB0010864A02EB400041738248C9
:101DE00000780C3800EBC00100E088E001EB001047
:101DF0007F4901EB4000007B04280BD100217A4889
:101E000000780C3800EBC00202EB0010784A02EBBD
:101E10004000017377480078052810D17248007897
:101E20000C3800EBC00101EB0010714901EB4000E0
:101E3000083010900088401C81B2109801806D48D5
:101E40000078062829D1684800780C3800EBC001DA
:101E500001EB0010664901EB40004089401C6249DB
:101E600009780C3901EBC10202EB0111604A02EB67
:101E700041010989884210DA5B4800780C3800EB90
:101E8000C00101EB0010114601EB40000A30109038
:101E90000088401C81B210980180534800780C38AB
:101EA00000EBC00101EB0010514901EB400000893B
:101EB00032280BDB32214C4800780C3800EBC00292
:101EC00002EB00104A4A02EB4000018146480078CC
:101ED0000C3800EBC00101EB0010454901EB40005C
:101EE00040795A280BDD5A213F4800780C3800EB26
:101EF000C00202EB00103E4A02EB400041713A483A
:101F000000780C3800EBC00101EB0010384901EB00
:101F100040004078022850D137480078012810D17D
:101F2000314800780C3800EBC00101EB001030495B
:101F300001EB4000123010900088401C81B21098D4
:101F400001802D480078022810D1274800780C38ED
:101F500000EBC00101EB0010254901EB40001030FF
:101F600010900088401C81B2109801801E480078B3
:101F70000C3800EBC00101EB00101D4901EB4000E3
:101F8000408A42F2107188420BD100211648007835
:101F90000C3800EBC00202EB0010154A02EB4000C7
:101FA0004182114800780C3800EBC00101EB0010B1
:101FB0000F4901EB4000008A20E02FE0451300208C
:101FC0005713002058130020591300205A130020E3
:101FD0005B1300205C1300205D1300205E130020C3
:101FE0005F1300206013002018130020162100202A
:101FF00020210020621300206313002042F21071A0
:1020000088420BD10021FE4800780C3800EBC0025A
:1020100002EB0010FB4A02EB40000182F848007816
:102020000C3800EBC00101EB0010F64901EB400059
:10203000407803287ED1F4480078012810D1F04878
:1020400000780C3800EBC00101EB0010ED4901EB0A
:102050004000401D10900078401CC1B210980170E3
:10206000E9480078022829D1E54800780C3800EBCF
:10207000C00101EB0010E34901EB40008079401CF6
:10208000DF4909780C3901EBC10202EB0111DD4A8D
:1020900002EB41014979884210DAD94800780C38BE
:1020A00000EBC00101EB0010114601EB4000801D68
:1020B00010900078401CC1B210980170D24800788E
:1020C000032810D1CE4800780C3800EBC00101EB9A
:1020D0000010CC4901EB40000C3010900078401CFF
:1020E000C1B210980170C8480078042819D1C448BA
:1020F00000780C3800EBC00101EB0010C14901EB86
:102100004000407B08B9012100E00021BC48007874
:102110000C3800EBC00202EB0010BA4A02EB4000A0
:102120004173B74800780C3800EBC00101EB001098
:10213000B44900E089E001EB4000007B04280BD1AA
:102140000021AF4800780C3800EBC00202EB001011
:10215000AC4A02EB40000173AB480078052810D16F
:10216000A74800780C3800EBC00101EB0010A5492E
:1021700001EB4000123010900088401C81B2109892
:102180000180A1480078062810D19D4800780C38BD
:1021900000EBC00101EB00109A4901EB4000103048
:1021A00010900088401C81B21098018094480078FB
:1021B0000C3800EBC00101EB0010924901EB40002C
:1021C000408A42F2107188420BD100218C4800787D
:1021D0000C3800EBC00202EB00108A4A02EB400010
:1021E0004182874800780C3800EBC00101EB0010F9
:1021F000844901EB4000008A42F2107188420BD101
:1022000000217F4800780C3800EBC00202EB001080
:102210007C4A02EB40000182794800780C3800EBE0
:10222000C00101EB0010774901EB400040795A28CA
:102230000BDD5A21724800780C3800EBC00202EB2B
:102240000010704A02EB400041716D4800780C3874
:1022500000EBC00101EB00106A4901EB400040783F
:1022600004287DD169480078012810D1644800789D
:102270000C3800EBC00101EB0010624901EB40009B
:10228000173010900078401CC1B2109801705F4860
:102290000078022810D15A4800780C3800EBC001B1
:1022A00001EB0010574901EB400018301090007806
:1022B000401CC1B21098017054480078032810D116
:1022C0004F4800780C3800EBC00101EB00104D497D
:1022D00001EB4000193010900078401CC1B21098FA
:1022E00001704A480078042810D1454800780C381D
:1022F00000EBC00101EB0010424901EB40001A3035
:1023000010900078401CC1B2109801703F480078CE
:10231000052819D13A4800780C3800EBC00101EBD0
:102320000010384901EB4000C07E08B9012100E0EF
:102330000021334800780C3800EBC00202EB00109B
:10234000304A02EB4000C17630480078062812D1AE
:102350002B4800780C3800EBC00101EB001000E0C6
:10236000E4E3284901EB40001C3010900078401C49
:10237000C1B21098017025480078072810D1204874
:1023800000780C3800EBC00101EB00101D4901EB97
:1023900040001D3010900078401CC1B210980170B0
:1023A0001A480078082810D1154800780C3800EB3E
:1023B000C00101EB0010134901EB40001E301090EA
:1023C0000078401CC1B210980170104800780928AC
:1023D00010D10B4800780C3800EBC00101EB001065
:1023E000084901EB40001F3010900078401CC1B23A
:1023F00010980170054800780A2825D108E096E376
:1024000018130020202100206413002065130020F1
:10241000FE4800780C3800EBC00101EB0010FC49CD
:1024200001EB400090F8200008B9012100E00021F4
:10243000F64800780C3800EBC00202EB0010F44ABA
:1024400002EB400080F82010F24800780B2810D1F1
:10245000EE4800780C3800EBC00101EB0010EC49AD
:1024600001EB4000213010900078401CC1B2109860
:102470000170E84800780C2810D1E44800780C3846
:1024800000EBC00101EB0010E14901EB40002230FC
:1024900010900078401CC1B210980170DD4800789F
:1024A0000D2810D1D94800780C3800EBC00101EBA1
:1024B0000010D74901EB4000233010900078401CF9
:1024C000C1B210980170D34800780E2810D1CF48BF
:1024D00000780C3800EBC00101EB0010CC4901EB97
:1024E0004000243010900078401CC1B21098017058
:1024F000C84800780F281DD1C44800780C3800E087
:10250000FEE300EBC00101EB0010C14901EB40000C
:1025100090F8250008B9012100E00021BB480078AF
:102520000C3800EBC00202EB0010B94A02EB40008D
:1025300080F82510B7480078102810D1B3480078EB
:102540000C3800EBC00101EB0010B14901EB400079
:10255000263010900078401CC1B210980170AD4830
:102560000078112810D1A94800780C3800EBC00180
:1025700001EB0010A64901EB4000273010900078D5
:10258000401CC1B210980170A2480078122810D1E6
:102590009E4800780C3800EBC00101EB00109C490C
:1025A00001EB4000283010900078401CC1B2109818
:1025B000017098480078132810D1944800780C389E
:1025C00000EBC00101EB0010914901EB4000293004
:1025D00010900078401CC1B2109801708D480078AE
:1025E00014281BD1894800780C3800EBC00101EB9E
:1025F0000010874901EB400090F82A0008B901213A
:1026000000E00021814800780C3800EBC00202EBAA
:1026100000107F4A02EB400080F82A107D480078C5
:10262000152810D1794800780C3800EBC00101EB77
:102630000010774901EB40002B3010900078401CCF
:10264000C1B21098017073480078162810D16F48F5
:1026500000780C3800EBC00101EB00106C4901EB75
:1026600040002C3010900078401CC1B210980170CE
:1026700068480078172810D1644800780C3800EBBF
:10268000C00101EB0010624901EB40002D301090B9
:102690000078401CC1B2109801705E48007818287C
:1026A00010D15A4800780C3800EBC00101EB001043
:1026B000574901EB40002E3010900078401CC1B209
:1026C000109801705348007819281BD14F480078A2
:1026D0000C3800EBC00101EB00104D4901EB40004C
:1026E00090F82F0008B9012100E000214748007848
:1026F0000C3800EBC00202EB0010454A02EB400030
:1027000080F82F10414800780C3800EBC00101EB35
:1027100000103F4901EB4000C07D18280BD100217B
:102720003A4800780C3800EBC00202EB0010384A3F
:1027300002EB4000C175354800780C3800EBC00151
:1027400001EB0010324901EB4000007E3D280BD127
:1027500000212E4800780C3800EBC00202EB00107C
:102760002B4A02EB40000176284800780C3800EB39
:10277000C00101EB0010264901EB4000007F182842
:102780000BD10021214800780C3800EBC00202EB8D
:1027900000101F4A02EB400001771C4800780C38FB
:1027A00000EBC00101EB0010194901EB4000407F34
:1027B0003D280BD10021154800780C3800EBC002F1
:1027C00002EB0010124A02EB400041770F480078FC
:1027D0000C3800EBC00101EB00100D4901EB40008B
:1027E00090F8210018280CD10021084800780C38F6
:1027F00000EBC00202EB0010054A02EB400080F83B
:102800002110024800780C3806E000001813002060
:10281000202100206513002000EBC00101EB001017
:10282000FE4901EB400090F822003D280CD1002128
:10283000FB4800780C3800EBC00202EB0010F74AAE
:1028400002EB400080F82210F54800780C3800EBCD
:10285000C00101EB0010F14901EB400090F82600A7
:1028600018280CD10021EE4800780C3800EBC0028B
:1028700002EB0010E94A02EB400080F82610E8481D
:1028800000780C3800EBC00101EB0010E34901EBCC
:10289000400090F827003D280CD10021E048007846
:1028A0000C3800EBC00202EB0010DC4A02EB4000E7
:1028B00080F82710DA4800780C3800EBC00101EBF3
:1028C0000010D64901EB400090F82B0018280CD1DD
:1028D0000021D34800780C3800EBC00202EB001056
:1028E000CE4A02EB400080F82B10CD4800780C381F
:1028F00000EBC00101EB0010C84901EB400090F86B
:102900002C003D280CD10021C54800780C3800EB84
:10291000C00202EB0010C14A02EB400080F82C100C
:10292000BF4800780C3800EBC00101EB0010BB4938
:1029300001EB4000407E18280BD10021B8480078F8
:102940000C3800EBC00202EB0010B44A02EB40006E
:102950004176B34800780C3800EBC00101EB001061
:10296000AE4901EB4000807E3D280BD10021AC48F0
:1029700000780C3800EBC00202EB0010A74A02EB13
:1029800040008176A64800780C3800EBC00101EBCE
:102990000010A24901EB4000807F18280BD10021D4
:1029A0009F4800780C3800EBC00202EB00109B4AF5
:1029B00002EB400081779A4800780C3800EBC001A8
:1029C00001EB0010954901EB4000C07F3D280BD181
:1029D0000021934800780C3800EBC00202EB001095
:1029E0008E4A02EB4000C1778D4800780C3800EB2E
:1029F000C00101EB0010894901EB400090F8230071
:102A000018280CD10021864800780C3800EBC00251
:102A100002EB0010814A02EB400080F8231080484E
:102A200000780C3800EBC00101EB00107B4901EB92
:102A3000400090F824003D280CD10021784800780F
:102A40000C3800EBC00202EB0010744A02EB4000AD
:102A500080F82410724800780C3800EBC00101EBBC
:102A600000106E4901EB400090F8280018280CD1A6
:102A700000216B4800780C3800EBC00202EB00101C
:102A8000664A02EB400080F82810654800780C3850
:102A900000EBC00101EB0010604901EB400090F831
:102AA00029003D280CD100215D4800780C3800EB4E
:102AB000C00202EB0010594A02EB400080F82910D6
:102AC000574800780C3800EBC00101EB0010534967
:102AD00001EB400090F82D0018280CD1002150483F
:102AE00000780C3800EBC00202EB00104B4A02EBFE
:102AF000400080F82D104A4800780C3800EBC001E7
:102B000001EB0010454901EB400090F82E003D28F4
:102B10000CD10021424800780C3800EBC00202EBD7
:102B200000103E4A02EB400080F82E10FEE33C48C5
:102B300000780C3820B93B480078401C39490870AF
:102B4000374800780C38012804D137480078401CF9
:102B500035490870324800780C38022804D13348CF
:102B60000078401C314908702D4800780C38032843
:102B700004D12F480078401C2D490870284800785F
:102B80000C38042804D12B480078401C29490870CF
:102B9000234800780C38052804D127480078401CC9
:102BA000254908701E4800780C38062804D12348AF
:102BB0000078401C21490870194800780C38072813
:102BC00004D11F480078401C1D4908701448007843
:102BD0000C381C49095C124800780C3800EBC00224
:102BE00002EB00100D4A02EB400041700D480078E6
:102BF00001283ADC0C480078012836DC0B480078C4
:102C0000012832DC0A48007801282EDC09480078C7
:102C100001282ADC08480078012815E0202100203E
:102C200018130020571300205813002059130020B8
:102C30005A1300205B1300205C1300205D1300205A
:102C40005E130020162100200FDCFE4800780128CA
:102C50000BDCFD480078012807DCFC4800780128DF
:102C600003DCFB480078012861DDFA4800780C3865
:102C700000EBC00101EB0010F74901EB4000407888
:102C800001280AD1F5480078401CF449087008462C
:102C90000078072801D101200870EE4800780C3830
:102CA00000EBC00101EB0010EB4901EB4000407864
:102CB00002280AD1EA480078401CE9490870084611
:102CC0000078032801D101200870E24800780C3810
:102CD00000EBC00101EB0010DF4901EB4000407840
:102CE00003280AD1DF480078401CDE4908700846F6
:102CF0000078072801D101200870D648007800E04C
:102D000016E00C3800EBC00101EB0010D24901EBDA
:102D10004000407804280AD1D3480078401CD249AA
:102D20000870084600781A2801D101200870FDE6D5
:102D3000CE48007898BBCE48007880BBCD4800785C
:102D400068BBCD48007850BBCC48007838BBCC4835
:102D5000007820BBBB48007808BBBB480078F0B9BE
:102D6000BA480078D8B9BA480078C0B9B9480078EC
:102D70000C38C449084410900078401EC1B2109825
:102D80000170B44800780C38BE49085CFF2805D1B2
:102D90000421B04800780C38BA4A115471E3FFE7B7
:102DA000AC4800780C3800EBC00101EB0010AA49D8
:102DB00001EB40004078D8B9A64800780C3800EB09
:102DC000C00101EB0010A44901EB400090F8300075
:102DD00008B9012100E000219E4800780C3800EB82
:102DE000C00202EB00109C4A02EB400080F8301059
:102DF000984800780C3800EBC00101EB00109649B0
:102E000001EB4000407801287ED1944800780128E9
:102E100029D1904800780C3800EBC00101EB00107C
:102E20008D4901EB40004079401E8A4909780C39F0
:102E300001EBC10202EB0111874A02EB41018979E2
:102E4000884210DD834800780C3800EBC00101EBAC
:102E50000010114601EB4000401D10900078401E0C
:102E6000C1B2109801707D480078022810D17948CD
:102E700000780C3800EBC00101EB0010764901EB43
:102E80004000801D10900078401EC1B21098017063
:102E900072480078032810D16E4800780C3800EB97
:102EA000C00101EB00106C4901EB40000C301090A8
:102EB0000078401CC1B2109801706848007804285E
:102EC00019D1644800780C3800EBC00101EB001008
:102ED000614901EB4000407B08B9012100E000217D
:102EE0005C4800780C3800EBC00202EB00105A4A34
:102EF00002EB40004173574800780C3800EBC001EA
:102F000001EB0010544900E085E001EB4000007B3C
:102F100004280BD100214F4800780C3800EBC00288
:102F200002EB00104C4A02EB400001734B48007862
:102F3000052829D1474800780C3800EBC00101EB87
:102F40000010454901EB40000089401E41490978C5
:102F50000C3901EBC10202EB01113F4A02EB4101C6
:102F60004989884210DD3B4800780C3800EBC001ED
:102F700001EB0010114601EB400008301090008872
:102F8000401E81B21098018034480078062810D184
:102F9000304800780C3800EBC00101EB00102E49DE
:102FA00001EB40000A3010900088401E81B210985A
:102FB0000180284800780C3800EBC00101EB0010BC
:102FC000254901EB4000408901280BDC0121214803
:102FD00000780C3800EBC00202EB00101E4A02EB36
:102FE000400041811B4800780C3800EBC00101EB28
:102FF0000010194901EB40008079FF280BD1002116
:10300000144800780C3800EBC00202EB0010124AA2
:1030100002EB400081710F4800780C3800EBC001D2
:1030200001EB00100C4901EB4000407802287DD1F3
:103030000B480078012833D1064800780C3800EBA3
:10304000C00121E05D1300205E1300205F1300200B
:10305000601300201813002020210020621300209C
:103060006313002064130020651300205713002011
:1030700058130020591300205A1300205B1300201E
:103080005C1300201621002001EB0010FD4901EB2C
:103090004000123010900088401E81B210980180CC
:1030A000F9480078022810D1F84800780C3800EB75
:1030B000C00101EB0010F34901EB4000103010900B
:1030C0000088401E81B210980180F04800780C38CA
:1030D00000EBC00101EB0010EA4901EB4000408A1F
:1030E0004FF6FF7188420CD142F20F71E748007829
:1030F0000C3800EBC00202EB0010E24A02EB400089
:103100004182E24800780C3800EBC00101EB00106E
:10311000DC4901EB4000008A4FF6FF7188420ED176
:1031200042F20F71D94800780C3800E007E000EB5C
:10313000C00202EB0010D34A02EB40000182D348E8
:1031400000780C3800EBC00101EB0010CD4901EB19
:103150004000407803287DD1CD480078012829D14E
:10316000CA4800780C3800EBC00101EB0010C549DB
:1031700001EB40004079401EC44909780C3901EB4D
:10318000C10202EB0111BF4A02EB41018979884279
:1031900010DDBE4800780C3800EBC00101EB0010D8
:1031A000114601EB4000401D10900078401EC1B256
:1031B00010980170B6480078022810D1B348007802
:1031C0000C3800EBC00101EB0010AE4901EB4000F0
:1031D000801D10900078401EC1B210980170AC485C
:1031E0000078032810D1A94800780C3800EBC00102
:1031F00001EB0010A34901EB40000C301090007867
:10320000401CC1B210980170A1480078042819D15F
:103210009E4800780C3800EBC00101EB0010994982
:1032200001EB4000407B08B9012100E000219748F4
:1032300000780C3800EBC00202EB0010914A02EB60
:1032400040004173914800780C3800EBC00101EB5D
:10325000001000E08EE08B4901EB4000007B042869
:103260000BD10021894800780C3800EBC00202EB3A
:103270000010844A02EB400001738548007805285D
:1032800010D1824800780C3800EBC00101EB00102F
:103290007C4901EB4000123010900088401E81B242
:1032A000109801807A480078062810D17748007875
:1032B0000C3800EBC00101EB0010724901EB40003B
:1032C000103010900088401E81B2109801806F4825
:1032D00000780C3800EBC00101EB0010694901EBEC
:1032E0004000408A4FF6FF7188420CD142F20F71C4
:1032F000664800780C3800EBC00202EB0010614A0F
:1033000002EB40004182614800780C3800EBC001BC
:1033100001EB00105B4901EB4000008A4FF6FF71A2
:1033200088420ED142F20F71584800E0FEE3007867
:103330000C3800EBC00202EB0010524A02EB4000D6
:103340000182524800780C3800EBC00101EB0010FC
:103350004C4901EB40008079FF280BD100214B48FC
:1033600000780C3800EBC00202EB0010454A02EB7B
:1033700040008171454800780C3800EBC00101EB3A
:103380000010404901EB40004078042879D14148C1
:103390000078012810D13D4800780C3800EBC001BE
:1033A00001EB0010374901EB400017301090007816
:1033B000401EC1B21098017036480078022810D122
:1033C000324800780C3800EBC00101EB00102D49A9
:1033D00001EB4000183010900078401EC1B21098E8
:1033E00001702C480078032810D1284800780C3848
:1033F00000EBC00101EB0010224901EB4000193045
:1034000010900078401EC1B21098017021480078D9
:10341000042810D11D4800780C3800EBC00101EBE6
:103420000010184901EB40001A3010900078401E3F
:10343000C1B21098017017480078052819D11348B7
:1034400000780C3800EBC00101EB00100D4901EBD6
:103450004000C07E08B9012100E000210B4800783F
:103460000C3800EBC00202EB0010064A02EB4000F1
:10347000C1760848007806281CD1044800780C382A
:103480000AE0E8E320210020631300201813002045
:10349000641300206513002000EBC00101EB001055
:1034A000FE4901EB40001C3010900078401EC1B274
:1034B00010980170FA480078072810D1F948007870
:1034C0000C3800EBC00101EB0010F44901EB4000A7
:1034D0001D3010900078401EC1B210980170F04865
:1034E0000078082810D1EF4800780C3800EBC001B4
:1034F00001EB0010E94901EB40001E30109000780C
:10350000401EC1B210980170E5480078092810D11A
:10351000E44800780C3800EBC00101EB0010DF49F3
:1035200001EB40001F3010900078401EC1B210988F
:103530000170DB4800780A281BD1DA4800780C3883
:1035400000EBC00101EB0010D44901EB400090F802
:10355000200008B9012100E00021D24800780C3891
:1035600000EBC00202EB0010CC4A02EB400080F8F6
:103570002010CB4800780B2810D1CA4800780C38AE
:1035800000EBC00101EB0010C44901EB4000213009
:1035900010900078401EC1B210980170C0480078A9
:1035A0000C2810D1BF4800780C3800EBC00101EBAB
:1035B0000010BA4901EB4000223010900078401E04
:1035C000C1B210980170B64800780D2810D1B548E6
:1035D00000780C3800EBC00101EB0010AF4901EBA3
:1035E0004000233010900078401EC1B21098017046
:1035F000AB4800780E2810D1AA4800780C3800EBB0
:10360000C00101EB0010A54901EB400024301090EF
:103610000078401EC1B210980170A14800780F28B0
:103620001BD1A04800780C3800EBC00101EB001062
:103630009A4901EB400090F8250008B9012100E00B
:103640000021984800780C3800EBC00202EB001013
:10365000924A02EB400080F825109148007810282B
:1036600010D1904800780C3800EBC00101EB00103D
:103670008A4901EB4000263010900078401EC1B20C
:103680001098017086480078112810D1854800787C
:103690000C3800EBC00101EB0010804901EB400049
:1036A000273010900078401EC1B2109801707C48FD
:1036B0000078122810D17B4800780C3800EBC0014C
:1036C00001EB0010754901EB4000283010900078A4
:1036D000401EC1B21098017071480078132810D1B3
:1036E000704800780C3800EBC00101EB00106B490A
:1036F00001EB4000293010900078401EC1B21098B4
:1037000001706748007814281BD1664800780C388F
:1037100000EBC00101EB0010604901EB400090F8A4
:103720002A0008B9012100E000215E4800780C3829
:1037300000EBC00202EB0010584A02EB400080F898
:103740002A1057480078152810D1564800780C38B0
:1037500000EBC00101EB0010504901EB40002B30A1
:1037600010900078401EC1B2109801704C4800784B
:10377000162810D14B4800780C3800EBC00101EB43
:103780000010464901EB40002C3010900078401E9C
:10379000C1B21098017042480078172810D14148F2
:1037A00000780C3800EBC00101EB00103B4901EB45
:1037B00040002D3010900078401EC1B2109801706A
:1037C00037480078182810D1364800780C3800EBBC
:1037D000C00101EB0010314901EB40002E30109088
:1037E0000078401EC1B2109801702D480078192849
:1037F0001BD12C4800780C3800EBC00101EB001005
:10380000264901EB400090F82F0008B9012100E0A3
:103810000021244800780C3800EBC00202EB0010B5
:103820001E4A02EB400080F82F101E4800780C382A
:1038300000EBC00101EB0010184901EB4000C07D16
:10384000FF280BD11721174800780C3800EBC00275
:1038500002EB0010114A02EB4000C17511480078DC
:103860000C3800EBC00101EB00100C4901EB4000EB
:10387000007EFF280BD13C210A4800780C3800EB71
:10388000C00202EB0010054A02EB40000176054839
:1038900000780C3800EBC00106E000002021002079
:1038A000651300201813002001EB0010FE4901EB06
:1038B0004000007FFF280BD11721FC4800780C380E
:1038C00000EBC00202EB0010F74A02EB4000017768
:1038D000F64800780C3800EBC00101EB0010F2490B
:1038E00001EB4000407FFF280BD13C21EF480078DE
:1038F0000C3800EBC00202EB0010EB4A02EB400078
:103900004177EA4800780C3800EBC00101EB001069
:10391000E54901EB400090F82100FF280CD1172168
:10392000E24800780C3800EBC00202EB0010DE4ADF
:1039300002EB400080F82110DC4800780C3800EBE6
:10394000C00101EB0010D84901EB400090F82200C3
:10395000FF280CD13C21D54800780C3800EBC00280
:1039600002EB0010D04A02EB400080F82210CF4852
:1039700000780C3800EBC00101EB0010CA4901EBE4
:10398000400090F82600FF280CD11721C748007886
:103990000C3800EBC00202EB0010C34A02EB4000FF
:1039A00080F82610C14800780C3800EBC00101EB0C
:1039B0000010BD4901EB400090F82700FF280CD112
:1039C0003C21BA4800780C3800EBC00202EB001032
:1039D000B54A02EB400080F82710B44800780C3854
:1039E00000EBC00101EB0010AF4901EB400090F883
:1039F0002B00FF280CD11721AC4800780C3800EBC5
:103A0000C00202EB0010A84A02EB400080F82B1025
:103A1000A64800780C3800EBC00101EB0010A24969
:103A200001EB400090F82C00FF280CD13C219F486E
:103A300000780C3800EBC00202EB00109A4A02EB4F
:103A4000400080F82C10994800780C3800EBC00139
:103A500001EB0010944901EB4000407EFF280BD1A0
:103A60001721924800780C3800EBC00202EB0010DE
:103A70008D4A02EB400041768C4800780C3800EB10
:103A8000C00101EB0010884901EB4000807EFF2857
:103A90000BD13C21854800780C3800EBC00202EBCA
:103AA0000010814A02EB40008176804800780C3893
:103AB00000EBC00101EB00107B4901EB4000807F6F
:103AC000FF280BD11721794800780C3800EBC00291
:103AD00002EB0010744A02EB4000817773480078D3
:103AE0000C3800EBC00101EB00106F4901EB400006
:103AF000C07FFF280BD13C216C4800780C3800EBCC
:103B0000C00202EB0010684A02EB4000C177674830
:103B100000780C3800EBC00101EB0010624901EBAA
:103B2000400090F82300FF280ED100E095E0172117
:103B30005E4800780C3800EBC00202EB00105A4AD5
:103B400002EB400080F82310584800780C3800EB56
:103B5000C00101EB0010544901EB400090F8240033
:103B6000FF280CD13C21514800780C3800EBC002F2
:103B700002EB00104C4A02EB400080F824104B4846
:103B800000780C3800EBC00101EB0010464901EB56
:103B9000400090F82800FF280CD1172143480078F6
:103BA0000C3800EBC00202EB00103F4A02EB400071
:103BB00080F828103D4800780C3800EBC00101EB7C
:103BC0000010394901EB400090F82900FF280CD182
:103BD0003C21364800780C3800EBC00202EB0010A4
:103BE000314A02EB400080F82910304800780C3848
:103BF00000EBC00101EB00102B4901EB400090F8F5
:103C00002D00FF280CD11721284800780C3800EB34
:103C1000C00202EB0010244A02EB400080F82D1095
:103C2000224800780C3800EBC00101EB00101E495F
:103C300001EB400090F82E00FF280CD13C211B48DE
:103C400000780C3800EBC00202EB0010164A02EBC1
:103C5000400080F82E1000E000BF19E01448007802
:103C600012490870084600780C3800EBC00101EBDF
:103C70000010104901EB400041780C4800780C38E6
:103C80000D4A11544FF4FA720A490748FCF791FAA9
:103C90000A480078002841F07B8309480078002812
:103CA000F9D1084800780FE02021002018130020E7
:103CB000451300201011002016210020571300206A
:103CC00058130020591300200028E4D1FE48007842
:103CD0000028E0D1FD4800780028DCD1FC480078BD
:103CE0000028D8D1FB4800780028D4D1FA480078C1
:103CF0000028D0D1F94800780028CCD1F8480078C5
:103D00000028C8D10120F7490870F749087001213F
:103D1000F64801700120F6490870F6490870F64926
:103D20000870F6490870F6490870F6490870F649B7
:103D30000870F64800780C38F549085C052881F0D1
:103D40002583DFE800F0034AFDFCFB005C22232111
:103D5000A02013F011F95A222321C02013F00CF9EE
:103D60005B222321E02013F007F997226D218020A8
:103D700013F002F947226D21C02013F0FDF89722BD
:103D8000B221802013F0F8F84622B221C02013F0AF
:103D9000F3F8DE4800780C3800EBC00101EB0010AE
:103DA000DC4901EB400090F8300050B196226D21C3
:103DB000F02013F0E1F89522B221F02013F0DCF8A6
:103DC00009E095226D21F02013F0D6F89622B22159
:103DD000F02013F0D1F801F0DABACC4800780C38B2
:103DE00000EBC00101EB0010CA4901EB4000407933
:103DF0001090C64800780C3800EBC00101EB0011B0
:103E0000C44800EB410080790F90C04800780C381E
:103E100000EBC00101EB0010BE4901EB400000893E
:103E20000E90BA4800780C3800EBC00101EB00108E
:103E3000B84901EB400040890D9027222321A020A2
:103E400013F09AF80A222321C02013F095F82622B5
:103E50002321E02013F090F829224321062013F0BB
:103E60008BF82A224321262013F086F827224321AB
:103E7000462013F081F82C224321662013F07CF8B1
:103E800029226721062013F077F82B2267212620AC
:103E900013F072F827226721462013F06DF82C22C8
:103EA0006721662013F068F832228B21062013F078
:103EB00063F833228B21262013F05EF834228B2105
:103EC000462013F059F835228B21662013F054F860
:103ED00036228B21862013F04FF82C228B21A6202E
:103EE00013F04AF83722AF21062013F045F83822A4
:103EF000AF21262013F040F83922AF21462013F0DD
:103F00003BF83A22AF21662013F036F82C22AF217D
:103F1000862013F031F86922D321062013F02CF803
:103F20006A22D321262013F027F82922D321462004
:103F300013F022F82A22D321662002E0FEE390E269
:103F4000A5E113F019F85822D321862013F014F8B4
:103F50002C22D321A62013F00FF86922F721062086
:103F600013F00AF86A22F721262013F005F8292217
:103F7000F721462013F000F82B22F721662012F0DB
:103F8000FBFF5822F721862012F0F6FF2C22F721A2
:103F9000A62012F0F1FF0A21109890FBF1F0C0B2B8
:103FA000019000204FF6FF73009043218620019A74
:103FB00012F0A6FF0A21109890FBF1F201FB12000B
:103FC000C0B2019000204FF6FF730090432196206D
:103FD000019A12F095FF0A210F9890FBF1F0C0B200
:103FE000019000204FF6FF73009067218620019A10
:103FF00012F086FF0A210F9890FBF1F201FB1200EC
:10400000C0B2019000204FF6FF7300906721962008
:10401000019A12F075FF3D4800780C3800EBC001A2
:1040200001EB00103B4901EB4000007BA8B92722BF
:104030008B21C72012F0A0FF42228B21E72012F033
:104040009BFF3F228B2140F2071012F095FF2622A2
:104050008B2140F2271012F08FFF2C4800780C388B
:1040600000EBC00101EB00112A4800EB4100007B8E
:10407000012815D127228B21C72012F07DFF422273
:104080008B21E72012F078FF40228B2140F20710AD
:1040900012F072FF26228B2140F2271012F06CFFE3
:1040A0001A4800780C3800EBC00101EB00111948E8
:1040B00000EB4100007B02283ED127228B21C72044
:1040C00012F05AFF422227E05A1300205B1300200F
:1040D0005C1300205D1300205E1300205F1300209E
:1040E000601300204D1300204E1300204F130020BA
:1040F00050130020511300205213002053130020AE
:1041000054130020551300205613002018130020CC
:1041100016210020202100208B21E72012F02CFF07
:1041200041228B2140F2071012F026FF26228B211C
:1041300040F2271012F020FFFE4800780C3800EB08
:10414000C00101EB0010FC4901EB4000007B03289B
:1041500015D143228B21C72012F00EFF44228B2160
:10416000E72012F009FF27228B2140F2071012F0FE
:1041700003FF42228B2140F2271012F0FDFEED4892
:1041800000780C3800EBC00101EB0010EA4901EBAC
:104190004000407B50B13D22AF21A72012F0ECFE41
:1041A0003E22AF21C72012F0E7FE09E03B22AF21FB
:1041B000A72012F0E1FE3C22AF21C72012F0DCFE66
:1041C00064210E9890FBF1F0C0B2019000204FF6F0
:1041D000FF730090D321C820019A12F091FE0A21AA
:1041E0000E9890FBF1F090FBF1F201FB1200C0B2CF
:1041F000019000204FF6FF730090D321D820019A40
:1042000012F07EFE0A210E9890FBF1F201FB1200E3
:10421000C0B2019000204FF6FF730090D321E82038
:10422000019A12F06DFE64210D9890FBF1F0C0B27E
:10423000019000204FF6FF730090F721C820019AEB
:1042400012F05EFE0A210D9890FBF1F090FBF1F266
:1042500001FB1200C0B2019000204FF6FF730090E6
:10426000F721D820019A12F04BFE0A210D9890FBFD
:10427000F1F201FB1200C0B2019000204FF6FF7373
:104280000090F721E820019A12F03AFEA3E5A94830
:1042900000780C3800EBC00101EB0010A64901EBDF
:1042A0004000408A0C90A34800780C3800EBC00115
:1042B00001EB0010A04901EB4000008A0B90122294
:1042C0002321A02012F058FE0A222321C02012F040
:1042D00053FE26222321E02012F04EFE30224321FD
:1042E000062012F049FE31224321262012F044FE1E
:1042F00012224321462012F03FFE13224321662062
:1043000012F03AFE2C224321862012F035FE2E2296
:104310008B21062012F030FE2F228B21262012F056
:104320002BFE12228B21462012F026FE13228B2117
:10433000662012F021FE2C228B21862012F01CFE1A
:104340004FF47A710C9890FBF1F0C0B2019000200C
:104350004FF6FF7300904321A620019A12F0D0FD82
:1043600064210C9890FBF1F00A2190FBF1F201FB23
:104370001200C0B2019000204FF6FF73009043215D
:10438000B620019A12F0BCFD0A210C9890FBF1F0C6
:1043900090FBF1F201FB1200C0B2019000204FF639
:1043A000FF7300904321C620019A12F0A9FD0A2153
:1043B0000C9890FBF1F201FB1200C0B201900020BA
:1043C0004FF6FF7300904321D620019A12F098FD1A
:1043D0004FF47A710B9890FBF1F0C0B2019000207D
:1043E0004FF6FF7300908B21A620019A12F088FDF2
:1043F00064210B9890FBF1F00A2190FBF1F201FB94
:104400001200C0B2019000204FF6FF7300908B2184
:10441000B620019A12F074FD0A210B9890FBF1F07E
:1044200090FBF1F201FB1200C0B2019000204FF6A8
:10443000FF7300908B21C620019A12F061FD0A21C2
:104440000B9890FBF1F201FB1200C0B2019000202A
:104450004FF6FF7300908B21D620019A12F050FD89
:10446000B9E4344800780C3800EBC00101EB0010CF
:10447000314901EB400040790A902E4800780C3811
:1044800000EBC00101EB00102B4901EB40008079EB
:104490000990284800780C3800EBC00101EB0010AF
:1044A000254901EB4000408A0890224800780C38EA
:1044B00000EBC00101EB00101F4901EB4000008A36
:1044C000079027222321A02012F056FD122223213B
:1044D000C02012F051FD0A222321E02012F04CFDF1
:1044E00029224321062012F047FD2A2243212620BB
:1044F00012F042FD27224321462012F03DFD2C22DE
:104500004321662012F038FD29226721062012F08F
:1045100033FD2B226721262012F02EFD2722672152
:10452000462012F029FD2C226721662012F024FD7E
:10453000322203E018130020202100208B210620C6
:1045400012F01AFD33228B21262012F015FD3422A1
:104550008B21462012F010FD35228B21662012F0AF
:104560000BFD36228B21862012F006FD2C228B219A
:10457000A62012F001FD3722AF21062012F0FCFC2C
:104580003822AF21262012F0F7FC3922AF21462035
:1045900012F0F2FC3A22AF21662012F0EDFC2C2240
:1045A000AF21862012F0E8FC0A210A9890FBF1F076
:1045B000C0B2019000204FF6FF7300904321862087
:1045C000019A12F09DFC0A210A9890FBF1F201FB7E
:1045D0001200C0B2019000204FF6FF7300904321FB
:1045E0009620019A12F08CFC0A21099890FBF1F0B8
:1045F000C0B2019000204FF6FF7300906721862023
:10460000019A12F07DFC0A21099890FBF1F201FB5E
:104610001200C0B2019000204FF6FF730090672196
:104620009620019A12F06CFCFE4800780C3800EBE2
:10463000C00101EB0010FC4901EB4000007BA8B970
:1046400027228B21C72012F097FC42228B21E720E2
:1046500012F092FC3F228B2140F2071012F08CFCEA
:1046600026228B2140F2271012F086FCED480078BC
:104670000C3800EBC00101EB0010EB4901EB4000EE
:10468000007B012815D127228B21C72012F074FC52
:1046900042228B21E72012F06FFC40228B2140F256
:1046A000071012F069FC26228B2140F2271012F02D
:1046B00063FCDC4800780C3800EBC00101EB001013
:1046C000D94901EB4000007B022815D127228B211C
:1046D000C72012F051FC42228B21E72012F04CFC43
:1046E00041228B2140F2071012F046FC26228B213A
:1046F00040F2271012F040FCCA4800780C3800EB5A
:10470000C00101EB0010C84901EB4000007B032809
:1047100017D143228B21C72012F02EFC44228B217B
:10472000E72012F029FC27228B2140F2071012F01B
:1047300023FC42228B2140F2271000E0E5E012F03A
:104740001BFCB84800780C3800EBC00101EB0010EE
:10475000B54901EB4000407B50B13D22AF21A7207D
:1047600012F00AFC3E22AF21C72012F005FC09E03E
:104770003B22AF21A72012F0FFFB3C22AF21C72034
:1047800012F0FAFB3022D321062012F0F5FB312281
:10479000D321262012F0F0FB1222D321462012F062
:1047A000EBFB1322D321662012F0E6FB2C22D3214F
:1047B000862012F0E1FB2E22F721062012F0DCFB0E
:1047C0002F22F721262012F0D7FB1222F7214620B4
:1047D00012F0D2FB1322F721662012F0CDFB2C221F
:1047E000F721862012F0C8FB4FF47A71089890FBED
:1047F000F1F0C0B2019000204FF6FF730090D3217A
:10480000A620019A12F07CFB6421089890FBF1F03D
:104810000A2190FBF1F201FB1200C0B201900020CE
:104820004FF6FF730090D321B620019A12F068FB77
:104830000A21089890FBF1F090FBF1F201FB1200C5
:10484000C0B2019000204FF6FF730090D321C62024
:10485000019A12F055FB0A21089890FBF1F201FB36
:104860001200C0B2019000204FF6FF730090D321D8
:10487000D620019A12F044FB4FF47A71079890FB0E
:10488000F1F0C0B2019000204FF6FF730090F721C5
:10489000A620019A12F034FB6421079890FBF1F0F6
:1048A0000A2190FBF1F201FB1200C0B2019000203E
:1048B0004FF6FF730090F721B620019A12F020FB0B
:1048C0000A21079890FBF1F090FBF1F201FB120036
:1048D000C0B2019000204FF6FF730090F721C62070
:1048E000019A12F00DFB0A21079890FBF1F201FBEF
:1048F0001200C0B2019000204FF6FF730090F72124
:10490000D620019A12F0FCFAFDE3142102A8FBF76D
:1049100077FC444800780C3800EBC00101EB001034
:10492000414901EB4000C07D8DF808003D4800780A
:104930000C3800EBC00101EB00103B4901EB4000DB
:10494000007E8DF80900374800780C3800EBC00174
:1049500001EB0010344901EB4000407E8DF80A0065
:10496000304800780C3800EBC00101EB00102E49F4
:1049700001EB4000807E8DF80B002A4800780C384F
:1049800000EBC00101EB0010274901EB4000007F64
:104990008DF80C00234800780C3800EBC00101EBC7
:1049A0000010214901EB4000417F8DF80D101D489A
:1049B00000780C3800EBC00101EB00101A4901EB44
:1049C0004000817F8DF80E10164800780C3800EBFF
:1049D000C00101EB0010144901EB4000C17F8DF8CC
:1049E0000F10104800780C3800EBC00101EB0010EC
:1049F0000D4901EB400090F821008DF810000948A6
:104A000000780C3800EBC00101EB0010064901EB07
:104A1000400090F822108DF81110024800780C38F0
:104A200004E00000181300202021002000EBC0014A
:104A300001EB0010FE4901EB400090F823108DF8C7
:104A40001210FC4800780C3800EBC00101EB00109C
:104A5000F74901EB400090F824108DF81310F54849
:104A600000780C3800EBC00101EB0010F04901EBBD
:104A7000400090F826008DF81400EE4800780C38BD
:104A800000EBC00101EB0010E94901EB400090F898
:104A900027108DF81510E74800780C3800EBC0019E
:104AA00001EB0010E24901EB400090F828108DF86E
:104AB0001610E04800780C3800EBC00101EB001044
:104AC000DB4901EB400090F829108DF81710D94808
:104AD00000780C3800EBC00101EB0010D44901EB69
:104AE000400090F82B008DF81800D24800780C3860
:104AF00000EBC00101EB0010CD4901EB400090F844
:104B00002C108DF81910CB4800780C3800EBC00140
:104B100001EB0010C64901EB400090F82D108DF814
:104B20001A10C44800780C3800EBC00101EB0010EB
:104B3000BF4901EB400090F82E108DF81B10282281
:104B40002321A02012F018FA12222321C02012F0F3
:104B500013FA0A222321E02012F00EFA00204FF46B
:104B6000FC63732243210090502012F079FA002058
:104B70004FF4FC63742243210090702012F070FA0D
:104B800000204FF4FC63122243210090902012F089
:104B900067FA00204FF4FC63132243210090B020F9
:104BA00012F05EFA00204FF4784375224321009002
:104BB0004FF4887012F054FA00204FF478437622B4
:104BC000432100904FF4987012F04AFA00204FF4FD
:104BD00078431222432100904FF4A87012F040FA5B
:104BE00000204FF478431322432100904FF4B87013
:104BF00012F036FA4E226321002012F0BDF9122283
:104C00006321602012F0B8F928226321A02012F05D
:104C1000B3F912226321100112F0AEF928226321A8
:104C20004FF4B07012F0A8F99DF808000A2190FB2B
:104C3000F1F0C0B2019000204FF6FF7300906321A5
:104C40004020019A12F05CF99DF808000A2190FBBF
:104C5000F1F201FB1200C0B2019000204FF6FF7389
:104C6000009063215020019A12F04AF99DF8090042
:104C70000A2190FBF1F0C0B2019000204FF6FF73C3
:104C8000009063218020019A12F03AF99DF8090002
:104C90000A2190FBF1F201FB1200C0B2019000204A
:104CA0004FF6FF73009063219020019A12F028F9CB
:104CB0009DF80A000A2190FBF1F0C0B2019000209B
:104CC0004FF6FF73009063214FF48070019A12F049
:104CD00017F99DF80A000A2190FBF1F201FB12007E
:104CE000C0B2019000204FF6FF73009063214FF493
:104CF0008870019A12F004F99DF80B000A2190FBCC
:104D0000F1F0C0B2019000204FF6FF7300906321D4
:104D10004FF4A070019A12F0F3F89DF80B000A21ED
:104D200090FBF1F201FB1200C0B2019000204FF69F
:104D3000FF73009063214FF4A870019A12F0E0F81D
:104D40003C4800780C3800EBC00101EB00103849FA
:104D500001EB4000C07E30B1462263214FF4D07099
:104D600012F00AF905E0472263214FF4D07012F0E7
:104D700003F94F228321002012F0FEF81222832132
:104D8000602012F0F9F828228321A02012F0F4F814
:104D900012228321100112F0EFF8282283214FF410
:104DA000B07012F0E9F89DF80C000A2190FBF1F0C8
:104DB000C0B2019000204FF6FF7300908321402085
:104DC000019A12F09DF89DF80C000A2190FBF1F277
:104DD00001FB1200C0B2019000204FF6FF7300905B
:104DE00083215020019A12F08BF89DF80D000A21C2
:104DF00090FBF1F0C0B2019000204FF6FF730090DD
:104E000083218020019A12F07BF89DF80D000A2181
:104E100090FBF1F201FB1200C0B2019000204FF6AE
:104E2000FF73009083219020019A12F069F803E04B
:104E300020210020181300209DF80E000A2190FB6D
:104E4000F1F0C0B2019000204FF6FF730090832173
:104E50004FF48070019A12F053F89DF80E000A2169
:104E600090FBF1F201FB1200C0B2019000204FF65E
:104E7000FF73009083214FF48870019A12F040F87C
:104E80009DF80F000A2190FBF1F0C0B201900020C4
:104E90004FF6FF73009083214FF4A070019A12F037
:104EA0002FF89DF80F000A2190FBF1F201FB120090
:104EB000C0B2019000204FF6FF73009083214FF4A1
:104EC000A870019A12F01CF8FE4800780C3800EB2C
:104ED000C00101EB0010FC4901EB400090F82000FC
:104EE00030B1462283214FF4D07012F045F805E02E
:104EF000472283214FF4D07012F03EF85022A321B4
:104F0000002012F039F81222A321602012F034F8A8
:104F10002822A321A02012F02FF81222A321100191
:104F200012F02AF82822A3214FF4B07012F024F8CE
:104F30009DF810000A2190FBF1F0C0B20190002012
:104F40004FF6FF730090A3214020019A11F0D8FF83
:104F50009DF810000A2190FBF1F201FB1200C0B293
:104F6000019000204FF6FF730090A3215020019A7A
:104F700011F0C6FF9DF811000A2190FBF1F0C0B2BC
:104F8000019000204FF6FF730090A3218020019A2A
:104F900011F0B6FF9DF811000A2190FBF1F201FB20
:104FA0001200C0B2019000204FF6FF730090A321C1
:104FB0009020019A11F0A4FF9DF812000A2190FBA5
:104FC000F1F0C0B2019000204FF6FF730090A321D2
:104FD0004FF48070019A11F093FF9DF812000A219E
:104FE00090FBF1F201FB1200C0B2019000204FF6DD
:104FF000FF730090A3214FF48870019A11F080FF95
:105000009DF813000A2190FBF1F0C0B2019000203E
:105010004FF6FF730090A3214FF4A070019A11F096
:105020006FFF9DF813000A2190FBF1F201FB1200C3
:10503000C0B2019000204FF6FF730090A3214FF4FF
:10504000A870019A11F05CFF9E4800780C3800EBC4
:10505000C00101EB00109C4901EB400090F82500D5
:1050600030B14622A3214FF4D07011F085FF05E046
:105070004722A3214FF4D07011F07EFF5122C321AB
:10508000002011F079FF1222C321602011F074FF7B
:105090002822C321A02011F06FFF1222C32110018A
:1050A00011F06AFF2822C3214FF4B07011F064FFA1
:1050B0009DF814000A2190FBF1F0C0B2019000208D
:1050C0004FF6FF730090C3214020019A11F018FFA2
:1050D0009DF814000A2190FBF1F201FB1200C0B20E
:1050E000019000204FF6FF730090C3215020019AD9
:1050F00011F006FF9DF815000A2190FBF1F0C0B2F7
:105100000190002000E042E14FF6FF730090C321C0
:105110008020019A11F0F4FE9DF815000A2190FB01
:10512000F1F201FB1200C0B2019000204FF6FF73B4
:105130000090C3219020019A11F0E2FE9DF8160024
:105140000A2190FBF1F0C0B2019000204FF6FF73EE
:105150000090C3214FF48070019A11F0D1FE9DF8A8
:1051600016000A2190FBF1F201FB1200C0B201907F
:1051700000204FF6FF730090C3214FF48870019A0E
:1051800011F0BEFE9DF817000A2190FBF1F0C0B2AD
:10519000019000204FF6FF730090C3214FF4A070E0
:1051A000019A11F0ADFE9DF817000A2190FBF1F273
:1051B00001FB1200C0B2019000204FF6FF73009077
:1051C000C3214FF4A870019A11F09AFE3D4800786F
:1051D0000C3800EBC00101EB00103B4901EB400033
:1051E00090F82A0030B14622C3214FF4D07011F05C
:1051F000C3FE05E04722C3214FF4D07011F0BCFE7E
:105200005222E321002011F0B7FE1222E321602098
:1052100011F0B2FE2822E321A02011F0ADFE1222EF
:10522000E321100111F0A8FE2822E3214FF4B07011
:1052300011F0A2FE9DF818000A2190FBF1F0C0B217
:10524000019000204FF6FF730090E3214020019A67
:1052500011F056FE9DF818000A2190FBF1F201FBB7
:105260001200C0B2019000204FF6FF730090E321BE
:105270005020019A11F044FE9DF819000A2190FB7C
:10528000F1F0C0B2019000204FF6FF730090E321CF
:105290008020019A11F034FE9DF819000A2190FB3C
:1052A000F1F201FB1200C0B2019000204FF6FF7333
:1052B0000090E3219020019A11F022FE9DF81A003F
:1052C0000A2103E0181300202021002090FBF1F0B8
:1052D000C0B2019000204FF6FF730090E3214FF41D
:1052E0008070019A11F00CFE9DF81A000A2190FBC3
:1052F000F1F201FB1200C0B2019000204FF6FF73E3
:105300000090E3214FF48870019A11F0F9FD9DF8A7
:105310001B000A2190FBF1F0C0B2019000204FF673
:10532000FF730090E3214FF4A070019A11F0E8FDA3
:105330009DF81B000A2190FBF1F201FB1200C0B2A4
:10534000019000204FF6FF730090E3214FF4A87006
:10535000019A11F0D5FDFE4800780C3800EBC00131
:1053600001EB0010FB4901EB400090F82F0030B139
:105370004622E3214FF4D07011F0FEFD05E04722F4
:10538000E3214FF4D07011F0F7FD00E000BF14E00E
:105390000020F1490870F1490870F1490870F1499D
:1053A0000870F1490870F1490870F1490870F14935
:1053B0000870F1490870F1490870F1480078D0B9D7
:1053C000F0480078B8B9F0480078A0B9EF48007804
:1053D00088B9EF48007870B9EE48007858B9EE48BF
:1053E000007840B9ED48007828B9ED48007810B948
:1053F000EC480078F0B3D64800780C3800EBC001D8
:1054000001EB0010D34901EB4000407890BB5C22D7
:105410002321A02011F0B0FD5A222321C02011F039
:10542000ABFD5B222321E02011F0A6FD97226D2128
:10543000802011F0A1FD47226D21C02011F09CFDBC
:105440009722B221802011F097FD4622B221C02080
:1054500011F092FDBE4800780C3800EBC00101EB62
:105460000010BC4901EB400090F8300060B196227A
:105470006D2100E012E0F02011F07EFD9522B221B6
:10548000F02011F079FD09E095226D21F02011F056
:1054900073FD9622B221F02011F06EFDB84800781D
:1054A000D8B9B8480078C0B9B7480078A8B9B748A3
:1054B000007890B9B648007878B9B648007860B9F5
:1054C000B548007848B9B548007830B9B448007894
:1054D00018B9B448007800287ED09D4800780C3870
:1054E00000EBC00101EB00109A4901EB400040784D
:1054F000012871D1964800780C3800EBC00101EB0F
:105500000010944901EB40004079109090480078D9
:105510000C3800EBC00101EB00108E4901EB40009C
:1055200080790F908A4800780C3800EBC00101EBBD
:105530000010884901EB400000890E9084480078F3
:105540000C3800EBC00101EB0011824800EB410078
:1055500040890D9027222321A02011F00DFD0A2261
:105560002321C02011F008FD26222321E02011F084
:1055700003FD29224321062011F0FEFC2A224321AB
:10558000262011F0F9FC27224321462011F0F4FCDB
:105590002C224321662011F0EFFC292267210620EE
:1055A00011F0EAFC2B226721262011F0E5FC2722CE
:1055B0006721462011F0E0FC2C226721662011F0C3
:1055C000DBFC32228B21062011F0D6FC33228B210A
:1055D000262011F0D1FC00E088E334228B21462004
:1055E00011F0CAFC35228B21662011F0C5FC362251
:1055F0008B21862011F0C0FC2C228B21A62011F0DB
:10560000BBFC3722AF21062011F0B6FC3822AF21B7
:10561000262011F0B1FC3922AF21462011F0ACFC5C
:105620003A22AF21662011F0A7FC2C22AF21862060
:1056300011F0A2FC6922D321062011F09DFC6A2200
:10564000D321262011F098FC2922D321462011F0E5
:1056500093FC2A22D321662011F08EFC5822D321FC
:10566000862011F089FC2C22D321A62011F084FC85
:105670006922F721062011F07FFC6A22F7212620FB
:1056800011F07AFC2922F721462011F075FC2B221B
:10569000F721662011F070FC5822F721862011F0C6
:1056A0006BFC2C22F721A62011F066FC3E48007806
:1056B00001281FD00A21109890FBF1F0C0B20C9085
:1056C00000204FF6FF730090432186200C9A11F0C2
:1056D00017FC0A21109890FBF1F201FB1200C0B2F6
:1056E0000C9000204FF6FF730090432196200C9AF7
:1056F00011F006FC2C48007802281FD00A210F98D0
:1057000090FBF1F0C0B20C9000204FF6FF730090B8
:10571000672186200C9A11F0F3FB0A210F9890FB69
:10572000F1F201FB1200C0B20C9000204FF6FF73A3
:105730000090672196200C9A11F0E2FB1A4800783D
:1057400003287CD0024800780C3800EBC0012DE023
:1057500018130020202100204D1300204E1300209C
:105760004F1300205013002051130020521300202B
:10577000531300205413002055130020561300200B
:105780005713002058130020591300205A130020EB
:105790005B1300205C1300205D1300205E130020CB
:1057A0005F130020601300206213002001EB001043
:1057B000FE4901EB4000007BA8B927228B21C720BE
:1057C00011F0DAFB42228B21E72011F0D5FB3F22BA
:1057D0008B2140F2071011F0CFFB26228B2140F2E3
:1057E000271011F0C9FBF24800780C3800EBC0011B
:1057F00001EB0010ED4901EB4000007B012815D1C1
:1058000027228B21C72011F0B7FB42228B21E720F2
:1058100011F0B2FB40228B2140F2071011F0ACFBDB
:1058200026228B2140F2271011F0A6FBE0480078D9
:105830000C3800EBC00101EB0010DC4900E03DE05A
:1058400001EB4000007B022815D127228B21C720C5
:1058500011F092FB42228B21E72011F08DFB4122B7
:105860008B2140F2071011F087FB26228B2140F29A
:10587000271011F081FBCE4800780C3800EBC001F6
:1058800001EB0010C94901EB4000007B032815D152
:1058900043228B21C72011F06FFB44228B21E7208C
:1058A00011F06AFB27228B2140F2071011F064FBF4
:1058B00042228B2140F2271011F05EFBBD48007898
:1058C000042820D0BA4800780C3800EBC00101EB66
:1058D0000010B64901EB4000407B50B13D22AF21A2
:1058E000A72011F049FB3E22AF21C72011F044FB55
:1058F00009E03B22AF21A72011F03EFB3C22AF2163
:10590000C72011F039FBAB480078052832D064215C
:105910000E9890FBF1F0C0B20C9000204FF6FF7390
:105920000090D321C8200C9A11F0EAFA0A210E98AF
:1059300090FBF1F090FBF1F201FB1200C0B20C9071
:1059400000204FF6FF730090D321D8200C9A11F05D
:10595000D7FA0A210E9890FBF1F201FB1200C0B2B7
:105960000C9000204FF6FF730090D321E8200C9A92
:1059700011F0C6FA8F480078062832D064210D98BD
:1059800090FBF1F0C0B20C9000204FF6FF73009036
:10599000F721C8200C9A11F0B3FA0A210D9890FB58
:1059A000F1F090FBF1F201FB1200C0B20C9000206C
:1059B0004FF6FF730090F721D8200C9A11F0A0FA4F
:1059C0000A210D9890FBF1F201FB1200C0B20C907D
:1059D00000204FF6FF730090F721E8200C9A11F099
:1059E0008FFA7448007807287ED2DFE800F07D0443
:1059F0002546EEE6E5000A21109890FBF1F0C0B2D2
:105A00000C904FF6FF7000230090432186200C9AE3
:105A100011F076FA0A22109890FBF2F102FB1100C5
:105A2000C0B20C904FF6FF700023009043219620E7
:105A30000C9A11F065FA57E10A210F9890FBF1F0EA
:105A4000C0B20C904FF6FF700023009067218620B3
:105A50000C9A11F055FA0A210F9890FBF1F201FB14
:105A60001200C0B20C904FF6FF7000230090672127
:105A700096200C9A11F044FA36E14D4800780C3823
:105A800000EBC00101EB0010484901EB4000007B36
:105A9000C8B9012327228B21C72011F0A7FA0123BF
:105AA00042228B21E72011F0A1FA01233F228B2112
:105AB00040F2071011F09AFA012326228B2140F2BE
:105AC000271011F093FA3A4800780C3800EBC00127
:105AD00001EB0010354901EB4000007B01281BD190
